{
	"contracts/FundMe.sol": {
		"Fundme": {
			"abi": [
				{
					"inputs": [],
					"stateMutability": "nonpayable",
					"type": "constructor"
				},
				{
					"inputs": [
						{
							"internalType": "address",
							"name": "",
							"type": "address"
						}
					],
					"name": "addressToAmountFunded",
					"outputs": [
						{
							"internalType": "uint256",
							"name": "",
							"type": "uint256"
						}
					],
					"stateMutability": "view",
					"type": "function"
				},
				{
					"inputs": [],
					"name": "fund",
					"outputs": [],
					"stateMutability": "payable",
					"type": "function"
				},
				{
					"inputs": [
						{
							"internalType": "uint256",
							"name": "",
							"type": "uint256"
						}
					],
					"name": "funders",
					"outputs": [
						{
							"internalType": "address",
							"name": "",
							"type": "address"
						}
					],
					"stateMutability": "view",
					"type": "function"
				},
				{
					"inputs": [],
					"name": "minimunUsd",
					"outputs": [
						{
							"internalType": "uint256",
							"name": "",
							"type": "uint256"
						}
					],
					"stateMutability": "view",
					"type": "function"
				},
				{
					"inputs": [],
					"name": "owner",
					"outputs": [
						{
							"internalType": "address",
							"name": "",
							"type": "address"
						}
					],
					"stateMutability": "view",
					"type": "function"
				},
				{
					"inputs": [],
					"name": "withdraw",
					"outputs": [],
					"stateMutability": "nonpayable",
					"type": "function"
				}
			],
			"devdoc": {
				"kind": "dev",
				"methods": {},
				"version": 1
			},
			"evm": {
				"assembly": "    /* \"contracts/FundMe.sol\":167:2652  contract Fundme{... */\n  mstore(0x40, 0x80)\n    /* \"contracts/FundMe.sol\":572:581  50 * 1e18 */\n  0x02b5e3af16b1880000\n    /* \"contracts/FundMe.sol\":544:581  uint256 public minimunUsd = 50 * 1e18 */\n  0x00\n  sstore\n    /* \"contracts/FundMe.sol\":1860:1963  constructor(){... */\n  callvalue\n  dup1\n  iszero\n  tag_1\n  jumpi\n  0x00\n  dup1\n  revert\ntag_1:\n  pop\n    /* \"contracts/FundMe.sol\":1941:1951  msg.sender */\n  caller\n    /* \"contracts/FundMe.sol\":1933:1938  owner */\n  0x03\n  0x00\n    /* \"contracts/FundMe.sol\":1933:1951  owner = msg.sender */\n  0x0100\n  exp\n  dup2\n  sload\n  dup2\n  0xffffffffffffffffffffffffffffffffffffffff\n  mul\n  not\n  and\n  swap1\n  dup4\n  0xffffffffffffffffffffffffffffffffffffffff\n  and\n  mul\n  or\n  swap1\n  sstore\n  pop\n    /* \"contracts/FundMe.sol\":167:2652  contract Fundme{... */\n  dataSize(sub_0)\n  dup1\n  dataOffset(sub_0)\n  0x00\n  codecopy\n  0x00\n  return\nstop\n\nsub_0: assembly {\n        /* \"contracts/FundMe.sol\":167:2652  contract Fundme{... */\n      mstore(0x40, 0x80)\n      jumpi(tag_1, lt(calldatasize, 0x04))\n      shr(0xe0, calldataload(0x00))\n      dup1\n      0x3ccfd60b\n      eq\n      tag_2\n      jumpi\n      dup1\n      0x3e47d6f3\n      eq\n      tag_3\n      jumpi\n      dup1\n      0x8da5cb5b\n      eq\n      tag_4\n      jumpi\n      dup1\n      0xb60d4288\n      eq\n      tag_5\n      jumpi\n      dup1\n      0xdc0d3dff\n      eq\n      tag_6\n      jumpi\n      dup1\n      0xe5e18b1a\n      eq\n      tag_7\n      jumpi\n    tag_1:\n      0x00\n      dup1\n      revert\n        /* \"contracts/FundMe.sol\":1977:2618  function withdraw() public {... */\n    tag_2:\n      callvalue\n      dup1\n      iszero\n      tag_8\n      jumpi\n      0x00\n      dup1\n      revert\n    tag_8:\n      pop\n      tag_9\n      tag_10\n      jump\t// in\n    tag_9:\n      stop\n        /* \"contracts/FundMe.sol\":762:818  mapping(address => uint256) public addressToAmountFunded */\n    tag_3:\n      callvalue\n      dup1\n      iszero\n      tag_11\n      jumpi\n      0x00\n      dup1\n      revert\n    tag_11:\n      pop\n      tag_12\n      0x04\n      dup1\n      calldatasize\n      sub\n      dup2\n      add\n      swap1\n      tag_13\n      swap2\n      swap1\n      tag_14\n      jump\t// in\n    tag_13:\n      tag_15\n      jump\t// in\n    tag_12:\n      mload(0x40)\n      tag_16\n      swap2\n      swap1\n      tag_17\n      jump\t// in\n    tag_16:\n      mload(0x40)\n      dup1\n      swap2\n      sub\n      swap1\n      return\n        /* \"contracts/FundMe.sol\":1827:1847  address public owner */\n    tag_4:\n      callvalue\n      dup1\n      iszero\n      tag_18\n      jumpi\n      0x00\n      dup1\n      revert\n    tag_18:\n      pop\n      tag_19\n      tag_20\n      jump\t// in\n    tag_19:\n      mload(0x40)\n      tag_21\n      swap2\n      swap1\n      tag_22\n      jump\t// in\n    tag_21:\n      mload(0x40)\n      dup1\n      swap2\n      sub\n      swap1\n      return\n        /* \"contracts/FundMe.sol\":925:1740  function fund() public payable{... */\n    tag_5:\n      tag_23\n      tag_24\n      jump\t// in\n    tag_23:\n      stop\n        /* \"contracts/FundMe.sol\":636:660  address[] public funders */\n    tag_6:\n      callvalue\n      dup1\n      iszero\n      tag_25\n      jumpi\n      0x00\n      dup1\n      revert\n    tag_25:\n      pop\n      tag_26\n      0x04\n      dup1\n      calldatasize\n      sub\n      dup2\n      add\n      swap1\n      tag_27\n      swap2\n      swap1\n      tag_28\n      jump\t// in\n    tag_27:\n      tag_29\n      jump\t// in\n    tag_26:\n      mload(0x40)\n      tag_30\n      swap2\n      swap1\n      tag_22\n      jump\t// in\n    tag_30:\n      mload(0x40)\n      dup1\n      swap2\n      sub\n      swap1\n      return\n        /* \"contracts/FundMe.sol\":544:581  uint256 public minimunUsd = 50 * 1e18 */\n    tag_7:\n      callvalue\n      dup1\n      iszero\n      tag_31\n      jumpi\n      0x00\n      dup1\n      revert\n    tag_31:\n      pop\n      tag_32\n      tag_33\n      jump\t// in\n    tag_32:\n      mload(0x40)\n      tag_34\n      swap2\n      swap1\n      tag_17\n      jump\t// in\n    tag_34:\n      mload(0x40)\n      dup1\n      swap2\n      sub\n      swap1\n      return\n        /* \"contracts/FundMe.sol\":1977:2618  function withdraw() public {... */\n    tag_10:\n        /* \"contracts/FundMe.sol\":2033:2052  uint256 funderIndex */\n      0x00\n        /* \"contracts/FundMe.sol\":2029:2238  for(uint256 funderIndex =0; funderIndex < funders.length; funderIndex ++){... */\n    tag_36:\n        /* \"contracts/FundMe.sol\":2071:2078  funders */\n      0x01\n        /* \"contracts/FundMe.sol\":2071:2085  funders.length */\n      dup1\n      sload\n      swap1\n      pop\n        /* \"contracts/FundMe.sol\":2057:2068  funderIndex */\n      dup2\n        /* \"contracts/FundMe.sol\":2057:2085  funderIndex < funders.length */\n      lt\n        /* \"contracts/FundMe.sol\":2029:2238  for(uint256 funderIndex =0; funderIndex < funders.length; funderIndex ++){... */\n      iszero\n      tag_37\n      jumpi\n        /* \"contracts/FundMe.sol\":2125:2139  address funder */\n      0x00\n        /* \"contracts/FundMe.sol\":2142:2149  funders */\n      0x01\n        /* \"contracts/FundMe.sol\":2150:2161  funderIndex */\n      dup3\n        /* \"contracts/FundMe.sol\":2142:2162  funders[funderIndex] */\n      dup2\n      sload\n      dup2\n      lt\n      tag_39\n      jumpi\n      tag_40\n      tag_41\n      jump\t// in\n    tag_40:\n    tag_39:\n      swap1\n      0x00\n      mstore\n      keccak256(0x00, 0x20)\n      add\n      0x00\n      swap1\n      sload\n      swap1\n      0x0100\n      exp\n      swap1\n      div\n      0xffffffffffffffffffffffffffffffffffffffff\n      and\n        /* \"contracts/FundMe.sol\":2125:2162  address funder = funders[funderIndex] */\n      swap1\n      pop\n        /* \"contracts/FundMe.sol\":2217:2218  0 */\n      0x00\n        /* \"contracts/FundMe.sol\":2185:2206  addressToAmountFunded */\n      0x02\n        /* \"contracts/FundMe.sol\":2185:2214  addressToAmountFunded[funder] */\n      0x00\n        /* \"contracts/FundMe.sol\":2207:2213  funder */\n      dup4\n        /* \"contracts/FundMe.sol\":2185:2214  addressToAmountFunded[funder] */\n      0xffffffffffffffffffffffffffffffffffffffff\n      and\n      0xffffffffffffffffffffffffffffffffffffffff\n      and\n      dup2\n      mstore\n      0x20\n      add\n      swap1\n      dup2\n      mstore\n      0x20\n      add\n      0x00\n      keccak256\n        /* \"contracts/FundMe.sol\":2185:2218  addressToAmountFunded[funder] = 0 */\n      dup2\n      swap1\n      sstore\n      pop\n        /* \"contracts/FundMe.sol\":2102:2238  {... */\n      pop\n        /* \"contracts/FundMe.sol\":2087:2101  funderIndex ++ */\n      dup1\n      dup1\n      tag_43\n      swap1\n      tag_44\n      jump\t// in\n    tag_43:\n      swap2\n      pop\n      pop\n        /* \"contracts/FundMe.sol\":2029:2238  for(uint256 funderIndex =0; funderIndex < funders.length; funderIndex ++){... */\n      jump(tag_36)\n    tag_37:\n      pop\n        /* \"contracts/FundMe.sol\":2282:2283  0 */\n      0x00\n        /* \"contracts/FundMe.sol\":2268:2284  new address[](0) */\n      0xffffffffffffffff\n      dup2\n      gt\n      iszero\n      tag_45\n      jumpi\n      tag_46\n      tag_47\n      jump\t// in\n    tag_46:\n    tag_45:\n      mload(0x40)\n      swap1\n      dup1\n      dup3\n      mstore\n      dup1\n      0x20\n      mul\n      0x20\n      add\n      dup3\n      add\n      0x40\n      mstore\n      dup1\n      iszero\n      tag_48\n      jumpi\n      dup2\n      0x20\n      add\n      0x20\n      dup3\n      mul\n      dup1\n      calldatasize\n      dup4\n      calldatacopy\n      dup1\n      dup3\n      add\n      swap2\n      pop\n      pop\n      swap1\n      pop\n    tag_48:\n      pop\n        /* \"contracts/FundMe.sol\":2258:2265  funders */\n      0x01\n        /* \"contracts/FundMe.sol\":2258:2284  funders = new address[](0) */\n      swap1\n      dup1\n      mload\n      swap1\n      0x20\n      add\n      swap1\n      tag_49\n      swap3\n      swap2\n      swap1\n      tag_50\n      jump\t// in\n    tag_49:\n      pop\n        /* \"contracts/FundMe.sol\":2461:2477  bool callSuccess */\n      0x00\n        /* \"contracts/FundMe.sol\":2490:2500  msg.sender */\n      caller\n        /* \"contracts/FundMe.sol\":2482:2506  payable(msg.sender).call */\n      0xffffffffffffffffffffffffffffffffffffffff\n      and\n        /* \"contracts/FundMe.sol\":2514:2535  address(this).balance */\n      selfbalance\n        /* \"contracts/FundMe.sol\":2482:2540  payable(msg.sender).call{value: address(this).balance}(\"\") */\n      mload(0x40)\n      tag_51\n      swap1\n      tag_52\n      jump\t// in\n    tag_51:\n      0x00\n      mload(0x40)\n      dup1\n      dup4\n      sub\n      dup2\n      dup6\n      dup8\n      gas\n      call\n      swap3\n      pop\n      pop\n      pop\n      returndatasize\n      dup1\n      0x00\n      dup2\n      eq\n      tag_55\n      jumpi\n      mload(0x40)\n      swap2\n      pop\n      and(add(returndatasize, 0x3f), not(0x1f))\n      dup3\n      add\n      0x40\n      mstore\n      returndatasize\n      dup3\n      mstore\n      returndatasize\n      0x00\n      0x20\n      dup5\n      add\n      returndatacopy\n      jump(tag_54)\n    tag_55:\n      0x60\n      swap2\n      pop\n    tag_54:\n      pop\n        /* \"contracts/FundMe.sol\":2460:2540  (bool callSuccess, )= payable(msg.sender).call{value: address(this).balance}(\"\") */\n      pop\n      swap1\n      pop\n        /* \"contracts/FundMe.sol\":2569:2580  callSuccess */\n      dup1\n        /* \"contracts/FundMe.sol\":2561:2600  require(callSuccess, \"fallo al llamar\") */\n      tag_56\n      jumpi\n      mload(0x40)\n      0x08c379a000000000000000000000000000000000000000000000000000000000\n      dup2\n      mstore\n      0x04\n      add\n      tag_57\n      swap1\n      tag_58\n      jump\t// in\n    tag_57:\n      mload(0x40)\n      dup1\n      swap2\n      sub\n      swap1\n      revert\n    tag_56:\n        /* \"contracts/FundMe.sol\":2004:2618  {... */\n      pop\n        /* \"contracts/FundMe.sol\":1977:2618  function withdraw() public {... */\n      jump\t// out\n        /* \"contracts/FundMe.sol\":762:818  mapping(address => uint256) public addressToAmountFunded */\n    tag_15:\n      mstore(0x20, 0x02)\n      dup1\n      0x00\n      mstore\n      keccak256(0x00, 0x40)\n      0x00\n      swap2\n      pop\n      swap1\n      pop\n      sload\n      dup2\n      jump\t// out\n        /* \"contracts/FundMe.sol\":1827:1847  address public owner */\n    tag_20:\n      0x03\n      0x00\n      swap1\n      sload\n      swap1\n      0x0100\n      exp\n      swap1\n      div\n      0xffffffffffffffffffffffffffffffffffffffff\n      and\n      dup2\n      jump\t// out\n        /* \"contracts/FundMe.sol\":925:1740  function fund() public payable{... */\n    tag_24:\n        /* \"contracts/FundMe.sol\":1461:1471  minimunUsd */\n      sload(0x00)\n        /* \"contracts/FundMe.sol\":1428:1457  msg.value.getConversionRate() */\n      tag_60\n        /* \"contracts/FundMe.sol\":1428:1437  msg.value */\n      callvalue\n        /* \"contracts/FundMe.sol\":1428:1455  msg.value.getConversionRate */\n      tag_61\n        /* \"contracts/FundMe.sol\":1428:1457  msg.value.getConversionRate() */\n      jump\t// in\n    tag_60:\n        /* \"contracts/FundMe.sol\":1428:1471  msg.value.getConversionRate() >= minimunUsd */\n      lt\n      iszero\n        /* \"contracts/FundMe.sol\":1420:1494  require(msg.value.getConversionRate() >= minimunUsd, \"Saldo insuficiente\") */\n      tag_62\n      jumpi\n      mload(0x40)\n      0x08c379a000000000000000000000000000000000000000000000000000000000\n      dup2\n      mstore\n      0x04\n      add\n      tag_63\n      swap1\n      tag_64\n      jump\t// in\n    tag_63:\n      mload(0x40)\n      dup1\n      swap2\n      sub\n      swap1\n      revert\n    tag_62:\n        /* \"contracts/FundMe.sol\":1567:1574  funders */\n      0x01\n        /* \"contracts/FundMe.sol\":1580:1590  msg.sender */\n      caller\n        /* \"contracts/FundMe.sol\":1567:1591  funders.push(msg.sender) */\n      swap1\n      dup1\n      0x01\n      dup2\n      sload\n      add\n      dup1\n      dup3\n      sstore\n      dup1\n      swap2\n      pop\n      pop\n      0x01\n      swap1\n      sub\n      swap1\n      0x00\n      mstore\n      keccak256(0x00, 0x20)\n      add\n      0x00\n      swap1\n      swap2\n      swap1\n      swap2\n      swap1\n      swap2\n      0x0100\n      exp\n      dup2\n      sload\n      dup2\n      0xffffffffffffffffffffffffffffffffffffffff\n      mul\n      not\n      and\n      swap1\n      dup4\n      0xffffffffffffffffffffffffffffffffffffffff\n      and\n      mul\n      or\n      swap1\n      sstore\n      pop\n        /* \"contracts/FundMe.sol\":1717:1726  msg.value */\n      callvalue\n        /* \"contracts/FundMe.sol\":1681:1702  addressToAmountFunded */\n      0x02\n        /* \"contracts/FundMe.sol\":1681:1714  addressToAmountFunded[msg.sender] */\n      0x00\n        /* \"contracts/FundMe.sol\":1703:1713  msg.sender */\n      caller\n        /* \"contracts/FundMe.sol\":1681:1714  addressToAmountFunded[msg.sender] */\n      0xffffffffffffffffffffffffffffffffffffffff\n      and\n      0xffffffffffffffffffffffffffffffffffffffff\n      and\n      dup2\n      mstore\n      0x20\n      add\n      swap1\n      dup2\n      mstore\n      0x20\n      add\n      0x00\n      keccak256\n        /* \"contracts/FundMe.sol\":1681:1726  addressToAmountFunded[msg.sender] = msg.value */\n      dup2\n      swap1\n      sstore\n      pop\n        /* \"contracts/FundMe.sol\":925:1740  function fund() public payable{... */\n      jump\t// out\n        /* \"contracts/FundMe.sol\":636:660  address[] public funders */\n    tag_29:\n      0x01\n      dup2\n      dup2\n      sload\n      dup2\n      lt\n      tag_66\n      jumpi\n      0x00\n      dup1\n      revert\n    tag_66:\n      swap1\n      0x00\n      mstore\n      keccak256(0x00, 0x20)\n      add\n      0x00\n      swap2\n      pop\n      sload\n      swap1\n      0x0100\n      exp\n      swap1\n      div\n      0xffffffffffffffffffffffffffffffffffffffff\n      and\n      dup2\n      jump\t// out\n        /* \"contracts/FundMe.sol\":544:581  uint256 public minimunUsd = 50 * 1e18 */\n    tag_33:\n      sload(0x00)\n      dup2\n      jump\t// out\n        /* \"contracts/PriceConverter.sol\":1993:2449  function getConversionRate(uint256 ethAmount)internal view returns(uint256){... */\n    tag_61:\n        /* \"contracts/PriceConverter.sol\":2060:2067  uint256 */\n      0x00\n        /* \"contracts/PriceConverter.sol\":2089:2105  uint256 ethPrice */\n      dup1\n        /* \"contracts/PriceConverter.sol\":2108:2118  getPrice() */\n      tag_69\n        /* \"contracts/PriceConverter.sol\":2108:2116  getPrice */\n      tag_70\n        /* \"contracts/PriceConverter.sol\":2108:2118  getPrice() */\n      jump\t// in\n    tag_69:\n        /* \"contracts/PriceConverter.sol\":2089:2118  uint256 ethPrice = getPrice() */\n      swap1\n      pop\n        /* \"contracts/PriceConverter.sol\":2275:2297  uint256 ethAmountInUsd */\n      0x00\n        /* \"contracts/PriceConverter.sol\":2325:2329  1e18 */\n      0x0de0b6b3a7640000\n        /* \"contracts/PriceConverter.sol\":2312:2321  ethAmount */\n      dup5\n        /* \"contracts/PriceConverter.sol\":2301:2309  ethPrice */\n      dup4\n        /* \"contracts/PriceConverter.sol\":2301:2321  ethPrice * ethAmount */\n      tag_71\n      swap2\n      swap1\n      tag_72\n      jump\t// in\n    tag_71:\n        /* \"contracts/PriceConverter.sol\":2300:2329  (ethPrice * ethAmount) / 1e18 */\n      tag_73\n      swap2\n      swap1\n      tag_74\n      jump\t// in\n    tag_73:\n        /* \"contracts/PriceConverter.sol\":2275:2329  uint256 ethAmountInUsd = (ethPrice * ethAmount) / 1e18 */\n      swap1\n      pop\n        /* \"contracts/PriceConverter.sol\":2419:2433  ethAmountInUsd */\n      dup1\n        /* \"contracts/PriceConverter.sol\":2412:2433  return ethAmountInUsd */\n      swap3\n      pop\n      pop\n      pop\n        /* \"contracts/PriceConverter.sol\":1993:2449  function getConversionRate(uint256 ethAmount)internal view returns(uint256){... */\n      swap2\n      swap1\n      pop\n      jump\t// out\n        /* \"contracts/PriceConverter.sol\":843:1981  function getPrice() internal view returns(uint256){... */\n    tag_70:\n        /* \"contracts/PriceConverter.sol\":885:892  uint256 */\n      0x00\n        /* \"contracts/PriceConverter.sol\":1227:1258  AggregatorV3Interface priceFeed */\n      dup1\n        /* \"contracts/PriceConverter.sol\":1283:1325  0xD4a33860578De61DBAbDc8BFdb98FD742fA7028e */\n      0xd4a33860578de61dbabdc8bfdb98fd742fa7028e\n        /* \"contracts/PriceConverter.sol\":1227:1326  AggregatorV3Interface priceFeed = AggregatorV3Interface(0xD4a33860578De61DBAbDc8BFdb98FD742fA7028e) */\n      swap1\n      pop\n        /* \"contracts/PriceConverter.sol\":1522:1534  int256 price */\n      0x00\n        /* \"contracts/PriceConverter.sol\":1541:1550  priceFeed */\n      dup2\n        /* \"contracts/PriceConverter.sol\":1541:1566  priceFeed.latestRoundData */\n      0xffffffffffffffffffffffffffffffffffffffff\n      and\n      0xfeaf968c\n        /* \"contracts/PriceConverter.sol\":1541:1568  priceFeed.latestRoundData() */\n      mload(0x40)\n      dup2\n      0xffffffff\n      and\n      0xe0\n      shl\n      dup2\n      mstore\n      0x04\n      add\n      0xa0\n      mload(0x40)\n      dup1\n      dup4\n      sub\n      dup2\n      dup7\n      gas\n      staticcall\n      iszero\n      dup1\n      iszero\n      tag_77\n      jumpi\n      returndatasize\n      0x00\n      dup1\n      returndatacopy\n      revert(0x00, returndatasize)\n    tag_77:\n      pop\n      pop\n      pop\n      pop\n      mload(0x40)\n      returndatasize\n      not(0x1f)\n      0x1f\n      dup3\n      add\n      and\n      dup3\n      add\n      dup1\n      0x40\n      mstore\n      pop\n      dup2\n      add\n      swap1\n      tag_78\n      swap2\n      swap1\n      tag_79\n      jump\t// in\n    tag_78:\n        /* \"contracts/PriceConverter.sol\":1520:1568  (,int256 price,,,) = priceFeed.latestRoundData() */\n      pop\n      pop\n      pop\n      swap2\n      pop\n      pop\n        /* \"contracts/PriceConverter.sol\":1932:1936  1e10 */\n      0x02540be400\n        /* \"contracts/PriceConverter.sol\":1924:1929  price */\n      dup2\n        /* \"contracts/PriceConverter.sol\":1924:1936  price * 1e10 */\n      tag_80\n      swap2\n      swap1\n      tag_81\n      jump\t// in\n    tag_80:\n        /* \"contracts/PriceConverter.sol\":1909:1937  return uint256(price * 1e10) */\n      swap3\n      pop\n      pop\n      pop\n        /* \"contracts/PriceConverter.sol\":843:1981  function getPrice() internal view returns(uint256){... */\n      swap1\n      jump\t// out\n    tag_50:\n      dup3\n      dup1\n      sload\n      dup3\n      dup3\n      sstore\n      swap1\n      0x00\n      mstore\n      keccak256(0x00, 0x20)\n      swap1\n      dup2\n      add\n      swap3\n      dup3\n      iszero\n      tag_82\n      jumpi\n      swap2\n      0x20\n      mul\n      dup3\n      add\n    tag_83:\n      dup3\n      dup2\n      gt\n      iszero\n      tag_84\n      jumpi\n      dup3\n      mload\n      dup3\n      exp(0x0100, 0x00)\n      dup2\n      sload\n      dup2\n      0xffffffffffffffffffffffffffffffffffffffff\n      mul\n      not\n      and\n      swap1\n      dup4\n      0xffffffffffffffffffffffffffffffffffffffff\n      and\n      mul\n      or\n      swap1\n      sstore\n      pop\n      swap2\n      0x20\n      add\n      swap2\n      swap1\n      0x01\n      add\n      swap1\n      jump(tag_83)\n    tag_84:\n    tag_82:\n      pop\n      swap1\n      pop\n      tag_85\n      swap2\n      swap1\n      tag_86\n      jump\t// in\n    tag_85:\n      pop\n      swap1\n      jump\t// out\n    tag_86:\n    tag_87:\n      dup1\n      dup3\n      gt\n      iszero\n      tag_88\n      jumpi\n      0x00\n      dup2\n      0x00\n      swap1\n      sstore\n      pop\n      0x01\n      add\n      jump(tag_87)\n    tag_88:\n      pop\n      swap1\n      jump\t// out\n        /* \"#utility.yul\":88:205   */\n    tag_90:\n        /* \"#utility.yul\":197:198   */\n      0x00\n        /* \"#utility.yul\":194:195   */\n      dup1\n        /* \"#utility.yul\":187:199   */\n      revert\n        /* \"#utility.yul\":334:460   */\n    tag_92:\n        /* \"#utility.yul\":371:378   */\n      0x00\n        /* \"#utility.yul\":411:453   */\n      0xffffffffffffffffffffffffffffffffffffffff\n        /* \"#utility.yul\":404:409   */\n      dup3\n        /* \"#utility.yul\":400:454   */\n      and\n        /* \"#utility.yul\":389:454   */\n      swap1\n      pop\n        /* \"#utility.yul\":334:460   */\n      swap2\n      swap1\n      pop\n      jump\t// out\n        /* \"#utility.yul\":466:562   */\n    tag_93:\n        /* \"#utility.yul\":503:510   */\n      0x00\n        /* \"#utility.yul\":532:556   */\n      tag_124\n        /* \"#utility.yul\":550:555   */\n      dup3\n        /* \"#utility.yul\":532:556   */\n      tag_92\n      jump\t// in\n    tag_124:\n        /* \"#utility.yul\":521:556   */\n      swap1\n      pop\n        /* \"#utility.yul\":466:562   */\n      swap2\n      swap1\n      pop\n      jump\t// out\n        /* \"#utility.yul\":568:690   */\n    tag_94:\n        /* \"#utility.yul\":641:665   */\n      tag_126\n        /* \"#utility.yul\":659:664   */\n      dup2\n        /* \"#utility.yul\":641:665   */\n      tag_93\n      jump\t// in\n    tag_126:\n        /* \"#utility.yul\":634:639   */\n      dup2\n        /* \"#utility.yul\":631:666   */\n      eq\n        /* \"#utility.yul\":621:684   */\n      tag_127\n      jumpi\n        /* \"#utility.yul\":680:681   */\n      0x00\n        /* \"#utility.yul\":677:678   */\n      dup1\n        /* \"#utility.yul\":670:682   */\n      revert\n        /* \"#utility.yul\":621:684   */\n    tag_127:\n        /* \"#utility.yul\":568:690   */\n      pop\n      jump\t// out\n        /* \"#utility.yul\":696:835   */\n    tag_95:\n        /* \"#utility.yul\":742:747   */\n      0x00\n        /* \"#utility.yul\":780:786   */\n      dup2\n        /* \"#utility.yul\":767:787   */\n      calldataload\n        /* \"#utility.yul\":758:787   */\n      swap1\n      pop\n        /* \"#utility.yul\":796:829   */\n      tag_129\n        /* \"#utility.yul\":823:828   */\n      dup2\n        /* \"#utility.yul\":796:829   */\n      tag_94\n      jump\t// in\n    tag_129:\n        /* \"#utility.yul\":696:835   */\n      swap3\n      swap2\n      pop\n      pop\n      jump\t// out\n        /* \"#utility.yul\":841:1170   */\n    tag_14:\n        /* \"#utility.yul\":900:906   */\n      0x00\n        /* \"#utility.yul\":949:951   */\n      0x20\n        /* \"#utility.yul\":937:946   */\n      dup3\n        /* \"#utility.yul\":928:935   */\n      dup5\n        /* \"#utility.yul\":924:947   */\n      sub\n        /* \"#utility.yul\":920:952   */\n      slt\n        /* \"#utility.yul\":917:1036   */\n      iszero\n      tag_131\n      jumpi\n        /* \"#utility.yul\":955:1034   */\n      tag_132\n      tag_90\n      jump\t// in\n    tag_132:\n        /* \"#utility.yul\":917:1036   */\n    tag_131:\n        /* \"#utility.yul\":1075:1076   */\n      0x00\n        /* \"#utility.yul\":1100:1153   */\n      tag_133\n        /* \"#utility.yul\":1145:1152   */\n      dup5\n        /* \"#utility.yul\":1136:1142   */\n      dup3\n        /* \"#utility.yul\":1125:1134   */\n      dup6\n        /* \"#utility.yul\":1121:1143   */\n      add\n        /* \"#utility.yul\":1100:1153   */\n      tag_95\n      jump\t// in\n    tag_133:\n        /* \"#utility.yul\":1090:1153   */\n      swap2\n      pop\n        /* \"#utility.yul\":1046:1163   */\n      pop\n        /* \"#utility.yul\":841:1170   */\n      swap3\n      swap2\n      pop\n      pop\n      jump\t// out\n        /* \"#utility.yul\":1176:1253   */\n    tag_96:\n        /* \"#utility.yul\":1213:1220   */\n      0x00\n        /* \"#utility.yul\":1242:1247   */\n      dup2\n        /* \"#utility.yul\":1231:1247   */\n      swap1\n      pop\n        /* \"#utility.yul\":1176:1253   */\n      swap2\n      swap1\n      pop\n      jump\t// out\n        /* \"#utility.yul\":1259:1377   */\n    tag_97:\n        /* \"#utility.yul\":1346:1370   */\n      tag_136\n        /* \"#utility.yul\":1364:1369   */\n      dup2\n        /* \"#utility.yul\":1346:1370   */\n      tag_96\n      jump\t// in\n    tag_136:\n        /* \"#utility.yul\":1341:1344   */\n      dup3\n        /* \"#utility.yul\":1334:1371   */\n      mstore\n        /* \"#utility.yul\":1259:1377   */\n      pop\n      pop\n      jump\t// out\n        /* \"#utility.yul\":1383:1605   */\n    tag_17:\n        /* \"#utility.yul\":1476:1480   */\n      0x00\n        /* \"#utility.yul\":1514:1516   */\n      0x20\n        /* \"#utility.yul\":1503:1512   */\n      dup3\n        /* \"#utility.yul\":1499:1517   */\n      add\n        /* \"#utility.yul\":1491:1517   */\n      swap1\n      pop\n        /* \"#utility.yul\":1527:1598   */\n      tag_138\n        /* \"#utility.yul\":1595:1596   */\n      0x00\n        /* \"#utility.yul\":1584:1593   */\n      dup4\n        /* \"#utility.yul\":1580:1597   */\n      add\n        /* \"#utility.yul\":1571:1577   */\n      dup5\n        /* \"#utility.yul\":1527:1598   */\n      tag_97\n      jump\t// in\n    tag_138:\n        /* \"#utility.yul\":1383:1605   */\n      swap3\n      swap2\n      pop\n      pop\n      jump\t// out\n        /* \"#utility.yul\":1611:1729   */\n    tag_98:\n        /* \"#utility.yul\":1698:1722   */\n      tag_140\n        /* \"#utility.yul\":1716:1721   */\n      dup2\n        /* \"#utility.yul\":1698:1722   */\n      tag_93\n      jump\t// in\n    tag_140:\n        /* \"#utility.yul\":1693:1696   */\n      dup3\n        /* \"#utility.yul\":1686:1723   */\n      mstore\n        /* \"#utility.yul\":1611:1729   */\n      pop\n      pop\n      jump\t// out\n        /* \"#utility.yul\":1735:1957   */\n    tag_22:\n        /* \"#utility.yul\":1828:1832   */\n      0x00\n        /* \"#utility.yul\":1866:1868   */\n      0x20\n        /* \"#utility.yul\":1855:1864   */\n      dup3\n        /* \"#utility.yul\":1851:1869   */\n      add\n        /* \"#utility.yul\":1843:1869   */\n      swap1\n      pop\n        /* \"#utility.yul\":1879:1950   */\n      tag_142\n        /* \"#utility.yul\":1947:1948   */\n      0x00\n        /* \"#utility.yul\":1936:1945   */\n      dup4\n        /* \"#utility.yul\":1932:1949   */\n      add\n        /* \"#utility.yul\":1923:1929   */\n      dup5\n        /* \"#utility.yul\":1879:1950   */\n      tag_98\n      jump\t// in\n    tag_142:\n        /* \"#utility.yul\":1735:1957   */\n      swap3\n      swap2\n      pop\n      pop\n      jump\t// out\n        /* \"#utility.yul\":1963:2085   */\n    tag_99:\n        /* \"#utility.yul\":2036:2060   */\n      tag_144\n        /* \"#utility.yul\":2054:2059   */\n      dup2\n        /* \"#utility.yul\":2036:2060   */\n      tag_96\n      jump\t// in\n    tag_144:\n        /* \"#utility.yul\":2029:2034   */\n      dup2\n        /* \"#utility.yul\":2026:2061   */\n      eq\n        /* \"#utility.yul\":2016:2079   */\n      tag_145\n      jumpi\n        /* \"#utility.yul\":2075:2076   */\n      0x00\n        /* \"#utility.yul\":2072:2073   */\n      dup1\n        /* \"#utility.yul\":2065:2077   */\n      revert\n        /* \"#utility.yul\":2016:2079   */\n    tag_145:\n        /* \"#utility.yul\":1963:2085   */\n      pop\n      jump\t// out\n        /* \"#utility.yul\":2091:2230   */\n    tag_100:\n        /* \"#utility.yul\":2137:2142   */\n      0x00\n        /* \"#utility.yul\":2175:2181   */\n      dup2\n        /* \"#utility.yul\":2162:2182   */\n      calldataload\n        /* \"#utility.yul\":2153:2182   */\n      swap1\n      pop\n        /* \"#utility.yul\":2191:2224   */\n      tag_147\n        /* \"#utility.yul\":2218:2223   */\n      dup2\n        /* \"#utility.yul\":2191:2224   */\n      tag_99\n      jump\t// in\n    tag_147:\n        /* \"#utility.yul\":2091:2230   */\n      swap3\n      swap2\n      pop\n      pop\n      jump\t// out\n        /* \"#utility.yul\":2236:2565   */\n    tag_28:\n        /* \"#utility.yul\":2295:2301   */\n      0x00\n        /* \"#utility.yul\":2344:2346   */\n      0x20\n        /* \"#utility.yul\":2332:2341   */\n      dup3\n        /* \"#utility.yul\":2323:2330   */\n      dup5\n        /* \"#utility.yul\":2319:2342   */\n      sub\n        /* \"#utility.yul\":2315:2347   */\n      slt\n        /* \"#utility.yul\":2312:2431   */\n      iszero\n      tag_149\n      jumpi\n        /* \"#utility.yul\":2350:2429   */\n      tag_150\n      tag_90\n      jump\t// in\n    tag_150:\n        /* \"#utility.yul\":2312:2431   */\n    tag_149:\n        /* \"#utility.yul\":2470:2471   */\n      0x00\n        /* \"#utility.yul\":2495:2548   */\n      tag_151\n        /* \"#utility.yul\":2540:2547   */\n      dup5\n        /* \"#utility.yul\":2531:2537   */\n      dup3\n        /* \"#utility.yul\":2520:2529   */\n      dup6\n        /* \"#utility.yul\":2516:2538   */\n      add\n        /* \"#utility.yul\":2495:2548   */\n      tag_100\n      jump\t// in\n    tag_151:\n        /* \"#utility.yul\":2485:2548   */\n      swap2\n      pop\n        /* \"#utility.yul\":2441:2558   */\n      pop\n        /* \"#utility.yul\":2236:2565   */\n      swap3\n      swap2\n      pop\n      pop\n      jump\t// out\n        /* \"#utility.yul\":2571:2751   */\n    tag_41:\n        /* \"#utility.yul\":2619:2696   */\n      0x4e487b7100000000000000000000000000000000000000000000000000000000\n        /* \"#utility.yul\":2616:2617   */\n      0x00\n        /* \"#utility.yul\":2609:2697   */\n      mstore\n        /* \"#utility.yul\":2716:2720   */\n      0x32\n        /* \"#utility.yul\":2713:2714   */\n      0x04\n        /* \"#utility.yul\":2706:2721   */\n      mstore\n        /* \"#utility.yul\":2740:2744   */\n      0x24\n        /* \"#utility.yul\":2737:2738   */\n      0x00\n        /* \"#utility.yul\":2730:2745   */\n      revert\n        /* \"#utility.yul\":2757:2937   */\n    tag_101:\n        /* \"#utility.yul\":2805:2882   */\n      0x4e487b7100000000000000000000000000000000000000000000000000000000\n        /* \"#utility.yul\":2802:2803   */\n      0x00\n        /* \"#utility.yul\":2795:2883   */\n      mstore\n        /* \"#utility.yul\":2902:2906   */\n      0x11\n        /* \"#utility.yul\":2899:2900   */\n      0x04\n        /* \"#utility.yul\":2892:2907   */\n      mstore\n        /* \"#utility.yul\":2926:2930   */\n      0x24\n        /* \"#utility.yul\":2923:2924   */\n      0x00\n        /* \"#utility.yul\":2916:2931   */\n      revert\n        /* \"#utility.yul\":2943:3176   */\n    tag_44:\n        /* \"#utility.yul\":2982:2985   */\n      0x00\n        /* \"#utility.yul\":3005:3029   */\n      tag_155\n        /* \"#utility.yul\":3023:3028   */\n      dup3\n        /* \"#utility.yul\":3005:3029   */\n      tag_96\n      jump\t// in\n    tag_155:\n        /* \"#utility.yul\":2996:3029   */\n      swap2\n      pop\n        /* \"#utility.yul\":3051:3117   */\n      0xffffffffffffffffffffffffffffffffffffffffffffffffffffffffffffffff\n        /* \"#utility.yul\":3044:3049   */\n      dup3\n        /* \"#utility.yul\":3041:3118   */\n      sub\n        /* \"#utility.yul\":3038:3141   */\n      tag_156\n      jumpi\n        /* \"#utility.yul\":3121:3139   */\n      tag_157\n      tag_101\n      jump\t// in\n    tag_157:\n        /* \"#utility.yul\":3038:3141   */\n    tag_156:\n        /* \"#utility.yul\":3168:3169   */\n      0x01\n        /* \"#utility.yul\":3161:3166   */\n      dup3\n        /* \"#utility.yul\":3157:3170   */\n      add\n        /* \"#utility.yul\":3150:3170   */\n      swap1\n      pop\n        /* \"#utility.yul\":2943:3176   */\n      swap2\n      swap1\n      pop\n      jump\t// out\n        /* \"#utility.yul\":3182:3362   */\n    tag_47:\n        /* \"#utility.yul\":3230:3307   */\n      0x4e487b7100000000000000000000000000000000000000000000000000000000\n        /* \"#utility.yul\":3227:3228   */\n      0x00\n        /* \"#utility.yul\":3220:3308   */\n      mstore\n        /* \"#utility.yul\":3327:3331   */\n      0x41\n        /* \"#utility.yul\":3324:3325   */\n      0x04\n        /* \"#utility.yul\":3317:3332   */\n      mstore\n        /* \"#utility.yul\":3351:3355   */\n      0x24\n        /* \"#utility.yul\":3348:3349   */\n      0x00\n        /* \"#utility.yul\":3341:3356   */\n      revert\n        /* \"#utility.yul\":3368:3515   */\n    tag_102:\n        /* \"#utility.yul\":3469:3480   */\n      0x00\n        /* \"#utility.yul\":3506:3509   */\n      dup2\n        /* \"#utility.yul\":3491:3509   */\n      swap1\n      pop\n        /* \"#utility.yul\":3368:3515   */\n      swap3\n      swap2\n      pop\n      pop\n      jump\t// out\n        /* \"#utility.yul\":3521:3635   */\n    tag_103:\n      pop\n      jump\t// out\n        /* \"#utility.yul\":3641:4039   */\n    tag_104:\n        /* \"#utility.yul\":3800:3803   */\n      0x00\n        /* \"#utility.yul\":3821:3904   */\n      tag_162\n        /* \"#utility.yul\":3902:3903   */\n      0x00\n        /* \"#utility.yul\":3897:3900   */\n      dup4\n        /* \"#utility.yul\":3821:3904   */\n      tag_102\n      jump\t// in\n    tag_162:\n        /* \"#utility.yul\":3814:3904   */\n      swap2\n      pop\n        /* \"#utility.yul\":3913:4006   */\n      tag_163\n        /* \"#utility.yul\":4002:4005   */\n      dup3\n        /* \"#utility.yul\":3913:4006   */\n      tag_103\n      jump\t// in\n    tag_163:\n        /* \"#utility.yul\":4031:4032   */\n      0x00\n        /* \"#utility.yul\":4026:4029   */\n      dup3\n        /* \"#utility.yul\":4022:4033   */\n      add\n        /* \"#utility.yul\":4015:4033   */\n      swap1\n      pop\n        /* \"#utility.yul\":3641:4039   */\n      swap2\n      swap1\n      pop\n      jump\t// out\n        /* \"#utility.yul\":4045:4424   */\n    tag_52:\n        /* \"#utility.yul\":4229:4232   */\n      0x00\n        /* \"#utility.yul\":4251:4398   */\n      tag_165\n        /* \"#utility.yul\":4394:4397   */\n      dup3\n        /* \"#utility.yul\":4251:4398   */\n      tag_104\n      jump\t// in\n    tag_165:\n        /* \"#utility.yul\":4244:4398   */\n      swap2\n      pop\n        /* \"#utility.yul\":4415:4418   */\n      dup2\n        /* \"#utility.yul\":4408:4418   */\n      swap1\n      pop\n        /* \"#utility.yul\":4045:4424   */\n      swap2\n      swap1\n      pop\n      jump\t// out\n        /* \"#utility.yul\":4430:4599   */\n    tag_105:\n        /* \"#utility.yul\":4514:4525   */\n      0x00\n        /* \"#utility.yul\":4548:4554   */\n      dup3\n        /* \"#utility.yul\":4543:4546   */\n      dup3\n        /* \"#utility.yul\":4536:4555   */\n      mstore\n        /* \"#utility.yul\":4588:4592   */\n      0x20\n        /* \"#utility.yul\":4583:4586   */\n      dup3\n        /* \"#utility.yul\":4579:4593   */\n      add\n        /* \"#utility.yul\":4564:4593   */\n      swap1\n      pop\n        /* \"#utility.yul\":4430:4599   */\n      swap3\n      swap2\n      pop\n      pop\n      jump\t// out\n        /* \"#utility.yul\":4605:4770   */\n    tag_106:\n        /* \"#utility.yul\":4745:4762   */\n      0x66616c6c6f20616c206c6c616d61720000000000000000000000000000000000\n        /* \"#utility.yul\":4741:4742   */\n      0x00\n        /* \"#utility.yul\":4733:4739   */\n      dup3\n        /* \"#utility.yul\":4729:4743   */\n      add\n        /* \"#utility.yul\":4722:4763   */\n      mstore\n        /* \"#utility.yul\":4605:4770   */\n      pop\n      jump\t// out\n        /* \"#utility.yul\":4776:5142   */\n    tag_107:\n        /* \"#utility.yul\":4918:4921   */\n      0x00\n        /* \"#utility.yul\":4939:5006   */\n      tag_169\n        /* \"#utility.yul\":5003:5005   */\n      0x0f\n        /* \"#utility.yul\":4998:5001   */\n      dup4\n        /* \"#utility.yul\":4939:5006   */\n      tag_105\n      jump\t// in\n    tag_169:\n        /* \"#utility.yul\":4932:5006   */\n      swap2\n      pop\n        /* \"#utility.yul\":5015:5108   */\n      tag_170\n        /* \"#utility.yul\":5104:5107   */\n      dup3\n        /* \"#utility.yul\":5015:5108   */\n      tag_106\n      jump\t// in\n    tag_170:\n        /* \"#utility.yul\":5133:5135   */\n      0x20\n        /* \"#utility.yul\":5128:5131   */\n      dup3\n        /* \"#utility.yul\":5124:5136   */\n      add\n        /* \"#utility.yul\":5117:5136   */\n      swap1\n      pop\n        /* \"#utility.yul\":4776:5142   */\n      swap2\n      swap1\n      pop\n      jump\t// out\n        /* \"#utility.yul\":5148:5567   */\n    tag_58:\n        /* \"#utility.yul\":5314:5318   */\n      0x00\n        /* \"#utility.yul\":5352:5354   */\n      0x20\n        /* \"#utility.yul\":5341:5350   */\n      dup3\n        /* \"#utility.yul\":5337:5355   */\n      add\n        /* \"#utility.yul\":5329:5355   */\n      swap1\n      pop\n        /* \"#utility.yul\":5401:5410   */\n      dup2\n        /* \"#utility.yul\":5395:5399   */\n      dup2\n        /* \"#utility.yul\":5391:5411   */\n      sub\n        /* \"#utility.yul\":5387:5388   */\n      0x00\n        /* \"#utility.yul\":5376:5385   */\n      dup4\n        /* \"#utility.yul\":5372:5389   */\n      add\n        /* \"#utility.yul\":5365:5412   */\n      mstore\n        /* \"#utility.yul\":5429:5560   */\n      tag_172\n        /* \"#utility.yul\":5555:5559   */\n      dup2\n        /* \"#utility.yul\":5429:5560   */\n      tag_107\n      jump\t// in\n    tag_172:\n        /* \"#utility.yul\":5421:5560   */\n      swap1\n      pop\n        /* \"#utility.yul\":5148:5567   */\n      swap2\n      swap1\n      pop\n      jump\t// out\n        /* \"#utility.yul\":5573:5741   */\n    tag_108:\n        /* \"#utility.yul\":5713:5733   */\n      0x53616c646f20696e737566696369656e74650000000000000000000000000000\n        /* \"#utility.yul\":5709:5710   */\n      0x00\n        /* \"#utility.yul\":5701:5707   */\n      dup3\n        /* \"#utility.yul\":5697:5711   */\n      add\n        /* \"#utility.yul\":5690:5734   */\n      mstore\n        /* \"#utility.yul\":5573:5741   */\n      pop\n      jump\t// out\n        /* \"#utility.yul\":5747:6113   */\n    tag_109:\n        /* \"#utility.yul\":5889:5892   */\n      0x00\n        /* \"#utility.yul\":5910:5977   */\n      tag_175\n        /* \"#utility.yul\":5974:5976   */\n      0x12\n        /* \"#utility.yul\":5969:5972   */\n      dup4\n        /* \"#utility.yul\":5910:5977   */\n      tag_105\n      jump\t// in\n    tag_175:\n        /* \"#utility.yul\":5903:5977   */\n      swap2\n      pop\n        /* \"#utility.yul\":5986:6079   */\n      tag_176\n        /* \"#utility.yul\":6075:6078   */\n      dup3\n        /* \"#utility.yul\":5986:6079   */\n      tag_108\n      jump\t// in\n    tag_176:\n        /* \"#utility.yul\":6104:6106   */\n      0x20\n        /* \"#utility.yul\":6099:6102   */\n      dup3\n        /* \"#utility.yul\":6095:6107   */\n      add\n        /* \"#utility.yul\":6088:6107   */\n      swap1\n      pop\n        /* \"#utility.yul\":5747:6113   */\n      swap2\n      swap1\n      pop\n      jump\t// out\n        /* \"#utility.yul\":6119:6538   */\n    tag_64:\n        /* \"#utility.yul\":6285:6289   */\n      0x00\n        /* \"#utility.yul\":6323:6325   */\n      0x20\n        /* \"#utility.yul\":6312:6321   */\n      dup3\n        /* \"#utility.yul\":6308:6326   */\n      add\n        /* \"#utility.yul\":6300:6326   */\n      swap1\n      pop\n        /* \"#utility.yul\":6372:6381   */\n      dup2\n        /* \"#utility.yul\":6366:6370   */\n      dup2\n        /* \"#utility.yul\":6362:6382   */\n      sub\n        /* \"#utility.yul\":6358:6359   */\n      0x00\n        /* \"#utility.yul\":6347:6356   */\n      dup4\n        /* \"#utility.yul\":6343:6360   */\n      add\n        /* \"#utility.yul\":6336:6383   */\n      mstore\n        /* \"#utility.yul\":6400:6531   */\n      tag_178\n        /* \"#utility.yul\":6526:6530   */\n      dup2\n        /* \"#utility.yul\":6400:6531   */\n      tag_109\n      jump\t// in\n    tag_178:\n        /* \"#utility.yul\":6392:6531   */\n      swap1\n      pop\n        /* \"#utility.yul\":6119:6538   */\n      swap2\n      swap1\n      pop\n      jump\t// out\n        /* \"#utility.yul\":6544:6954   */\n    tag_72:\n        /* \"#utility.yul\":6584:6591   */\n      0x00\n        /* \"#utility.yul\":6607:6627   */\n      tag_180\n        /* \"#utility.yul\":6625:6626   */\n      dup3\n        /* \"#utility.yul\":6607:6627   */\n      tag_96\n      jump\t// in\n    tag_180:\n        /* \"#utility.yul\":6602:6627   */\n      swap2\n      pop\n        /* \"#utility.yul\":6641:6661   */\n      tag_181\n        /* \"#utility.yul\":6659:6660   */\n      dup4\n        /* \"#utility.yul\":6641:6661   */\n      tag_96\n      jump\t// in\n    tag_181:\n        /* \"#utility.yul\":6636:6661   */\n      swap3\n      pop\n        /* \"#utility.yul\":6696:6697   */\n      dup3\n        /* \"#utility.yul\":6693:6694   */\n      dup3\n        /* \"#utility.yul\":6689:6698   */\n      mul\n        /* \"#utility.yul\":6718:6748   */\n      tag_182\n        /* \"#utility.yul\":6736:6747   */\n      dup2\n        /* \"#utility.yul\":6718:6748   */\n      tag_96\n      jump\t// in\n    tag_182:\n        /* \"#utility.yul\":6707:6748   */\n      swap2\n      pop\n        /* \"#utility.yul\":6897:6898   */\n      dup3\n        /* \"#utility.yul\":6888:6895   */\n      dup3\n        /* \"#utility.yul\":6884:6899   */\n      div\n        /* \"#utility.yul\":6881:6882   */\n      dup5\n        /* \"#utility.yul\":6878:6900   */\n      eq\n        /* \"#utility.yul\":6858:6859   */\n      dup4\n        /* \"#utility.yul\":6851:6860   */\n      iszero\n        /* \"#utility.yul\":6831:6914   */\n      or\n        /* \"#utility.yul\":6808:6947   */\n      tag_183\n      jumpi\n        /* \"#utility.yul\":6927:6945   */\n      tag_184\n      tag_101\n      jump\t// in\n    tag_184:\n        /* \"#utility.yul\":6808:6947   */\n    tag_183:\n        /* \"#utility.yul\":6592:6954   */\n      pop\n        /* \"#utility.yul\":6544:6954   */\n      swap3\n      swap2\n      pop\n      pop\n      jump\t// out\n        /* \"#utility.yul\":6960:7140   */\n    tag_110:\n        /* \"#utility.yul\":7008:7085   */\n      0x4e487b7100000000000000000000000000000000000000000000000000000000\n        /* \"#utility.yul\":7005:7006   */\n      0x00\n        /* \"#utility.yul\":6998:7086   */\n      mstore\n        /* \"#utility.yul\":7105:7109   */\n      0x12\n        /* \"#utility.yul\":7102:7103   */\n      0x04\n        /* \"#utility.yul\":7095:7110   */\n      mstore\n        /* \"#utility.yul\":7129:7133   */\n      0x24\n        /* \"#utility.yul\":7126:7127   */\n      0x00\n        /* \"#utility.yul\":7119:7134   */\n      revert\n        /* \"#utility.yul\":7146:7331   */\n    tag_74:\n        /* \"#utility.yul\":7186:7187   */\n      0x00\n        /* \"#utility.yul\":7203:7223   */\n      tag_187\n        /* \"#utility.yul\":7221:7222   */\n      dup3\n        /* \"#utility.yul\":7203:7223   */\n      tag_96\n      jump\t// in\n    tag_187:\n        /* \"#utility.yul\":7198:7223   */\n      swap2\n      pop\n        /* \"#utility.yul\":7237:7257   */\n      tag_188\n        /* \"#utility.yul\":7255:7256   */\n      dup4\n        /* \"#utility.yul\":7237:7257   */\n      tag_96\n      jump\t// in\n    tag_188:\n        /* \"#utility.yul\":7232:7257   */\n      swap3\n      pop\n        /* \"#utility.yul\":7276:7277   */\n      dup3\n        /* \"#utility.yul\":7266:7301   */\n      tag_189\n      jumpi\n        /* \"#utility.yul\":7281:7299   */\n      tag_190\n      tag_110\n      jump\t// in\n    tag_190:\n        /* \"#utility.yul\":7266:7301   */\n    tag_189:\n        /* \"#utility.yul\":7323:7324   */\n      dup3\n        /* \"#utility.yul\":7320:7321   */\n      dup3\n        /* \"#utility.yul\":7316:7325   */\n      div\n        /* \"#utility.yul\":7311:7325   */\n      swap1\n      pop\n        /* \"#utility.yul\":7146:7331   */\n      swap3\n      swap2\n      pop\n      pop\n      jump\t// out\n        /* \"#utility.yul\":7337:7442   */\n    tag_111:\n        /* \"#utility.yul\":7373:7380   */\n      0x00\n        /* \"#utility.yul\":7413:7435   */\n      0xffffffffffffffffffff\n        /* \"#utility.yul\":7406:7411   */\n      dup3\n        /* \"#utility.yul\":7402:7436   */\n      and\n        /* \"#utility.yul\":7391:7436   */\n      swap1\n      pop\n        /* \"#utility.yul\":7337:7442   */\n      swap2\n      swap1\n      pop\n      jump\t// out\n        /* \"#utility.yul\":7448:7568   */\n    tag_112:\n        /* \"#utility.yul\":7520:7543   */\n      tag_193\n        /* \"#utility.yul\":7537:7542   */\n      dup2\n        /* \"#utility.yul\":7520:7543   */\n      tag_111\n      jump\t// in\n    tag_193:\n        /* \"#utility.yul\":7513:7518   */\n      dup2\n        /* \"#utility.yul\":7510:7544   */\n      eq\n        /* \"#utility.yul\":7500:7562   */\n      tag_194\n      jumpi\n        /* \"#utility.yul\":7558:7559   */\n      0x00\n        /* \"#utility.yul\":7555:7556   */\n      dup1\n        /* \"#utility.yul\":7548:7560   */\n      revert\n        /* \"#utility.yul\":7500:7562   */\n    tag_194:\n        /* \"#utility.yul\":7448:7568   */\n      pop\n      jump\t// out\n        /* \"#utility.yul\":7574:7715   */\n    tag_113:\n        /* \"#utility.yul\":7630:7635   */\n      0x00\n        /* \"#utility.yul\":7661:7667   */\n      dup2\n        /* \"#utility.yul\":7655:7668   */\n      mload\n        /* \"#utility.yul\":7646:7668   */\n      swap1\n      pop\n        /* \"#utility.yul\":7677:7709   */\n      tag_196\n        /* \"#utility.yul\":7703:7708   */\n      dup2\n        /* \"#utility.yul\":7677:7709   */\n      tag_112\n      jump\t// in\n    tag_196:\n        /* \"#utility.yul\":7574:7715   */\n      swap3\n      swap2\n      pop\n      pop\n      jump\t// out\n        /* \"#utility.yul\":7721:7797   */\n    tag_114:\n        /* \"#utility.yul\":7757:7764   */\n      0x00\n        /* \"#utility.yul\":7786:7791   */\n      dup2\n        /* \"#utility.yul\":7775:7791   */\n      swap1\n      pop\n        /* \"#utility.yul\":7721:7797   */\n      swap2\n      swap1\n      pop\n      jump\t// out\n        /* \"#utility.yul\":7803:7923   */\n    tag_115:\n        /* \"#utility.yul\":7875:7898   */\n      tag_199\n        /* \"#utility.yul\":7892:7897   */\n      dup2\n        /* \"#utility.yul\":7875:7898   */\n      tag_114\n      jump\t// in\n    tag_199:\n        /* \"#utility.yul\":7868:7873   */\n      dup2\n        /* \"#utility.yul\":7865:7899   */\n      eq\n        /* \"#utility.yul\":7855:7917   */\n      tag_200\n      jumpi\n        /* \"#utility.yul\":7913:7914   */\n      0x00\n        /* \"#utility.yul\":7910:7911   */\n      dup1\n        /* \"#utility.yul\":7903:7915   */\n      revert\n        /* \"#utility.yul\":7855:7917   */\n    tag_200:\n        /* \"#utility.yul\":7803:7923   */\n      pop\n      jump\t// out\n        /* \"#utility.yul\":7929:8070   */\n    tag_116:\n        /* \"#utility.yul\":7985:7990   */\n      0x00\n        /* \"#utility.yul\":8016:8022   */\n      dup2\n        /* \"#utility.yul\":8010:8023   */\n      mload\n        /* \"#utility.yul\":8001:8023   */\n      swap1\n      pop\n        /* \"#utility.yul\":8032:8064   */\n      tag_202\n        /* \"#utility.yul\":8058:8063   */\n      dup2\n        /* \"#utility.yul\":8032:8064   */\n      tag_115\n      jump\t// in\n    tag_202:\n        /* \"#utility.yul\":7929:8070   */\n      swap3\n      swap2\n      pop\n      pop\n      jump\t// out\n        /* \"#utility.yul\":8076:8219   */\n    tag_117:\n        /* \"#utility.yul\":8133:8138   */\n      0x00\n        /* \"#utility.yul\":8164:8170   */\n      dup2\n        /* \"#utility.yul\":8158:8171   */\n      mload\n        /* \"#utility.yul\":8149:8171   */\n      swap1\n      pop\n        /* \"#utility.yul\":8180:8213   */\n      tag_204\n        /* \"#utility.yul\":8207:8212   */\n      dup2\n        /* \"#utility.yul\":8180:8213   */\n      tag_99\n      jump\t// in\n    tag_204:\n        /* \"#utility.yul\":8076:8219   */\n      swap3\n      swap2\n      pop\n      pop\n      jump\t// out\n        /* \"#utility.yul\":8225:9196   */\n    tag_79:\n        /* \"#utility.yul\":8328:8334   */\n      0x00\n        /* \"#utility.yul\":8336:8342   */\n      dup1\n        /* \"#utility.yul\":8344:8350   */\n      0x00\n        /* \"#utility.yul\":8352:8358   */\n      dup1\n        /* \"#utility.yul\":8360:8366   */\n      0x00\n        /* \"#utility.yul\":8409:8412   */\n      0xa0\n        /* \"#utility.yul\":8397:8406   */\n      dup7\n        /* \"#utility.yul\":8388:8395   */\n      dup9\n        /* \"#utility.yul\":8384:8407   */\n      sub\n        /* \"#utility.yul\":8380:8413   */\n      slt\n        /* \"#utility.yul\":8377:8497   */\n      iszero\n      tag_206\n      jumpi\n        /* \"#utility.yul\":8416:8495   */\n      tag_207\n      tag_90\n      jump\t// in\n    tag_207:\n        /* \"#utility.yul\":8377:8497   */\n    tag_206:\n        /* \"#utility.yul\":8536:8537   */\n      0x00\n        /* \"#utility.yul\":8561:8624   */\n      tag_208\n        /* \"#utility.yul\":8616:8623   */\n      dup9\n        /* \"#utility.yul\":8607:8613   */\n      dup3\n        /* \"#utility.yul\":8596:8605   */\n      dup10\n        /* \"#utility.yul\":8592:8614   */\n      add\n        /* \"#utility.yul\":8561:8624   */\n      tag_113\n      jump\t// in\n    tag_208:\n        /* \"#utility.yul\":8551:8624   */\n      swap6\n      pop\n        /* \"#utility.yul\":8507:8634   */\n      pop\n        /* \"#utility.yul\":8673:8675   */\n      0x20\n        /* \"#utility.yul\":8699:8762   */\n      tag_209\n        /* \"#utility.yul\":8754:8761   */\n      dup9\n        /* \"#utility.yul\":8745:8751   */\n      dup3\n        /* \"#utility.yul\":8734:8743   */\n      dup10\n        /* \"#utility.yul\":8730:8752   */\n      add\n        /* \"#utility.yul\":8699:8762   */\n      tag_116\n      jump\t// in\n    tag_209:\n        /* \"#utility.yul\":8689:8762   */\n      swap5\n      pop\n        /* \"#utility.yul\":8644:8772   */\n      pop\n        /* \"#utility.yul\":8811:8813   */\n      0x40\n        /* \"#utility.yul\":8837:8901   */\n      tag_210\n        /* \"#utility.yul\":8893:8900   */\n      dup9\n        /* \"#utility.yul\":8884:8890   */\n      dup3\n        /* \"#utility.yul\":8873:8882   */\n      dup10\n        /* \"#utility.yul\":8869:8891   */\n      add\n        /* \"#utility.yul\":8837:8901   */\n      tag_117\n      jump\t// in\n    tag_210:\n        /* \"#utility.yul\":8827:8901   */\n      swap4\n      pop\n        /* \"#utility.yul\":8782:8911   */\n      pop\n        /* \"#utility.yul\":8950:8952   */\n      0x60\n        /* \"#utility.yul\":8976:9040   */\n      tag_211\n        /* \"#utility.yul\":9032:9039   */\n      dup9\n        /* \"#utility.yul\":9023:9029   */\n      dup3\n        /* \"#utility.yul\":9012:9021   */\n      dup10\n        /* \"#utility.yul\":9008:9030   */\n      add\n        /* \"#utility.yul\":8976:9040   */\n      tag_117\n      jump\t// in\n    tag_211:\n        /* \"#utility.yul\":8966:9040   */\n      swap3\n      pop\n        /* \"#utility.yul\":8921:9050   */\n      pop\n        /* \"#utility.yul\":9089:9092   */\n      0x80\n        /* \"#utility.yul\":9116:9179   */\n      tag_212\n        /* \"#utility.yul\":9171:9178   */\n      dup9\n        /* \"#utility.yul\":9162:9168   */\n      dup3\n        /* \"#utility.yul\":9151:9160   */\n      dup10\n        /* \"#utility.yul\":9147:9169   */\n      add\n        /* \"#utility.yul\":9116:9179   */\n      tag_113\n      jump\t// in\n    tag_212:\n        /* \"#utility.yul\":9106:9179   */\n      swap2\n      pop\n        /* \"#utility.yul\":9060:9189   */\n      pop\n        /* \"#utility.yul\":8225:9196   */\n      swap3\n      swap6\n      pop\n      swap3\n      swap6\n      swap1\n      swap4\n      pop\n      jump\t// out\n        /* \"#utility.yul\":9202:9758   */\n    tag_81:\n        /* \"#utility.yul\":9241:9248   */\n      0x00\n        /* \"#utility.yul\":9264:9283   */\n      tag_214\n        /* \"#utility.yul\":9281:9282   */\n      dup3\n        /* \"#utility.yul\":9264:9283   */\n      tag_114\n      jump\t// in\n    tag_214:\n        /* \"#utility.yul\":9259:9283   */\n      swap2\n      pop\n        /* \"#utility.yul\":9297:9316   */\n      tag_215\n        /* \"#utility.yul\":9314:9315   */\n      dup4\n        /* \"#utility.yul\":9297:9316   */\n      tag_114\n      jump\t// in\n    tag_215:\n        /* \"#utility.yul\":9292:9316   */\n      swap3\n      pop\n        /* \"#utility.yul\":9351:9352   */\n      dup3\n        /* \"#utility.yul\":9348:9349   */\n      dup3\n        /* \"#utility.yul\":9344:9353   */\n      mul\n        /* \"#utility.yul\":9373:9402   */\n      tag_216\n        /* \"#utility.yul\":9390:9401   */\n      dup2\n        /* \"#utility.yul\":9373:9402   */\n      tag_114\n      jump\t// in\n    tag_216:\n        /* \"#utility.yul\":9362:9402   */\n      swap2\n      pop\n        /* \"#utility.yul\":9460:9526   */\n      0x8000000000000000000000000000000000000000000000000000000000000000\n        /* \"#utility.yul\":9457:9458   */\n      dup5\n        /* \"#utility.yul\":9454:9527   */\n      eq\n        /* \"#utility.yul\":9450:9451   */\n      0x00\n        /* \"#utility.yul\":9447:9448   */\n      dup5\n        /* \"#utility.yul\":9443:9452   */\n      slt\n        /* \"#utility.yul\":9439:9528   */\n      and\n        /* \"#utility.yul\":9436:9551   */\n      iszero\n      tag_217\n      jumpi\n        /* \"#utility.yul\":9531:9549   */\n      tag_218\n      tag_101\n      jump\t// in\n    tag_218:\n        /* \"#utility.yul\":9436:9551   */\n    tag_217:\n        /* \"#utility.yul\":9701:9702   */\n      dup3\n        /* \"#utility.yul\":9692:9699   */\n      dup3\n        /* \"#utility.yul\":9687:9703   */\n      sdiv\n        /* \"#utility.yul\":9684:9685   */\n      dup5\n        /* \"#utility.yul\":9681:9704   */\n      eq\n        /* \"#utility.yul\":9661:9662   */\n      dup4\n        /* \"#utility.yul\":9654:9663   */\n      iszero\n        /* \"#utility.yul\":9634:9718   */\n      or\n        /* \"#utility.yul\":9611:9751   */\n      tag_219\n      jumpi\n        /* \"#utility.yul\":9731:9749   */\n      tag_220\n      tag_101\n      jump\t// in\n    tag_220:\n        /* \"#utility.yul\":9611:9751   */\n    tag_219:\n        /* \"#utility.yul\":9249:9758   */\n      pop\n        /* \"#utility.yul\":9202:9758   */\n      swap3\n      swap2\n      pop\n      pop\n      jump\t// out\n\n    auxdata: 0xa2646970667358221220903de05c1a8286d210263638f3c669effb726085b5e8b59683b9b0b09b9a273464736f6c63430008110033\n}\n",
				"bytecode": {
					"linkReferences": {},
					"object": "60806040526802b5e3af16b188000060005534801561001d57600080fd5b5033600360006101000a81548173ffffffffffffffffffffffffffffffffffffffff021916908373ffffffffffffffffffffffffffffffffffffffff160217905550610bad8061006e6000396000f3fe6080604052600436106100555760003560e01c80633ccfd60b1461005a5780633e47d6f3146100715780638da5cb5b146100ae578063b60d4288146100d9578063dc0d3dff146100e3578063e5e18b1a14610120575b600080fd5b34801561006657600080fd5b5061006f61014b565b005b34801561007d57600080fd5b506100986004803603810190610093919061066d565b610307565b6040516100a591906106b3565b60405180910390f35b3480156100ba57600080fd5b506100c361031f565b6040516100d091906106dd565b60405180910390f35b6100e1610345565b005b3480156100ef57600080fd5b5061010a60048036038101906101059190610724565b61043b565b60405161011791906106dd565b60405180910390f35b34801561012c57600080fd5b5061013561047a565b60405161014291906106b3565b60405180910390f35b60005b6001805490508110156101f75760006001828154811061017157610170610751565b5b9060005260206000200160009054906101000a900473ffffffffffffffffffffffffffffffffffffffff1690506000600260008373ffffffffffffffffffffffffffffffffffffffff1673ffffffffffffffffffffffffffffffffffffffff168152602001908152602001600020819055505080806101ef906107af565b91505061014e565b50600067ffffffffffffffff811115610213576102126107f7565b5b6040519080825280602002602001820160405280156102415781602001602082028036833780820191505090505b5060019080519060200190610257929190610563565b5060003373ffffffffffffffffffffffffffffffffffffffff164760405161027e90610857565b60006040518083038185875af1925050503d80600081146102bb576040519150601f19603f3d011682016040523d82523d6000602084013e6102c0565b606091505b5050905080610304576040517f08c379a00000000000000000000000000000000000000000000000000000000081526004016102fb906108c9565b60405180910390fd5b50565b60026020528060005260406000206000915090505481565b600360009054906101000a900473ffffffffffffffffffffffffffffffffffffffff1681565b60005461035134610480565b1015610392576040517f08c379a000000000000000000000000000000000000000000000000000000000815260040161038990610935565b60405180910390fd5b6001339080600181540180825580915050600190039060005260206000200160009091909190916101000a81548173ffffffffffffffffffffffffffffffffffffffff021916908373ffffffffffffffffffffffffffffffffffffffff16021790555034600260003373ffffffffffffffffffffffffffffffffffffffff1673ffffffffffffffffffffffffffffffffffffffff16815260200190815260200160002081905550565b6001818154811061044b57600080fd5b906000526020600020016000915054906101000a900473ffffffffffffffffffffffffffffffffffffffff1681565b60005481565b60008061048b6104ba565b90506000670de0b6b3a764000084836104a49190610955565b6104ae91906109c6565b90508092505050919050565b60008073d4a33860578de61dbabdc8bfdb98fd742fa7028e905060008173ffffffffffffffffffffffffffffffffffffffff1663feaf968c6040518163ffffffff1660e01b815260040160a060405180830381865afa158015610521573d6000803e3d6000fd5b505050506040513d601f19601f820116820180604052508101906105459190610a84565b5050509150506402540be4008161055c9190610aff565b9250505090565b8280548282559060005260206000209081019282156105dc579160200282015b828111156105db5782518260006101000a81548173ffffffffffffffffffffffffffffffffffffffff021916908373ffffffffffffffffffffffffffffffffffffffff16021790555091602001919060010190610583565b5b5090506105e991906105ed565b5090565b5b808211156106065760008160009055506001016105ee565b5090565b600080fd5b600073ffffffffffffffffffffffffffffffffffffffff82169050919050565b600061063a8261060f565b9050919050565b61064a8161062f565b811461065557600080fd5b50565b60008135905061066781610641565b92915050565b6000602082840312156106835761068261060a565b5b600061069184828501610658565b91505092915050565b6000819050919050565b6106ad8161069a565b82525050565b60006020820190506106c860008301846106a4565b92915050565b6106d78161062f565b82525050565b60006020820190506106f260008301846106ce565b92915050565b6107018161069a565b811461070c57600080fd5b50565b60008135905061071e816106f8565b92915050565b60006020828403121561073a5761073961060a565b5b60006107488482850161070f565b91505092915050565b7f4e487b7100000000000000000000000000000000000000000000000000000000600052603260045260246000fd5b7f4e487b7100000000000000000000000000000000000000000000000000000000600052601160045260246000fd5b60006107ba8261069a565b91507fffffffffffffffffffffffffffffffffffffffffffffffffffffffffffffffff82036107ec576107eb610780565b5b600182019050919050565b7f4e487b7100000000000000000000000000000000000000000000000000000000600052604160045260246000fd5b600081905092915050565b50565b6000610841600083610826565b915061084c82610831565b600082019050919050565b600061086282610834565b9150819050919050565b600082825260208201905092915050565b7f66616c6c6f20616c206c6c616d61720000000000000000000000000000000000600082015250565b60006108b3600f8361086c565b91506108be8261087d565b602082019050919050565b600060208201905081810360008301526108e2816108a6565b9050919050565b7f53616c646f20696e737566696369656e74650000000000000000000000000000600082015250565b600061091f60128361086c565b915061092a826108e9565b602082019050919050565b6000602082019050818103600083015261094e81610912565b9050919050565b60006109608261069a565b915061096b8361069a565b92508282026109798161069a565b915082820484148315176109905761098f610780565b5b5092915050565b7f4e487b7100000000000000000000000000000000000000000000000000000000600052601260045260246000fd5b60006109d18261069a565b91506109dc8361069a565b9250826109ec576109eb610997565b5b828204905092915050565b600069ffffffffffffffffffff82169050919050565b610a16816109f7565b8114610a2157600080fd5b50565b600081519050610a3381610a0d565b92915050565b6000819050919050565b610a4c81610a39565b8114610a5757600080fd5b50565b600081519050610a6981610a43565b92915050565b600081519050610a7e816106f8565b92915050565b600080600080600060a08688031215610aa057610a9f61060a565b5b6000610aae88828901610a24565b9550506020610abf88828901610a5a565b9450506040610ad088828901610a6f565b9350506060610ae188828901610a6f565b9250506080610af288828901610a24565b9150509295509295909350565b6000610b0a82610a39565b9150610b1583610a39565b9250828202610b2381610a39565b91507f80000000000000000000000000000000000000000000000000000000000000008414600084121615610b5b57610b5a610780565b5b8282058414831517610b7057610b6f610780565b5b509291505056fea2646970667358221220903de05c1a8286d210263638f3c669effb726085b5e8b59683b9b0b09b9a273464736f6c63430008110033",
					"opcodes": "PUSH1 0x80 PUSH1 0x40 MSTORE PUSH9 0x2B5E3AF16B1880000 PUSH1 0x0 SSTORE CALLVALUE DUP1 ISZERO PUSH2 0x1D JUMPI PUSH1 0x0 DUP1 REVERT JUMPDEST POP CALLER PUSH1 0x3 PUSH1 0x0 PUSH2 0x100 EXP DUP2 SLOAD DUP2 PUSH20 0xFFFFFFFFFFFFFFFFFFFFFFFFFFFFFFFFFFFFFFFF MUL NOT AND SWAP1 DUP4 PUSH20 0xFFFFFFFFFFFFFFFFFFFFFFFFFFFFFFFFFFFFFFFF AND MUL OR SWAP1 SSTORE POP PUSH2 0xBAD DUP1 PUSH2 0x6E PUSH1 0x0 CODECOPY PUSH1 0x0 RETURN INVALID PUSH1 0x80 PUSH1 0x40 MSTORE PUSH1 0x4 CALLDATASIZE LT PUSH2 0x55 JUMPI PUSH1 0x0 CALLDATALOAD PUSH1 0xE0 SHR DUP1 PUSH4 0x3CCFD60B EQ PUSH2 0x5A JUMPI DUP1 PUSH4 0x3E47D6F3 EQ PUSH2 0x71 JUMPI DUP1 PUSH4 0x8DA5CB5B EQ PUSH2 0xAE JUMPI DUP1 PUSH4 0xB60D4288 EQ PUSH2 0xD9 JUMPI DUP1 PUSH4 0xDC0D3DFF EQ PUSH2 0xE3 JUMPI DUP1 PUSH4 0xE5E18B1A EQ PUSH2 0x120 JUMPI JUMPDEST PUSH1 0x0 DUP1 REVERT JUMPDEST CALLVALUE DUP1 ISZERO PUSH2 0x66 JUMPI PUSH1 0x0 DUP1 REVERT JUMPDEST POP PUSH2 0x6F PUSH2 0x14B JUMP JUMPDEST STOP JUMPDEST CALLVALUE DUP1 ISZERO PUSH2 0x7D JUMPI PUSH1 0x0 DUP1 REVERT JUMPDEST POP PUSH2 0x98 PUSH1 0x4 DUP1 CALLDATASIZE SUB DUP2 ADD SWAP1 PUSH2 0x93 SWAP2 SWAP1 PUSH2 0x66D JUMP JUMPDEST PUSH2 0x307 JUMP JUMPDEST PUSH1 0x40 MLOAD PUSH2 0xA5 SWAP2 SWAP1 PUSH2 0x6B3 JUMP JUMPDEST PUSH1 0x40 MLOAD DUP1 SWAP2 SUB SWAP1 RETURN JUMPDEST CALLVALUE DUP1 ISZERO PUSH2 0xBA JUMPI PUSH1 0x0 DUP1 REVERT JUMPDEST POP PUSH2 0xC3 PUSH2 0x31F JUMP JUMPDEST PUSH1 0x40 MLOAD PUSH2 0xD0 SWAP2 SWAP1 PUSH2 0x6DD JUMP JUMPDEST PUSH1 0x40 MLOAD DUP1 SWAP2 SUB SWAP1 RETURN JUMPDEST PUSH2 0xE1 PUSH2 0x345 JUMP JUMPDEST STOP JUMPDEST CALLVALUE DUP1 ISZERO PUSH2 0xEF JUMPI PUSH1 0x0 DUP1 REVERT JUMPDEST POP PUSH2 0x10A PUSH1 0x4 DUP1 CALLDATASIZE SUB DUP2 ADD SWAP1 PUSH2 0x105 SWAP2 SWAP1 PUSH2 0x724 JUMP JUMPDEST PUSH2 0x43B JUMP JUMPDEST PUSH1 0x40 MLOAD PUSH2 0x117 SWAP2 SWAP1 PUSH2 0x6DD JUMP JUMPDEST PUSH1 0x40 MLOAD DUP1 SWAP2 SUB SWAP1 RETURN JUMPDEST CALLVALUE DUP1 ISZERO PUSH2 0x12C JUMPI PUSH1 0x0 DUP1 REVERT JUMPDEST POP PUSH2 0x135 PUSH2 0x47A JUMP JUMPDEST PUSH1 0x40 MLOAD PUSH2 0x142 SWAP2 SWAP1 PUSH2 0x6B3 JUMP JUMPDEST PUSH1 0x40 MLOAD DUP1 SWAP2 SUB SWAP1 RETURN JUMPDEST PUSH1 0x0 JUMPDEST PUSH1 0x1 DUP1 SLOAD SWAP1 POP DUP2 LT ISZERO PUSH2 0x1F7 JUMPI PUSH1 0x0 PUSH1 0x1 DUP3 DUP2 SLOAD DUP2 LT PUSH2 0x171 JUMPI PUSH2 0x170 PUSH2 0x751 JUMP JUMPDEST JUMPDEST SWAP1 PUSH1 0x0 MSTORE PUSH1 0x20 PUSH1 0x0 KECCAK256 ADD PUSH1 0x0 SWAP1 SLOAD SWAP1 PUSH2 0x100 EXP SWAP1 DIV PUSH20 0xFFFFFFFFFFFFFFFFFFFFFFFFFFFFFFFFFFFFFFFF AND SWAP1 POP PUSH1 0x0 PUSH1 0x2 PUSH1 0x0 DUP4 PUSH20 0xFFFFFFFFFFFFFFFFFFFFFFFFFFFFFFFFFFFFFFFF AND PUSH20 0xFFFFFFFFFFFFFFFFFFFFFFFFFFFFFFFFFFFFFFFF AND DUP2 MSTORE PUSH1 0x20 ADD SWAP1 DUP2 MSTORE PUSH1 0x20 ADD PUSH1 0x0 KECCAK256 DUP2 SWAP1 SSTORE POP POP DUP1 DUP1 PUSH2 0x1EF SWAP1 PUSH2 0x7AF JUMP JUMPDEST SWAP2 POP POP PUSH2 0x14E JUMP JUMPDEST POP PUSH1 0x0 PUSH8 0xFFFFFFFFFFFFFFFF DUP2 GT ISZERO PUSH2 0x213 JUMPI PUSH2 0x212 PUSH2 0x7F7 JUMP JUMPDEST JUMPDEST PUSH1 0x40 MLOAD SWAP1 DUP1 DUP3 MSTORE DUP1 PUSH1 0x20 MUL PUSH1 0x20 ADD DUP3 ADD PUSH1 0x40 MSTORE DUP1 ISZERO PUSH2 0x241 JUMPI DUP2 PUSH1 0x20 ADD PUSH1 0x20 DUP3 MUL DUP1 CALLDATASIZE DUP4 CALLDATACOPY DUP1 DUP3 ADD SWAP2 POP POP SWAP1 POP JUMPDEST POP PUSH1 0x1 SWAP1 DUP1 MLOAD SWAP1 PUSH1 0x20 ADD SWAP1 PUSH2 0x257 SWAP3 SWAP2 SWAP1 PUSH2 0x563 JUMP JUMPDEST POP PUSH1 0x0 CALLER PUSH20 0xFFFFFFFFFFFFFFFFFFFFFFFFFFFFFFFFFFFFFFFF AND SELFBALANCE PUSH1 0x40 MLOAD PUSH2 0x27E SWAP1 PUSH2 0x857 JUMP JUMPDEST PUSH1 0x0 PUSH1 0x40 MLOAD DUP1 DUP4 SUB DUP2 DUP6 DUP8 GAS CALL SWAP3 POP POP POP RETURNDATASIZE DUP1 PUSH1 0x0 DUP2 EQ PUSH2 0x2BB JUMPI PUSH1 0x40 MLOAD SWAP2 POP PUSH1 0x1F NOT PUSH1 0x3F RETURNDATASIZE ADD AND DUP3 ADD PUSH1 0x40 MSTORE RETURNDATASIZE DUP3 MSTORE RETURNDATASIZE PUSH1 0x0 PUSH1 0x20 DUP5 ADD RETURNDATACOPY PUSH2 0x2C0 JUMP JUMPDEST PUSH1 0x60 SWAP2 POP JUMPDEST POP POP SWAP1 POP DUP1 PUSH2 0x304 JUMPI PUSH1 0x40 MLOAD PUSH32 0x8C379A000000000000000000000000000000000000000000000000000000000 DUP2 MSTORE PUSH1 0x4 ADD PUSH2 0x2FB SWAP1 PUSH2 0x8C9 JUMP JUMPDEST PUSH1 0x40 MLOAD DUP1 SWAP2 SUB SWAP1 REVERT JUMPDEST POP JUMP JUMPDEST PUSH1 0x2 PUSH1 0x20 MSTORE DUP1 PUSH1 0x0 MSTORE PUSH1 0x40 PUSH1 0x0 KECCAK256 PUSH1 0x0 SWAP2 POP SWAP1 POP SLOAD DUP2 JUMP JUMPDEST PUSH1 0x3 PUSH1 0x0 SWAP1 SLOAD SWAP1 PUSH2 0x100 EXP SWAP1 DIV PUSH20 0xFFFFFFFFFFFFFFFFFFFFFFFFFFFFFFFFFFFFFFFF AND DUP2 JUMP JUMPDEST PUSH1 0x0 SLOAD PUSH2 0x351 CALLVALUE PUSH2 0x480 JUMP JUMPDEST LT ISZERO PUSH2 0x392 JUMPI PUSH1 0x40 MLOAD PUSH32 0x8C379A000000000000000000000000000000000000000000000000000000000 DUP2 MSTORE PUSH1 0x4 ADD PUSH2 0x389 SWAP1 PUSH2 0x935 JUMP JUMPDEST PUSH1 0x40 MLOAD DUP1 SWAP2 SUB SWAP1 REVERT JUMPDEST PUSH1 0x1 CALLER SWAP1 DUP1 PUSH1 0x1 DUP2 SLOAD ADD DUP1 DUP3 SSTORE DUP1 SWAP2 POP POP PUSH1 0x1 SWAP1 SUB SWAP1 PUSH1 0x0 MSTORE PUSH1 0x20 PUSH1 0x0 KECCAK256 ADD PUSH1 0x0 SWAP1 SWAP2 SWAP1 SWAP2 SWAP1 SWAP2 PUSH2 0x100 EXP DUP2 SLOAD DUP2 PUSH20 0xFFFFFFFFFFFFFFFFFFFFFFFFFFFFFFFFFFFFFFFF MUL NOT AND SWAP1 DUP4 PUSH20 0xFFFFFFFFFFFFFFFFFFFFFFFFFFFFFFFFFFFFFFFF AND MUL OR SWAP1 SSTORE POP CALLVALUE PUSH1 0x2 PUSH1 0x0 CALLER PUSH20 0xFFFFFFFFFFFFFFFFFFFFFFFFFFFFFFFFFFFFFFFF AND PUSH20 0xFFFFFFFFFFFFFFFFFFFFFFFFFFFFFFFFFFFFFFFF AND DUP2 MSTORE PUSH1 0x20 ADD SWAP1 DUP2 MSTORE PUSH1 0x20 ADD PUSH1 0x0 KECCAK256 DUP2 SWAP1 SSTORE POP JUMP JUMPDEST PUSH1 0x1 DUP2 DUP2 SLOAD DUP2 LT PUSH2 0x44B JUMPI PUSH1 0x0 DUP1 REVERT JUMPDEST SWAP1 PUSH1 0x0 MSTORE PUSH1 0x20 PUSH1 0x0 KECCAK256 ADD PUSH1 0x0 SWAP2 POP SLOAD SWAP1 PUSH2 0x100 EXP SWAP1 DIV PUSH20 0xFFFFFFFFFFFFFFFFFFFFFFFFFFFFFFFFFFFFFFFF AND DUP2 JUMP JUMPDEST PUSH1 0x0 SLOAD DUP2 JUMP JUMPDEST PUSH1 0x0 DUP1 PUSH2 0x48B PUSH2 0x4BA JUMP JUMPDEST SWAP1 POP PUSH1 0x0 PUSH8 0xDE0B6B3A7640000 DUP5 DUP4 PUSH2 0x4A4 SWAP2 SWAP1 PUSH2 0x955 JUMP JUMPDEST PUSH2 0x4AE SWAP2 SWAP1 PUSH2 0x9C6 JUMP JUMPDEST SWAP1 POP DUP1 SWAP3 POP POP POP SWAP2 SWAP1 POP JUMP JUMPDEST PUSH1 0x0 DUP1 PUSH20 0xD4A33860578DE61DBABDC8BFDB98FD742FA7028E SWAP1 POP PUSH1 0x0 DUP2 PUSH20 0xFFFFFFFFFFFFFFFFFFFFFFFFFFFFFFFFFFFFFFFF AND PUSH4 0xFEAF968C PUSH1 0x40 MLOAD DUP2 PUSH4 0xFFFFFFFF AND PUSH1 0xE0 SHL DUP2 MSTORE PUSH1 0x4 ADD PUSH1 0xA0 PUSH1 0x40 MLOAD DUP1 DUP4 SUB DUP2 DUP7 GAS STATICCALL ISZERO DUP1 ISZERO PUSH2 0x521 JUMPI RETURNDATASIZE PUSH1 0x0 DUP1 RETURNDATACOPY RETURNDATASIZE PUSH1 0x0 REVERT JUMPDEST POP POP POP POP PUSH1 0x40 MLOAD RETURNDATASIZE PUSH1 0x1F NOT PUSH1 0x1F DUP3 ADD AND DUP3 ADD DUP1 PUSH1 0x40 MSTORE POP DUP2 ADD SWAP1 PUSH2 0x545 SWAP2 SWAP1 PUSH2 0xA84 JUMP JUMPDEST POP POP POP SWAP2 POP POP PUSH5 0x2540BE400 DUP2 PUSH2 0x55C SWAP2 SWAP1 PUSH2 0xAFF JUMP JUMPDEST SWAP3 POP POP POP SWAP1 JUMP JUMPDEST DUP3 DUP1 SLOAD DUP3 DUP3 SSTORE SWAP1 PUSH1 0x0 MSTORE PUSH1 0x20 PUSH1 0x0 KECCAK256 SWAP1 DUP2 ADD SWAP3 DUP3 ISZERO PUSH2 0x5DC JUMPI SWAP2 PUSH1 0x20 MUL DUP3 ADD JUMPDEST DUP3 DUP2 GT ISZERO PUSH2 0x5DB JUMPI DUP3 MLOAD DUP3 PUSH1 0x0 PUSH2 0x100 EXP DUP2 SLOAD DUP2 PUSH20 0xFFFFFFFFFFFFFFFFFFFFFFFFFFFFFFFFFFFFFFFF MUL NOT AND SWAP1 DUP4 PUSH20 0xFFFFFFFFFFFFFFFFFFFFFFFFFFFFFFFFFFFFFFFF AND MUL OR SWAP1 SSTORE POP SWAP2 PUSH1 0x20 ADD SWAP2 SWAP1 PUSH1 0x1 ADD SWAP1 PUSH2 0x583 JUMP JUMPDEST JUMPDEST POP SWAP1 POP PUSH2 0x5E9 SWAP2 SWAP1 PUSH2 0x5ED JUMP JUMPDEST POP SWAP1 JUMP JUMPDEST JUMPDEST DUP1 DUP3 GT ISZERO PUSH2 0x606 JUMPI PUSH1 0x0 DUP2 PUSH1 0x0 SWAP1 SSTORE POP PUSH1 0x1 ADD PUSH2 0x5EE JUMP JUMPDEST POP SWAP1 JUMP JUMPDEST PUSH1 0x0 DUP1 REVERT JUMPDEST PUSH1 0x0 PUSH20 0xFFFFFFFFFFFFFFFFFFFFFFFFFFFFFFFFFFFFFFFF DUP3 AND SWAP1 POP SWAP2 SWAP1 POP JUMP JUMPDEST PUSH1 0x0 PUSH2 0x63A DUP3 PUSH2 0x60F JUMP JUMPDEST SWAP1 POP SWAP2 SWAP1 POP JUMP JUMPDEST PUSH2 0x64A DUP2 PUSH2 0x62F JUMP JUMPDEST DUP2 EQ PUSH2 0x655 JUMPI PUSH1 0x0 DUP1 REVERT JUMPDEST POP JUMP JUMPDEST PUSH1 0x0 DUP2 CALLDATALOAD SWAP1 POP PUSH2 0x667 DUP2 PUSH2 0x641 JUMP JUMPDEST SWAP3 SWAP2 POP POP JUMP JUMPDEST PUSH1 0x0 PUSH1 0x20 DUP3 DUP5 SUB SLT ISZERO PUSH2 0x683 JUMPI PUSH2 0x682 PUSH2 0x60A JUMP JUMPDEST JUMPDEST PUSH1 0x0 PUSH2 0x691 DUP5 DUP3 DUP6 ADD PUSH2 0x658 JUMP JUMPDEST SWAP2 POP POP SWAP3 SWAP2 POP POP JUMP JUMPDEST PUSH1 0x0 DUP2 SWAP1 POP SWAP2 SWAP1 POP JUMP JUMPDEST PUSH2 0x6AD DUP2 PUSH2 0x69A JUMP JUMPDEST DUP3 MSTORE POP POP JUMP JUMPDEST PUSH1 0x0 PUSH1 0x20 DUP3 ADD SWAP1 POP PUSH2 0x6C8 PUSH1 0x0 DUP4 ADD DUP5 PUSH2 0x6A4 JUMP JUMPDEST SWAP3 SWAP2 POP POP JUMP JUMPDEST PUSH2 0x6D7 DUP2 PUSH2 0x62F JUMP JUMPDEST DUP3 MSTORE POP POP JUMP JUMPDEST PUSH1 0x0 PUSH1 0x20 DUP3 ADD SWAP1 POP PUSH2 0x6F2 PUSH1 0x0 DUP4 ADD DUP5 PUSH2 0x6CE JUMP JUMPDEST SWAP3 SWAP2 POP POP JUMP JUMPDEST PUSH2 0x701 DUP2 PUSH2 0x69A JUMP JUMPDEST DUP2 EQ PUSH2 0x70C JUMPI PUSH1 0x0 DUP1 REVERT JUMPDEST POP JUMP JUMPDEST PUSH1 0x0 DUP2 CALLDATALOAD SWAP1 POP PUSH2 0x71E DUP2 PUSH2 0x6F8 JUMP JUMPDEST SWAP3 SWAP2 POP POP JUMP JUMPDEST PUSH1 0x0 PUSH1 0x20 DUP3 DUP5 SUB SLT ISZERO PUSH2 0x73A JUMPI PUSH2 0x739 PUSH2 0x60A JUMP JUMPDEST JUMPDEST PUSH1 0x0 PUSH2 0x748 DUP5 DUP3 DUP6 ADD PUSH2 0x70F JUMP JUMPDEST SWAP2 POP POP SWAP3 SWAP2 POP POP JUMP JUMPDEST PUSH32 0x4E487B7100000000000000000000000000000000000000000000000000000000 PUSH1 0x0 MSTORE PUSH1 0x32 PUSH1 0x4 MSTORE PUSH1 0x24 PUSH1 0x0 REVERT JUMPDEST PUSH32 0x4E487B7100000000000000000000000000000000000000000000000000000000 PUSH1 0x0 MSTORE PUSH1 0x11 PUSH1 0x4 MSTORE PUSH1 0x24 PUSH1 0x0 REVERT JUMPDEST PUSH1 0x0 PUSH2 0x7BA DUP3 PUSH2 0x69A JUMP JUMPDEST SWAP2 POP PUSH32 0xFFFFFFFFFFFFFFFFFFFFFFFFFFFFFFFFFFFFFFFFFFFFFFFFFFFFFFFFFFFFFFFF DUP3 SUB PUSH2 0x7EC JUMPI PUSH2 0x7EB PUSH2 0x780 JUMP JUMPDEST JUMPDEST PUSH1 0x1 DUP3 ADD SWAP1 POP SWAP2 SWAP1 POP JUMP JUMPDEST PUSH32 0x4E487B7100000000000000000000000000000000000000000000000000000000 PUSH1 0x0 MSTORE PUSH1 0x41 PUSH1 0x4 MSTORE PUSH1 0x24 PUSH1 0x0 REVERT JUMPDEST PUSH1 0x0 DUP2 SWAP1 POP SWAP3 SWAP2 POP POP JUMP JUMPDEST POP JUMP JUMPDEST PUSH1 0x0 PUSH2 0x841 PUSH1 0x0 DUP4 PUSH2 0x826 JUMP JUMPDEST SWAP2 POP PUSH2 0x84C DUP3 PUSH2 0x831 JUMP JUMPDEST PUSH1 0x0 DUP3 ADD SWAP1 POP SWAP2 SWAP1 POP JUMP JUMPDEST PUSH1 0x0 PUSH2 0x862 DUP3 PUSH2 0x834 JUMP JUMPDEST SWAP2 POP DUP2 SWAP1 POP SWAP2 SWAP1 POP JUMP JUMPDEST PUSH1 0x0 DUP3 DUP3 MSTORE PUSH1 0x20 DUP3 ADD SWAP1 POP SWAP3 SWAP2 POP POP JUMP JUMPDEST PUSH32 0x66616C6C6F20616C206C6C616D61720000000000000000000000000000000000 PUSH1 0x0 DUP3 ADD MSTORE POP JUMP JUMPDEST PUSH1 0x0 PUSH2 0x8B3 PUSH1 0xF DUP4 PUSH2 0x86C JUMP JUMPDEST SWAP2 POP PUSH2 0x8BE DUP3 PUSH2 0x87D JUMP JUMPDEST PUSH1 0x20 DUP3 ADD SWAP1 POP SWAP2 SWAP1 POP JUMP JUMPDEST PUSH1 0x0 PUSH1 0x20 DUP3 ADD SWAP1 POP DUP2 DUP2 SUB PUSH1 0x0 DUP4 ADD MSTORE PUSH2 0x8E2 DUP2 PUSH2 0x8A6 JUMP JUMPDEST SWAP1 POP SWAP2 SWAP1 POP JUMP JUMPDEST PUSH32 0x53616C646F20696E737566696369656E74650000000000000000000000000000 PUSH1 0x0 DUP3 ADD MSTORE POP JUMP JUMPDEST PUSH1 0x0 PUSH2 0x91F PUSH1 0x12 DUP4 PUSH2 0x86C JUMP JUMPDEST SWAP2 POP PUSH2 0x92A DUP3 PUSH2 0x8E9 JUMP JUMPDEST PUSH1 0x20 DUP3 ADD SWAP1 POP SWAP2 SWAP1 POP JUMP JUMPDEST PUSH1 0x0 PUSH1 0x20 DUP3 ADD SWAP1 POP DUP2 DUP2 SUB PUSH1 0x0 DUP4 ADD MSTORE PUSH2 0x94E DUP2 PUSH2 0x912 JUMP JUMPDEST SWAP1 POP SWAP2 SWAP1 POP JUMP JUMPDEST PUSH1 0x0 PUSH2 0x960 DUP3 PUSH2 0x69A JUMP JUMPDEST SWAP2 POP PUSH2 0x96B DUP4 PUSH2 0x69A JUMP JUMPDEST SWAP3 POP DUP3 DUP3 MUL PUSH2 0x979 DUP2 PUSH2 0x69A JUMP JUMPDEST SWAP2 POP DUP3 DUP3 DIV DUP5 EQ DUP4 ISZERO OR PUSH2 0x990 JUMPI PUSH2 0x98F PUSH2 0x780 JUMP JUMPDEST JUMPDEST POP SWAP3 SWAP2 POP POP JUMP JUMPDEST PUSH32 0x4E487B7100000000000000000000000000000000000000000000000000000000 PUSH1 0x0 MSTORE PUSH1 0x12 PUSH1 0x4 MSTORE PUSH1 0x24 PUSH1 0x0 REVERT JUMPDEST PUSH1 0x0 PUSH2 0x9D1 DUP3 PUSH2 0x69A JUMP JUMPDEST SWAP2 POP PUSH2 0x9DC DUP4 PUSH2 0x69A JUMP JUMPDEST SWAP3 POP DUP3 PUSH2 0x9EC JUMPI PUSH2 0x9EB PUSH2 0x997 JUMP JUMPDEST JUMPDEST DUP3 DUP3 DIV SWAP1 POP SWAP3 SWAP2 POP POP JUMP JUMPDEST PUSH1 0x0 PUSH10 0xFFFFFFFFFFFFFFFFFFFF DUP3 AND SWAP1 POP SWAP2 SWAP1 POP JUMP JUMPDEST PUSH2 0xA16 DUP2 PUSH2 0x9F7 JUMP JUMPDEST DUP2 EQ PUSH2 0xA21 JUMPI PUSH1 0x0 DUP1 REVERT JUMPDEST POP JUMP JUMPDEST PUSH1 0x0 DUP2 MLOAD SWAP1 POP PUSH2 0xA33 DUP2 PUSH2 0xA0D JUMP JUMPDEST SWAP3 SWAP2 POP POP JUMP JUMPDEST PUSH1 0x0 DUP2 SWAP1 POP SWAP2 SWAP1 POP JUMP JUMPDEST PUSH2 0xA4C DUP2 PUSH2 0xA39 JUMP JUMPDEST DUP2 EQ PUSH2 0xA57 JUMPI PUSH1 0x0 DUP1 REVERT JUMPDEST POP JUMP JUMPDEST PUSH1 0x0 DUP2 MLOAD SWAP1 POP PUSH2 0xA69 DUP2 PUSH2 0xA43 JUMP JUMPDEST SWAP3 SWAP2 POP POP JUMP JUMPDEST PUSH1 0x0 DUP2 MLOAD SWAP1 POP PUSH2 0xA7E DUP2 PUSH2 0x6F8 JUMP JUMPDEST SWAP3 SWAP2 POP POP JUMP JUMPDEST PUSH1 0x0 DUP1 PUSH1 0x0 DUP1 PUSH1 0x0 PUSH1 0xA0 DUP7 DUP9 SUB SLT ISZERO PUSH2 0xAA0 JUMPI PUSH2 0xA9F PUSH2 0x60A JUMP JUMPDEST JUMPDEST PUSH1 0x0 PUSH2 0xAAE DUP9 DUP3 DUP10 ADD PUSH2 0xA24 JUMP JUMPDEST SWAP6 POP POP PUSH1 0x20 PUSH2 0xABF DUP9 DUP3 DUP10 ADD PUSH2 0xA5A JUMP JUMPDEST SWAP5 POP POP PUSH1 0x40 PUSH2 0xAD0 DUP9 DUP3 DUP10 ADD PUSH2 0xA6F JUMP JUMPDEST SWAP4 POP POP PUSH1 0x60 PUSH2 0xAE1 DUP9 DUP3 DUP10 ADD PUSH2 0xA6F JUMP JUMPDEST SWAP3 POP POP PUSH1 0x80 PUSH2 0xAF2 DUP9 DUP3 DUP10 ADD PUSH2 0xA24 JUMP JUMPDEST SWAP2 POP POP SWAP3 SWAP6 POP SWAP3 SWAP6 SWAP1 SWAP4 POP JUMP JUMPDEST PUSH1 0x0 PUSH2 0xB0A DUP3 PUSH2 0xA39 JUMP JUMPDEST SWAP2 POP PUSH2 0xB15 DUP4 PUSH2 0xA39 JUMP JUMPDEST SWAP3 POP DUP3 DUP3 MUL PUSH2 0xB23 DUP2 PUSH2 0xA39 JUMP JUMPDEST SWAP2 POP PUSH32 0x8000000000000000000000000000000000000000000000000000000000000000 DUP5 EQ PUSH1 0x0 DUP5 SLT AND ISZERO PUSH2 0xB5B JUMPI PUSH2 0xB5A PUSH2 0x780 JUMP JUMPDEST JUMPDEST DUP3 DUP3 SDIV DUP5 EQ DUP4 ISZERO OR PUSH2 0xB70 JUMPI PUSH2 0xB6F PUSH2 0x780 JUMP JUMPDEST JUMPDEST POP SWAP3 SWAP2 POP POP JUMP INVALID LOG2 PUSH5 0x6970667358 0x22 SLT KECCAK256 SWAP1 RETURNDATASIZE 0xE0 0x5C BYTE DUP3 DUP7 0xD2 LT 0x26 CALLDATASIZE CODESIZE RETURN 0xC6 PUSH10 0xEFFB726085B5E8B59683 0xB9 0xB0 0xB0 SWAP12 SWAP11 0x27 CALLVALUE PUSH5 0x736F6C6343 STOP ADDMOD GT STOP CALLER "
				},
				"gasEstimates": {
					"creation": {
						"codeDepositCost": "597800",
						"executionCost": "47004",
						"totalCost": "644804"
					},
					"external": {
						"addressToAmountFunded(address)": "2814",
						"fund()": "infinite",
						"funders(uint256)": "5022",
						"minimunUsd()": "2517",
						"owner()": "2536",
						"withdraw()": "infinite"
					}
				},
				"methodIdentifiers": {
					"addressToAmountFunded(address)": "3e47d6f3",
					"fund()": "b60d4288",
					"funders(uint256)": "dc0d3dff",
					"minimunUsd()": "e5e18b1a",
					"owner()": "8da5cb5b",
					"withdraw()": "3ccfd60b"
				}
			},
			"storageLayout": {
				"storage": [
					{
						"astId": 56,
						"contract": "contracts/FundMe.sol:Fundme",
						"label": "minimunUsd",
						"offset": 0,
						"slot": "0",
						"type": "t_uint256"
					},
					{
						"astId": 59,
						"contract": "contracts/FundMe.sol:Fundme",
						"label": "funders",
						"offset": 0,
						"slot": "1",
						"type": "t_array(t_address)dyn_storage"
					},
					{
						"astId": 63,
						"contract": "contracts/FundMe.sol:Fundme",
						"label": "addressToAmountFunded",
						"offset": 0,
						"slot": "2",
						"type": "t_mapping(t_address,t_uint256)"
					},
					{
						"astId": 94,
						"contract": "contracts/FundMe.sol:Fundme",
						"label": "owner",
						"offset": 0,
						"slot": "3",
						"type": "t_address"
					}
				],
				"types": {
					"t_address": {
						"encoding": "inplace",
						"label": "address",
						"numberOfBytes": "20"
					},
					"t_array(t_address)dyn_storage": {
						"base": "t_address",
						"encoding": "dynamic_array",
						"label": "address[]",
						"numberOfBytes": "32"
					},
					"t_mapping(t_address,t_uint256)": {
						"encoding": "mapping",
						"key": "t_address",
						"label": "mapping(address => uint256)",
						"numberOfBytes": "32",
						"value": "t_uint256"
					},
					"t_uint256": {
						"encoding": "inplace",
						"label": "uint256",
						"numberOfBytes": "32"
					}
				}
			},
			"userdoc": {
				"kind": "user",
				"methods": {},
				"version": 1
			}
		}
	}
}