{
	"contracts/FundMe.sol": {
		"Fundme": {
			"abi": [
				{
					"inputs": [],
					"stateMutability": "nonpayable",
					"type": "constructor"
				},
				{
					"inputs": [
						{
							"internalType": "address",
							"name": "",
							"type": "address"
						}
					],
					"name": "addressToAmountFunded",
					"outputs": [
						{
							"internalType": "uint256",
							"name": "",
							"type": "uint256"
						}
					],
					"stateMutability": "view",
					"type": "function"
				},
				{
					"inputs": [],
					"name": "fund",
					"outputs": [],
					"stateMutability": "payable",
					"type": "function"
				},
				{
					"inputs": [
						{
							"internalType": "uint256",
							"name": "",
							"type": "uint256"
						}
					],
					"name": "funders",
					"outputs": [
						{
							"internalType": "address",
							"name": "",
							"type": "address"
						}
					],
					"stateMutability": "view",
					"type": "function"
				},
				{
					"inputs": [],
					"name": "minimunUsd",
					"outputs": [
						{
							"internalType": "uint256",
							"name": "",
							"type": "uint256"
						}
					],
					"stateMutability": "view",
					"type": "function"
				},
				{
					"inputs": [],
					"name": "owner",
					"outputs": [
						{
							"internalType": "address",
							"name": "",
							"type": "address"
						}
					],
					"stateMutability": "view",
					"type": "function"
				},
				{
					"inputs": [],
					"name": "withdraw",
					"outputs": [],
					"stateMutability": "nonpayable",
					"type": "function"
				}
			],
			"devdoc": {
				"kind": "dev",
				"methods": {},
				"version": 1
			},
			"evm": {
				"assembly": "    /* \"contracts/FundMe.sol\":167:2936  contract Fundme{... */\n  mstore(0x40, 0xa0)\n    /* \"contracts/FundMe.sol\":572:581  50 * 1e18 */\n  0x02b5e3af16b1880000\n    /* \"contracts/FundMe.sol\":544:581  uint256 public minimunUsd = 50 * 1e18 */\n  0x00\n  sstore\n    /* \"contracts/FundMe.sol\":1871:1974  constructor(){... */\n  callvalue\n  dup1\n  iszero\n  tag_1\n  jumpi\n  0x00\n  dup1\n  revert\ntag_1:\n  pop\n    /* \"contracts/FundMe.sol\":1952:1962  msg.sender */\n  caller\n    /* \"contracts/FundMe.sol\":1944:1962  owner = msg.sender */\n  0xffffffffffffffffffffffffffffffffffffffff\n  and\n  0x80\n  dup2\n  0xffffffffffffffffffffffffffffffffffffffff\n  and\n  dup2\n  mstore\n  pop\n  pop\n    /* \"contracts/FundMe.sol\":167:2936  contract Fundme{... */\n  mload(0x80)\n  codecopy(0x00, dataOffset(sub_0), dataSize(sub_0))\n  0x00\n  assignImmutable(\"0x037d752242ae8d900ca1c2dba9512ed3f691680bee2a7d598ed49320619901d7\")\n  return(0x00, dataSize(sub_0))\nstop\n\nsub_0: assembly {\n        /* \"contracts/FundMe.sol\":167:2936  contract Fundme{... */\n      mstore(0x40, 0x80)\n      jumpi(tag_1, lt(calldatasize, 0x04))\n      shr(0xe0, calldataload(0x00))\n      dup1\n      0x3ccfd60b\n      eq\n      tag_2\n      jumpi\n      dup1\n      0x3e47d6f3\n      eq\n      tag_3\n      jumpi\n      dup1\n      0x8da5cb5b\n      eq\n      tag_4\n      jumpi\n      dup1\n      0xb60d4288\n      eq\n      tag_5\n      jumpi\n      dup1\n      0xdc0d3dff\n      eq\n      tag_6\n      jumpi\n      dup1\n      0xe5e18b1a\n      eq\n      tag_7\n      jumpi\n    tag_1:\n      0x00\n      dup1\n      revert\n        /* \"contracts/FundMe.sol\":1988:2660  function withdraw() public onlyOwner {... */\n    tag_2:\n      callvalue\n      dup1\n      iszero\n      tag_8\n      jumpi\n      0x00\n      dup1\n      revert\n    tag_8:\n      pop\n      tag_9\n      tag_10\n      jump\t// in\n    tag_9:\n      stop\n        /* \"contracts/FundMe.sol\":762:818  mapping(address => uint256) public addressToAmountFunded */\n    tag_3:\n      callvalue\n      dup1\n      iszero\n      tag_11\n      jumpi\n      0x00\n      dup1\n      revert\n    tag_11:\n      pop\n      tag_12\n      0x04\n      dup1\n      calldatasize\n      sub\n      dup2\n      add\n      swap1\n      tag_13\n      swap2\n      swap1\n      tag_14\n      jump\t// in\n    tag_13:\n      tag_15\n      jump\t// in\n    tag_12:\n      mload(0x40)\n      tag_16\n      swap2\n      swap1\n      tag_17\n      jump\t// in\n    tag_16:\n      mload(0x40)\n      dup1\n      swap2\n      sub\n      swap1\n      return\n        /* \"contracts/FundMe.sol\":1827:1858  address public  immutable owner */\n    tag_4:\n      callvalue\n      dup1\n      iszero\n      tag_18\n      jumpi\n      0x00\n      dup1\n      revert\n    tag_18:\n      pop\n      tag_19\n      tag_20\n      jump\t// in\n    tag_19:\n      mload(0x40)\n      tag_21\n      swap2\n      swap1\n      tag_22\n      jump\t// in\n    tag_21:\n      mload(0x40)\n      dup1\n      swap2\n      sub\n      swap1\n      return\n        /* \"contracts/FundMe.sol\":925:1740  function fund() public payable{... */\n    tag_5:\n      tag_23\n      tag_24\n      jump\t// in\n    tag_23:\n      stop\n        /* \"contracts/FundMe.sol\":636:660  address[] public funders */\n    tag_6:\n      callvalue\n      dup1\n      iszero\n      tag_25\n      jumpi\n      0x00\n      dup1\n      revert\n    tag_25:\n      pop\n      tag_26\n      0x04\n      dup1\n      calldatasize\n      sub\n      dup2\n      add\n      swap1\n      tag_27\n      swap2\n      swap1\n      tag_28\n      jump\t// in\n    tag_27:\n      tag_29\n      jump\t// in\n    tag_26:\n      mload(0x40)\n      tag_30\n      swap2\n      swap1\n      tag_22\n      jump\t// in\n    tag_30:\n      mload(0x40)\n      dup1\n      swap2\n      sub\n      swap1\n      return\n        /* \"contracts/FundMe.sol\":544:581  uint256 public minimunUsd = 50 * 1e18 */\n    tag_7:\n      callvalue\n      dup1\n      iszero\n      tag_31\n      jumpi\n      0x00\n      dup1\n      revert\n    tag_31:\n      pop\n      tag_32\n      tag_33\n      jump\t// in\n    tag_32:\n      mload(0x40)\n      tag_34\n      swap2\n      swap1\n      tag_17\n      jump\t// in\n    tag_34:\n      mload(0x40)\n      dup1\n      swap2\n      sub\n      swap1\n      return\n        /* \"contracts/FundMe.sol\":1988:2660  function withdraw() public onlyOwner {... */\n    tag_10:\n        /* \"contracts/FundMe.sol\":2069:2088  uint256 funderIndex */\n      0x00\n        /* \"contracts/FundMe.sol\":2065:2274  for(uint256 funderIndex =0; funderIndex < funders.length; funderIndex ++){... */\n    tag_37:\n        /* \"contracts/FundMe.sol\":2107:2114  funders */\n      0x01\n        /* \"contracts/FundMe.sol\":2107:2121  funders.length */\n      dup1\n      sload\n      swap1\n      pop\n        /* \"contracts/FundMe.sol\":2093:2104  funderIndex */\n      dup2\n        /* \"contracts/FundMe.sol\":2093:2121  funderIndex < funders.length */\n      lt\n        /* \"contracts/FundMe.sol\":2065:2274  for(uint256 funderIndex =0; funderIndex < funders.length; funderIndex ++){... */\n      iszero\n      tag_38\n      jumpi\n        /* \"contracts/FundMe.sol\":2161:2175  address funder */\n      0x00\n        /* \"contracts/FundMe.sol\":2178:2185  funders */\n      0x01\n        /* \"contracts/FundMe.sol\":2186:2197  funderIndex */\n      dup3\n        /* \"contracts/FundMe.sol\":2178:2198  funders[funderIndex] */\n      dup2\n      sload\n      dup2\n      lt\n      tag_40\n      jumpi\n      tag_41\n      tag_42\n      jump\t// in\n    tag_41:\n    tag_40:\n      swap1\n      0x00\n      mstore\n      keccak256(0x00, 0x20)\n      add\n      0x00\n      swap1\n      sload\n      swap1\n      0x0100\n      exp\n      swap1\n      div\n      0xffffffffffffffffffffffffffffffffffffffff\n      and\n        /* \"contracts/FundMe.sol\":2161:2198  address funder = funders[funderIndex] */\n      swap1\n      pop\n        /* \"contracts/FundMe.sol\":2253:2254  0 */\n      0x00\n        /* \"contracts/FundMe.sol\":2221:2242  addressToAmountFunded */\n      0x02\n        /* \"contracts/FundMe.sol\":2221:2250  addressToAmountFunded[funder] */\n      0x00\n        /* \"contracts/FundMe.sol\":2243:2249  funder */\n      dup4\n        /* \"contracts/FundMe.sol\":2221:2250  addressToAmountFunded[funder] */\n      0xffffffffffffffffffffffffffffffffffffffff\n      and\n      0xffffffffffffffffffffffffffffffffffffffff\n      and\n      dup2\n      mstore\n      0x20\n      add\n      swap1\n      dup2\n      mstore\n      0x20\n      add\n      0x00\n      keccak256\n        /* \"contracts/FundMe.sol\":2221:2254  addressToAmountFunded[funder] = 0 */\n      dup2\n      swap1\n      sstore\n      pop\n        /* \"contracts/FundMe.sol\":2138:2274  {... */\n      pop\n        /* \"contracts/FundMe.sol\":2123:2137  funderIndex ++ */\n      dup1\n      dup1\n      tag_44\n      swap1\n      tag_45\n      jump\t// in\n    tag_44:\n      swap2\n      pop\n      pop\n        /* \"contracts/FundMe.sol\":2065:2274  for(uint256 funderIndex =0; funderIndex < funders.length; funderIndex ++){... */\n      jump(tag_37)\n    tag_38:\n      pop\n        /* \"contracts/FundMe.sol\":2318:2319  0 */\n      0x00\n        /* \"contracts/FundMe.sol\":2304:2320  new address[](0) */\n      0xffffffffffffffff\n      dup2\n      gt\n      iszero\n      tag_46\n      jumpi\n      tag_47\n      tag_48\n      jump\t// in\n    tag_47:\n    tag_46:\n      mload(0x40)\n      swap1\n      dup1\n      dup3\n      mstore\n      dup1\n      0x20\n      mul\n      0x20\n      add\n      dup3\n      add\n      0x40\n      mstore\n      dup1\n      iszero\n      tag_49\n      jumpi\n      dup2\n      0x20\n      add\n      0x20\n      dup3\n      mul\n      dup1\n      calldatasize\n      dup4\n      calldatacopy\n      dup1\n      dup3\n      add\n      swap2\n      pop\n      pop\n      swap1\n      pop\n    tag_49:\n      pop\n        /* \"contracts/FundMe.sol\":2294:2301  funders */\n      0x01\n        /* \"contracts/FundMe.sol\":2294:2320  funders = new address[](0) */\n      swap1\n      dup1\n      mload\n      swap1\n      0x20\n      add\n      swap1\n      tag_50\n      swap3\n      swap2\n      swap1\n      tag_51\n      jump\t// in\n    tag_50:\n      pop\n        /* \"contracts/FundMe.sol\":2497:2513  bool callSuccess */\n      0x00\n        /* \"contracts/FundMe.sol\":2526:2536  msg.sender */\n      caller\n        /* \"contracts/FundMe.sol\":2518:2542  payable(msg.sender).call */\n      0xffffffffffffffffffffffffffffffffffffffff\n      and\n        /* \"contracts/FundMe.sol\":2550:2571  address(this).balance */\n      selfbalance\n        /* \"contracts/FundMe.sol\":2518:2576  payable(msg.sender).call{value: address(this).balance}(\"\") */\n      mload(0x40)\n      tag_52\n      swap1\n      tag_53\n      jump\t// in\n    tag_52:\n      0x00\n      mload(0x40)\n      dup1\n      dup4\n      sub\n      dup2\n      dup6\n      dup8\n      gas\n      call\n      swap3\n      pop\n      pop\n      pop\n      returndatasize\n      dup1\n      0x00\n      dup2\n      eq\n      tag_56\n      jumpi\n      mload(0x40)\n      swap2\n      pop\n      and(add(returndatasize, 0x3f), not(0x1f))\n      dup3\n      add\n      0x40\n      mstore\n      returndatasize\n      dup3\n      mstore\n      returndatasize\n      0x00\n      0x20\n      dup5\n      add\n      returndatacopy\n      jump(tag_55)\n    tag_56:\n      0x60\n      swap2\n      pop\n    tag_55:\n      pop\n        /* \"contracts/FundMe.sol\":2496:2576  (bool callSuccess, )= payable(msg.sender).call{value: address(this).balance}(\"\") */\n      pop\n      swap1\n      pop\n        /* \"contracts/FundMe.sol\":2605:2616  callSuccess */\n      dup1\n        /* \"contracts/FundMe.sol\":2597:2636  require(callSuccess, \"fallo al llamar\") */\n      tag_57\n      jumpi\n      mload(0x40)\n      0x08c379a000000000000000000000000000000000000000000000000000000000\n      dup2\n      mstore\n      0x04\n      add\n      tag_58\n      swap1\n      tag_59\n      jump\t// in\n    tag_58:\n      mload(0x40)\n      dup1\n      swap2\n      sub\n      swap1\n      revert\n    tag_57:\n        /* \"contracts/FundMe.sol\":2025:2660  {... */\n      pop\n        /* \"contracts/FundMe.sol\":2861:2866  owner */\n      immutable(\"0x037d752242ae8d900ca1c2dba9512ed3f691680bee2a7d598ed49320619901d7\")\n        /* \"contracts/FundMe.sol\":2847:2866  msg.sender == owner */\n      0xffffffffffffffffffffffffffffffffffffffff\n      and\n        /* \"contracts/FundMe.sol\":2847:2857  msg.sender */\n      caller\n        /* \"contracts/FundMe.sol\":2847:2866  msg.sender == owner */\n      0xffffffffffffffffffffffffffffffffffffffff\n      and\n      eq\n        /* \"contracts/FundMe.sol\":2839:2890  require(msg.sender == owner, \"Sender is not owner\") */\n      tag_60\n      jumpi\n      mload(0x40)\n      0x08c379a000000000000000000000000000000000000000000000000000000000\n      dup2\n      mstore\n      0x04\n      add\n      tag_61\n      swap1\n      tag_62\n      jump\t// in\n    tag_61:\n      mload(0x40)\n      dup1\n      swap2\n      sub\n      swap1\n      revert\n    tag_60:\n        /* \"contracts/FundMe.sol\":1988:2660  function withdraw() public onlyOwner {... */\n      jump\t// out\n        /* \"contracts/FundMe.sol\":762:818  mapping(address => uint256) public addressToAmountFunded */\n    tag_15:\n      mstore(0x20, 0x02)\n      dup1\n      0x00\n      mstore\n      keccak256(0x00, 0x40)\n      0x00\n      swap2\n      pop\n      swap1\n      pop\n      sload\n      dup2\n      jump\t// out\n        /* \"contracts/FundMe.sol\":1827:1858  address public  immutable owner */\n    tag_20:\n      immutable(\"0x037d752242ae8d900ca1c2dba9512ed3f691680bee2a7d598ed49320619901d7\")\n      dup2\n      jump\t// out\n        /* \"contracts/FundMe.sol\":925:1740  function fund() public payable{... */\n    tag_24:\n        /* \"contracts/FundMe.sol\":1461:1471  minimunUsd */\n      sload(0x00)\n        /* \"contracts/FundMe.sol\":1428:1457  msg.value.getConversionRate() */\n      tag_64\n        /* \"contracts/FundMe.sol\":1428:1437  msg.value */\n      callvalue\n        /* \"contracts/FundMe.sol\":1428:1455  msg.value.getConversionRate */\n      tag_65\n        /* \"contracts/FundMe.sol\":1428:1457  msg.value.getConversionRate() */\n      jump\t// in\n    tag_64:\n        /* \"contracts/FundMe.sol\":1428:1471  msg.value.getConversionRate() >= minimunUsd */\n      lt\n      iszero\n        /* \"contracts/FundMe.sol\":1420:1494  require(msg.value.getConversionRate() >= minimunUsd, \"Saldo insuficiente\") */\n      tag_66\n      jumpi\n      mload(0x40)\n      0x08c379a000000000000000000000000000000000000000000000000000000000\n      dup2\n      mstore\n      0x04\n      add\n      tag_67\n      swap1\n      tag_68\n      jump\t// in\n    tag_67:\n      mload(0x40)\n      dup1\n      swap2\n      sub\n      swap1\n      revert\n    tag_66:\n        /* \"contracts/FundMe.sol\":1567:1574  funders */\n      0x01\n        /* \"contracts/FundMe.sol\":1580:1590  msg.sender */\n      caller\n        /* \"contracts/FundMe.sol\":1567:1591  funders.push(msg.sender) */\n      swap1\n      dup1\n      0x01\n      dup2\n      sload\n      add\n      dup1\n      dup3\n      sstore\n      dup1\n      swap2\n      pop\n      pop\n      0x01\n      swap1\n      sub\n      swap1\n      0x00\n      mstore\n      keccak256(0x00, 0x20)\n      add\n      0x00\n      swap1\n      swap2\n      swap1\n      swap2\n      swap1\n      swap2\n      0x0100\n      exp\n      dup2\n      sload\n      dup2\n      0xffffffffffffffffffffffffffffffffffffffff\n      mul\n      not\n      and\n      swap1\n      dup4\n      0xffffffffffffffffffffffffffffffffffffffff\n      and\n      mul\n      or\n      swap1\n      sstore\n      pop\n        /* \"contracts/FundMe.sol\":1717:1726  msg.value */\n      callvalue\n        /* \"contracts/FundMe.sol\":1681:1702  addressToAmountFunded */\n      0x02\n        /* \"contracts/FundMe.sol\":1681:1714  addressToAmountFunded[msg.sender] */\n      0x00\n        /* \"contracts/FundMe.sol\":1703:1713  msg.sender */\n      caller\n        /* \"contracts/FundMe.sol\":1681:1714  addressToAmountFunded[msg.sender] */\n      0xffffffffffffffffffffffffffffffffffffffff\n      and\n      0xffffffffffffffffffffffffffffffffffffffff\n      and\n      dup2\n      mstore\n      0x20\n      add\n      swap1\n      dup2\n      mstore\n      0x20\n      add\n      0x00\n      keccak256\n        /* \"contracts/FundMe.sol\":1681:1726  addressToAmountFunded[msg.sender] = msg.value */\n      dup2\n      swap1\n      sstore\n      pop\n        /* \"contracts/FundMe.sol\":925:1740  function fund() public payable{... */\n      jump\t// out\n        /* \"contracts/FundMe.sol\":636:660  address[] public funders */\n    tag_29:\n      0x01\n      dup2\n      dup2\n      sload\n      dup2\n      lt\n      tag_70\n      jumpi\n      0x00\n      dup1\n      revert\n    tag_70:\n      swap1\n      0x00\n      mstore\n      keccak256(0x00, 0x20)\n      add\n      0x00\n      swap2\n      pop\n      sload\n      swap1\n      0x0100\n      exp\n      swap1\n      div\n      0xffffffffffffffffffffffffffffffffffffffff\n      and\n      dup2\n      jump\t// out\n        /* \"contracts/FundMe.sol\":544:581  uint256 public minimunUsd = 50 * 1e18 */\n    tag_33:\n      sload(0x00)\n      dup2\n      jump\t// out\n        /* \"contracts/PriceConverter.sol\":1993:2449  function getConversionRate(uint256 ethAmount)internal view returns(uint256){... */\n    tag_65:\n        /* \"contracts/PriceConverter.sol\":2060:2067  uint256 */\n      0x00\n        /* \"contracts/PriceConverter.sol\":2089:2105  uint256 ethPrice */\n      dup1\n        /* \"contracts/PriceConverter.sol\":2108:2118  getPrice() */\n      tag_73\n        /* \"contracts/PriceConverter.sol\":2108:2116  getPrice */\n      tag_74\n        /* \"contracts/PriceConverter.sol\":2108:2118  getPrice() */\n      jump\t// in\n    tag_73:\n        /* \"contracts/PriceConverter.sol\":2089:2118  uint256 ethPrice = getPrice() */\n      swap1\n      pop\n        /* \"contracts/PriceConverter.sol\":2275:2297  uint256 ethAmountInUsd */\n      0x00\n        /* \"contracts/PriceConverter.sol\":2325:2329  1e18 */\n      0x0de0b6b3a7640000\n        /* \"contracts/PriceConverter.sol\":2312:2321  ethAmount */\n      dup5\n        /* \"contracts/PriceConverter.sol\":2301:2309  ethPrice */\n      dup4\n        /* \"contracts/PriceConverter.sol\":2301:2321  ethPrice * ethAmount */\n      tag_75\n      swap2\n      swap1\n      tag_76\n      jump\t// in\n    tag_75:\n        /* \"contracts/PriceConverter.sol\":2300:2329  (ethPrice * ethAmount) / 1e18 */\n      tag_77\n      swap2\n      swap1\n      tag_78\n      jump\t// in\n    tag_77:\n        /* \"contracts/PriceConverter.sol\":2275:2329  uint256 ethAmountInUsd = (ethPrice * ethAmount) / 1e18 */\n      swap1\n      pop\n        /* \"contracts/PriceConverter.sol\":2419:2433  ethAmountInUsd */\n      dup1\n        /* \"contracts/PriceConverter.sol\":2412:2433  return ethAmountInUsd */\n      swap3\n      pop\n      pop\n      pop\n        /* \"contracts/PriceConverter.sol\":1993:2449  function getConversionRate(uint256 ethAmount)internal view returns(uint256){... */\n      swap2\n      swap1\n      pop\n      jump\t// out\n        /* \"contracts/PriceConverter.sol\":843:1981  function getPrice() internal view returns(uint256){... */\n    tag_74:\n        /* \"contracts/PriceConverter.sol\":885:892  uint256 */\n      0x00\n        /* \"contracts/PriceConverter.sol\":1227:1258  AggregatorV3Interface priceFeed */\n      dup1\n        /* \"contracts/PriceConverter.sol\":1283:1325  0xD4a33860578De61DBAbDc8BFdb98FD742fA7028e */\n      0xd4a33860578de61dbabdc8bfdb98fd742fa7028e\n        /* \"contracts/PriceConverter.sol\":1227:1326  AggregatorV3Interface priceFeed = AggregatorV3Interface(0xD4a33860578De61DBAbDc8BFdb98FD742fA7028e) */\n      swap1\n      pop\n        /* \"contracts/PriceConverter.sol\":1522:1534  int256 price */\n      0x00\n        /* \"contracts/PriceConverter.sol\":1541:1550  priceFeed */\n      dup2\n        /* \"contracts/PriceConverter.sol\":1541:1566  priceFeed.latestRoundData */\n      0xffffffffffffffffffffffffffffffffffffffff\n      and\n      0xfeaf968c\n        /* \"contracts/PriceConverter.sol\":1541:1568  priceFeed.latestRoundData() */\n      mload(0x40)\n      dup2\n      0xffffffff\n      and\n      0xe0\n      shl\n      dup2\n      mstore\n      0x04\n      add\n      0xa0\n      mload(0x40)\n      dup1\n      dup4\n      sub\n      dup2\n      dup7\n      gas\n      staticcall\n      iszero\n      dup1\n      iszero\n      tag_81\n      jumpi\n      returndatasize\n      0x00\n      dup1\n      returndatacopy\n      revert(0x00, returndatasize)\n    tag_81:\n      pop\n      pop\n      pop\n      pop\n      mload(0x40)\n      returndatasize\n      not(0x1f)\n      0x1f\n      dup3\n      add\n      and\n      dup3\n      add\n      dup1\n      0x40\n      mstore\n      pop\n      dup2\n      add\n      swap1\n      tag_82\n      swap2\n      swap1\n      tag_83\n      jump\t// in\n    tag_82:\n        /* \"contracts/PriceConverter.sol\":1520:1568  (,int256 price,,,) = priceFeed.latestRoundData() */\n      pop\n      pop\n      pop\n      swap2\n      pop\n      pop\n        /* \"contracts/PriceConverter.sol\":1932:1936  1e10 */\n      0x02540be400\n        /* \"contracts/PriceConverter.sol\":1924:1929  price */\n      dup2\n        /* \"contracts/PriceConverter.sol\":1924:1936  price * 1e10 */\n      tag_84\n      swap2\n      swap1\n      tag_85\n      jump\t// in\n    tag_84:\n        /* \"contracts/PriceConverter.sol\":1909:1937  return uint256(price * 1e10) */\n      swap3\n      pop\n      pop\n      pop\n        /* \"contracts/PriceConverter.sol\":843:1981  function getPrice() internal view returns(uint256){... */\n      swap1\n      jump\t// out\n    tag_51:\n      dup3\n      dup1\n      sload\n      dup3\n      dup3\n      sstore\n      swap1\n      0x00\n      mstore\n      keccak256(0x00, 0x20)\n      swap1\n      dup2\n      add\n      swap3\n      dup3\n      iszero\n      tag_86\n      jumpi\n      swap2\n      0x20\n      mul\n      dup3\n      add\n    tag_87:\n      dup3\n      dup2\n      gt\n      iszero\n      tag_88\n      jumpi\n      dup3\n      mload\n      dup3\n      exp(0x0100, 0x00)\n      dup2\n      sload\n      dup2\n      0xffffffffffffffffffffffffffffffffffffffff\n      mul\n      not\n      and\n      swap1\n      dup4\n      0xffffffffffffffffffffffffffffffffffffffff\n      and\n      mul\n      or\n      swap1\n      sstore\n      pop\n      swap2\n      0x20\n      add\n      swap2\n      swap1\n      0x01\n      add\n      swap1\n      jump(tag_87)\n    tag_88:\n    tag_86:\n      pop\n      swap1\n      pop\n      tag_89\n      swap2\n      swap1\n      tag_90\n      jump\t// in\n    tag_89:\n      pop\n      swap1\n      jump\t// out\n    tag_90:\n    tag_91:\n      dup1\n      dup3\n      gt\n      iszero\n      tag_92\n      jumpi\n      0x00\n      dup2\n      0x00\n      swap1\n      sstore\n      pop\n      0x01\n      add\n      jump(tag_91)\n    tag_92:\n      pop\n      swap1\n      jump\t// out\n        /* \"#utility.yul\":88:205   */\n    tag_94:\n        /* \"#utility.yul\":197:198   */\n      0x00\n        /* \"#utility.yul\":194:195   */\n      dup1\n        /* \"#utility.yul\":187:199   */\n      revert\n        /* \"#utility.yul\":334:460   */\n    tag_96:\n        /* \"#utility.yul\":371:378   */\n      0x00\n        /* \"#utility.yul\":411:453   */\n      0xffffffffffffffffffffffffffffffffffffffff\n        /* \"#utility.yul\":404:409   */\n      dup3\n        /* \"#utility.yul\":400:454   */\n      and\n        /* \"#utility.yul\":389:454   */\n      swap1\n      pop\n        /* \"#utility.yul\":334:460   */\n      swap2\n      swap1\n      pop\n      jump\t// out\n        /* \"#utility.yul\":466:562   */\n    tag_97:\n        /* \"#utility.yul\":503:510   */\n      0x00\n        /* \"#utility.yul\":532:556   */\n      tag_130\n        /* \"#utility.yul\":550:555   */\n      dup3\n        /* \"#utility.yul\":532:556   */\n      tag_96\n      jump\t// in\n    tag_130:\n        /* \"#utility.yul\":521:556   */\n      swap1\n      pop\n        /* \"#utility.yul\":466:562   */\n      swap2\n      swap1\n      pop\n      jump\t// out\n        /* \"#utility.yul\":568:690   */\n    tag_98:\n        /* \"#utility.yul\":641:665   */\n      tag_132\n        /* \"#utility.yul\":659:664   */\n      dup2\n        /* \"#utility.yul\":641:665   */\n      tag_97\n      jump\t// in\n    tag_132:\n        /* \"#utility.yul\":634:639   */\n      dup2\n        /* \"#utility.yul\":631:666   */\n      eq\n        /* \"#utility.yul\":621:684   */\n      tag_133\n      jumpi\n        /* \"#utility.yul\":680:681   */\n      0x00\n        /* \"#utility.yul\":677:678   */\n      dup1\n        /* \"#utility.yul\":670:682   */\n      revert\n        /* \"#utility.yul\":621:684   */\n    tag_133:\n        /* \"#utility.yul\":568:690   */\n      pop\n      jump\t// out\n        /* \"#utility.yul\":696:835   */\n    tag_99:\n        /* \"#utility.yul\":742:747   */\n      0x00\n        /* \"#utility.yul\":780:786   */\n      dup2\n        /* \"#utility.yul\":767:787   */\n      calldataload\n        /* \"#utility.yul\":758:787   */\n      swap1\n      pop\n        /* \"#utility.yul\":796:829   */\n      tag_135\n        /* \"#utility.yul\":823:828   */\n      dup2\n        /* \"#utility.yul\":796:829   */\n      tag_98\n      jump\t// in\n    tag_135:\n        /* \"#utility.yul\":696:835   */\n      swap3\n      swap2\n      pop\n      pop\n      jump\t// out\n        /* \"#utility.yul\":841:1170   */\n    tag_14:\n        /* \"#utility.yul\":900:906   */\n      0x00\n        /* \"#utility.yul\":949:951   */\n      0x20\n        /* \"#utility.yul\":937:946   */\n      dup3\n        /* \"#utility.yul\":928:935   */\n      dup5\n        /* \"#utility.yul\":924:947   */\n      sub\n        /* \"#utility.yul\":920:952   */\n      slt\n        /* \"#utility.yul\":917:1036   */\n      iszero\n      tag_137\n      jumpi\n        /* \"#utility.yul\":955:1034   */\n      tag_138\n      tag_94\n      jump\t// in\n    tag_138:\n        /* \"#utility.yul\":917:1036   */\n    tag_137:\n        /* \"#utility.yul\":1075:1076   */\n      0x00\n        /* \"#utility.yul\":1100:1153   */\n      tag_139\n        /* \"#utility.yul\":1145:1152   */\n      dup5\n        /* \"#utility.yul\":1136:1142   */\n      dup3\n        /* \"#utility.yul\":1125:1134   */\n      dup6\n        /* \"#utility.yul\":1121:1143   */\n      add\n        /* \"#utility.yul\":1100:1153   */\n      tag_99\n      jump\t// in\n    tag_139:\n        /* \"#utility.yul\":1090:1153   */\n      swap2\n      pop\n        /* \"#utility.yul\":1046:1163   */\n      pop\n        /* \"#utility.yul\":841:1170   */\n      swap3\n      swap2\n      pop\n      pop\n      jump\t// out\n        /* \"#utility.yul\":1176:1253   */\n    tag_100:\n        /* \"#utility.yul\":1213:1220   */\n      0x00\n        /* \"#utility.yul\":1242:1247   */\n      dup2\n        /* \"#utility.yul\":1231:1247   */\n      swap1\n      pop\n        /* \"#utility.yul\":1176:1253   */\n      swap2\n      swap1\n      pop\n      jump\t// out\n        /* \"#utility.yul\":1259:1377   */\n    tag_101:\n        /* \"#utility.yul\":1346:1370   */\n      tag_142\n        /* \"#utility.yul\":1364:1369   */\n      dup2\n        /* \"#utility.yul\":1346:1370   */\n      tag_100\n      jump\t// in\n    tag_142:\n        /* \"#utility.yul\":1341:1344   */\n      dup3\n        /* \"#utility.yul\":1334:1371   */\n      mstore\n        /* \"#utility.yul\":1259:1377   */\n      pop\n      pop\n      jump\t// out\n        /* \"#utility.yul\":1383:1605   */\n    tag_17:\n        /* \"#utility.yul\":1476:1480   */\n      0x00\n        /* \"#utility.yul\":1514:1516   */\n      0x20\n        /* \"#utility.yul\":1503:1512   */\n      dup3\n        /* \"#utility.yul\":1499:1517   */\n      add\n        /* \"#utility.yul\":1491:1517   */\n      swap1\n      pop\n        /* \"#utility.yul\":1527:1598   */\n      tag_144\n        /* \"#utility.yul\":1595:1596   */\n      0x00\n        /* \"#utility.yul\":1584:1593   */\n      dup4\n        /* \"#utility.yul\":1580:1597   */\n      add\n        /* \"#utility.yul\":1571:1577   */\n      dup5\n        /* \"#utility.yul\":1527:1598   */\n      tag_101\n      jump\t// in\n    tag_144:\n        /* \"#utility.yul\":1383:1605   */\n      swap3\n      swap2\n      pop\n      pop\n      jump\t// out\n        /* \"#utility.yul\":1611:1729   */\n    tag_102:\n        /* \"#utility.yul\":1698:1722   */\n      tag_146\n        /* \"#utility.yul\":1716:1721   */\n      dup2\n        /* \"#utility.yul\":1698:1722   */\n      tag_97\n      jump\t// in\n    tag_146:\n        /* \"#utility.yul\":1693:1696   */\n      dup3\n        /* \"#utility.yul\":1686:1723   */\n      mstore\n        /* \"#utility.yul\":1611:1729   */\n      pop\n      pop\n      jump\t// out\n        /* \"#utility.yul\":1735:1957   */\n    tag_22:\n        /* \"#utility.yul\":1828:1832   */\n      0x00\n        /* \"#utility.yul\":1866:1868   */\n      0x20\n        /* \"#utility.yul\":1855:1864   */\n      dup3\n        /* \"#utility.yul\":1851:1869   */\n      add\n        /* \"#utility.yul\":1843:1869   */\n      swap1\n      pop\n        /* \"#utility.yul\":1879:1950   */\n      tag_148\n        /* \"#utility.yul\":1947:1948   */\n      0x00\n        /* \"#utility.yul\":1936:1945   */\n      dup4\n        /* \"#utility.yul\":1932:1949   */\n      add\n        /* \"#utility.yul\":1923:1929   */\n      dup5\n        /* \"#utility.yul\":1879:1950   */\n      tag_102\n      jump\t// in\n    tag_148:\n        /* \"#utility.yul\":1735:1957   */\n      swap3\n      swap2\n      pop\n      pop\n      jump\t// out\n        /* \"#utility.yul\":1963:2085   */\n    tag_103:\n        /* \"#utility.yul\":2036:2060   */\n      tag_150\n        /* \"#utility.yul\":2054:2059   */\n      dup2\n        /* \"#utility.yul\":2036:2060   */\n      tag_100\n      jump\t// in\n    tag_150:\n        /* \"#utility.yul\":2029:2034   */\n      dup2\n        /* \"#utility.yul\":2026:2061   */\n      eq\n        /* \"#utility.yul\":2016:2079   */\n      tag_151\n      jumpi\n        /* \"#utility.yul\":2075:2076   */\n      0x00\n        /* \"#utility.yul\":2072:2073   */\n      dup1\n        /* \"#utility.yul\":2065:2077   */\n      revert\n        /* \"#utility.yul\":2016:2079   */\n    tag_151:\n        /* \"#utility.yul\":1963:2085   */\n      pop\n      jump\t// out\n        /* \"#utility.yul\":2091:2230   */\n    tag_104:\n        /* \"#utility.yul\":2137:2142   */\n      0x00\n        /* \"#utility.yul\":2175:2181   */\n      dup2\n        /* \"#utility.yul\":2162:2182   */\n      calldataload\n        /* \"#utility.yul\":2153:2182   */\n      swap1\n      pop\n        /* \"#utility.yul\":2191:2224   */\n      tag_153\n        /* \"#utility.yul\":2218:2223   */\n      dup2\n        /* \"#utility.yul\":2191:2224   */\n      tag_103\n      jump\t// in\n    tag_153:\n        /* \"#utility.yul\":2091:2230   */\n      swap3\n      swap2\n      pop\n      pop\n      jump\t// out\n        /* \"#utility.yul\":2236:2565   */\n    tag_28:\n        /* \"#utility.yul\":2295:2301   */\n      0x00\n        /* \"#utility.yul\":2344:2346   */\n      0x20\n        /* \"#utility.yul\":2332:2341   */\n      dup3\n        /* \"#utility.yul\":2323:2330   */\n      dup5\n        /* \"#utility.yul\":2319:2342   */\n      sub\n        /* \"#utility.yul\":2315:2347   */\n      slt\n        /* \"#utility.yul\":2312:2431   */\n      iszero\n      tag_155\n      jumpi\n        /* \"#utility.yul\":2350:2429   */\n      tag_156\n      tag_94\n      jump\t// in\n    tag_156:\n        /* \"#utility.yul\":2312:2431   */\n    tag_155:\n        /* \"#utility.yul\":2470:2471   */\n      0x00\n        /* \"#utility.yul\":2495:2548   */\n      tag_157\n        /* \"#utility.yul\":2540:2547   */\n      dup5\n        /* \"#utility.yul\":2531:2537   */\n      dup3\n        /* \"#utility.yul\":2520:2529   */\n      dup6\n        /* \"#utility.yul\":2516:2538   */\n      add\n        /* \"#utility.yul\":2495:2548   */\n      tag_104\n      jump\t// in\n    tag_157:\n        /* \"#utility.yul\":2485:2548   */\n      swap2\n      pop\n        /* \"#utility.yul\":2441:2558   */\n      pop\n        /* \"#utility.yul\":2236:2565   */\n      swap3\n      swap2\n      pop\n      pop\n      jump\t// out\n        /* \"#utility.yul\":2571:2751   */\n    tag_42:\n        /* \"#utility.yul\":2619:2696   */\n      0x4e487b7100000000000000000000000000000000000000000000000000000000\n        /* \"#utility.yul\":2616:2617   */\n      0x00\n        /* \"#utility.yul\":2609:2697   */\n      mstore\n        /* \"#utility.yul\":2716:2720   */\n      0x32\n        /* \"#utility.yul\":2713:2714   */\n      0x04\n        /* \"#utility.yul\":2706:2721   */\n      mstore\n        /* \"#utility.yul\":2740:2744   */\n      0x24\n        /* \"#utility.yul\":2737:2738   */\n      0x00\n        /* \"#utility.yul\":2730:2745   */\n      revert\n        /* \"#utility.yul\":2757:2937   */\n    tag_105:\n        /* \"#utility.yul\":2805:2882   */\n      0x4e487b7100000000000000000000000000000000000000000000000000000000\n        /* \"#utility.yul\":2802:2803   */\n      0x00\n        /* \"#utility.yul\":2795:2883   */\n      mstore\n        /* \"#utility.yul\":2902:2906   */\n      0x11\n        /* \"#utility.yul\":2899:2900   */\n      0x04\n        /* \"#utility.yul\":2892:2907   */\n      mstore\n        /* \"#utility.yul\":2926:2930   */\n      0x24\n        /* \"#utility.yul\":2923:2924   */\n      0x00\n        /* \"#utility.yul\":2916:2931   */\n      revert\n        /* \"#utility.yul\":2943:3176   */\n    tag_45:\n        /* \"#utility.yul\":2982:2985   */\n      0x00\n        /* \"#utility.yul\":3005:3029   */\n      tag_161\n        /* \"#utility.yul\":3023:3028   */\n      dup3\n        /* \"#utility.yul\":3005:3029   */\n      tag_100\n      jump\t// in\n    tag_161:\n        /* \"#utility.yul\":2996:3029   */\n      swap2\n      pop\n        /* \"#utility.yul\":3051:3117   */\n      0xffffffffffffffffffffffffffffffffffffffffffffffffffffffffffffffff\n        /* \"#utility.yul\":3044:3049   */\n      dup3\n        /* \"#utility.yul\":3041:3118   */\n      sub\n        /* \"#utility.yul\":3038:3141   */\n      tag_162\n      jumpi\n        /* \"#utility.yul\":3121:3139   */\n      tag_163\n      tag_105\n      jump\t// in\n    tag_163:\n        /* \"#utility.yul\":3038:3141   */\n    tag_162:\n        /* \"#utility.yul\":3168:3169   */\n      0x01\n        /* \"#utility.yul\":3161:3166   */\n      dup3\n        /* \"#utility.yul\":3157:3170   */\n      add\n        /* \"#utility.yul\":3150:3170   */\n      swap1\n      pop\n        /* \"#utility.yul\":2943:3176   */\n      swap2\n      swap1\n      pop\n      jump\t// out\n        /* \"#utility.yul\":3182:3362   */\n    tag_48:\n        /* \"#utility.yul\":3230:3307   */\n      0x4e487b7100000000000000000000000000000000000000000000000000000000\n        /* \"#utility.yul\":3227:3228   */\n      0x00\n        /* \"#utility.yul\":3220:3308   */\n      mstore\n        /* \"#utility.yul\":3327:3331   */\n      0x41\n        /* \"#utility.yul\":3324:3325   */\n      0x04\n        /* \"#utility.yul\":3317:3332   */\n      mstore\n        /* \"#utility.yul\":3351:3355   */\n      0x24\n        /* \"#utility.yul\":3348:3349   */\n      0x00\n        /* \"#utility.yul\":3341:3356   */\n      revert\n        /* \"#utility.yul\":3368:3515   */\n    tag_106:\n        /* \"#utility.yul\":3469:3480   */\n      0x00\n        /* \"#utility.yul\":3506:3509   */\n      dup2\n        /* \"#utility.yul\":3491:3509   */\n      swap1\n      pop\n        /* \"#utility.yul\":3368:3515   */\n      swap3\n      swap2\n      pop\n      pop\n      jump\t// out\n        /* \"#utility.yul\":3521:3635   */\n    tag_107:\n      pop\n      jump\t// out\n        /* \"#utility.yul\":3641:4039   */\n    tag_108:\n        /* \"#utility.yul\":3800:3803   */\n      0x00\n        /* \"#utility.yul\":3821:3904   */\n      tag_168\n        /* \"#utility.yul\":3902:3903   */\n      0x00\n        /* \"#utility.yul\":3897:3900   */\n      dup4\n        /* \"#utility.yul\":3821:3904   */\n      tag_106\n      jump\t// in\n    tag_168:\n        /* \"#utility.yul\":3814:3904   */\n      swap2\n      pop\n        /* \"#utility.yul\":3913:4006   */\n      tag_169\n        /* \"#utility.yul\":4002:4005   */\n      dup3\n        /* \"#utility.yul\":3913:4006   */\n      tag_107\n      jump\t// in\n    tag_169:\n        /* \"#utility.yul\":4031:4032   */\n      0x00\n        /* \"#utility.yul\":4026:4029   */\n      dup3\n        /* \"#utility.yul\":4022:4033   */\n      add\n        /* \"#utility.yul\":4015:4033   */\n      swap1\n      pop\n        /* \"#utility.yul\":3641:4039   */\n      swap2\n      swap1\n      pop\n      jump\t// out\n        /* \"#utility.yul\":4045:4424   */\n    tag_53:\n        /* \"#utility.yul\":4229:4232   */\n      0x00\n        /* \"#utility.yul\":4251:4398   */\n      tag_171\n        /* \"#utility.yul\":4394:4397   */\n      dup3\n        /* \"#utility.yul\":4251:4398   */\n      tag_108\n      jump\t// in\n    tag_171:\n        /* \"#utility.yul\":4244:4398   */\n      swap2\n      pop\n        /* \"#utility.yul\":4415:4418   */\n      dup2\n        /* \"#utility.yul\":4408:4418   */\n      swap1\n      pop\n        /* \"#utility.yul\":4045:4424   */\n      swap2\n      swap1\n      pop\n      jump\t// out\n        /* \"#utility.yul\":4430:4599   */\n    tag_109:\n        /* \"#utility.yul\":4514:4525   */\n      0x00\n        /* \"#utility.yul\":4548:4554   */\n      dup3\n        /* \"#utility.yul\":4543:4546   */\n      dup3\n        /* \"#utility.yul\":4536:4555   */\n      mstore\n        /* \"#utility.yul\":4588:4592   */\n      0x20\n        /* \"#utility.yul\":4583:4586   */\n      dup3\n        /* \"#utility.yul\":4579:4593   */\n      add\n        /* \"#utility.yul\":4564:4593   */\n      swap1\n      pop\n        /* \"#utility.yul\":4430:4599   */\n      swap3\n      swap2\n      pop\n      pop\n      jump\t// out\n        /* \"#utility.yul\":4605:4770   */\n    tag_110:\n        /* \"#utility.yul\":4745:4762   */\n      0x66616c6c6f20616c206c6c616d61720000000000000000000000000000000000\n        /* \"#utility.yul\":4741:4742   */\n      0x00\n        /* \"#utility.yul\":4733:4739   */\n      dup3\n        /* \"#utility.yul\":4729:4743   */\n      add\n        /* \"#utility.yul\":4722:4763   */\n      mstore\n        /* \"#utility.yul\":4605:4770   */\n      pop\n      jump\t// out\n        /* \"#utility.yul\":4776:5142   */\n    tag_111:\n        /* \"#utility.yul\":4918:4921   */\n      0x00\n        /* \"#utility.yul\":4939:5006   */\n      tag_175\n        /* \"#utility.yul\":5003:5005   */\n      0x0f\n        /* \"#utility.yul\":4998:5001   */\n      dup4\n        /* \"#utility.yul\":4939:5006   */\n      tag_109\n      jump\t// in\n    tag_175:\n        /* \"#utility.yul\":4932:5006   */\n      swap2\n      pop\n        /* \"#utility.yul\":5015:5108   */\n      tag_176\n        /* \"#utility.yul\":5104:5107   */\n      dup3\n        /* \"#utility.yul\":5015:5108   */\n      tag_110\n      jump\t// in\n    tag_176:\n        /* \"#utility.yul\":5133:5135   */\n      0x20\n        /* \"#utility.yul\":5128:5131   */\n      dup3\n        /* \"#utility.yul\":5124:5136   */\n      add\n        /* \"#utility.yul\":5117:5136   */\n      swap1\n      pop\n        /* \"#utility.yul\":4776:5142   */\n      swap2\n      swap1\n      pop\n      jump\t// out\n        /* \"#utility.yul\":5148:5567   */\n    tag_59:\n        /* \"#utility.yul\":5314:5318   */\n      0x00\n        /* \"#utility.yul\":5352:5354   */\n      0x20\n        /* \"#utility.yul\":5341:5350   */\n      dup3\n        /* \"#utility.yul\":5337:5355   */\n      add\n        /* \"#utility.yul\":5329:5355   */\n      swap1\n      pop\n        /* \"#utility.yul\":5401:5410   */\n      dup2\n        /* \"#utility.yul\":5395:5399   */\n      dup2\n        /* \"#utility.yul\":5391:5411   */\n      sub\n        /* \"#utility.yul\":5387:5388   */\n      0x00\n        /* \"#utility.yul\":5376:5385   */\n      dup4\n        /* \"#utility.yul\":5372:5389   */\n      add\n        /* \"#utility.yul\":5365:5412   */\n      mstore\n        /* \"#utility.yul\":5429:5560   */\n      tag_178\n        /* \"#utility.yul\":5555:5559   */\n      dup2\n        /* \"#utility.yul\":5429:5560   */\n      tag_111\n      jump\t// in\n    tag_178:\n        /* \"#utility.yul\":5421:5560   */\n      swap1\n      pop\n        /* \"#utility.yul\":5148:5567   */\n      swap2\n      swap1\n      pop\n      jump\t// out\n        /* \"#utility.yul\":5573:5742   */\n    tag_112:\n        /* \"#utility.yul\":5713:5734   */\n      0x53656e646572206973206e6f74206f776e657200000000000000000000000000\n        /* \"#utility.yul\":5709:5710   */\n      0x00\n        /* \"#utility.yul\":5701:5707   */\n      dup3\n        /* \"#utility.yul\":5697:5711   */\n      add\n        /* \"#utility.yul\":5690:5735   */\n      mstore\n        /* \"#utility.yul\":5573:5742   */\n      pop\n      jump\t// out\n        /* \"#utility.yul\":5748:6114   */\n    tag_113:\n        /* \"#utility.yul\":5890:5893   */\n      0x00\n        /* \"#utility.yul\":5911:5978   */\n      tag_181\n        /* \"#utility.yul\":5975:5977   */\n      0x13\n        /* \"#utility.yul\":5970:5973   */\n      dup4\n        /* \"#utility.yul\":5911:5978   */\n      tag_109\n      jump\t// in\n    tag_181:\n        /* \"#utility.yul\":5904:5978   */\n      swap2\n      pop\n        /* \"#utility.yul\":5987:6080   */\n      tag_182\n        /* \"#utility.yul\":6076:6079   */\n      dup3\n        /* \"#utility.yul\":5987:6080   */\n      tag_112\n      jump\t// in\n    tag_182:\n        /* \"#utility.yul\":6105:6107   */\n      0x20\n        /* \"#utility.yul\":6100:6103   */\n      dup3\n        /* \"#utility.yul\":6096:6108   */\n      add\n        /* \"#utility.yul\":6089:6108   */\n      swap1\n      pop\n        /* \"#utility.yul\":5748:6114   */\n      swap2\n      swap1\n      pop\n      jump\t// out\n        /* \"#utility.yul\":6120:6539   */\n    tag_62:\n        /* \"#utility.yul\":6286:6290   */\n      0x00\n        /* \"#utility.yul\":6324:6326   */\n      0x20\n        /* \"#utility.yul\":6313:6322   */\n      dup3\n        /* \"#utility.yul\":6309:6327   */\n      add\n        /* \"#utility.yul\":6301:6327   */\n      swap1\n      pop\n        /* \"#utility.yul\":6373:6382   */\n      dup2\n        /* \"#utility.yul\":6367:6371   */\n      dup2\n        /* \"#utility.yul\":6363:6383   */\n      sub\n        /* \"#utility.yul\":6359:6360   */\n      0x00\n        /* \"#utility.yul\":6348:6357   */\n      dup4\n        /* \"#utility.yul\":6344:6361   */\n      add\n        /* \"#utility.yul\":6337:6384   */\n      mstore\n        /* \"#utility.yul\":6401:6532   */\n      tag_184\n        /* \"#utility.yul\":6527:6531   */\n      dup2\n        /* \"#utility.yul\":6401:6532   */\n      tag_113\n      jump\t// in\n    tag_184:\n        /* \"#utility.yul\":6393:6532   */\n      swap1\n      pop\n        /* \"#utility.yul\":6120:6539   */\n      swap2\n      swap1\n      pop\n      jump\t// out\n        /* \"#utility.yul\":6545:6713   */\n    tag_114:\n        /* \"#utility.yul\":6685:6705   */\n      0x53616c646f20696e737566696369656e74650000000000000000000000000000\n        /* \"#utility.yul\":6681:6682   */\n      0x00\n        /* \"#utility.yul\":6673:6679   */\n      dup3\n        /* \"#utility.yul\":6669:6683   */\n      add\n        /* \"#utility.yul\":6662:6706   */\n      mstore\n        /* \"#utility.yul\":6545:6713   */\n      pop\n      jump\t// out\n        /* \"#utility.yul\":6719:7085   */\n    tag_115:\n        /* \"#utility.yul\":6861:6864   */\n      0x00\n        /* \"#utility.yul\":6882:6949   */\n      tag_187\n        /* \"#utility.yul\":6946:6948   */\n      0x12\n        /* \"#utility.yul\":6941:6944   */\n      dup4\n        /* \"#utility.yul\":6882:6949   */\n      tag_109\n      jump\t// in\n    tag_187:\n        /* \"#utility.yul\":6875:6949   */\n      swap2\n      pop\n        /* \"#utility.yul\":6958:7051   */\n      tag_188\n        /* \"#utility.yul\":7047:7050   */\n      dup3\n        /* \"#utility.yul\":6958:7051   */\n      tag_114\n      jump\t// in\n    tag_188:\n        /* \"#utility.yul\":7076:7078   */\n      0x20\n        /* \"#utility.yul\":7071:7074   */\n      dup3\n        /* \"#utility.yul\":7067:7079   */\n      add\n        /* \"#utility.yul\":7060:7079   */\n      swap1\n      pop\n        /* \"#utility.yul\":6719:7085   */\n      swap2\n      swap1\n      pop\n      jump\t// out\n        /* \"#utility.yul\":7091:7510   */\n    tag_68:\n        /* \"#utility.yul\":7257:7261   */\n      0x00\n        /* \"#utility.yul\":7295:7297   */\n      0x20\n        /* \"#utility.yul\":7284:7293   */\n      dup3\n        /* \"#utility.yul\":7280:7298   */\n      add\n        /* \"#utility.yul\":7272:7298   */\n      swap1\n      pop\n        /* \"#utility.yul\":7344:7353   */\n      dup2\n        /* \"#utility.yul\":7338:7342   */\n      dup2\n        /* \"#utility.yul\":7334:7354   */\n      sub\n        /* \"#utility.yul\":7330:7331   */\n      0x00\n        /* \"#utility.yul\":7319:7328   */\n      dup4\n        /* \"#utility.yul\":7315:7332   */\n      add\n        /* \"#utility.yul\":7308:7355   */\n      mstore\n        /* \"#utility.yul\":7372:7503   */\n      tag_190\n        /* \"#utility.yul\":7498:7502   */\n      dup2\n        /* \"#utility.yul\":7372:7503   */\n      tag_115\n      jump\t// in\n    tag_190:\n        /* \"#utility.yul\":7364:7503   */\n      swap1\n      pop\n        /* \"#utility.yul\":7091:7510   */\n      swap2\n      swap1\n      pop\n      jump\t// out\n        /* \"#utility.yul\":7516:7926   */\n    tag_76:\n        /* \"#utility.yul\":7556:7563   */\n      0x00\n        /* \"#utility.yul\":7579:7599   */\n      tag_192\n        /* \"#utility.yul\":7597:7598   */\n      dup3\n        /* \"#utility.yul\":7579:7599   */\n      tag_100\n      jump\t// in\n    tag_192:\n        /* \"#utility.yul\":7574:7599   */\n      swap2\n      pop\n        /* \"#utility.yul\":7613:7633   */\n      tag_193\n        /* \"#utility.yul\":7631:7632   */\n      dup4\n        /* \"#utility.yul\":7613:7633   */\n      tag_100\n      jump\t// in\n    tag_193:\n        /* \"#utility.yul\":7608:7633   */\n      swap3\n      pop\n        /* \"#utility.yul\":7668:7669   */\n      dup3\n        /* \"#utility.yul\":7665:7666   */\n      dup3\n        /* \"#utility.yul\":7661:7670   */\n      mul\n        /* \"#utility.yul\":7690:7720   */\n      tag_194\n        /* \"#utility.yul\":7708:7719   */\n      dup2\n        /* \"#utility.yul\":7690:7720   */\n      tag_100\n      jump\t// in\n    tag_194:\n        /* \"#utility.yul\":7679:7720   */\n      swap2\n      pop\n        /* \"#utility.yul\":7869:7870   */\n      dup3\n        /* \"#utility.yul\":7860:7867   */\n      dup3\n        /* \"#utility.yul\":7856:7871   */\n      div\n        /* \"#utility.yul\":7853:7854   */\n      dup5\n        /* \"#utility.yul\":7850:7872   */\n      eq\n        /* \"#utility.yul\":7830:7831   */\n      dup4\n        /* \"#utility.yul\":7823:7832   */\n      iszero\n        /* \"#utility.yul\":7803:7886   */\n      or\n        /* \"#utility.yul\":7780:7919   */\n      tag_195\n      jumpi\n        /* \"#utility.yul\":7899:7917   */\n      tag_196\n      tag_105\n      jump\t// in\n    tag_196:\n        /* \"#utility.yul\":7780:7919   */\n    tag_195:\n        /* \"#utility.yul\":7564:7926   */\n      pop\n        /* \"#utility.yul\":7516:7926   */\n      swap3\n      swap2\n      pop\n      pop\n      jump\t// out\n        /* \"#utility.yul\":7932:8112   */\n    tag_116:\n        /* \"#utility.yul\":7980:8057   */\n      0x4e487b7100000000000000000000000000000000000000000000000000000000\n        /* \"#utility.yul\":7977:7978   */\n      0x00\n        /* \"#utility.yul\":7970:8058   */\n      mstore\n        /* \"#utility.yul\":8077:8081   */\n      0x12\n        /* \"#utility.yul\":8074:8075   */\n      0x04\n        /* \"#utility.yul\":8067:8082   */\n      mstore\n        /* \"#utility.yul\":8101:8105   */\n      0x24\n        /* \"#utility.yul\":8098:8099   */\n      0x00\n        /* \"#utility.yul\":8091:8106   */\n      revert\n        /* \"#utility.yul\":8118:8303   */\n    tag_78:\n        /* \"#utility.yul\":8158:8159   */\n      0x00\n        /* \"#utility.yul\":8175:8195   */\n      tag_199\n        /* \"#utility.yul\":8193:8194   */\n      dup3\n        /* \"#utility.yul\":8175:8195   */\n      tag_100\n      jump\t// in\n    tag_199:\n        /* \"#utility.yul\":8170:8195   */\n      swap2\n      pop\n        /* \"#utility.yul\":8209:8229   */\n      tag_200\n        /* \"#utility.yul\":8227:8228   */\n      dup4\n        /* \"#utility.yul\":8209:8229   */\n      tag_100\n      jump\t// in\n    tag_200:\n        /* \"#utility.yul\":8204:8229   */\n      swap3\n      pop\n        /* \"#utility.yul\":8248:8249   */\n      dup3\n        /* \"#utility.yul\":8238:8273   */\n      tag_201\n      jumpi\n        /* \"#utility.yul\":8253:8271   */\n      tag_202\n      tag_116\n      jump\t// in\n    tag_202:\n        /* \"#utility.yul\":8238:8273   */\n    tag_201:\n        /* \"#utility.yul\":8295:8296   */\n      dup3\n        /* \"#utility.yul\":8292:8293   */\n      dup3\n        /* \"#utility.yul\":8288:8297   */\n      div\n        /* \"#utility.yul\":8283:8297   */\n      swap1\n      pop\n        /* \"#utility.yul\":8118:8303   */\n      swap3\n      swap2\n      pop\n      pop\n      jump\t// out\n        /* \"#utility.yul\":8309:8414   */\n    tag_117:\n        /* \"#utility.yul\":8345:8352   */\n      0x00\n        /* \"#utility.yul\":8385:8407   */\n      0xffffffffffffffffffff\n        /* \"#utility.yul\":8378:8383   */\n      dup3\n        /* \"#utility.yul\":8374:8408   */\n      and\n        /* \"#utility.yul\":8363:8408   */\n      swap1\n      pop\n        /* \"#utility.yul\":8309:8414   */\n      swap2\n      swap1\n      pop\n      jump\t// out\n        /* \"#utility.yul\":8420:8540   */\n    tag_118:\n        /* \"#utility.yul\":8492:8515   */\n      tag_205\n        /* \"#utility.yul\":8509:8514   */\n      dup2\n        /* \"#utility.yul\":8492:8515   */\n      tag_117\n      jump\t// in\n    tag_205:\n        /* \"#utility.yul\":8485:8490   */\n      dup2\n        /* \"#utility.yul\":8482:8516   */\n      eq\n        /* \"#utility.yul\":8472:8534   */\n      tag_206\n      jumpi\n        /* \"#utility.yul\":8530:8531   */\n      0x00\n        /* \"#utility.yul\":8527:8528   */\n      dup1\n        /* \"#utility.yul\":8520:8532   */\n      revert\n        /* \"#utility.yul\":8472:8534   */\n    tag_206:\n        /* \"#utility.yul\":8420:8540   */\n      pop\n      jump\t// out\n        /* \"#utility.yul\":8546:8687   */\n    tag_119:\n        /* \"#utility.yul\":8602:8607   */\n      0x00\n        /* \"#utility.yul\":8633:8639   */\n      dup2\n        /* \"#utility.yul\":8627:8640   */\n      mload\n        /* \"#utility.yul\":8618:8640   */\n      swap1\n      pop\n        /* \"#utility.yul\":8649:8681   */\n      tag_208\n        /* \"#utility.yul\":8675:8680   */\n      dup2\n        /* \"#utility.yul\":8649:8681   */\n      tag_118\n      jump\t// in\n    tag_208:\n        /* \"#utility.yul\":8546:8687   */\n      swap3\n      swap2\n      pop\n      pop\n      jump\t// out\n        /* \"#utility.yul\":8693:8769   */\n    tag_120:\n        /* \"#utility.yul\":8729:8736   */\n      0x00\n        /* \"#utility.yul\":8758:8763   */\n      dup2\n        /* \"#utility.yul\":8747:8763   */\n      swap1\n      pop\n        /* \"#utility.yul\":8693:8769   */\n      swap2\n      swap1\n      pop\n      jump\t// out\n        /* \"#utility.yul\":8775:8895   */\n    tag_121:\n        /* \"#utility.yul\":8847:8870   */\n      tag_211\n        /* \"#utility.yul\":8864:8869   */\n      dup2\n        /* \"#utility.yul\":8847:8870   */\n      tag_120\n      jump\t// in\n    tag_211:\n        /* \"#utility.yul\":8840:8845   */\n      dup2\n        /* \"#utility.yul\":8837:8871   */\n      eq\n        /* \"#utility.yul\":8827:8889   */\n      tag_212\n      jumpi\n        /* \"#utility.yul\":8885:8886   */\n      0x00\n        /* \"#utility.yul\":8882:8883   */\n      dup1\n        /* \"#utility.yul\":8875:8887   */\n      revert\n        /* \"#utility.yul\":8827:8889   */\n    tag_212:\n        /* \"#utility.yul\":8775:8895   */\n      pop\n      jump\t// out\n        /* \"#utility.yul\":8901:9042   */\n    tag_122:\n        /* \"#utility.yul\":8957:8962   */\n      0x00\n        /* \"#utility.yul\":8988:8994   */\n      dup2\n        /* \"#utility.yul\":8982:8995   */\n      mload\n        /* \"#utility.yul\":8973:8995   */\n      swap1\n      pop\n        /* \"#utility.yul\":9004:9036   */\n      tag_214\n        /* \"#utility.yul\":9030:9035   */\n      dup2\n        /* \"#utility.yul\":9004:9036   */\n      tag_121\n      jump\t// in\n    tag_214:\n        /* \"#utility.yul\":8901:9042   */\n      swap3\n      swap2\n      pop\n      pop\n      jump\t// out\n        /* \"#utility.yul\":9048:9191   */\n    tag_123:\n        /* \"#utility.yul\":9105:9110   */\n      0x00\n        /* \"#utility.yul\":9136:9142   */\n      dup2\n        /* \"#utility.yul\":9130:9143   */\n      mload\n        /* \"#utility.yul\":9121:9143   */\n      swap1\n      pop\n        /* \"#utility.yul\":9152:9185   */\n      tag_216\n        /* \"#utility.yul\":9179:9184   */\n      dup2\n        /* \"#utility.yul\":9152:9185   */\n      tag_103\n      jump\t// in\n    tag_216:\n        /* \"#utility.yul\":9048:9191   */\n      swap3\n      swap2\n      pop\n      pop\n      jump\t// out\n        /* \"#utility.yul\":9197:10168   */\n    tag_83:\n        /* \"#utility.yul\":9300:9306   */\n      0x00\n        /* \"#utility.yul\":9308:9314   */\n      dup1\n        /* \"#utility.yul\":9316:9322   */\n      0x00\n        /* \"#utility.yul\":9324:9330   */\n      dup1\n        /* \"#utility.yul\":9332:9338   */\n      0x00\n        /* \"#utility.yul\":9381:9384   */\n      0xa0\n        /* \"#utility.yul\":9369:9378   */\n      dup7\n        /* \"#utility.yul\":9360:9367   */\n      dup9\n        /* \"#utility.yul\":9356:9379   */\n      sub\n        /* \"#utility.yul\":9352:9385   */\n      slt\n        /* \"#utility.yul\":9349:9469   */\n      iszero\n      tag_218\n      jumpi\n        /* \"#utility.yul\":9388:9467   */\n      tag_219\n      tag_94\n      jump\t// in\n    tag_219:\n        /* \"#utility.yul\":9349:9469   */\n    tag_218:\n        /* \"#utility.yul\":9508:9509   */\n      0x00\n        /* \"#utility.yul\":9533:9596   */\n      tag_220\n        /* \"#utility.yul\":9588:9595   */\n      dup9\n        /* \"#utility.yul\":9579:9585   */\n      dup3\n        /* \"#utility.yul\":9568:9577   */\n      dup10\n        /* \"#utility.yul\":9564:9586   */\n      add\n        /* \"#utility.yul\":9533:9596   */\n      tag_119\n      jump\t// in\n    tag_220:\n        /* \"#utility.yul\":9523:9596   */\n      swap6\n      pop\n        /* \"#utility.yul\":9479:9606   */\n      pop\n        /* \"#utility.yul\":9645:9647   */\n      0x20\n        /* \"#utility.yul\":9671:9734   */\n      tag_221\n        /* \"#utility.yul\":9726:9733   */\n      dup9\n        /* \"#utility.yul\":9717:9723   */\n      dup3\n        /* \"#utility.yul\":9706:9715   */\n      dup10\n        /* \"#utility.yul\":9702:9724   */\n      add\n        /* \"#utility.yul\":9671:9734   */\n      tag_122\n      jump\t// in\n    tag_221:\n        /* \"#utility.yul\":9661:9734   */\n      swap5\n      pop\n        /* \"#utility.yul\":9616:9744   */\n      pop\n        /* \"#utility.yul\":9783:9785   */\n      0x40\n        /* \"#utility.yul\":9809:9873   */\n      tag_222\n        /* \"#utility.yul\":9865:9872   */\n      dup9\n        /* \"#utility.yul\":9856:9862   */\n      dup3\n        /* \"#utility.yul\":9845:9854   */\n      dup10\n        /* \"#utility.yul\":9841:9863   */\n      add\n        /* \"#utility.yul\":9809:9873   */\n      tag_123\n      jump\t// in\n    tag_222:\n        /* \"#utility.yul\":9799:9873   */\n      swap4\n      pop\n        /* \"#utility.yul\":9754:9883   */\n      pop\n        /* \"#utility.yul\":9922:9924   */\n      0x60\n        /* \"#utility.yul\":9948:10012   */\n      tag_223\n        /* \"#utility.yul\":10004:10011   */\n      dup9\n        /* \"#utility.yul\":9995:10001   */\n      dup3\n        /* \"#utility.yul\":9984:9993   */\n      dup10\n        /* \"#utility.yul\":9980:10002   */\n      add\n        /* \"#utility.yul\":9948:10012   */\n      tag_123\n      jump\t// in\n    tag_223:\n        /* \"#utility.yul\":9938:10012   */\n      swap3\n      pop\n        /* \"#utility.yul\":9893:10022   */\n      pop\n        /* \"#utility.yul\":10061:10064   */\n      0x80\n        /* \"#utility.yul\":10088:10151   */\n      tag_224\n        /* \"#utility.yul\":10143:10150   */\n      dup9\n        /* \"#utility.yul\":10134:10140   */\n      dup3\n        /* \"#utility.yul\":10123:10132   */\n      dup10\n        /* \"#utility.yul\":10119:10141   */\n      add\n        /* \"#utility.yul\":10088:10151   */\n      tag_119\n      jump\t// in\n    tag_224:\n        /* \"#utility.yul\":10078:10151   */\n      swap2\n      pop\n        /* \"#utility.yul\":10032:10161   */\n      pop\n        /* \"#utility.yul\":9197:10168   */\n      swap3\n      swap6\n      pop\n      swap3\n      swap6\n      swap1\n      swap4\n      pop\n      jump\t// out\n        /* \"#utility.yul\":10174:10730   */\n    tag_85:\n        /* \"#utility.yul\":10213:10220   */\n      0x00\n        /* \"#utility.yul\":10236:10255   */\n      tag_226\n        /* \"#utility.yul\":10253:10254   */\n      dup3\n        /* \"#utility.yul\":10236:10255   */\n      tag_120\n      jump\t// in\n    tag_226:\n        /* \"#utility.yul\":10231:10255   */\n      swap2\n      pop\n        /* \"#utility.yul\":10269:10288   */\n      tag_227\n        /* \"#utility.yul\":10286:10287   */\n      dup4\n        /* \"#utility.yul\":10269:10288   */\n      tag_120\n      jump\t// in\n    tag_227:\n        /* \"#utility.yul\":10264:10288   */\n      swap3\n      pop\n        /* \"#utility.yul\":10323:10324   */\n      dup3\n        /* \"#utility.yul\":10320:10321   */\n      dup3\n        /* \"#utility.yul\":10316:10325   */\n      mul\n        /* \"#utility.yul\":10345:10374   */\n      tag_228\n        /* \"#utility.yul\":10362:10373   */\n      dup2\n        /* \"#utility.yul\":10345:10374   */\n      tag_120\n      jump\t// in\n    tag_228:\n        /* \"#utility.yul\":10334:10374   */\n      swap2\n      pop\n        /* \"#utility.yul\":10432:10498   */\n      0x8000000000000000000000000000000000000000000000000000000000000000\n        /* \"#utility.yul\":10429:10430   */\n      dup5\n        /* \"#utility.yul\":10426:10499   */\n      eq\n        /* \"#utility.yul\":10422:10423   */\n      0x00\n        /* \"#utility.yul\":10419:10420   */\n      dup5\n        /* \"#utility.yul\":10415:10424   */\n      slt\n        /* \"#utility.yul\":10411:10500   */\n      and\n        /* \"#utility.yul\":10408:10523   */\n      iszero\n      tag_229\n      jumpi\n        /* \"#utility.yul\":10503:10521   */\n      tag_230\n      tag_105\n      jump\t// in\n    tag_230:\n        /* \"#utility.yul\":10408:10523   */\n    tag_229:\n        /* \"#utility.yul\":10673:10674   */\n      dup3\n        /* \"#utility.yul\":10664:10671   */\n      dup3\n        /* \"#utility.yul\":10659:10675   */\n      sdiv\n        /* \"#utility.yul\":10656:10657   */\n      dup5\n        /* \"#utility.yul\":10653:10676   */\n      eq\n        /* \"#utility.yul\":10633:10634   */\n      dup4\n        /* \"#utility.yul\":10626:10635   */\n      iszero\n        /* \"#utility.yul\":10606:10690   */\n      or\n        /* \"#utility.yul\":10583:10723   */\n      tag_231\n      jumpi\n        /* \"#utility.yul\":10703:10721   */\n      tag_232\n      tag_105\n      jump\t// in\n    tag_232:\n        /* \"#utility.yul\":10583:10723   */\n    tag_231:\n        /* \"#utility.yul\":10221:10730   */\n      pop\n        /* \"#utility.yul\":10174:10730   */\n      swap3\n      swap2\n      pop\n      pop\n      jump\t// out\n\n    auxdata: 0xa264697066735822122013af50d3ad4e355bb270869e3016759a86ff16a86416e1f1f93657b0334015f664736f6c63430008110033\n}\n",
				"bytecode": {
					"linkReferences": {},
					"object": "60a06040526802b5e3af16b188000060005534801561001d57600080fd5b503373ffffffffffffffffffffffffffffffffffffffff1660808173ffffffffffffffffffffffffffffffffffffffff1681525050608051610ca56100746000396000818161030701526103af0152610ca56000f3fe6080604052600436106100555760003560e01c80633ccfd60b1461005a5780633e47d6f3146100715780638da5cb5b146100ae578063b60d4288146100d9578063dc0d3dff146100e3578063e5e18b1a14610120575b600080fd5b34801561006657600080fd5b5061006f61014b565b005b34801561007d57600080fd5b50610098600480360381019061009391906106f9565b610395565b6040516100a5919061073f565b60405180910390f35b3480156100ba57600080fd5b506100c36103ad565b6040516100d09190610769565b60405180910390f35b6100e16103d1565b005b3480156100ef57600080fd5b5061010a600480360381019061010591906107b0565b6104c7565b6040516101179190610769565b60405180910390f35b34801561012c57600080fd5b50610135610506565b604051610142919061073f565b60405180910390f35b60005b6001805490508110156101f757600060018281548110610171576101706107dd565b5b9060005260206000200160009054906101000a900473ffffffffffffffffffffffffffffffffffffffff1690506000600260008373ffffffffffffffffffffffffffffffffffffffff1673ffffffffffffffffffffffffffffffffffffffff168152602001908152602001600020819055505080806101ef9061083b565b91505061014e565b50600067ffffffffffffffff81111561021357610212610883565b5b6040519080825280602002602001820160405280156102415781602001602082028036833780820191505090505b50600190805190602001906102579291906105ef565b5060003373ffffffffffffffffffffffffffffffffffffffff164760405161027e906108e3565b60006040518083038185875af1925050503d80600081146102bb576040519150601f19603f3d011682016040523d82523d6000602084013e6102c0565b606091505b5050905080610304576040517f08c379a00000000000000000000000000000000000000000000000000000000081526004016102fb90610955565b60405180910390fd5b507f000000000000000000000000000000000000000000000000000000000000000073ffffffffffffffffffffffffffffffffffffffff163373ffffffffffffffffffffffffffffffffffffffff1614610393576040517f08c379a000000000000000000000000000000000000000000000000000000000815260040161038a906109c1565b60405180910390fd5b565b60026020528060005260406000206000915090505481565b7f000000000000000000000000000000000000000000000000000000000000000081565b6000546103dd3461050c565b101561041e576040517f08c379a000000000000000000000000000000000000000000000000000000000815260040161041590610a2d565b60405180910390fd5b6001339080600181540180825580915050600190039060005260206000200160009091909190916101000a81548173ffffffffffffffffffffffffffffffffffffffff021916908373ffffffffffffffffffffffffffffffffffffffff16021790555034600260003373ffffffffffffffffffffffffffffffffffffffff1673ffffffffffffffffffffffffffffffffffffffff16815260200190815260200160002081905550565b600181815481106104d757600080fd5b906000526020600020016000915054906101000a900473ffffffffffffffffffffffffffffffffffffffff1681565b60005481565b600080610517610546565b90506000670de0b6b3a764000084836105309190610a4d565b61053a9190610abe565b90508092505050919050565b60008073d4a33860578de61dbabdc8bfdb98fd742fa7028e905060008173ffffffffffffffffffffffffffffffffffffffff1663feaf968c6040518163ffffffff1660e01b815260040160a060405180830381865afa1580156105ad573d6000803e3d6000fd5b505050506040513d601f19601f820116820180604052508101906105d19190610b7c565b5050509150506402540be400816105e89190610bf7565b9250505090565b828054828255906000526020600020908101928215610668579160200282015b828111156106675782518260006101000a81548173ffffffffffffffffffffffffffffffffffffffff021916908373ffffffffffffffffffffffffffffffffffffffff1602179055509160200191906001019061060f565b5b5090506106759190610679565b5090565b5b8082111561069257600081600090555060010161067a565b5090565b600080fd5b600073ffffffffffffffffffffffffffffffffffffffff82169050919050565b60006106c68261069b565b9050919050565b6106d6816106bb565b81146106e157600080fd5b50565b6000813590506106f3816106cd565b92915050565b60006020828403121561070f5761070e610696565b5b600061071d848285016106e4565b91505092915050565b6000819050919050565b61073981610726565b82525050565b60006020820190506107546000830184610730565b92915050565b610763816106bb565b82525050565b600060208201905061077e600083018461075a565b92915050565b61078d81610726565b811461079857600080fd5b50565b6000813590506107aa81610784565b92915050565b6000602082840312156107c6576107c5610696565b5b60006107d48482850161079b565b91505092915050565b7f4e487b7100000000000000000000000000000000000000000000000000000000600052603260045260246000fd5b7f4e487b7100000000000000000000000000000000000000000000000000000000600052601160045260246000fd5b600061084682610726565b91507fffffffffffffffffffffffffffffffffffffffffffffffffffffffffffffffff82036108785761087761080c565b5b600182019050919050565b7f4e487b7100000000000000000000000000000000000000000000000000000000600052604160045260246000fd5b600081905092915050565b50565b60006108cd6000836108b2565b91506108d8826108bd565b600082019050919050565b60006108ee826108c0565b9150819050919050565b600082825260208201905092915050565b7f66616c6c6f20616c206c6c616d61720000000000000000000000000000000000600082015250565b600061093f600f836108f8565b915061094a82610909565b602082019050919050565b6000602082019050818103600083015261096e81610932565b9050919050565b7f53656e646572206973206e6f74206f776e657200000000000000000000000000600082015250565b60006109ab6013836108f8565b91506109b682610975565b602082019050919050565b600060208201905081810360008301526109da8161099e565b9050919050565b7f53616c646f20696e737566696369656e74650000000000000000000000000000600082015250565b6000610a176012836108f8565b9150610a22826109e1565b602082019050919050565b60006020820190508181036000830152610a4681610a0a565b9050919050565b6000610a5882610726565b9150610a6383610726565b9250828202610a7181610726565b91508282048414831517610a8857610a8761080c565b5b5092915050565b7f4e487b7100000000000000000000000000000000000000000000000000000000600052601260045260246000fd5b6000610ac982610726565b9150610ad483610726565b925082610ae457610ae3610a8f565b5b828204905092915050565b600069ffffffffffffffffffff82169050919050565b610b0e81610aef565b8114610b1957600080fd5b50565b600081519050610b2b81610b05565b92915050565b6000819050919050565b610b4481610b31565b8114610b4f57600080fd5b50565b600081519050610b6181610b3b565b92915050565b600081519050610b7681610784565b92915050565b600080600080600060a08688031215610b9857610b97610696565b5b6000610ba688828901610b1c565b9550506020610bb788828901610b52565b9450506040610bc888828901610b67565b9350506060610bd988828901610b67565b9250506080610bea88828901610b1c565b9150509295509295909350565b6000610c0282610b31565b9150610c0d83610b31565b9250828202610c1b81610b31565b91507f80000000000000000000000000000000000000000000000000000000000000008414600084121615610c5357610c5261080c565b5b8282058414831517610c6857610c6761080c565b5b509291505056fea264697066735822122013af50d3ad4e355bb270869e3016759a86ff16a86416e1f1f93657b0334015f664736f6c63430008110033",
					"opcodes": "PUSH1 0xA0 PUSH1 0x40 MSTORE PUSH9 0x2B5E3AF16B1880000 PUSH1 0x0 SSTORE CALLVALUE DUP1 ISZERO PUSH2 0x1D JUMPI PUSH1 0x0 DUP1 REVERT JUMPDEST POP CALLER PUSH20 0xFFFFFFFFFFFFFFFFFFFFFFFFFFFFFFFFFFFFFFFF AND PUSH1 0x80 DUP2 PUSH20 0xFFFFFFFFFFFFFFFFFFFFFFFFFFFFFFFFFFFFFFFF AND DUP2 MSTORE POP POP PUSH1 0x80 MLOAD PUSH2 0xCA5 PUSH2 0x74 PUSH1 0x0 CODECOPY PUSH1 0x0 DUP2 DUP2 PUSH2 0x307 ADD MSTORE PUSH2 0x3AF ADD MSTORE PUSH2 0xCA5 PUSH1 0x0 RETURN INVALID PUSH1 0x80 PUSH1 0x40 MSTORE PUSH1 0x4 CALLDATASIZE LT PUSH2 0x55 JUMPI PUSH1 0x0 CALLDATALOAD PUSH1 0xE0 SHR DUP1 PUSH4 0x3CCFD60B EQ PUSH2 0x5A JUMPI DUP1 PUSH4 0x3E47D6F3 EQ PUSH2 0x71 JUMPI DUP1 PUSH4 0x8DA5CB5B EQ PUSH2 0xAE JUMPI DUP1 PUSH4 0xB60D4288 EQ PUSH2 0xD9 JUMPI DUP1 PUSH4 0xDC0D3DFF EQ PUSH2 0xE3 JUMPI DUP1 PUSH4 0xE5E18B1A EQ PUSH2 0x120 JUMPI JUMPDEST PUSH1 0x0 DUP1 REVERT JUMPDEST CALLVALUE DUP1 ISZERO PUSH2 0x66 JUMPI PUSH1 0x0 DUP1 REVERT JUMPDEST POP PUSH2 0x6F PUSH2 0x14B JUMP JUMPDEST STOP JUMPDEST CALLVALUE DUP1 ISZERO PUSH2 0x7D JUMPI PUSH1 0x0 DUP1 REVERT JUMPDEST POP PUSH2 0x98 PUSH1 0x4 DUP1 CALLDATASIZE SUB DUP2 ADD SWAP1 PUSH2 0x93 SWAP2 SWAP1 PUSH2 0x6F9 JUMP JUMPDEST PUSH2 0x395 JUMP JUMPDEST PUSH1 0x40 MLOAD PUSH2 0xA5 SWAP2 SWAP1 PUSH2 0x73F JUMP JUMPDEST PUSH1 0x40 MLOAD DUP1 SWAP2 SUB SWAP1 RETURN JUMPDEST CALLVALUE DUP1 ISZERO PUSH2 0xBA JUMPI PUSH1 0x0 DUP1 REVERT JUMPDEST POP PUSH2 0xC3 PUSH2 0x3AD JUMP JUMPDEST PUSH1 0x40 MLOAD PUSH2 0xD0 SWAP2 SWAP1 PUSH2 0x769 JUMP JUMPDEST PUSH1 0x40 MLOAD DUP1 SWAP2 SUB SWAP1 RETURN JUMPDEST PUSH2 0xE1 PUSH2 0x3D1 JUMP JUMPDEST STOP JUMPDEST CALLVALUE DUP1 ISZERO PUSH2 0xEF JUMPI PUSH1 0x0 DUP1 REVERT JUMPDEST POP PUSH2 0x10A PUSH1 0x4 DUP1 CALLDATASIZE SUB DUP2 ADD SWAP1 PUSH2 0x105 SWAP2 SWAP1 PUSH2 0x7B0 JUMP JUMPDEST PUSH2 0x4C7 JUMP JUMPDEST PUSH1 0x40 MLOAD PUSH2 0x117 SWAP2 SWAP1 PUSH2 0x769 JUMP JUMPDEST PUSH1 0x40 MLOAD DUP1 SWAP2 SUB SWAP1 RETURN JUMPDEST CALLVALUE DUP1 ISZERO PUSH2 0x12C JUMPI PUSH1 0x0 DUP1 REVERT JUMPDEST POP PUSH2 0x135 PUSH2 0x506 JUMP JUMPDEST PUSH1 0x40 MLOAD PUSH2 0x142 SWAP2 SWAP1 PUSH2 0x73F JUMP JUMPDEST PUSH1 0x40 MLOAD DUP1 SWAP2 SUB SWAP1 RETURN JUMPDEST PUSH1 0x0 JUMPDEST PUSH1 0x1 DUP1 SLOAD SWAP1 POP DUP2 LT ISZERO PUSH2 0x1F7 JUMPI PUSH1 0x0 PUSH1 0x1 DUP3 DUP2 SLOAD DUP2 LT PUSH2 0x171 JUMPI PUSH2 0x170 PUSH2 0x7DD JUMP JUMPDEST JUMPDEST SWAP1 PUSH1 0x0 MSTORE PUSH1 0x20 PUSH1 0x0 KECCAK256 ADD PUSH1 0x0 SWAP1 SLOAD SWAP1 PUSH2 0x100 EXP SWAP1 DIV PUSH20 0xFFFFFFFFFFFFFFFFFFFFFFFFFFFFFFFFFFFFFFFF AND SWAP1 POP PUSH1 0x0 PUSH1 0x2 PUSH1 0x0 DUP4 PUSH20 0xFFFFFFFFFFFFFFFFFFFFFFFFFFFFFFFFFFFFFFFF AND PUSH20 0xFFFFFFFFFFFFFFFFFFFFFFFFFFFFFFFFFFFFFFFF AND DUP2 MSTORE PUSH1 0x20 ADD SWAP1 DUP2 MSTORE PUSH1 0x20 ADD PUSH1 0x0 KECCAK256 DUP2 SWAP1 SSTORE POP POP DUP1 DUP1 PUSH2 0x1EF SWAP1 PUSH2 0x83B JUMP JUMPDEST SWAP2 POP POP PUSH2 0x14E JUMP JUMPDEST POP PUSH1 0x0 PUSH8 0xFFFFFFFFFFFFFFFF DUP2 GT ISZERO PUSH2 0x213 JUMPI PUSH2 0x212 PUSH2 0x883 JUMP JUMPDEST JUMPDEST PUSH1 0x40 MLOAD SWAP1 DUP1 DUP3 MSTORE DUP1 PUSH1 0x20 MUL PUSH1 0x20 ADD DUP3 ADD PUSH1 0x40 MSTORE DUP1 ISZERO PUSH2 0x241 JUMPI DUP2 PUSH1 0x20 ADD PUSH1 0x20 DUP3 MUL DUP1 CALLDATASIZE DUP4 CALLDATACOPY DUP1 DUP3 ADD SWAP2 POP POP SWAP1 POP JUMPDEST POP PUSH1 0x1 SWAP1 DUP1 MLOAD SWAP1 PUSH1 0x20 ADD SWAP1 PUSH2 0x257 SWAP3 SWAP2 SWAP1 PUSH2 0x5EF JUMP JUMPDEST POP PUSH1 0x0 CALLER PUSH20 0xFFFFFFFFFFFFFFFFFFFFFFFFFFFFFFFFFFFFFFFF AND SELFBALANCE PUSH1 0x40 MLOAD PUSH2 0x27E SWAP1 PUSH2 0x8E3 JUMP JUMPDEST PUSH1 0x0 PUSH1 0x40 MLOAD DUP1 DUP4 SUB DUP2 DUP6 DUP8 GAS CALL SWAP3 POP POP POP RETURNDATASIZE DUP1 PUSH1 0x0 DUP2 EQ PUSH2 0x2BB JUMPI PUSH1 0x40 MLOAD SWAP2 POP PUSH1 0x1F NOT PUSH1 0x3F RETURNDATASIZE ADD AND DUP3 ADD PUSH1 0x40 MSTORE RETURNDATASIZE DUP3 MSTORE RETURNDATASIZE PUSH1 0x0 PUSH1 0x20 DUP5 ADD RETURNDATACOPY PUSH2 0x2C0 JUMP JUMPDEST PUSH1 0x60 SWAP2 POP JUMPDEST POP POP SWAP1 POP DUP1 PUSH2 0x304 JUMPI PUSH1 0x40 MLOAD PUSH32 0x8C379A000000000000000000000000000000000000000000000000000000000 DUP2 MSTORE PUSH1 0x4 ADD PUSH2 0x2FB SWAP1 PUSH2 0x955 JUMP JUMPDEST PUSH1 0x40 MLOAD DUP1 SWAP2 SUB SWAP1 REVERT JUMPDEST POP PUSH32 0x0 PUSH20 0xFFFFFFFFFFFFFFFFFFFFFFFFFFFFFFFFFFFFFFFF AND CALLER PUSH20 0xFFFFFFFFFFFFFFFFFFFFFFFFFFFFFFFFFFFFFFFF AND EQ PUSH2 0x393 JUMPI PUSH1 0x40 MLOAD PUSH32 0x8C379A000000000000000000000000000000000000000000000000000000000 DUP2 MSTORE PUSH1 0x4 ADD PUSH2 0x38A SWAP1 PUSH2 0x9C1 JUMP JUMPDEST PUSH1 0x40 MLOAD DUP1 SWAP2 SUB SWAP1 REVERT JUMPDEST JUMP JUMPDEST PUSH1 0x2 PUSH1 0x20 MSTORE DUP1 PUSH1 0x0 MSTORE PUSH1 0x40 PUSH1 0x0 KECCAK256 PUSH1 0x0 SWAP2 POP SWAP1 POP SLOAD DUP2 JUMP JUMPDEST PUSH32 0x0 DUP2 JUMP JUMPDEST PUSH1 0x0 SLOAD PUSH2 0x3DD CALLVALUE PUSH2 0x50C JUMP JUMPDEST LT ISZERO PUSH2 0x41E JUMPI PUSH1 0x40 MLOAD PUSH32 0x8C379A000000000000000000000000000000000000000000000000000000000 DUP2 MSTORE PUSH1 0x4 ADD PUSH2 0x415 SWAP1 PUSH2 0xA2D JUMP JUMPDEST PUSH1 0x40 MLOAD DUP1 SWAP2 SUB SWAP1 REVERT JUMPDEST PUSH1 0x1 CALLER SWAP1 DUP1 PUSH1 0x1 DUP2 SLOAD ADD DUP1 DUP3 SSTORE DUP1 SWAP2 POP POP PUSH1 0x1 SWAP1 SUB SWAP1 PUSH1 0x0 MSTORE PUSH1 0x20 PUSH1 0x0 KECCAK256 ADD PUSH1 0x0 SWAP1 SWAP2 SWAP1 SWAP2 SWAP1 SWAP2 PUSH2 0x100 EXP DUP2 SLOAD DUP2 PUSH20 0xFFFFFFFFFFFFFFFFFFFFFFFFFFFFFFFFFFFFFFFF MUL NOT AND SWAP1 DUP4 PUSH20 0xFFFFFFFFFFFFFFFFFFFFFFFFFFFFFFFFFFFFFFFF AND MUL OR SWAP1 SSTORE POP CALLVALUE PUSH1 0x2 PUSH1 0x0 CALLER PUSH20 0xFFFFFFFFFFFFFFFFFFFFFFFFFFFFFFFFFFFFFFFF AND PUSH20 0xFFFFFFFFFFFFFFFFFFFFFFFFFFFFFFFFFFFFFFFF AND DUP2 MSTORE PUSH1 0x20 ADD SWAP1 DUP2 MSTORE PUSH1 0x20 ADD PUSH1 0x0 KECCAK256 DUP2 SWAP1 SSTORE POP JUMP JUMPDEST PUSH1 0x1 DUP2 DUP2 SLOAD DUP2 LT PUSH2 0x4D7 JUMPI PUSH1 0x0 DUP1 REVERT JUMPDEST SWAP1 PUSH1 0x0 MSTORE PUSH1 0x20 PUSH1 0x0 KECCAK256 ADD PUSH1 0x0 SWAP2 POP SLOAD SWAP1 PUSH2 0x100 EXP SWAP1 DIV PUSH20 0xFFFFFFFFFFFFFFFFFFFFFFFFFFFFFFFFFFFFFFFF AND DUP2 JUMP JUMPDEST PUSH1 0x0 SLOAD DUP2 JUMP JUMPDEST PUSH1 0x0 DUP1 PUSH2 0x517 PUSH2 0x546 JUMP JUMPDEST SWAP1 POP PUSH1 0x0 PUSH8 0xDE0B6B3A7640000 DUP5 DUP4 PUSH2 0x530 SWAP2 SWAP1 PUSH2 0xA4D JUMP JUMPDEST PUSH2 0x53A SWAP2 SWAP1 PUSH2 0xABE JUMP JUMPDEST SWAP1 POP DUP1 SWAP3 POP POP POP SWAP2 SWAP1 POP JUMP JUMPDEST PUSH1 0x0 DUP1 PUSH20 0xD4A33860578DE61DBABDC8BFDB98FD742FA7028E SWAP1 POP PUSH1 0x0 DUP2 PUSH20 0xFFFFFFFFFFFFFFFFFFFFFFFFFFFFFFFFFFFFFFFF AND PUSH4 0xFEAF968C PUSH1 0x40 MLOAD DUP2 PUSH4 0xFFFFFFFF AND PUSH1 0xE0 SHL DUP2 MSTORE PUSH1 0x4 ADD PUSH1 0xA0 PUSH1 0x40 MLOAD DUP1 DUP4 SUB DUP2 DUP7 GAS STATICCALL ISZERO DUP1 ISZERO PUSH2 0x5AD JUMPI RETURNDATASIZE PUSH1 0x0 DUP1 RETURNDATACOPY RETURNDATASIZE PUSH1 0x0 REVERT JUMPDEST POP POP POP POP PUSH1 0x40 MLOAD RETURNDATASIZE PUSH1 0x1F NOT PUSH1 0x1F DUP3 ADD AND DUP3 ADD DUP1 PUSH1 0x40 MSTORE POP DUP2 ADD SWAP1 PUSH2 0x5D1 SWAP2 SWAP1 PUSH2 0xB7C JUMP JUMPDEST POP POP POP SWAP2 POP POP PUSH5 0x2540BE400 DUP2 PUSH2 0x5E8 SWAP2 SWAP1 PUSH2 0xBF7 JUMP JUMPDEST SWAP3 POP POP POP SWAP1 JUMP JUMPDEST DUP3 DUP1 SLOAD DUP3 DUP3 SSTORE SWAP1 PUSH1 0x0 MSTORE PUSH1 0x20 PUSH1 0x0 KECCAK256 SWAP1 DUP2 ADD SWAP3 DUP3 ISZERO PUSH2 0x668 JUMPI SWAP2 PUSH1 0x20 MUL DUP3 ADD JUMPDEST DUP3 DUP2 GT ISZERO PUSH2 0x667 JUMPI DUP3 MLOAD DUP3 PUSH1 0x0 PUSH2 0x100 EXP DUP2 SLOAD DUP2 PUSH20 0xFFFFFFFFFFFFFFFFFFFFFFFFFFFFFFFFFFFFFFFF MUL NOT AND SWAP1 DUP4 PUSH20 0xFFFFFFFFFFFFFFFFFFFFFFFFFFFFFFFFFFFFFFFF AND MUL OR SWAP1 SSTORE POP SWAP2 PUSH1 0x20 ADD SWAP2 SWAP1 PUSH1 0x1 ADD SWAP1 PUSH2 0x60F JUMP JUMPDEST JUMPDEST POP SWAP1 POP PUSH2 0x675 SWAP2 SWAP1 PUSH2 0x679 JUMP JUMPDEST POP SWAP1 JUMP JUMPDEST JUMPDEST DUP1 DUP3 GT ISZERO PUSH2 0x692 JUMPI PUSH1 0x0 DUP2 PUSH1 0x0 SWAP1 SSTORE POP PUSH1 0x1 ADD PUSH2 0x67A JUMP JUMPDEST POP SWAP1 JUMP JUMPDEST PUSH1 0x0 DUP1 REVERT JUMPDEST PUSH1 0x0 PUSH20 0xFFFFFFFFFFFFFFFFFFFFFFFFFFFFFFFFFFFFFFFF DUP3 AND SWAP1 POP SWAP2 SWAP1 POP JUMP JUMPDEST PUSH1 0x0 PUSH2 0x6C6 DUP3 PUSH2 0x69B JUMP JUMPDEST SWAP1 POP SWAP2 SWAP1 POP JUMP JUMPDEST PUSH2 0x6D6 DUP2 PUSH2 0x6BB JUMP JUMPDEST DUP2 EQ PUSH2 0x6E1 JUMPI PUSH1 0x0 DUP1 REVERT JUMPDEST POP JUMP JUMPDEST PUSH1 0x0 DUP2 CALLDATALOAD SWAP1 POP PUSH2 0x6F3 DUP2 PUSH2 0x6CD JUMP JUMPDEST SWAP3 SWAP2 POP POP JUMP JUMPDEST PUSH1 0x0 PUSH1 0x20 DUP3 DUP5 SUB SLT ISZERO PUSH2 0x70F JUMPI PUSH2 0x70E PUSH2 0x696 JUMP JUMPDEST JUMPDEST PUSH1 0x0 PUSH2 0x71D DUP5 DUP3 DUP6 ADD PUSH2 0x6E4 JUMP JUMPDEST SWAP2 POP POP SWAP3 SWAP2 POP POP JUMP JUMPDEST PUSH1 0x0 DUP2 SWAP1 POP SWAP2 SWAP1 POP JUMP JUMPDEST PUSH2 0x739 DUP2 PUSH2 0x726 JUMP JUMPDEST DUP3 MSTORE POP POP JUMP JUMPDEST PUSH1 0x0 PUSH1 0x20 DUP3 ADD SWAP1 POP PUSH2 0x754 PUSH1 0x0 DUP4 ADD DUP5 PUSH2 0x730 JUMP JUMPDEST SWAP3 SWAP2 POP POP JUMP JUMPDEST PUSH2 0x763 DUP2 PUSH2 0x6BB JUMP JUMPDEST DUP3 MSTORE POP POP JUMP JUMPDEST PUSH1 0x0 PUSH1 0x20 DUP3 ADD SWAP1 POP PUSH2 0x77E PUSH1 0x0 DUP4 ADD DUP5 PUSH2 0x75A JUMP JUMPDEST SWAP3 SWAP2 POP POP JUMP JUMPDEST PUSH2 0x78D DUP2 PUSH2 0x726 JUMP JUMPDEST DUP2 EQ PUSH2 0x798 JUMPI PUSH1 0x0 DUP1 REVERT JUMPDEST POP JUMP JUMPDEST PUSH1 0x0 DUP2 CALLDATALOAD SWAP1 POP PUSH2 0x7AA DUP2 PUSH2 0x784 JUMP JUMPDEST SWAP3 SWAP2 POP POP JUMP JUMPDEST PUSH1 0x0 PUSH1 0x20 DUP3 DUP5 SUB SLT ISZERO PUSH2 0x7C6 JUMPI PUSH2 0x7C5 PUSH2 0x696 JUMP JUMPDEST JUMPDEST PUSH1 0x0 PUSH2 0x7D4 DUP5 DUP3 DUP6 ADD PUSH2 0x79B JUMP JUMPDEST SWAP2 POP POP SWAP3 SWAP2 POP POP JUMP JUMPDEST PUSH32 0x4E487B7100000000000000000000000000000000000000000000000000000000 PUSH1 0x0 MSTORE PUSH1 0x32 PUSH1 0x4 MSTORE PUSH1 0x24 PUSH1 0x0 REVERT JUMPDEST PUSH32 0x4E487B7100000000000000000000000000000000000000000000000000000000 PUSH1 0x0 MSTORE PUSH1 0x11 PUSH1 0x4 MSTORE PUSH1 0x24 PUSH1 0x0 REVERT JUMPDEST PUSH1 0x0 PUSH2 0x846 DUP3 PUSH2 0x726 JUMP JUMPDEST SWAP2 POP PUSH32 0xFFFFFFFFFFFFFFFFFFFFFFFFFFFFFFFFFFFFFFFFFFFFFFFFFFFFFFFFFFFFFFFF DUP3 SUB PUSH2 0x878 JUMPI PUSH2 0x877 PUSH2 0x80C JUMP JUMPDEST JUMPDEST PUSH1 0x1 DUP3 ADD SWAP1 POP SWAP2 SWAP1 POP JUMP JUMPDEST PUSH32 0x4E487B7100000000000000000000000000000000000000000000000000000000 PUSH1 0x0 MSTORE PUSH1 0x41 PUSH1 0x4 MSTORE PUSH1 0x24 PUSH1 0x0 REVERT JUMPDEST PUSH1 0x0 DUP2 SWAP1 POP SWAP3 SWAP2 POP POP JUMP JUMPDEST POP JUMP JUMPDEST PUSH1 0x0 PUSH2 0x8CD PUSH1 0x0 DUP4 PUSH2 0x8B2 JUMP JUMPDEST SWAP2 POP PUSH2 0x8D8 DUP3 PUSH2 0x8BD JUMP JUMPDEST PUSH1 0x0 DUP3 ADD SWAP1 POP SWAP2 SWAP1 POP JUMP JUMPDEST PUSH1 0x0 PUSH2 0x8EE DUP3 PUSH2 0x8C0 JUMP JUMPDEST SWAP2 POP DUP2 SWAP1 POP SWAP2 SWAP1 POP JUMP JUMPDEST PUSH1 0x0 DUP3 DUP3 MSTORE PUSH1 0x20 DUP3 ADD SWAP1 POP SWAP3 SWAP2 POP POP JUMP JUMPDEST PUSH32 0x66616C6C6F20616C206C6C616D61720000000000000000000000000000000000 PUSH1 0x0 DUP3 ADD MSTORE POP JUMP JUMPDEST PUSH1 0x0 PUSH2 0x93F PUSH1 0xF DUP4 PUSH2 0x8F8 JUMP JUMPDEST SWAP2 POP PUSH2 0x94A DUP3 PUSH2 0x909 JUMP JUMPDEST PUSH1 0x20 DUP3 ADD SWAP1 POP SWAP2 SWAP1 POP JUMP JUMPDEST PUSH1 0x0 PUSH1 0x20 DUP3 ADD SWAP1 POP DUP2 DUP2 SUB PUSH1 0x0 DUP4 ADD MSTORE PUSH2 0x96E DUP2 PUSH2 0x932 JUMP JUMPDEST SWAP1 POP SWAP2 SWAP1 POP JUMP JUMPDEST PUSH32 0x53656E646572206973206E6F74206F776E657200000000000000000000000000 PUSH1 0x0 DUP3 ADD MSTORE POP JUMP JUMPDEST PUSH1 0x0 PUSH2 0x9AB PUSH1 0x13 DUP4 PUSH2 0x8F8 JUMP JUMPDEST SWAP2 POP PUSH2 0x9B6 DUP3 PUSH2 0x975 JUMP JUMPDEST PUSH1 0x20 DUP3 ADD SWAP1 POP SWAP2 SWAP1 POP JUMP JUMPDEST PUSH1 0x0 PUSH1 0x20 DUP3 ADD SWAP1 POP DUP2 DUP2 SUB PUSH1 0x0 DUP4 ADD MSTORE PUSH2 0x9DA DUP2 PUSH2 0x99E JUMP JUMPDEST SWAP1 POP SWAP2 SWAP1 POP JUMP JUMPDEST PUSH32 0x53616C646F20696E737566696369656E74650000000000000000000000000000 PUSH1 0x0 DUP3 ADD MSTORE POP JUMP JUMPDEST PUSH1 0x0 PUSH2 0xA17 PUSH1 0x12 DUP4 PUSH2 0x8F8 JUMP JUMPDEST SWAP2 POP PUSH2 0xA22 DUP3 PUSH2 0x9E1 JUMP JUMPDEST PUSH1 0x20 DUP3 ADD SWAP1 POP SWAP2 SWAP1 POP JUMP JUMPDEST PUSH1 0x0 PUSH1 0x20 DUP3 ADD SWAP1 POP DUP2 DUP2 SUB PUSH1 0x0 DUP4 ADD MSTORE PUSH2 0xA46 DUP2 PUSH2 0xA0A JUMP JUMPDEST SWAP1 POP SWAP2 SWAP1 POP JUMP JUMPDEST PUSH1 0x0 PUSH2 0xA58 DUP3 PUSH2 0x726 JUMP JUMPDEST SWAP2 POP PUSH2 0xA63 DUP4 PUSH2 0x726 JUMP JUMPDEST SWAP3 POP DUP3 DUP3 MUL PUSH2 0xA71 DUP2 PUSH2 0x726 JUMP JUMPDEST SWAP2 POP DUP3 DUP3 DIV DUP5 EQ DUP4 ISZERO OR PUSH2 0xA88 JUMPI PUSH2 0xA87 PUSH2 0x80C JUMP JUMPDEST JUMPDEST POP SWAP3 SWAP2 POP POP JUMP JUMPDEST PUSH32 0x4E487B7100000000000000000000000000000000000000000000000000000000 PUSH1 0x0 MSTORE PUSH1 0x12 PUSH1 0x4 MSTORE PUSH1 0x24 PUSH1 0x0 REVERT JUMPDEST PUSH1 0x0 PUSH2 0xAC9 DUP3 PUSH2 0x726 JUMP JUMPDEST SWAP2 POP PUSH2 0xAD4 DUP4 PUSH2 0x726 JUMP JUMPDEST SWAP3 POP DUP3 PUSH2 0xAE4 JUMPI PUSH2 0xAE3 PUSH2 0xA8F JUMP JUMPDEST JUMPDEST DUP3 DUP3 DIV SWAP1 POP SWAP3 SWAP2 POP POP JUMP JUMPDEST PUSH1 0x0 PUSH10 0xFFFFFFFFFFFFFFFFFFFF DUP3 AND SWAP1 POP SWAP2 SWAP1 POP JUMP JUMPDEST PUSH2 0xB0E DUP2 PUSH2 0xAEF JUMP JUMPDEST DUP2 EQ PUSH2 0xB19 JUMPI PUSH1 0x0 DUP1 REVERT JUMPDEST POP JUMP JUMPDEST PUSH1 0x0 DUP2 MLOAD SWAP1 POP PUSH2 0xB2B DUP2 PUSH2 0xB05 JUMP JUMPDEST SWAP3 SWAP2 POP POP JUMP JUMPDEST PUSH1 0x0 DUP2 SWAP1 POP SWAP2 SWAP1 POP JUMP JUMPDEST PUSH2 0xB44 DUP2 PUSH2 0xB31 JUMP JUMPDEST DUP2 EQ PUSH2 0xB4F JUMPI PUSH1 0x0 DUP1 REVERT JUMPDEST POP JUMP JUMPDEST PUSH1 0x0 DUP2 MLOAD SWAP1 POP PUSH2 0xB61 DUP2 PUSH2 0xB3B JUMP JUMPDEST SWAP3 SWAP2 POP POP JUMP JUMPDEST PUSH1 0x0 DUP2 MLOAD SWAP1 POP PUSH2 0xB76 DUP2 PUSH2 0x784 JUMP JUMPDEST SWAP3 SWAP2 POP POP JUMP JUMPDEST PUSH1 0x0 DUP1 PUSH1 0x0 DUP1 PUSH1 0x0 PUSH1 0xA0 DUP7 DUP9 SUB SLT ISZERO PUSH2 0xB98 JUMPI PUSH2 0xB97 PUSH2 0x696 JUMP JUMPDEST JUMPDEST PUSH1 0x0 PUSH2 0xBA6 DUP9 DUP3 DUP10 ADD PUSH2 0xB1C JUMP JUMPDEST SWAP6 POP POP PUSH1 0x20 PUSH2 0xBB7 DUP9 DUP3 DUP10 ADD PUSH2 0xB52 JUMP JUMPDEST SWAP5 POP POP PUSH1 0x40 PUSH2 0xBC8 DUP9 DUP3 DUP10 ADD PUSH2 0xB67 JUMP JUMPDEST SWAP4 POP POP PUSH1 0x60 PUSH2 0xBD9 DUP9 DUP3 DUP10 ADD PUSH2 0xB67 JUMP JUMPDEST SWAP3 POP POP PUSH1 0x80 PUSH2 0xBEA DUP9 DUP3 DUP10 ADD PUSH2 0xB1C JUMP JUMPDEST SWAP2 POP POP SWAP3 SWAP6 POP SWAP3 SWAP6 SWAP1 SWAP4 POP JUMP JUMPDEST PUSH1 0x0 PUSH2 0xC02 DUP3 PUSH2 0xB31 JUMP JUMPDEST SWAP2 POP PUSH2 0xC0D DUP4 PUSH2 0xB31 JUMP JUMPDEST SWAP3 POP DUP3 DUP3 MUL PUSH2 0xC1B DUP2 PUSH2 0xB31 JUMP JUMPDEST SWAP2 POP PUSH32 0x8000000000000000000000000000000000000000000000000000000000000000 DUP5 EQ PUSH1 0x0 DUP5 SLT AND ISZERO PUSH2 0xC53 JUMPI PUSH2 0xC52 PUSH2 0x80C JUMP JUMPDEST JUMPDEST DUP3 DUP3 SDIV DUP5 EQ DUP4 ISZERO OR PUSH2 0xC68 JUMPI PUSH2 0xC67 PUSH2 0x80C JUMP JUMPDEST JUMPDEST POP SWAP3 SWAP2 POP POP JUMP INVALID LOG2 PUSH5 0x6970667358 0x22 SLT KECCAK256 SGT 0xAF POP 0xD3 0xAD 0x4E CALLDATALOAD JUMPDEST 0xB2 PUSH17 0x869E3016759A86FF16A86416E1F1F93657 0xB0 CALLER BLOCKHASH ISZERO 0xF6 PUSH5 0x736F6C6343 STOP ADDMOD GT STOP CALLER "
				},
				"gasEstimates": {
					"creation": {
						"codeDepositCost": "647400",
						"executionCost": "infinite",
						"totalCost": "infinite"
					},
					"external": {
						"addressToAmountFunded(address)": "2814",
						"fund()": "infinite",
						"funders(uint256)": "5022",
						"minimunUsd()": "2517",
						"owner()": "infinite",
						"withdraw()": "infinite"
					}
				},
				"methodIdentifiers": {
					"addressToAmountFunded(address)": "3e47d6f3",
					"fund()": "b60d4288",
					"funders(uint256)": "dc0d3dff",
					"minimunUsd()": "e5e18b1a",
					"owner()": "8da5cb5b",
					"withdraw()": "3ccfd60b"
				}
			},
			"storageLayout": {
				"storage": [
					{
						"astId": 56,
						"contract": "contracts/FundMe.sol:Fundme",
						"label": "minimunUsd",
						"offset": 0,
						"slot": "0",
						"type": "t_uint256"
					},
					{
						"astId": 59,
						"contract": "contracts/FundMe.sol:Fundme",
						"label": "funders",
						"offset": 0,
						"slot": "1",
						"type": "t_array(t_address)dyn_storage"
					},
					{
						"astId": 63,
						"contract": "contracts/FundMe.sol:Fundme",
						"label": "addressToAmountFunded",
						"offset": 0,
						"slot": "2",
						"type": "t_mapping(t_address,t_uint256)"
					}
				],
				"types": {
					"t_address": {
						"encoding": "inplace",
						"label": "address",
						"numberOfBytes": "20"
					},
					"t_array(t_address)dyn_storage": {
						"base": "t_address",
						"encoding": "dynamic_array",
						"label": "address[]",
						"numberOfBytes": "32"
					},
					"t_mapping(t_address,t_uint256)": {
						"encoding": "mapping",
						"key": "t_address",
						"label": "mapping(address => uint256)",
						"numberOfBytes": "32",
						"value": "t_uint256"
					},
					"t_uint256": {
						"encoding": "inplace",
						"label": "uint256",
						"numberOfBytes": "32"
					}
				}
			},
			"userdoc": {
				"kind": "user",
				"methods": {},
				"version": 1
			}
		}
	}
}