{
	"contracts/FundMe.sol": {
		"Fundme": {
			"abi": [
				{
					"inputs": [
						{
							"internalType": "address",
							"name": "",
							"type": "address"
						}
					],
					"name": "addressToAmountFunded",
					"outputs": [
						{
							"internalType": "uint256",
							"name": "",
							"type": "uint256"
						}
					],
					"stateMutability": "view",
					"type": "function"
				},
				{
					"inputs": [],
					"name": "fund",
					"outputs": [],
					"stateMutability": "payable",
					"type": "function"
				},
				{
					"inputs": [
						{
							"internalType": "uint256",
							"name": "",
							"type": "uint256"
						}
					],
					"name": "funders",
					"outputs": [
						{
							"internalType": "address",
							"name": "",
							"type": "address"
						}
					],
					"stateMutability": "view",
					"type": "function"
				},
				{
					"inputs": [],
					"name": "minimunUsd",
					"outputs": [
						{
							"internalType": "uint256",
							"name": "",
							"type": "uint256"
						}
					],
					"stateMutability": "view",
					"type": "function"
				}
			],
			"devdoc": {
				"kind": "dev",
				"methods": {},
				"version": 1
			},
			"evm": {
				"assembly": "    /* \"contracts/FundMe.sol\":167:1449  contract Fundme{... */\n  mstore(0x40, 0x80)\n    /* \"contracts/FundMe.sol\":422:431  50 * 1e18 */\n  0x02b5e3af16b1880000\n    /* \"contracts/FundMe.sol\":394:431  uint256 public minimunUsd = 50 * 1e18 */\n  0x00\n  sstore\n    /* \"contracts/FundMe.sol\":167:1449  contract Fundme{... */\n  callvalue\n  dup1\n  iszero\n  tag_1\n  jumpi\n  0x00\n  dup1\n  revert\ntag_1:\n  pop\n  dataSize(sub_0)\n  dup1\n  dataOffset(sub_0)\n  0x00\n  codecopy\n  0x00\n  return\nstop\n\nsub_0: assembly {\n        /* \"contracts/FundMe.sol\":167:1449  contract Fundme{... */\n      mstore(0x40, 0x80)\n      jumpi(tag_1, lt(calldatasize, 0x04))\n      shr(0xe0, calldataload(0x00))\n      dup1\n      0x3e47d6f3\n      eq\n      tag_2\n      jumpi\n      dup1\n      0xb60d4288\n      eq\n      tag_3\n      jumpi\n      dup1\n      0xdc0d3dff\n      eq\n      tag_4\n      jumpi\n      dup1\n      0xe5e18b1a\n      eq\n      tag_5\n      jumpi\n    tag_1:\n      0x00\n      dup1\n      revert\n        /* \"contracts/FundMe.sol\":612:668  mapping(address => uint256) public addressToAmountFunded */\n    tag_2:\n      callvalue\n      dup1\n      iszero\n      tag_6\n      jumpi\n      0x00\n      dup1\n      revert\n    tag_6:\n      pop\n      tag_7\n      0x04\n      dup1\n      calldatasize\n      sub\n      dup2\n      add\n      swap1\n      tag_8\n      swap2\n      swap1\n      tag_9\n      jump\t// in\n    tag_8:\n      tag_10\n      jump\t// in\n    tag_7:\n      mload(0x40)\n      tag_11\n      swap2\n      swap1\n      tag_12\n      jump\t// in\n    tag_11:\n      mload(0x40)\n      dup1\n      swap2\n      sub\n      swap1\n      return\n        /* \"contracts/FundMe.sol\":775:1415  function fund() public payable{... */\n    tag_3:\n      tag_13\n      tag_14\n      jump\t// in\n    tag_13:\n      stop\n        /* \"contracts/FundMe.sol\":486:510  address[] public funders */\n    tag_4:\n      callvalue\n      dup1\n      iszero\n      tag_15\n      jumpi\n      0x00\n      dup1\n      revert\n    tag_15:\n      pop\n      tag_16\n      0x04\n      dup1\n      calldatasize\n      sub\n      dup2\n      add\n      swap1\n      tag_17\n      swap2\n      swap1\n      tag_18\n      jump\t// in\n    tag_17:\n      tag_19\n      jump\t// in\n    tag_16:\n      mload(0x40)\n      tag_20\n      swap2\n      swap1\n      tag_21\n      jump\t// in\n    tag_20:\n      mload(0x40)\n      dup1\n      swap2\n      sub\n      swap1\n      return\n        /* \"contracts/FundMe.sol\":394:431  uint256 public minimunUsd = 50 * 1e18 */\n    tag_5:\n      callvalue\n      dup1\n      iszero\n      tag_22\n      jumpi\n      0x00\n      dup1\n      revert\n    tag_22:\n      pop\n      tag_23\n      tag_24\n      jump\t// in\n    tag_23:\n      mload(0x40)\n      tag_25\n      swap2\n      swap1\n      tag_12\n      jump\t// in\n    tag_25:\n      mload(0x40)\n      dup1\n      swap2\n      sub\n      swap1\n      return\n        /* \"contracts/FundMe.sol\":612:668  mapping(address => uint256) public addressToAmountFunded */\n    tag_10:\n      mstore(0x20, 0x02)\n      dup1\n      0x00\n      mstore\n      keccak256(0x00, 0x40)\n      0x00\n      swap2\n      pop\n      swap1\n      pop\n      sload\n      dup2\n      jump\t// out\n        /* \"contracts/FundMe.sol\":775:1415  function fund() public payable{... */\n    tag_14:\n        /* \"contracts/FundMe.sol\":1154:1164  minimunUsd */\n      sload(0x00)\n        /* \"contracts/FundMe.sol\":1121:1150  msg.value.getConversionRate() */\n      tag_27\n        /* \"contracts/FundMe.sol\":1121:1130  msg.value */\n      callvalue\n        /* \"contracts/FundMe.sol\":1121:1148  msg.value.getConversionRate */\n      tag_28\n        /* \"contracts/FundMe.sol\":1121:1150  msg.value.getConversionRate() */\n      jump\t// in\n    tag_27:\n        /* \"contracts/FundMe.sol\":1121:1164  msg.value.getConversionRate() >= minimunUsd */\n      lt\n      iszero\n        /* \"contracts/FundMe.sol\":1113:1169  require(msg.value.getConversionRate() >= minimunUsd, \"\") */\n      tag_29\n      jumpi\n      mload(0x40)\n      0x08c379a000000000000000000000000000000000000000000000000000000000\n      dup2\n      mstore\n      0x04\n      add\n      tag_30\n      swap1\n      tag_31\n      jump\t// in\n    tag_30:\n      mload(0x40)\n      dup1\n      swap2\n      sub\n      swap1\n      revert\n    tag_29:\n        /* \"contracts/FundMe.sol\":1242:1249  funders */\n      0x01\n        /* \"contracts/FundMe.sol\":1255:1265  msg.sender */\n      caller\n        /* \"contracts/FundMe.sol\":1242:1266  funders.push(msg.sender) */\n      swap1\n      dup1\n      0x01\n      dup2\n      sload\n      add\n      dup1\n      dup3\n      sstore\n      dup1\n      swap2\n      pop\n      pop\n      0x01\n      swap1\n      sub\n      swap1\n      0x00\n      mstore\n      keccak256(0x00, 0x20)\n      add\n      0x00\n      swap1\n      swap2\n      swap1\n      swap2\n      swap1\n      swap2\n      0x0100\n      exp\n      dup2\n      sload\n      dup2\n      0xffffffffffffffffffffffffffffffffffffffff\n      mul\n      not\n      and\n      swap1\n      dup4\n      0xffffffffffffffffffffffffffffffffffffffff\n      and\n      mul\n      or\n      swap1\n      sstore\n      pop\n        /* \"contracts/FundMe.sol\":1392:1401  msg.value */\n      callvalue\n        /* \"contracts/FundMe.sol\":1356:1377  addressToAmountFunded */\n      0x02\n        /* \"contracts/FundMe.sol\":1356:1389  addressToAmountFunded[msg.sender] */\n      0x00\n        /* \"contracts/FundMe.sol\":1378:1388  msg.sender */\n      caller\n        /* \"contracts/FundMe.sol\":1356:1389  addressToAmountFunded[msg.sender] */\n      0xffffffffffffffffffffffffffffffffffffffff\n      and\n      0xffffffffffffffffffffffffffffffffffffffff\n      and\n      dup2\n      mstore\n      0x20\n      add\n      swap1\n      dup2\n      mstore\n      0x20\n      add\n      0x00\n      keccak256\n        /* \"contracts/FundMe.sol\":1356:1401  addressToAmountFunded[msg.sender] = msg.value */\n      dup2\n      swap1\n      sstore\n      pop\n        /* \"contracts/FundMe.sol\":775:1415  function fund() public payable{... */\n      jump\t// out\n        /* \"contracts/FundMe.sol\":486:510  address[] public funders */\n    tag_19:\n      0x01\n      dup2\n      dup2\n      sload\n      dup2\n      lt\n      tag_33\n      jumpi\n      0x00\n      dup1\n      revert\n    tag_33:\n      swap1\n      0x00\n      mstore\n      keccak256(0x00, 0x20)\n      add\n      0x00\n      swap2\n      pop\n      sload\n      swap1\n      0x0100\n      exp\n      swap1\n      div\n      0xffffffffffffffffffffffffffffffffffffffff\n      and\n      dup2\n      jump\t// out\n        /* \"contracts/FundMe.sol\":394:431  uint256 public minimunUsd = 50 * 1e18 */\n    tag_24:\n      sload(0x00)\n      dup2\n      jump\t// out\n        /* \"contracts/PriceConverter.sol\":1993:2449  function getConversionRate(uint256 ethAmount)internal view returns(uint256){... */\n    tag_28:\n        /* \"contracts/PriceConverter.sol\":2060:2067  uint256 */\n      0x00\n        /* \"contracts/PriceConverter.sol\":2089:2105  uint256 ethPrice */\n      dup1\n        /* \"contracts/PriceConverter.sol\":2108:2118  getPrice() */\n      tag_36\n        /* \"contracts/PriceConverter.sol\":2108:2116  getPrice */\n      tag_37\n        /* \"contracts/PriceConverter.sol\":2108:2118  getPrice() */\n      jump\t// in\n    tag_36:\n        /* \"contracts/PriceConverter.sol\":2089:2118  uint256 ethPrice = getPrice() */\n      swap1\n      pop\n        /* \"contracts/PriceConverter.sol\":2275:2297  uint256 ethAmountInUsd */\n      0x00\n        /* \"contracts/PriceConverter.sol\":2325:2329  1e18 */\n      0x0de0b6b3a7640000\n        /* \"contracts/PriceConverter.sol\":2312:2321  ethAmount */\n      dup5\n        /* \"contracts/PriceConverter.sol\":2301:2309  ethPrice */\n      dup4\n        /* \"contracts/PriceConverter.sol\":2301:2321  ethPrice * ethAmount */\n      tag_38\n      swap2\n      swap1\n      tag_39\n      jump\t// in\n    tag_38:\n        /* \"contracts/PriceConverter.sol\":2300:2329  (ethPrice * ethAmount) / 1e18 */\n      tag_40\n      swap2\n      swap1\n      tag_41\n      jump\t// in\n    tag_40:\n        /* \"contracts/PriceConverter.sol\":2275:2329  uint256 ethAmountInUsd = (ethPrice * ethAmount) / 1e18 */\n      swap1\n      pop\n        /* \"contracts/PriceConverter.sol\":2419:2433  ethAmountInUsd */\n      dup1\n        /* \"contracts/PriceConverter.sol\":2412:2433  return ethAmountInUsd */\n      swap3\n      pop\n      pop\n      pop\n        /* \"contracts/PriceConverter.sol\":1993:2449  function getConversionRate(uint256 ethAmount)internal view returns(uint256){... */\n      swap2\n      swap1\n      pop\n      jump\t// out\n        /* \"contracts/PriceConverter.sol\":843:1981  function getPrice() internal view returns(uint256){... */\n    tag_37:\n        /* \"contracts/PriceConverter.sol\":885:892  uint256 */\n      0x00\n        /* \"contracts/PriceConverter.sol\":1227:1258  AggregatorV3Interface priceFeed */\n      dup1\n        /* \"contracts/PriceConverter.sol\":1283:1325  0xD4a33860578De61DBAbDc8BFdb98FD742fA7028e */\n      0xd4a33860578de61dbabdc8bfdb98fd742fa7028e\n        /* \"contracts/PriceConverter.sol\":1227:1326  AggregatorV3Interface priceFeed = AggregatorV3Interface(0xD4a33860578De61DBAbDc8BFdb98FD742fA7028e) */\n      swap1\n      pop\n        /* \"contracts/PriceConverter.sol\":1522:1534  int256 price */\n      0x00\n        /* \"contracts/PriceConverter.sol\":1541:1550  priceFeed */\n      dup2\n        /* \"contracts/PriceConverter.sol\":1541:1566  priceFeed.latestRoundData */\n      0xffffffffffffffffffffffffffffffffffffffff\n      and\n      0xfeaf968c\n        /* \"contracts/PriceConverter.sol\":1541:1568  priceFeed.latestRoundData() */\n      mload(0x40)\n      dup2\n      0xffffffff\n      and\n      0xe0\n      shl\n      dup2\n      mstore\n      0x04\n      add\n      0xa0\n      mload(0x40)\n      dup1\n      dup4\n      sub\n      dup2\n      dup7\n      gas\n      staticcall\n      iszero\n      dup1\n      iszero\n      tag_44\n      jumpi\n      returndatasize\n      0x00\n      dup1\n      returndatacopy\n      revert(0x00, returndatasize)\n    tag_44:\n      pop\n      pop\n      pop\n      pop\n      mload(0x40)\n      returndatasize\n      not(0x1f)\n      0x1f\n      dup3\n      add\n      and\n      dup3\n      add\n      dup1\n      0x40\n      mstore\n      pop\n      dup2\n      add\n      swap1\n      tag_45\n      swap2\n      swap1\n      tag_46\n      jump\t// in\n    tag_45:\n        /* \"contracts/PriceConverter.sol\":1520:1568  (,int256 price,,,) = priceFeed.latestRoundData() */\n      pop\n      pop\n      pop\n      swap2\n      pop\n      pop\n        /* \"contracts/PriceConverter.sol\":1932:1936  1e10 */\n      0x02540be400\n        /* \"contracts/PriceConverter.sol\":1924:1929  price */\n      dup2\n        /* \"contracts/PriceConverter.sol\":1924:1936  price * 1e10 */\n      tag_47\n      swap2\n      swap1\n      tag_48\n      jump\t// in\n    tag_47:\n        /* \"contracts/PriceConverter.sol\":1909:1937  return uint256(price * 1e10) */\n      swap3\n      pop\n      pop\n      pop\n        /* \"contracts/PriceConverter.sol\":843:1981  function getPrice() internal view returns(uint256){... */\n      swap1\n      jump\t// out\n        /* \"#utility.yul\":88:205   */\n    tag_50:\n        /* \"#utility.yul\":197:198   */\n      0x00\n        /* \"#utility.yul\":194:195   */\n      dup1\n        /* \"#utility.yul\":187:199   */\n      revert\n        /* \"#utility.yul\":334:460   */\n    tag_52:\n        /* \"#utility.yul\":371:378   */\n      0x00\n        /* \"#utility.yul\":411:453   */\n      0xffffffffffffffffffffffffffffffffffffffff\n        /* \"#utility.yul\":404:409   */\n      dup3\n        /* \"#utility.yul\":400:454   */\n      and\n        /* \"#utility.yul\":389:454   */\n      swap1\n      pop\n        /* \"#utility.yul\":334:460   */\n      swap2\n      swap1\n      pop\n      jump\t// out\n        /* \"#utility.yul\":466:562   */\n    tag_53:\n        /* \"#utility.yul\":503:510   */\n      0x00\n        /* \"#utility.yul\":532:556   */\n      tag_79\n        /* \"#utility.yul\":550:555   */\n      dup3\n        /* \"#utility.yul\":532:556   */\n      tag_52\n      jump\t// in\n    tag_79:\n        /* \"#utility.yul\":521:556   */\n      swap1\n      pop\n        /* \"#utility.yul\":466:562   */\n      swap2\n      swap1\n      pop\n      jump\t// out\n        /* \"#utility.yul\":568:690   */\n    tag_54:\n        /* \"#utility.yul\":641:665   */\n      tag_81\n        /* \"#utility.yul\":659:664   */\n      dup2\n        /* \"#utility.yul\":641:665   */\n      tag_53\n      jump\t// in\n    tag_81:\n        /* \"#utility.yul\":634:639   */\n      dup2\n        /* \"#utility.yul\":631:666   */\n      eq\n        /* \"#utility.yul\":621:684   */\n      tag_82\n      jumpi\n        /* \"#utility.yul\":680:681   */\n      0x00\n        /* \"#utility.yul\":677:678   */\n      dup1\n        /* \"#utility.yul\":670:682   */\n      revert\n        /* \"#utility.yul\":621:684   */\n    tag_82:\n        /* \"#utility.yul\":568:690   */\n      pop\n      jump\t// out\n        /* \"#utility.yul\":696:835   */\n    tag_55:\n        /* \"#utility.yul\":742:747   */\n      0x00\n        /* \"#utility.yul\":780:786   */\n      dup2\n        /* \"#utility.yul\":767:787   */\n      calldataload\n        /* \"#utility.yul\":758:787   */\n      swap1\n      pop\n        /* \"#utility.yul\":796:829   */\n      tag_84\n        /* \"#utility.yul\":823:828   */\n      dup2\n        /* \"#utility.yul\":796:829   */\n      tag_54\n      jump\t// in\n    tag_84:\n        /* \"#utility.yul\":696:835   */\n      swap3\n      swap2\n      pop\n      pop\n      jump\t// out\n        /* \"#utility.yul\":841:1170   */\n    tag_9:\n        /* \"#utility.yul\":900:906   */\n      0x00\n        /* \"#utility.yul\":949:951   */\n      0x20\n        /* \"#utility.yul\":937:946   */\n      dup3\n        /* \"#utility.yul\":928:935   */\n      dup5\n        /* \"#utility.yul\":924:947   */\n      sub\n        /* \"#utility.yul\":920:952   */\n      slt\n        /* \"#utility.yul\":917:1036   */\n      iszero\n      tag_86\n      jumpi\n        /* \"#utility.yul\":955:1034   */\n      tag_87\n      tag_50\n      jump\t// in\n    tag_87:\n        /* \"#utility.yul\":917:1036   */\n    tag_86:\n        /* \"#utility.yul\":1075:1076   */\n      0x00\n        /* \"#utility.yul\":1100:1153   */\n      tag_88\n        /* \"#utility.yul\":1145:1152   */\n      dup5\n        /* \"#utility.yul\":1136:1142   */\n      dup3\n        /* \"#utility.yul\":1125:1134   */\n      dup6\n        /* \"#utility.yul\":1121:1143   */\n      add\n        /* \"#utility.yul\":1100:1153   */\n      tag_55\n      jump\t// in\n    tag_88:\n        /* \"#utility.yul\":1090:1153   */\n      swap2\n      pop\n        /* \"#utility.yul\":1046:1163   */\n      pop\n        /* \"#utility.yul\":841:1170   */\n      swap3\n      swap2\n      pop\n      pop\n      jump\t// out\n        /* \"#utility.yul\":1176:1253   */\n    tag_56:\n        /* \"#utility.yul\":1213:1220   */\n      0x00\n        /* \"#utility.yul\":1242:1247   */\n      dup2\n        /* \"#utility.yul\":1231:1247   */\n      swap1\n      pop\n        /* \"#utility.yul\":1176:1253   */\n      swap2\n      swap1\n      pop\n      jump\t// out\n        /* \"#utility.yul\":1259:1377   */\n    tag_57:\n        /* \"#utility.yul\":1346:1370   */\n      tag_91\n        /* \"#utility.yul\":1364:1369   */\n      dup2\n        /* \"#utility.yul\":1346:1370   */\n      tag_56\n      jump\t// in\n    tag_91:\n        /* \"#utility.yul\":1341:1344   */\n      dup3\n        /* \"#utility.yul\":1334:1371   */\n      mstore\n        /* \"#utility.yul\":1259:1377   */\n      pop\n      pop\n      jump\t// out\n        /* \"#utility.yul\":1383:1605   */\n    tag_12:\n        /* \"#utility.yul\":1476:1480   */\n      0x00\n        /* \"#utility.yul\":1514:1516   */\n      0x20\n        /* \"#utility.yul\":1503:1512   */\n      dup3\n        /* \"#utility.yul\":1499:1517   */\n      add\n        /* \"#utility.yul\":1491:1517   */\n      swap1\n      pop\n        /* \"#utility.yul\":1527:1598   */\n      tag_93\n        /* \"#utility.yul\":1595:1596   */\n      0x00\n        /* \"#utility.yul\":1584:1593   */\n      dup4\n        /* \"#utility.yul\":1580:1597   */\n      add\n        /* \"#utility.yul\":1571:1577   */\n      dup5\n        /* \"#utility.yul\":1527:1598   */\n      tag_57\n      jump\t// in\n    tag_93:\n        /* \"#utility.yul\":1383:1605   */\n      swap3\n      swap2\n      pop\n      pop\n      jump\t// out\n        /* \"#utility.yul\":1611:1733   */\n    tag_58:\n        /* \"#utility.yul\":1684:1708   */\n      tag_95\n        /* \"#utility.yul\":1702:1707   */\n      dup2\n        /* \"#utility.yul\":1684:1708   */\n      tag_56\n      jump\t// in\n    tag_95:\n        /* \"#utility.yul\":1677:1682   */\n      dup2\n        /* \"#utility.yul\":1674:1709   */\n      eq\n        /* \"#utility.yul\":1664:1727   */\n      tag_96\n      jumpi\n        /* \"#utility.yul\":1723:1724   */\n      0x00\n        /* \"#utility.yul\":1720:1721   */\n      dup1\n        /* \"#utility.yul\":1713:1725   */\n      revert\n        /* \"#utility.yul\":1664:1727   */\n    tag_96:\n        /* \"#utility.yul\":1611:1733   */\n      pop\n      jump\t// out\n        /* \"#utility.yul\":1739:1878   */\n    tag_59:\n        /* \"#utility.yul\":1785:1790   */\n      0x00\n        /* \"#utility.yul\":1823:1829   */\n      dup2\n        /* \"#utility.yul\":1810:1830   */\n      calldataload\n        /* \"#utility.yul\":1801:1830   */\n      swap1\n      pop\n        /* \"#utility.yul\":1839:1872   */\n      tag_98\n        /* \"#utility.yul\":1866:1871   */\n      dup2\n        /* \"#utility.yul\":1839:1872   */\n      tag_58\n      jump\t// in\n    tag_98:\n        /* \"#utility.yul\":1739:1878   */\n      swap3\n      swap2\n      pop\n      pop\n      jump\t// out\n        /* \"#utility.yul\":1884:2213   */\n    tag_18:\n        /* \"#utility.yul\":1943:1949   */\n      0x00\n        /* \"#utility.yul\":1992:1994   */\n      0x20\n        /* \"#utility.yul\":1980:1989   */\n      dup3\n        /* \"#utility.yul\":1971:1978   */\n      dup5\n        /* \"#utility.yul\":1967:1990   */\n      sub\n        /* \"#utility.yul\":1963:1995   */\n      slt\n        /* \"#utility.yul\":1960:2079   */\n      iszero\n      tag_100\n      jumpi\n        /* \"#utility.yul\":1998:2077   */\n      tag_101\n      tag_50\n      jump\t// in\n    tag_101:\n        /* \"#utility.yul\":1960:2079   */\n    tag_100:\n        /* \"#utility.yul\":2118:2119   */\n      0x00\n        /* \"#utility.yul\":2143:2196   */\n      tag_102\n        /* \"#utility.yul\":2188:2195   */\n      dup5\n        /* \"#utility.yul\":2179:2185   */\n      dup3\n        /* \"#utility.yul\":2168:2177   */\n      dup6\n        /* \"#utility.yul\":2164:2186   */\n      add\n        /* \"#utility.yul\":2143:2196   */\n      tag_59\n      jump\t// in\n    tag_102:\n        /* \"#utility.yul\":2133:2196   */\n      swap2\n      pop\n        /* \"#utility.yul\":2089:2206   */\n      pop\n        /* \"#utility.yul\":1884:2213   */\n      swap3\n      swap2\n      pop\n      pop\n      jump\t// out\n        /* \"#utility.yul\":2219:2337   */\n    tag_60:\n        /* \"#utility.yul\":2306:2330   */\n      tag_104\n        /* \"#utility.yul\":2324:2329   */\n      dup2\n        /* \"#utility.yul\":2306:2330   */\n      tag_53\n      jump\t// in\n    tag_104:\n        /* \"#utility.yul\":2301:2304   */\n      dup3\n        /* \"#utility.yul\":2294:2331   */\n      mstore\n        /* \"#utility.yul\":2219:2337   */\n      pop\n      pop\n      jump\t// out\n        /* \"#utility.yul\":2343:2565   */\n    tag_21:\n        /* \"#utility.yul\":2436:2440   */\n      0x00\n        /* \"#utility.yul\":2474:2476   */\n      0x20\n        /* \"#utility.yul\":2463:2472   */\n      dup3\n        /* \"#utility.yul\":2459:2477   */\n      add\n        /* \"#utility.yul\":2451:2477   */\n      swap1\n      pop\n        /* \"#utility.yul\":2487:2558   */\n      tag_106\n        /* \"#utility.yul\":2555:2556   */\n      0x00\n        /* \"#utility.yul\":2544:2553   */\n      dup4\n        /* \"#utility.yul\":2540:2557   */\n      add\n        /* \"#utility.yul\":2531:2537   */\n      dup5\n        /* \"#utility.yul\":2487:2558   */\n      tag_60\n      jump\t// in\n    tag_106:\n        /* \"#utility.yul\":2343:2565   */\n      swap3\n      swap2\n      pop\n      pop\n      jump\t// out\n        /* \"#utility.yul\":2571:2740   */\n    tag_61:\n        /* \"#utility.yul\":2655:2666   */\n      0x00\n        /* \"#utility.yul\":2689:2695   */\n      dup3\n        /* \"#utility.yul\":2684:2687   */\n      dup3\n        /* \"#utility.yul\":2677:2696   */\n      mstore\n        /* \"#utility.yul\":2729:2733   */\n      0x20\n        /* \"#utility.yul\":2724:2727   */\n      dup3\n        /* \"#utility.yul\":2720:2734   */\n      add\n        /* \"#utility.yul\":2705:2734   */\n      swap1\n      pop\n        /* \"#utility.yul\":2571:2740   */\n      swap3\n      swap2\n      pop\n      pop\n      jump\t// out\n        /* \"#utility.yul\":2746:2860   */\n    tag_62:\n      pop\n      jump\t// out\n        /* \"#utility.yul\":2866:3230   */\n    tag_63:\n        /* \"#utility.yul\":3008:3011   */\n      0x00\n        /* \"#utility.yul\":3029:3095   */\n      tag_110\n        /* \"#utility.yul\":3093:3094   */\n      0x00\n        /* \"#utility.yul\":3088:3091   */\n      dup4\n        /* \"#utility.yul\":3029:3095   */\n      tag_61\n      jump\t// in\n    tag_110:\n        /* \"#utility.yul\":3022:3095   */\n      swap2\n      pop\n        /* \"#utility.yul\":3104:3197   */\n      tag_111\n        /* \"#utility.yul\":3193:3196   */\n      dup3\n        /* \"#utility.yul\":3104:3197   */\n      tag_62\n      jump\t// in\n    tag_111:\n        /* \"#utility.yul\":3222:3223   */\n      0x00\n        /* \"#utility.yul\":3217:3220   */\n      dup3\n        /* \"#utility.yul\":3213:3224   */\n      add\n        /* \"#utility.yul\":3206:3224   */\n      swap1\n      pop\n        /* \"#utility.yul\":2866:3230   */\n      swap2\n      swap1\n      pop\n      jump\t// out\n        /* \"#utility.yul\":3236:3655   */\n    tag_31:\n        /* \"#utility.yul\":3402:3406   */\n      0x00\n        /* \"#utility.yul\":3440:3442   */\n      0x20\n        /* \"#utility.yul\":3429:3438   */\n      dup3\n        /* \"#utility.yul\":3425:3443   */\n      add\n        /* \"#utility.yul\":3417:3443   */\n      swap1\n      pop\n        /* \"#utility.yul\":3489:3498   */\n      dup2\n        /* \"#utility.yul\":3483:3487   */\n      dup2\n        /* \"#utility.yul\":3479:3499   */\n      sub\n        /* \"#utility.yul\":3475:3476   */\n      0x00\n        /* \"#utility.yul\":3464:3473   */\n      dup4\n        /* \"#utility.yul\":3460:3477   */\n      add\n        /* \"#utility.yul\":3453:3500   */\n      mstore\n        /* \"#utility.yul\":3517:3648   */\n      tag_113\n        /* \"#utility.yul\":3643:3647   */\n      dup2\n        /* \"#utility.yul\":3517:3648   */\n      tag_63\n      jump\t// in\n    tag_113:\n        /* \"#utility.yul\":3509:3648   */\n      swap1\n      pop\n        /* \"#utility.yul\":3236:3655   */\n      swap2\n      swap1\n      pop\n      jump\t// out\n        /* \"#utility.yul\":3661:3841   */\n    tag_64:\n        /* \"#utility.yul\":3709:3786   */\n      0x4e487b7100000000000000000000000000000000000000000000000000000000\n        /* \"#utility.yul\":3706:3707   */\n      0x00\n        /* \"#utility.yul\":3699:3787   */\n      mstore\n        /* \"#utility.yul\":3806:3810   */\n      0x11\n        /* \"#utility.yul\":3803:3804   */\n      0x04\n        /* \"#utility.yul\":3796:3811   */\n      mstore\n        /* \"#utility.yul\":3830:3834   */\n      0x24\n        /* \"#utility.yul\":3827:3828   */\n      0x00\n        /* \"#utility.yul\":3820:3835   */\n      revert\n        /* \"#utility.yul\":3847:4257   */\n    tag_39:\n        /* \"#utility.yul\":3887:3894   */\n      0x00\n        /* \"#utility.yul\":3910:3930   */\n      tag_116\n        /* \"#utility.yul\":3928:3929   */\n      dup3\n        /* \"#utility.yul\":3910:3930   */\n      tag_56\n      jump\t// in\n    tag_116:\n        /* \"#utility.yul\":3905:3930   */\n      swap2\n      pop\n        /* \"#utility.yul\":3944:3964   */\n      tag_117\n        /* \"#utility.yul\":3962:3963   */\n      dup4\n        /* \"#utility.yul\":3944:3964   */\n      tag_56\n      jump\t// in\n    tag_117:\n        /* \"#utility.yul\":3939:3964   */\n      swap3\n      pop\n        /* \"#utility.yul\":3999:4000   */\n      dup3\n        /* \"#utility.yul\":3996:3997   */\n      dup3\n        /* \"#utility.yul\":3992:4001   */\n      mul\n        /* \"#utility.yul\":4021:4051   */\n      tag_118\n        /* \"#utility.yul\":4039:4050   */\n      dup2\n        /* \"#utility.yul\":4021:4051   */\n      tag_56\n      jump\t// in\n    tag_118:\n        /* \"#utility.yul\":4010:4051   */\n      swap2\n      pop\n        /* \"#utility.yul\":4200:4201   */\n      dup3\n        /* \"#utility.yul\":4191:4198   */\n      dup3\n        /* \"#utility.yul\":4187:4202   */\n      div\n        /* \"#utility.yul\":4184:4185   */\n      dup5\n        /* \"#utility.yul\":4181:4203   */\n      eq\n        /* \"#utility.yul\":4161:4162   */\n      dup4\n        /* \"#utility.yul\":4154:4163   */\n      iszero\n        /* \"#utility.yul\":4134:4217   */\n      or\n        /* \"#utility.yul\":4111:4250   */\n      tag_119\n      jumpi\n        /* \"#utility.yul\":4230:4248   */\n      tag_120\n      tag_64\n      jump\t// in\n    tag_120:\n        /* \"#utility.yul\":4111:4250   */\n    tag_119:\n        /* \"#utility.yul\":3895:4257   */\n      pop\n        /* \"#utility.yul\":3847:4257   */\n      swap3\n      swap2\n      pop\n      pop\n      jump\t// out\n        /* \"#utility.yul\":4263:4443   */\n    tag_65:\n        /* \"#utility.yul\":4311:4388   */\n      0x4e487b7100000000000000000000000000000000000000000000000000000000\n        /* \"#utility.yul\":4308:4309   */\n      0x00\n        /* \"#utility.yul\":4301:4389   */\n      mstore\n        /* \"#utility.yul\":4408:4412   */\n      0x12\n        /* \"#utility.yul\":4405:4406   */\n      0x04\n        /* \"#utility.yul\":4398:4413   */\n      mstore\n        /* \"#utility.yul\":4432:4436   */\n      0x24\n        /* \"#utility.yul\":4429:4430   */\n      0x00\n        /* \"#utility.yul\":4422:4437   */\n      revert\n        /* \"#utility.yul\":4449:4634   */\n    tag_41:\n        /* \"#utility.yul\":4489:4490   */\n      0x00\n        /* \"#utility.yul\":4506:4526   */\n      tag_123\n        /* \"#utility.yul\":4524:4525   */\n      dup3\n        /* \"#utility.yul\":4506:4526   */\n      tag_56\n      jump\t// in\n    tag_123:\n        /* \"#utility.yul\":4501:4526   */\n      swap2\n      pop\n        /* \"#utility.yul\":4540:4560   */\n      tag_124\n        /* \"#utility.yul\":4558:4559   */\n      dup4\n        /* \"#utility.yul\":4540:4560   */\n      tag_56\n      jump\t// in\n    tag_124:\n        /* \"#utility.yul\":4535:4560   */\n      swap3\n      pop\n        /* \"#utility.yul\":4579:4580   */\n      dup3\n        /* \"#utility.yul\":4569:4604   */\n      tag_125\n      jumpi\n        /* \"#utility.yul\":4584:4602   */\n      tag_126\n      tag_65\n      jump\t// in\n    tag_126:\n        /* \"#utility.yul\":4569:4604   */\n    tag_125:\n        /* \"#utility.yul\":4626:4627   */\n      dup3\n        /* \"#utility.yul\":4623:4624   */\n      dup3\n        /* \"#utility.yul\":4619:4628   */\n      div\n        /* \"#utility.yul\":4614:4628   */\n      swap1\n      pop\n        /* \"#utility.yul\":4449:4634   */\n      swap3\n      swap2\n      pop\n      pop\n      jump\t// out\n        /* \"#utility.yul\":4640:4745   */\n    tag_66:\n        /* \"#utility.yul\":4676:4683   */\n      0x00\n        /* \"#utility.yul\":4716:4738   */\n      0xffffffffffffffffffff\n        /* \"#utility.yul\":4709:4714   */\n      dup3\n        /* \"#utility.yul\":4705:4739   */\n      and\n        /* \"#utility.yul\":4694:4739   */\n      swap1\n      pop\n        /* \"#utility.yul\":4640:4745   */\n      swap2\n      swap1\n      pop\n      jump\t// out\n        /* \"#utility.yul\":4751:4871   */\n    tag_67:\n        /* \"#utility.yul\":4823:4846   */\n      tag_129\n        /* \"#utility.yul\":4840:4845   */\n      dup2\n        /* \"#utility.yul\":4823:4846   */\n      tag_66\n      jump\t// in\n    tag_129:\n        /* \"#utility.yul\":4816:4821   */\n      dup2\n        /* \"#utility.yul\":4813:4847   */\n      eq\n        /* \"#utility.yul\":4803:4865   */\n      tag_130\n      jumpi\n        /* \"#utility.yul\":4861:4862   */\n      0x00\n        /* \"#utility.yul\":4858:4859   */\n      dup1\n        /* \"#utility.yul\":4851:4863   */\n      revert\n        /* \"#utility.yul\":4803:4865   */\n    tag_130:\n        /* \"#utility.yul\":4751:4871   */\n      pop\n      jump\t// out\n        /* \"#utility.yul\":4877:5018   */\n    tag_68:\n        /* \"#utility.yul\":4933:4938   */\n      0x00\n        /* \"#utility.yul\":4964:4970   */\n      dup2\n        /* \"#utility.yul\":4958:4971   */\n      mload\n        /* \"#utility.yul\":4949:4971   */\n      swap1\n      pop\n        /* \"#utility.yul\":4980:5012   */\n      tag_132\n        /* \"#utility.yul\":5006:5011   */\n      dup2\n        /* \"#utility.yul\":4980:5012   */\n      tag_67\n      jump\t// in\n    tag_132:\n        /* \"#utility.yul\":4877:5018   */\n      swap3\n      swap2\n      pop\n      pop\n      jump\t// out\n        /* \"#utility.yul\":5024:5100   */\n    tag_69:\n        /* \"#utility.yul\":5060:5067   */\n      0x00\n        /* \"#utility.yul\":5089:5094   */\n      dup2\n        /* \"#utility.yul\":5078:5094   */\n      swap1\n      pop\n        /* \"#utility.yul\":5024:5100   */\n      swap2\n      swap1\n      pop\n      jump\t// out\n        /* \"#utility.yul\":5106:5226   */\n    tag_70:\n        /* \"#utility.yul\":5178:5201   */\n      tag_135\n        /* \"#utility.yul\":5195:5200   */\n      dup2\n        /* \"#utility.yul\":5178:5201   */\n      tag_69\n      jump\t// in\n    tag_135:\n        /* \"#utility.yul\":5171:5176   */\n      dup2\n        /* \"#utility.yul\":5168:5202   */\n      eq\n        /* \"#utility.yul\":5158:5220   */\n      tag_136\n      jumpi\n        /* \"#utility.yul\":5216:5217   */\n      0x00\n        /* \"#utility.yul\":5213:5214   */\n      dup1\n        /* \"#utility.yul\":5206:5218   */\n      revert\n        /* \"#utility.yul\":5158:5220   */\n    tag_136:\n        /* \"#utility.yul\":5106:5226   */\n      pop\n      jump\t// out\n        /* \"#utility.yul\":5232:5373   */\n    tag_71:\n        /* \"#utility.yul\":5288:5293   */\n      0x00\n        /* \"#utility.yul\":5319:5325   */\n      dup2\n        /* \"#utility.yul\":5313:5326   */\n      mload\n        /* \"#utility.yul\":5304:5326   */\n      swap1\n      pop\n        /* \"#utility.yul\":5335:5367   */\n      tag_138\n        /* \"#utility.yul\":5361:5366   */\n      dup2\n        /* \"#utility.yul\":5335:5367   */\n      tag_70\n      jump\t// in\n    tag_138:\n        /* \"#utility.yul\":5232:5373   */\n      swap3\n      swap2\n      pop\n      pop\n      jump\t// out\n        /* \"#utility.yul\":5379:5522   */\n    tag_72:\n        /* \"#utility.yul\":5436:5441   */\n      0x00\n        /* \"#utility.yul\":5467:5473   */\n      dup2\n        /* \"#utility.yul\":5461:5474   */\n      mload\n        /* \"#utility.yul\":5452:5474   */\n      swap1\n      pop\n        /* \"#utility.yul\":5483:5516   */\n      tag_140\n        /* \"#utility.yul\":5510:5515   */\n      dup2\n        /* \"#utility.yul\":5483:5516   */\n      tag_58\n      jump\t// in\n    tag_140:\n        /* \"#utility.yul\":5379:5522   */\n      swap3\n      swap2\n      pop\n      pop\n      jump\t// out\n        /* \"#utility.yul\":5528:6499   */\n    tag_46:\n        /* \"#utility.yul\":5631:5637   */\n      0x00\n        /* \"#utility.yul\":5639:5645   */\n      dup1\n        /* \"#utility.yul\":5647:5653   */\n      0x00\n        /* \"#utility.yul\":5655:5661   */\n      dup1\n        /* \"#utility.yul\":5663:5669   */\n      0x00\n        /* \"#utility.yul\":5712:5715   */\n      0xa0\n        /* \"#utility.yul\":5700:5709   */\n      dup7\n        /* \"#utility.yul\":5691:5698   */\n      dup9\n        /* \"#utility.yul\":5687:5710   */\n      sub\n        /* \"#utility.yul\":5683:5716   */\n      slt\n        /* \"#utility.yul\":5680:5800   */\n      iszero\n      tag_142\n      jumpi\n        /* \"#utility.yul\":5719:5798   */\n      tag_143\n      tag_50\n      jump\t// in\n    tag_143:\n        /* \"#utility.yul\":5680:5800   */\n    tag_142:\n        /* \"#utility.yul\":5839:5840   */\n      0x00\n        /* \"#utility.yul\":5864:5927   */\n      tag_144\n        /* \"#utility.yul\":5919:5926   */\n      dup9\n        /* \"#utility.yul\":5910:5916   */\n      dup3\n        /* \"#utility.yul\":5899:5908   */\n      dup10\n        /* \"#utility.yul\":5895:5917   */\n      add\n        /* \"#utility.yul\":5864:5927   */\n      tag_68\n      jump\t// in\n    tag_144:\n        /* \"#utility.yul\":5854:5927   */\n      swap6\n      pop\n        /* \"#utility.yul\":5810:5937   */\n      pop\n        /* \"#utility.yul\":5976:5978   */\n      0x20\n        /* \"#utility.yul\":6002:6065   */\n      tag_145\n        /* \"#utility.yul\":6057:6064   */\n      dup9\n        /* \"#utility.yul\":6048:6054   */\n      dup3\n        /* \"#utility.yul\":6037:6046   */\n      dup10\n        /* \"#utility.yul\":6033:6055   */\n      add\n        /* \"#utility.yul\":6002:6065   */\n      tag_71\n      jump\t// in\n    tag_145:\n        /* \"#utility.yul\":5992:6065   */\n      swap5\n      pop\n        /* \"#utility.yul\":5947:6075   */\n      pop\n        /* \"#utility.yul\":6114:6116   */\n      0x40\n        /* \"#utility.yul\":6140:6204   */\n      tag_146\n        /* \"#utility.yul\":6196:6203   */\n      dup9\n        /* \"#utility.yul\":6187:6193   */\n      dup3\n        /* \"#utility.yul\":6176:6185   */\n      dup10\n        /* \"#utility.yul\":6172:6194   */\n      add\n        /* \"#utility.yul\":6140:6204   */\n      tag_72\n      jump\t// in\n    tag_146:\n        /* \"#utility.yul\":6130:6204   */\n      swap4\n      pop\n        /* \"#utility.yul\":6085:6214   */\n      pop\n        /* \"#utility.yul\":6253:6255   */\n      0x60\n        /* \"#utility.yul\":6279:6343   */\n      tag_147\n        /* \"#utility.yul\":6335:6342   */\n      dup9\n        /* \"#utility.yul\":6326:6332   */\n      dup3\n        /* \"#utility.yul\":6315:6324   */\n      dup10\n        /* \"#utility.yul\":6311:6333   */\n      add\n        /* \"#utility.yul\":6279:6343   */\n      tag_72\n      jump\t// in\n    tag_147:\n        /* \"#utility.yul\":6269:6343   */\n      swap3\n      pop\n        /* \"#utility.yul\":6224:6353   */\n      pop\n        /* \"#utility.yul\":6392:6395   */\n      0x80\n        /* \"#utility.yul\":6419:6482   */\n      tag_148\n        /* \"#utility.yul\":6474:6481   */\n      dup9\n        /* \"#utility.yul\":6465:6471   */\n      dup3\n        /* \"#utility.yul\":6454:6463   */\n      dup10\n        /* \"#utility.yul\":6450:6472   */\n      add\n        /* \"#utility.yul\":6419:6482   */\n      tag_68\n      jump\t// in\n    tag_148:\n        /* \"#utility.yul\":6409:6482   */\n      swap2\n      pop\n        /* \"#utility.yul\":6363:6492   */\n      pop\n        /* \"#utility.yul\":5528:6499   */\n      swap3\n      swap6\n      pop\n      swap3\n      swap6\n      swap1\n      swap4\n      pop\n      jump\t// out\n        /* \"#utility.yul\":6505:7061   */\n    tag_48:\n        /* \"#utility.yul\":6544:6551   */\n      0x00\n        /* \"#utility.yul\":6567:6586   */\n      tag_150\n        /* \"#utility.yul\":6584:6585   */\n      dup3\n        /* \"#utility.yul\":6567:6586   */\n      tag_69\n      jump\t// in\n    tag_150:\n        /* \"#utility.yul\":6562:6586   */\n      swap2\n      pop\n        /* \"#utility.yul\":6600:6619   */\n      tag_151\n        /* \"#utility.yul\":6617:6618   */\n      dup4\n        /* \"#utility.yul\":6600:6619   */\n      tag_69\n      jump\t// in\n    tag_151:\n        /* \"#utility.yul\":6595:6619   */\n      swap3\n      pop\n        /* \"#utility.yul\":6654:6655   */\n      dup3\n        /* \"#utility.yul\":6651:6652   */\n      dup3\n        /* \"#utility.yul\":6647:6656   */\n      mul\n        /* \"#utility.yul\":6676:6705   */\n      tag_152\n        /* \"#utility.yul\":6693:6704   */\n      dup2\n        /* \"#utility.yul\":6676:6705   */\n      tag_69\n      jump\t// in\n    tag_152:\n        /* \"#utility.yul\":6665:6705   */\n      swap2\n      pop\n        /* \"#utility.yul\":6763:6829   */\n      0x8000000000000000000000000000000000000000000000000000000000000000\n        /* \"#utility.yul\":6760:6761   */\n      dup5\n        /* \"#utility.yul\":6757:6830   */\n      eq\n        /* \"#utility.yul\":6753:6754   */\n      0x00\n        /* \"#utility.yul\":6750:6751   */\n      dup5\n        /* \"#utility.yul\":6746:6755   */\n      slt\n        /* \"#utility.yul\":6742:6831   */\n      and\n        /* \"#utility.yul\":6739:6854   */\n      iszero\n      tag_153\n      jumpi\n        /* \"#utility.yul\":6834:6852   */\n      tag_154\n      tag_64\n      jump\t// in\n    tag_154:\n        /* \"#utility.yul\":6739:6854   */\n    tag_153:\n        /* \"#utility.yul\":7004:7005   */\n      dup3\n        /* \"#utility.yul\":6995:7002   */\n      dup3\n        /* \"#utility.yul\":6990:7006   */\n      sdiv\n        /* \"#utility.yul\":6987:6988   */\n      dup5\n        /* \"#utility.yul\":6984:7007   */\n      eq\n        /* \"#utility.yul\":6964:6965   */\n      dup4\n        /* \"#utility.yul\":6957:6966   */\n      iszero\n        /* \"#utility.yul\":6937:7021   */\n      or\n        /* \"#utility.yul\":6914:7054   */\n      tag_155\n      jumpi\n        /* \"#utility.yul\":7034:7052   */\n      tag_156\n      tag_64\n      jump\t// in\n    tag_156:\n        /* \"#utility.yul\":6914:7054   */\n    tag_155:\n        /* \"#utility.yul\":6552:7061   */\n      pop\n        /* \"#utility.yul\":6505:7061   */\n      swap3\n      swap2\n      pop\n      pop\n      jump\t// out\n\n    auxdata: 0xa26469706673582212207a7be39995999c1f2b13c9d38d94b00f0ca89a3c0d2421a31a1e1b2265abf08064736f6c63430008110033\n}\n",
				"bytecode": {
					"linkReferences": {},
					"object": "60806040526802b5e3af16b188000060005534801561001d57600080fd5b5061074e8061002d6000396000f3fe60806040526004361061003f5760003560e01c80633e47d6f314610044578063b60d428814610081578063dc0d3dff1461008b578063e5e18b1a146100c8575b600080fd5b34801561005057600080fd5b5061006b6004803603810190610066919061038c565b6100f3565b60405161007891906103d2565b60405180910390f35b61008961010b565b005b34801561009757600080fd5b506100b260048036038101906100ad9190610419565b610201565b6040516100bf9190610455565b60405180910390f35b3480156100d457600080fd5b506100dd610240565b6040516100ea91906103d2565b60405180910390f35b60026020528060005260406000206000915090505481565b60005461011734610246565b1015610158576040517f08c379a000000000000000000000000000000000000000000000000000000000815260040161014f906104a7565b60405180910390fd5b6001339080600181540180825580915050600190039060005260206000200160009091909190916101000a81548173ffffffffffffffffffffffffffffffffffffffff021916908373ffffffffffffffffffffffffffffffffffffffff16021790555034600260003373ffffffffffffffffffffffffffffffffffffffff1673ffffffffffffffffffffffffffffffffffffffff16815260200190815260200160002081905550565b6001818154811061021157600080fd5b906000526020600020016000915054906101000a900473ffffffffffffffffffffffffffffffffffffffff1681565b60005481565b600080610251610280565b90506000670de0b6b3a7640000848361026a91906104f6565b6102749190610567565b90508092505050919050565b60008073d4a33860578de61dbabdc8bfdb98fd742fa7028e905060008173ffffffffffffffffffffffffffffffffffffffff1663feaf968c6040518163ffffffff1660e01b815260040160a060405180830381865afa1580156102e7573d6000803e3d6000fd5b505050506040513d601f19601f8201168201806040525081019061030b9190610625565b5050509150506402540be4008161032291906106a0565b9250505090565b600080fd5b600073ffffffffffffffffffffffffffffffffffffffff82169050919050565b60006103598261032e565b9050919050565b6103698161034e565b811461037457600080fd5b50565b60008135905061038681610360565b92915050565b6000602082840312156103a2576103a1610329565b5b60006103b084828501610377565b91505092915050565b6000819050919050565b6103cc816103b9565b82525050565b60006020820190506103e760008301846103c3565b92915050565b6103f6816103b9565b811461040157600080fd5b50565b600081359050610413816103ed565b92915050565b60006020828403121561042f5761042e610329565b5b600061043d84828501610404565b91505092915050565b61044f8161034e565b82525050565b600060208201905061046a6000830184610446565b92915050565b600082825260208201905092915050565b50565b6000610491600083610470565b915061049c82610481565b600082019050919050565b600060208201905081810360008301526104c081610484565b9050919050565b7f4e487b7100000000000000000000000000000000000000000000000000000000600052601160045260246000fd5b6000610501826103b9565b915061050c836103b9565b925082820261051a816103b9565b91508282048414831517610531576105306104c7565b5b5092915050565b7f4e487b7100000000000000000000000000000000000000000000000000000000600052601260045260246000fd5b6000610572826103b9565b915061057d836103b9565b92508261058d5761058c610538565b5b828204905092915050565b600069ffffffffffffffffffff82169050919050565b6105b781610598565b81146105c257600080fd5b50565b6000815190506105d4816105ae565b92915050565b6000819050919050565b6105ed816105da565b81146105f857600080fd5b50565b60008151905061060a816105e4565b92915050565b60008151905061061f816103ed565b92915050565b600080600080600060a0868803121561064157610640610329565b5b600061064f888289016105c5565b9550506020610660888289016105fb565b945050604061067188828901610610565b935050606061068288828901610610565b9250506080610693888289016105c5565b9150509295509295909350565b60006106ab826105da565b91506106b6836105da565b92508282026106c4816105da565b91507f800000000000000000000000000000000000000000000000000000000000000084146000841216156106fc576106fb6104c7565b5b8282058414831517610711576107106104c7565b5b509291505056fea26469706673582212207a7be39995999c1f2b13c9d38d94b00f0ca89a3c0d2421a31a1e1b2265abf08064736f6c63430008110033",
					"opcodes": "PUSH1 0x80 PUSH1 0x40 MSTORE PUSH9 0x2B5E3AF16B1880000 PUSH1 0x0 SSTORE CALLVALUE DUP1 ISZERO PUSH2 0x1D JUMPI PUSH1 0x0 DUP1 REVERT JUMPDEST POP PUSH2 0x74E DUP1 PUSH2 0x2D PUSH1 0x0 CODECOPY PUSH1 0x0 RETURN INVALID PUSH1 0x80 PUSH1 0x40 MSTORE PUSH1 0x4 CALLDATASIZE LT PUSH2 0x3F JUMPI PUSH1 0x0 CALLDATALOAD PUSH1 0xE0 SHR DUP1 PUSH4 0x3E47D6F3 EQ PUSH2 0x44 JUMPI DUP1 PUSH4 0xB60D4288 EQ PUSH2 0x81 JUMPI DUP1 PUSH4 0xDC0D3DFF EQ PUSH2 0x8B JUMPI DUP1 PUSH4 0xE5E18B1A EQ PUSH2 0xC8 JUMPI JUMPDEST PUSH1 0x0 DUP1 REVERT JUMPDEST CALLVALUE DUP1 ISZERO PUSH2 0x50 JUMPI PUSH1 0x0 DUP1 REVERT JUMPDEST POP PUSH2 0x6B PUSH1 0x4 DUP1 CALLDATASIZE SUB DUP2 ADD SWAP1 PUSH2 0x66 SWAP2 SWAP1 PUSH2 0x38C JUMP JUMPDEST PUSH2 0xF3 JUMP JUMPDEST PUSH1 0x40 MLOAD PUSH2 0x78 SWAP2 SWAP1 PUSH2 0x3D2 JUMP JUMPDEST PUSH1 0x40 MLOAD DUP1 SWAP2 SUB SWAP1 RETURN JUMPDEST PUSH2 0x89 PUSH2 0x10B JUMP JUMPDEST STOP JUMPDEST CALLVALUE DUP1 ISZERO PUSH2 0x97 JUMPI PUSH1 0x0 DUP1 REVERT JUMPDEST POP PUSH2 0xB2 PUSH1 0x4 DUP1 CALLDATASIZE SUB DUP2 ADD SWAP1 PUSH2 0xAD SWAP2 SWAP1 PUSH2 0x419 JUMP JUMPDEST PUSH2 0x201 JUMP JUMPDEST PUSH1 0x40 MLOAD PUSH2 0xBF SWAP2 SWAP1 PUSH2 0x455 JUMP JUMPDEST PUSH1 0x40 MLOAD DUP1 SWAP2 SUB SWAP1 RETURN JUMPDEST CALLVALUE DUP1 ISZERO PUSH2 0xD4 JUMPI PUSH1 0x0 DUP1 REVERT JUMPDEST POP PUSH2 0xDD PUSH2 0x240 JUMP JUMPDEST PUSH1 0x40 MLOAD PUSH2 0xEA SWAP2 SWAP1 PUSH2 0x3D2 JUMP JUMPDEST PUSH1 0x40 MLOAD DUP1 SWAP2 SUB SWAP1 RETURN JUMPDEST PUSH1 0x2 PUSH1 0x20 MSTORE DUP1 PUSH1 0x0 MSTORE PUSH1 0x40 PUSH1 0x0 KECCAK256 PUSH1 0x0 SWAP2 POP SWAP1 POP SLOAD DUP2 JUMP JUMPDEST PUSH1 0x0 SLOAD PUSH2 0x117 CALLVALUE PUSH2 0x246 JUMP JUMPDEST LT ISZERO PUSH2 0x158 JUMPI PUSH1 0x40 MLOAD PUSH32 0x8C379A000000000000000000000000000000000000000000000000000000000 DUP2 MSTORE PUSH1 0x4 ADD PUSH2 0x14F SWAP1 PUSH2 0x4A7 JUMP JUMPDEST PUSH1 0x40 MLOAD DUP1 SWAP2 SUB SWAP1 REVERT JUMPDEST PUSH1 0x1 CALLER SWAP1 DUP1 PUSH1 0x1 DUP2 SLOAD ADD DUP1 DUP3 SSTORE DUP1 SWAP2 POP POP PUSH1 0x1 SWAP1 SUB SWAP1 PUSH1 0x0 MSTORE PUSH1 0x20 PUSH1 0x0 KECCAK256 ADD PUSH1 0x0 SWAP1 SWAP2 SWAP1 SWAP2 SWAP1 SWAP2 PUSH2 0x100 EXP DUP2 SLOAD DUP2 PUSH20 0xFFFFFFFFFFFFFFFFFFFFFFFFFFFFFFFFFFFFFFFF MUL NOT AND SWAP1 DUP4 PUSH20 0xFFFFFFFFFFFFFFFFFFFFFFFFFFFFFFFFFFFFFFFF AND MUL OR SWAP1 SSTORE POP CALLVALUE PUSH1 0x2 PUSH1 0x0 CALLER PUSH20 0xFFFFFFFFFFFFFFFFFFFFFFFFFFFFFFFFFFFFFFFF AND PUSH20 0xFFFFFFFFFFFFFFFFFFFFFFFFFFFFFFFFFFFFFFFF AND DUP2 MSTORE PUSH1 0x20 ADD SWAP1 DUP2 MSTORE PUSH1 0x20 ADD PUSH1 0x0 KECCAK256 DUP2 SWAP1 SSTORE POP JUMP JUMPDEST PUSH1 0x1 DUP2 DUP2 SLOAD DUP2 LT PUSH2 0x211 JUMPI PUSH1 0x0 DUP1 REVERT JUMPDEST SWAP1 PUSH1 0x0 MSTORE PUSH1 0x20 PUSH1 0x0 KECCAK256 ADD PUSH1 0x0 SWAP2 POP SLOAD SWAP1 PUSH2 0x100 EXP SWAP1 DIV PUSH20 0xFFFFFFFFFFFFFFFFFFFFFFFFFFFFFFFFFFFFFFFF AND DUP2 JUMP JUMPDEST PUSH1 0x0 SLOAD DUP2 JUMP JUMPDEST PUSH1 0x0 DUP1 PUSH2 0x251 PUSH2 0x280 JUMP JUMPDEST SWAP1 POP PUSH1 0x0 PUSH8 0xDE0B6B3A7640000 DUP5 DUP4 PUSH2 0x26A SWAP2 SWAP1 PUSH2 0x4F6 JUMP JUMPDEST PUSH2 0x274 SWAP2 SWAP1 PUSH2 0x567 JUMP JUMPDEST SWAP1 POP DUP1 SWAP3 POP POP POP SWAP2 SWAP1 POP JUMP JUMPDEST PUSH1 0x0 DUP1 PUSH20 0xD4A33860578DE61DBABDC8BFDB98FD742FA7028E SWAP1 POP PUSH1 0x0 DUP2 PUSH20 0xFFFFFFFFFFFFFFFFFFFFFFFFFFFFFFFFFFFFFFFF AND PUSH4 0xFEAF968C PUSH1 0x40 MLOAD DUP2 PUSH4 0xFFFFFFFF AND PUSH1 0xE0 SHL DUP2 MSTORE PUSH1 0x4 ADD PUSH1 0xA0 PUSH1 0x40 MLOAD DUP1 DUP4 SUB DUP2 DUP7 GAS STATICCALL ISZERO DUP1 ISZERO PUSH2 0x2E7 JUMPI RETURNDATASIZE PUSH1 0x0 DUP1 RETURNDATACOPY RETURNDATASIZE PUSH1 0x0 REVERT JUMPDEST POP POP POP POP PUSH1 0x40 MLOAD RETURNDATASIZE PUSH1 0x1F NOT PUSH1 0x1F DUP3 ADD AND DUP3 ADD DUP1 PUSH1 0x40 MSTORE POP DUP2 ADD SWAP1 PUSH2 0x30B SWAP2 SWAP1 PUSH2 0x625 JUMP JUMPDEST POP POP POP SWAP2 POP POP PUSH5 0x2540BE400 DUP2 PUSH2 0x322 SWAP2 SWAP1 PUSH2 0x6A0 JUMP JUMPDEST SWAP3 POP POP POP SWAP1 JUMP JUMPDEST PUSH1 0x0 DUP1 REVERT JUMPDEST PUSH1 0x0 PUSH20 0xFFFFFFFFFFFFFFFFFFFFFFFFFFFFFFFFFFFFFFFF DUP3 AND SWAP1 POP SWAP2 SWAP1 POP JUMP JUMPDEST PUSH1 0x0 PUSH2 0x359 DUP3 PUSH2 0x32E JUMP JUMPDEST SWAP1 POP SWAP2 SWAP1 POP JUMP JUMPDEST PUSH2 0x369 DUP2 PUSH2 0x34E JUMP JUMPDEST DUP2 EQ PUSH2 0x374 JUMPI PUSH1 0x0 DUP1 REVERT JUMPDEST POP JUMP JUMPDEST PUSH1 0x0 DUP2 CALLDATALOAD SWAP1 POP PUSH2 0x386 DUP2 PUSH2 0x360 JUMP JUMPDEST SWAP3 SWAP2 POP POP JUMP JUMPDEST PUSH1 0x0 PUSH1 0x20 DUP3 DUP5 SUB SLT ISZERO PUSH2 0x3A2 JUMPI PUSH2 0x3A1 PUSH2 0x329 JUMP JUMPDEST JUMPDEST PUSH1 0x0 PUSH2 0x3B0 DUP5 DUP3 DUP6 ADD PUSH2 0x377 JUMP JUMPDEST SWAP2 POP POP SWAP3 SWAP2 POP POP JUMP JUMPDEST PUSH1 0x0 DUP2 SWAP1 POP SWAP2 SWAP1 POP JUMP JUMPDEST PUSH2 0x3CC DUP2 PUSH2 0x3B9 JUMP JUMPDEST DUP3 MSTORE POP POP JUMP JUMPDEST PUSH1 0x0 PUSH1 0x20 DUP3 ADD SWAP1 POP PUSH2 0x3E7 PUSH1 0x0 DUP4 ADD DUP5 PUSH2 0x3C3 JUMP JUMPDEST SWAP3 SWAP2 POP POP JUMP JUMPDEST PUSH2 0x3F6 DUP2 PUSH2 0x3B9 JUMP JUMPDEST DUP2 EQ PUSH2 0x401 JUMPI PUSH1 0x0 DUP1 REVERT JUMPDEST POP JUMP JUMPDEST PUSH1 0x0 DUP2 CALLDATALOAD SWAP1 POP PUSH2 0x413 DUP2 PUSH2 0x3ED JUMP JUMPDEST SWAP3 SWAP2 POP POP JUMP JUMPDEST PUSH1 0x0 PUSH1 0x20 DUP3 DUP5 SUB SLT ISZERO PUSH2 0x42F JUMPI PUSH2 0x42E PUSH2 0x329 JUMP JUMPDEST JUMPDEST PUSH1 0x0 PUSH2 0x43D DUP5 DUP3 DUP6 ADD PUSH2 0x404 JUMP JUMPDEST SWAP2 POP POP SWAP3 SWAP2 POP POP JUMP JUMPDEST PUSH2 0x44F DUP2 PUSH2 0x34E JUMP JUMPDEST DUP3 MSTORE POP POP JUMP JUMPDEST PUSH1 0x0 PUSH1 0x20 DUP3 ADD SWAP1 POP PUSH2 0x46A PUSH1 0x0 DUP4 ADD DUP5 PUSH2 0x446 JUMP JUMPDEST SWAP3 SWAP2 POP POP JUMP JUMPDEST PUSH1 0x0 DUP3 DUP3 MSTORE PUSH1 0x20 DUP3 ADD SWAP1 POP SWAP3 SWAP2 POP POP JUMP JUMPDEST POP JUMP JUMPDEST PUSH1 0x0 PUSH2 0x491 PUSH1 0x0 DUP4 PUSH2 0x470 JUMP JUMPDEST SWAP2 POP PUSH2 0x49C DUP3 PUSH2 0x481 JUMP JUMPDEST PUSH1 0x0 DUP3 ADD SWAP1 POP SWAP2 SWAP1 POP JUMP JUMPDEST PUSH1 0x0 PUSH1 0x20 DUP3 ADD SWAP1 POP DUP2 DUP2 SUB PUSH1 0x0 DUP4 ADD MSTORE PUSH2 0x4C0 DUP2 PUSH2 0x484 JUMP JUMPDEST SWAP1 POP SWAP2 SWAP1 POP JUMP JUMPDEST PUSH32 0x4E487B7100000000000000000000000000000000000000000000000000000000 PUSH1 0x0 MSTORE PUSH1 0x11 PUSH1 0x4 MSTORE PUSH1 0x24 PUSH1 0x0 REVERT JUMPDEST PUSH1 0x0 PUSH2 0x501 DUP3 PUSH2 0x3B9 JUMP JUMPDEST SWAP2 POP PUSH2 0x50C DUP4 PUSH2 0x3B9 JUMP JUMPDEST SWAP3 POP DUP3 DUP3 MUL PUSH2 0x51A DUP2 PUSH2 0x3B9 JUMP JUMPDEST SWAP2 POP DUP3 DUP3 DIV DUP5 EQ DUP4 ISZERO OR PUSH2 0x531 JUMPI PUSH2 0x530 PUSH2 0x4C7 JUMP JUMPDEST JUMPDEST POP SWAP3 SWAP2 POP POP JUMP JUMPDEST PUSH32 0x4E487B7100000000000000000000000000000000000000000000000000000000 PUSH1 0x0 MSTORE PUSH1 0x12 PUSH1 0x4 MSTORE PUSH1 0x24 PUSH1 0x0 REVERT JUMPDEST PUSH1 0x0 PUSH2 0x572 DUP3 PUSH2 0x3B9 JUMP JUMPDEST SWAP2 POP PUSH2 0x57D DUP4 PUSH2 0x3B9 JUMP JUMPDEST SWAP3 POP DUP3 PUSH2 0x58D JUMPI PUSH2 0x58C PUSH2 0x538 JUMP JUMPDEST JUMPDEST DUP3 DUP3 DIV SWAP1 POP SWAP3 SWAP2 POP POP JUMP JUMPDEST PUSH1 0x0 PUSH10 0xFFFFFFFFFFFFFFFFFFFF DUP3 AND SWAP1 POP SWAP2 SWAP1 POP JUMP JUMPDEST PUSH2 0x5B7 DUP2 PUSH2 0x598 JUMP JUMPDEST DUP2 EQ PUSH2 0x5C2 JUMPI PUSH1 0x0 DUP1 REVERT JUMPDEST POP JUMP JUMPDEST PUSH1 0x0 DUP2 MLOAD SWAP1 POP PUSH2 0x5D4 DUP2 PUSH2 0x5AE JUMP JUMPDEST SWAP3 SWAP2 POP POP JUMP JUMPDEST PUSH1 0x0 DUP2 SWAP1 POP SWAP2 SWAP1 POP JUMP JUMPDEST PUSH2 0x5ED DUP2 PUSH2 0x5DA JUMP JUMPDEST DUP2 EQ PUSH2 0x5F8 JUMPI PUSH1 0x0 DUP1 REVERT JUMPDEST POP JUMP JUMPDEST PUSH1 0x0 DUP2 MLOAD SWAP1 POP PUSH2 0x60A DUP2 PUSH2 0x5E4 JUMP JUMPDEST SWAP3 SWAP2 POP POP JUMP JUMPDEST PUSH1 0x0 DUP2 MLOAD SWAP1 POP PUSH2 0x61F DUP2 PUSH2 0x3ED JUMP JUMPDEST SWAP3 SWAP2 POP POP JUMP JUMPDEST PUSH1 0x0 DUP1 PUSH1 0x0 DUP1 PUSH1 0x0 PUSH1 0xA0 DUP7 DUP9 SUB SLT ISZERO PUSH2 0x641 JUMPI PUSH2 0x640 PUSH2 0x329 JUMP JUMPDEST JUMPDEST PUSH1 0x0 PUSH2 0x64F DUP9 DUP3 DUP10 ADD PUSH2 0x5C5 JUMP JUMPDEST SWAP6 POP POP PUSH1 0x20 PUSH2 0x660 DUP9 DUP3 DUP10 ADD PUSH2 0x5FB JUMP JUMPDEST SWAP5 POP POP PUSH1 0x40 PUSH2 0x671 DUP9 DUP3 DUP10 ADD PUSH2 0x610 JUMP JUMPDEST SWAP4 POP POP PUSH1 0x60 PUSH2 0x682 DUP9 DUP3 DUP10 ADD PUSH2 0x610 JUMP JUMPDEST SWAP3 POP POP PUSH1 0x80 PUSH2 0x693 DUP9 DUP3 DUP10 ADD PUSH2 0x5C5 JUMP JUMPDEST SWAP2 POP POP SWAP3 SWAP6 POP SWAP3 SWAP6 SWAP1 SWAP4 POP JUMP JUMPDEST PUSH1 0x0 PUSH2 0x6AB DUP3 PUSH2 0x5DA JUMP JUMPDEST SWAP2 POP PUSH2 0x6B6 DUP4 PUSH2 0x5DA JUMP JUMPDEST SWAP3 POP DUP3 DUP3 MUL PUSH2 0x6C4 DUP2 PUSH2 0x5DA JUMP JUMPDEST SWAP2 POP PUSH32 0x8000000000000000000000000000000000000000000000000000000000000000 DUP5 EQ PUSH1 0x0 DUP5 SLT AND ISZERO PUSH2 0x6FC JUMPI PUSH2 0x6FB PUSH2 0x4C7 JUMP JUMPDEST JUMPDEST DUP3 DUP3 SDIV DUP5 EQ DUP4 ISZERO OR PUSH2 0x711 JUMPI PUSH2 0x710 PUSH2 0x4C7 JUMP JUMPDEST JUMPDEST POP SWAP3 SWAP2 POP POP JUMP INVALID LOG2 PUSH5 0x6970667358 0x22 SLT KECCAK256 PUSH27 0x7BE39995999C1F2B13C9D38D94B00F0CA89A3C0D2421A31A1E1B22 PUSH6 0xABF08064736F PUSH13 0x63430008110033000000000000 "
				},
				"gasEstimates": {
					"creation": {
						"codeDepositCost": "374000",
						"executionCost": "22517",
						"totalCost": "396517"
					},
					"external": {
						"addressToAmountFunded(address)": "2792",
						"fund()": "infinite",
						"funders(uint256)": "4978",
						"minimunUsd()": "2473"
					}
				},
				"methodIdentifiers": {
					"addressToAmountFunded(address)": "3e47d6f3",
					"fund()": "b60d4288",
					"funders(uint256)": "dc0d3dff",
					"minimunUsd()": "e5e18b1a"
				}
			},
			"storageLayout": {
				"storage": [
					{
						"astId": 56,
						"contract": "contracts/FundMe.sol:Fundme",
						"label": "minimunUsd",
						"offset": 0,
						"slot": "0",
						"type": "t_uint256"
					},
					{
						"astId": 59,
						"contract": "contracts/FundMe.sol:Fundme",
						"label": "funders",
						"offset": 0,
						"slot": "1",
						"type": "t_array(t_address)dyn_storage"
					},
					{
						"astId": 63,
						"contract": "contracts/FundMe.sol:Fundme",
						"label": "addressToAmountFunded",
						"offset": 0,
						"slot": "2",
						"type": "t_mapping(t_address,t_uint256)"
					}
				],
				"types": {
					"t_address": {
						"encoding": "inplace",
						"label": "address",
						"numberOfBytes": "20"
					},
					"t_array(t_address)dyn_storage": {
						"base": "t_address",
						"encoding": "dynamic_array",
						"label": "address[]",
						"numberOfBytes": "32"
					},
					"t_mapping(t_address,t_uint256)": {
						"encoding": "mapping",
						"key": "t_address",
						"label": "mapping(address => uint256)",
						"numberOfBytes": "32",
						"value": "t_uint256"
					},
					"t_uint256": {
						"encoding": "inplace",
						"label": "uint256",
						"numberOfBytes": "32"
					}
				}
			},
			"userdoc": {
				"kind": "user",
				"methods": {},
				"version": 1
			}
		}
	}
}