{
	"contracts/FundMe.sol": {
		"Fundme": {
			"abi": [
				{
					"inputs": [],
					"name": "fund",
					"outputs": [],
					"stateMutability": "payable",
					"type": "function"
				},
				{
					"inputs": [],
					"name": "getConversionRate",
					"outputs": [],
					"stateMutability": "nonpayable",
					"type": "function"
				},
				{
					"inputs": [],
					"name": "getPrice",
					"outputs": [],
					"stateMutability": "nonpayable",
					"type": "function"
				},
				{
					"inputs": [],
					"name": "minimunUsd",
					"outputs": [
						{
							"internalType": "uint256",
							"name": "",
							"type": "uint256"
						}
					],
					"stateMutability": "view",
					"type": "function"
				}
			],
			"devdoc": {
				"kind": "dev",
				"methods": {},
				"version": 1
			},
			"evm": {
				"assembly": "    /* \"contracts/FundMe.sol\":309:1022  contract Fundme{... */\n  mstore(0x40, 0x80)\n    /* \"contracts/FundMe.sol\":367:369  50 */\n  0x32\n    /* \"contracts/FundMe.sol\":339:369  uint256 public minimunUsd = 50 */\n  0x00\n  sstore\n    /* \"contracts/FundMe.sol\":309:1022  contract Fundme{... */\n  callvalue\n  dup1\n  iszero\n  tag_1\n  jumpi\n  0x00\n  dup1\n  revert\ntag_1:\n  pop\n  dataSize(sub_0)\n  dup1\n  dataOffset(sub_0)\n  0x00\n  codecopy\n  0x00\n  return\nstop\n\nsub_0: assembly {\n        /* \"contracts/FundMe.sol\":309:1022  contract Fundme{... */\n      mstore(0x40, 0x80)\n      jumpi(tag_1, lt(calldatasize, 0x04))\n      shr(0xe0, calldataload(0x00))\n      dup1\n      0x98d5fdca\n      eq\n      tag_2\n      jumpi\n      dup1\n      0xb60d4288\n      eq\n      tag_3\n      jumpi\n      dup1\n      0xe5e18b1a\n      eq\n      tag_4\n      jumpi\n      dup1\n      0xf36089ec\n      eq\n      tag_5\n      jumpi\n    tag_1:\n      0x00\n      dup1\n      revert\n        /* \"contracts/FundMe.sol\":760:951  function getPrice() public{... */\n    tag_2:\n      callvalue\n      dup1\n      iszero\n      tag_6\n      jumpi\n      0x00\n      dup1\n      revert\n    tag_6:\n      pop\n      tag_7\n      tag_8\n      jump\t// in\n    tag_7:\n      stop\n        /* \"contracts/FundMe.sol\":476:746  function fund() public payable{... */\n    tag_3:\n      tag_9\n      tag_10\n      jump\t// in\n    tag_9:\n      stop\n        /* \"contracts/FundMe.sol\":339:369  uint256 public minimunUsd = 50 */\n    tag_4:\n      callvalue\n      dup1\n      iszero\n      tag_11\n      jumpi\n      0x00\n      dup1\n      revert\n    tag_11:\n      pop\n      tag_12\n      tag_13\n      jump\t// in\n    tag_12:\n      mload(0x40)\n      tag_14\n      swap2\n      swap1\n      tag_15\n      jump\t// in\n    tag_14:\n      mload(0x40)\n      dup1\n      swap2\n      sub\n      swap1\n      return\n        /* \"contracts/FundMe.sol\":963:1013  function getConversionRate()public{... */\n    tag_5:\n      callvalue\n      dup1\n      iszero\n      tag_16\n      jumpi\n      0x00\n      dup1\n      revert\n    tag_16:\n      pop\n      tag_17\n      tag_18\n      jump\t// in\n    tag_17:\n      stop\n        /* \"contracts/FundMe.sol\":760:951  function getPrice() public{... */\n    tag_8:\n      jump\t// out\n        /* \"contracts/FundMe.sol\":476:746  function fund() public payable{... */\n    tag_10:\n        /* \"contracts/FundMe.sol\":700:710  minimunUsd */\n      sload(0x00)\n        /* \"contracts/FundMe.sol\":687:696  msg.value */\n      callvalue\n        /* \"contracts/FundMe.sol\":687:710  msg.value >= minimunUsd */\n      lt\n      iszero\n        /* \"contracts/FundMe.sol\":679:732  require(msg.value >= minimunUsd, \"Saldo insufciente\") */\n      tag_21\n      jumpi\n      mload(0x40)\n      0x08c379a000000000000000000000000000000000000000000000000000000000\n      dup2\n      mstore\n      0x04\n      add\n      tag_22\n      swap1\n      tag_23\n      jump\t// in\n    tag_22:\n      mload(0x40)\n      dup1\n      swap2\n      sub\n      swap1\n      revert\n    tag_21:\n        /* \"contracts/FundMe.sol\":476:746  function fund() public payable{... */\n      jump\t// out\n        /* \"contracts/FundMe.sol\":339:369  uint256 public minimunUsd = 50 */\n    tag_13:\n      sload(0x00)\n      dup2\n      jump\t// out\n        /* \"contracts/FundMe.sol\":963:1013  function getConversionRate()public{... */\n    tag_18:\n      jump\t// out\n        /* \"#utility.yul\":7:84   */\n    tag_25:\n        /* \"#utility.yul\":44:51   */\n      0x00\n        /* \"#utility.yul\":73:78   */\n      dup2\n        /* \"#utility.yul\":62:78   */\n      swap1\n      pop\n        /* \"#utility.yul\":7:84   */\n      swap2\n      swap1\n      pop\n      jump\t// out\n        /* \"#utility.yul\":90:208   */\n    tag_26:\n        /* \"#utility.yul\":177:201   */\n      tag_33\n        /* \"#utility.yul\":195:200   */\n      dup2\n        /* \"#utility.yul\":177:201   */\n      tag_25\n      jump\t// in\n    tag_33:\n        /* \"#utility.yul\":172:175   */\n      dup3\n        /* \"#utility.yul\":165:202   */\n      mstore\n        /* \"#utility.yul\":90:208   */\n      pop\n      pop\n      jump\t// out\n        /* \"#utility.yul\":214:436   */\n    tag_15:\n        /* \"#utility.yul\":307:311   */\n      0x00\n        /* \"#utility.yul\":345:347   */\n      0x20\n        /* \"#utility.yul\":334:343   */\n      dup3\n        /* \"#utility.yul\":330:348   */\n      add\n        /* \"#utility.yul\":322:348   */\n      swap1\n      pop\n        /* \"#utility.yul\":358:429   */\n      tag_35\n        /* \"#utility.yul\":426:427   */\n      0x00\n        /* \"#utility.yul\":415:424   */\n      dup4\n        /* \"#utility.yul\":411:428   */\n      add\n        /* \"#utility.yul\":402:408   */\n      dup5\n        /* \"#utility.yul\":358:429   */\n      tag_26\n      jump\t// in\n    tag_35:\n        /* \"#utility.yul\":214:436   */\n      swap3\n      swap2\n      pop\n      pop\n      jump\t// out\n        /* \"#utility.yul\":442:611   */\n    tag_27:\n        /* \"#utility.yul\":526:537   */\n      0x00\n        /* \"#utility.yul\":560:566   */\n      dup3\n        /* \"#utility.yul\":555:558   */\n      dup3\n        /* \"#utility.yul\":548:567   */\n      mstore\n        /* \"#utility.yul\":600:604   */\n      0x20\n        /* \"#utility.yul\":595:598   */\n      dup3\n        /* \"#utility.yul\":591:605   */\n      add\n        /* \"#utility.yul\":576:605   */\n      swap1\n      pop\n        /* \"#utility.yul\":442:611   */\n      swap3\n      swap2\n      pop\n      pop\n      jump\t// out\n        /* \"#utility.yul\":617:784   */\n    tag_28:\n        /* \"#utility.yul\":757:776   */\n      0x53616c646f20696e7375666369656e7465000000000000000000000000000000\n        /* \"#utility.yul\":753:754   */\n      0x00\n        /* \"#utility.yul\":745:751   */\n      dup3\n        /* \"#utility.yul\":741:755   */\n      add\n        /* \"#utility.yul\":734:777   */\n      mstore\n        /* \"#utility.yul\":617:784   */\n      pop\n      jump\t// out\n        /* \"#utility.yul\":790:1156   */\n    tag_29:\n        /* \"#utility.yul\":932:935   */\n      0x00\n        /* \"#utility.yul\":953:1020   */\n      tag_39\n        /* \"#utility.yul\":1017:1019   */\n      0x11\n        /* \"#utility.yul\":1012:1015   */\n      dup4\n        /* \"#utility.yul\":953:1020   */\n      tag_27\n      jump\t// in\n    tag_39:\n        /* \"#utility.yul\":946:1020   */\n      swap2\n      pop\n        /* \"#utility.yul\":1029:1122   */\n      tag_40\n        /* \"#utility.yul\":1118:1121   */\n      dup3\n        /* \"#utility.yul\":1029:1122   */\n      tag_28\n      jump\t// in\n    tag_40:\n        /* \"#utility.yul\":1147:1149   */\n      0x20\n        /* \"#utility.yul\":1142:1145   */\n      dup3\n        /* \"#utility.yul\":1138:1150   */\n      add\n        /* \"#utility.yul\":1131:1150   */\n      swap1\n      pop\n        /* \"#utility.yul\":790:1156   */\n      swap2\n      swap1\n      pop\n      jump\t// out\n        /* \"#utility.yul\":1162:1581   */\n    tag_23:\n        /* \"#utility.yul\":1328:1332   */\n      0x00\n        /* \"#utility.yul\":1366:1368   */\n      0x20\n        /* \"#utility.yul\":1355:1364   */\n      dup3\n        /* \"#utility.yul\":1351:1369   */\n      add\n        /* \"#utility.yul\":1343:1369   */\n      swap1\n      pop\n        /* \"#utility.yul\":1415:1424   */\n      dup2\n        /* \"#utility.yul\":1409:1413   */\n      dup2\n        /* \"#utility.yul\":1405:1425   */\n      sub\n        /* \"#utility.yul\":1401:1402   */\n      0x00\n        /* \"#utility.yul\":1390:1399   */\n      dup4\n        /* \"#utility.yul\":1386:1403   */\n      add\n        /* \"#utility.yul\":1379:1426   */\n      mstore\n        /* \"#utility.yul\":1443:1574   */\n      tag_42\n        /* \"#utility.yul\":1569:1573   */\n      dup2\n        /* \"#utility.yul\":1443:1574   */\n      tag_29\n      jump\t// in\n    tag_42:\n        /* \"#utility.yul\":1435:1574   */\n      swap1\n      pop\n        /* \"#utility.yul\":1162:1581   */\n      swap2\n      swap1\n      pop\n      jump\t// out\n\n    auxdata: 0xa264697066735822122075a3e64a73b9c5472abf8605c852aaef71cee3c20a4db3aa0fcd472e427f6f4664736f6c63430008110033\n}\n",
				"bytecode": {
					"linkReferences": {},
					"object": "6080604052603260005534801561001557600080fd5b506101df806100256000396000f3fe60806040526004361061003f5760003560e01c806398d5fdca14610044578063b60d42881461005b578063e5e18b1a14610065578063f36089ec14610090575b600080fd5b34801561005057600080fd5b506100596100a7565b005b6100636100a9565b005b34801561007157600080fd5b5061007a6100f0565b6040516100879190610111565b60405180910390f35b34801561009c57600080fd5b506100a56100f6565b005b565b6000543410156100ee576040517f08c379a00000000000000000000000000000000000000000000000000000000081526004016100e590610189565b60405180910390fd5b565b60005481565b565b6000819050919050565b61010b816100f8565b82525050565b60006020820190506101266000830184610102565b92915050565b600082825260208201905092915050565b7f53616c646f20696e7375666369656e7465000000000000000000000000000000600082015250565b600061017360118361012c565b915061017e8261013d565b602082019050919050565b600060208201905081810360008301526101a281610166565b905091905056fea264697066735822122075a3e64a73b9c5472abf8605c852aaef71cee3c20a4db3aa0fcd472e427f6f4664736f6c63430008110033",
					"opcodes": "PUSH1 0x80 PUSH1 0x40 MSTORE PUSH1 0x32 PUSH1 0x0 SSTORE CALLVALUE DUP1 ISZERO PUSH2 0x15 JUMPI PUSH1 0x0 DUP1 REVERT JUMPDEST POP PUSH2 0x1DF DUP1 PUSH2 0x25 PUSH1 0x0 CODECOPY PUSH1 0x0 RETURN INVALID PUSH1 0x80 PUSH1 0x40 MSTORE PUSH1 0x4 CALLDATASIZE LT PUSH2 0x3F JUMPI PUSH1 0x0 CALLDATALOAD PUSH1 0xE0 SHR DUP1 PUSH4 0x98D5FDCA EQ PUSH2 0x44 JUMPI DUP1 PUSH4 0xB60D4288 EQ PUSH2 0x5B JUMPI DUP1 PUSH4 0xE5E18B1A EQ PUSH2 0x65 JUMPI DUP1 PUSH4 0xF36089EC EQ PUSH2 0x90 JUMPI JUMPDEST PUSH1 0x0 DUP1 REVERT JUMPDEST CALLVALUE DUP1 ISZERO PUSH2 0x50 JUMPI PUSH1 0x0 DUP1 REVERT JUMPDEST POP PUSH2 0x59 PUSH2 0xA7 JUMP JUMPDEST STOP JUMPDEST PUSH2 0x63 PUSH2 0xA9 JUMP JUMPDEST STOP JUMPDEST CALLVALUE DUP1 ISZERO PUSH2 0x71 JUMPI PUSH1 0x0 DUP1 REVERT JUMPDEST POP PUSH2 0x7A PUSH2 0xF0 JUMP JUMPDEST PUSH1 0x40 MLOAD PUSH2 0x87 SWAP2 SWAP1 PUSH2 0x111 JUMP JUMPDEST PUSH1 0x40 MLOAD DUP1 SWAP2 SUB SWAP1 RETURN JUMPDEST CALLVALUE DUP1 ISZERO PUSH2 0x9C JUMPI PUSH1 0x0 DUP1 REVERT JUMPDEST POP PUSH2 0xA5 PUSH2 0xF6 JUMP JUMPDEST STOP JUMPDEST JUMP JUMPDEST PUSH1 0x0 SLOAD CALLVALUE LT ISZERO PUSH2 0xEE JUMPI PUSH1 0x40 MLOAD PUSH32 0x8C379A000000000000000000000000000000000000000000000000000000000 DUP2 MSTORE PUSH1 0x4 ADD PUSH2 0xE5 SWAP1 PUSH2 0x189 JUMP JUMPDEST PUSH1 0x40 MLOAD DUP1 SWAP2 SUB SWAP1 REVERT JUMPDEST JUMP JUMPDEST PUSH1 0x0 SLOAD DUP2 JUMP JUMPDEST JUMP JUMPDEST PUSH1 0x0 DUP2 SWAP1 POP SWAP2 SWAP1 POP JUMP JUMPDEST PUSH2 0x10B DUP2 PUSH2 0xF8 JUMP JUMPDEST DUP3 MSTORE POP POP JUMP JUMPDEST PUSH1 0x0 PUSH1 0x20 DUP3 ADD SWAP1 POP PUSH2 0x126 PUSH1 0x0 DUP4 ADD DUP5 PUSH2 0x102 JUMP JUMPDEST SWAP3 SWAP2 POP POP JUMP JUMPDEST PUSH1 0x0 DUP3 DUP3 MSTORE PUSH1 0x20 DUP3 ADD SWAP1 POP SWAP3 SWAP2 POP POP JUMP JUMPDEST PUSH32 0x53616C646F20696E7375666369656E7465000000000000000000000000000000 PUSH1 0x0 DUP3 ADD MSTORE POP JUMP JUMPDEST PUSH1 0x0 PUSH2 0x173 PUSH1 0x11 DUP4 PUSH2 0x12C JUMP JUMPDEST SWAP2 POP PUSH2 0x17E DUP3 PUSH2 0x13D JUMP JUMPDEST PUSH1 0x20 DUP3 ADD SWAP1 POP SWAP2 SWAP1 POP JUMP JUMPDEST PUSH1 0x0 PUSH1 0x20 DUP3 ADD SWAP1 POP DUP2 DUP2 SUB PUSH1 0x0 DUP4 ADD MSTORE PUSH2 0x1A2 DUP2 PUSH2 0x166 JUMP JUMPDEST SWAP1 POP SWAP2 SWAP1 POP JUMP INVALID LOG2 PUSH5 0x6970667358 0x22 SLT KECCAK256 PUSH22 0xA3E64A73B9C5472ABF8605C852AAEF71CEE3C20A4DB3 0xAA 0xF 0xCD SELFBALANCE 0x2E TIMESTAMP PUSH32 0x6F4664736F6C6343000811003300000000000000000000000000000000000000 "
				},
				"gasEstimates": {
					"creation": {
						"codeDepositCost": "95800",
						"executionCost": "22247",
						"totalCost": "118047"
					},
					"external": {
						"fund()": "2534",
						"getConversionRate()": "188",
						"getPrice()": "122",
						"minimunUsd()": "2451"
					}
				},
				"methodIdentifiers": {
					"fund()": "b60d4288",
					"getConversionRate()": "f36089ec",
					"getPrice()": "98d5fdca",
					"minimunUsd()": "e5e18b1a"
				}
			},
			"storageLayout": {
				"storage": [
					{
						"astId": 51,
						"contract": "contracts/FundMe.sol:Fundme",
						"label": "minimunUsd",
						"offset": 0,
						"slot": "0",
						"type": "t_uint256"
					}
				],
				"types": {
					"t_uint256": {
						"encoding": "inplace",
						"label": "uint256",
						"numberOfBytes": "32"
					}
				}
			},
			"userdoc": {
				"kind": "user",
				"methods": {},
				"version": 1
			}
		}
	}
}