{
	"contracts/FundMe.sol": {
		"Fundme": {
			"abi": [
				{
					"inputs": [],
					"name": "fund",
					"outputs": [],
					"stateMutability": "payable",
					"type": "function"
				},
				{
					"inputs": [
						{
							"internalType": "uint256",
							"name": "",
							"type": "uint256"
						}
					],
					"name": "funders",
					"outputs": [
						{
							"internalType": "address",
							"name": "",
							"type": "address"
						}
					],
					"stateMutability": "view",
					"type": "function"
				},
				{
					"inputs": [
						{
							"internalType": "uint256",
							"name": "ethAmount",
							"type": "uint256"
						}
					],
					"name": "getConversionRate",
					"outputs": [
						{
							"internalType": "uint256",
							"name": "",
							"type": "uint256"
						}
					],
					"stateMutability": "view",
					"type": "function"
				},
				{
					"inputs": [],
					"name": "getPrice",
					"outputs": [
						{
							"internalType": "uint256",
							"name": "",
							"type": "uint256"
						}
					],
					"stateMutability": "view",
					"type": "function"
				},
				{
					"inputs": [],
					"name": "getVersion",
					"outputs": [
						{
							"internalType": "uint256",
							"name": "",
							"type": "uint256"
						}
					],
					"stateMutability": "view",
					"type": "function"
				},
				{
					"inputs": [],
					"name": "minimunUsd",
					"outputs": [
						{
							"internalType": "uint256",
							"name": "",
							"type": "uint256"
						}
					],
					"stateMutability": "view",
					"type": "function"
				}
			],
			"devdoc": {
				"kind": "dev",
				"methods": {},
				"version": 1
			},
			"evm": {
				"assembly": "    /* \"contracts/FundMe.sol\":307:2931  contract Fundme{... */\n  mstore(0x40, 0x80)\n    /* \"contracts/FundMe.sol\":522:531  50 * 1e18 */\n  0x02b5e3af16b1880000\n    /* \"contracts/FundMe.sol\":494:531  uint256 public minimunUsd = 50 * 1e18 */\n  0x00\n  sstore\n    /* \"contracts/FundMe.sol\":307:2931  contract Fundme{... */\n  callvalue\n  dup1\n  iszero\n  tag_1\n  jumpi\n  0x00\n  dup1\n  revert\ntag_1:\n  pop\n  dataSize(sub_0)\n  dup1\n  dataOffset(sub_0)\n  0x00\n  codecopy\n  0x00\n  return\nstop\n\nsub_0: assembly {\n        /* \"contracts/FundMe.sol\":307:2931  contract Fundme{... */\n      mstore(0x40, 0x80)\n      jumpi(tag_1, lt(calldatasize, 0x04))\n      shr(0xe0, calldataload(0x00))\n      dup1\n      0x0d8e6e2c\n      eq\n      tag_2\n      jumpi\n      dup1\n      0x6e5b6b28\n      eq\n      tag_3\n      jumpi\n      dup1\n      0x98d5fdca\n      eq\n      tag_4\n      jumpi\n      dup1\n      0xb60d4288\n      eq\n      tag_5\n      jumpi\n      dup1\n      0xdc0d3dff\n      eq\n      tag_6\n      jumpi\n      dup1\n      0xe5e18b1a\n      eq\n      tag_7\n      jumpi\n    tag_1:\n      0x00\n      dup1\n      revert\n        /* \"contracts/FundMe.sol\":1059:1286  function getVersion() public view returns (uint256){... */\n    tag_2:\n      callvalue\n      dup1\n      iszero\n      tag_8\n      jumpi\n      0x00\n      dup1\n      revert\n    tag_8:\n      pop\n      tag_9\n      tag_10\n      jump\t// in\n    tag_9:\n      mload(0x40)\n      tag_11\n      swap2\n      swap1\n      tag_12\n      jump\t// in\n    tag_11:\n      mload(0x40)\n      dup1\n      swap2\n      sub\n      swap1\n      return\n        /* \"contracts/FundMe.sol\":2448:2902  function getConversionRate(uint256 ethAmount)public view returns(uint256){... */\n    tag_3:\n      callvalue\n      dup1\n      iszero\n      tag_13\n      jumpi\n      0x00\n      dup1\n      revert\n    tag_13:\n      pop\n      tag_14\n      0x04\n      dup1\n      calldatasize\n      sub\n      dup2\n      add\n      swap1\n      tag_15\n      swap2\n      swap1\n      tag_16\n      jump\t// in\n    tag_15:\n      tag_17\n      jump\t// in\n    tag_14:\n      mload(0x40)\n      tag_18\n      swap2\n      swap1\n      tag_12\n      jump\t// in\n    tag_18:\n      mload(0x40)\n      dup1\n      swap2\n      sub\n      swap1\n      return\n        /* \"contracts/FundMe.sol\":1300:2436  function getPrice() public view returns(uint256){... */\n    tag_4:\n      callvalue\n      dup1\n      iszero\n      tag_19\n      jumpi\n      0x00\n      dup1\n      revert\n    tag_19:\n      pop\n      tag_20\n      tag_21\n      jump\t// in\n    tag_20:\n      mload(0x40)\n      tag_22\n      swap2\n      swap1\n      tag_12\n      jump\t// in\n    tag_22:\n      mload(0x40)\n      dup1\n      swap2\n      sub\n      swap1\n      return\n        /* \"contracts/FundMe.sol\":695:986  function fund() public payable{... */\n    tag_5:\n      tag_23\n      tag_24\n      jump\t// in\n    tag_23:\n      stop\n        /* \"contracts/FundMe.sol\":558:582  address[] public funders */\n    tag_6:\n      callvalue\n      dup1\n      iszero\n      tag_25\n      jumpi\n      0x00\n      dup1\n      revert\n    tag_25:\n      pop\n      tag_26\n      0x04\n      dup1\n      calldatasize\n      sub\n      dup2\n      add\n      swap1\n      tag_27\n      swap2\n      swap1\n      tag_16\n      jump\t// in\n    tag_27:\n      tag_28\n      jump\t// in\n    tag_26:\n      mload(0x40)\n      tag_29\n      swap2\n      swap1\n      tag_30\n      jump\t// in\n    tag_29:\n      mload(0x40)\n      dup1\n      swap2\n      sub\n      swap1\n      return\n        /* \"contracts/FundMe.sol\":494:531  uint256 public minimunUsd = 50 * 1e18 */\n    tag_7:\n      callvalue\n      dup1\n      iszero\n      tag_31\n      jumpi\n      0x00\n      dup1\n      revert\n    tag_31:\n      pop\n      tag_32\n      tag_33\n      jump\t// in\n    tag_32:\n      mload(0x40)\n      tag_34\n      swap2\n      swap1\n      tag_12\n      jump\t// in\n    tag_34:\n      mload(0x40)\n      dup1\n      swap2\n      sub\n      swap1\n      return\n        /* \"contracts/FundMe.sol\":1059:1286  function getVersion() public view returns (uint256){... */\n    tag_10:\n        /* \"contracts/FundMe.sol\":1102:1109  uint256 */\n      0x00\n        /* \"contracts/FundMe.sol\":1129:1160  AggregatorV3Interface priceFeed */\n      dup1\n        /* \"contracts/FundMe.sol\":1185:1227  0xD4a33860578De61DBAbDc8BFdb98FD742fA7028e */\n      0xd4a33860578de61dbabdc8bfdb98fd742fa7028e\n        /* \"contracts/FundMe.sol\":1129:1228  AggregatorV3Interface priceFeed = AggregatorV3Interface(0xD4a33860578De61DBAbDc8BFdb98FD742fA7028e) */\n      swap1\n      pop\n        /* \"contracts/FundMe.sol\":1254:1263  priceFeed */\n      dup1\n        /* \"contracts/FundMe.sol\":1254:1271  priceFeed.version */\n      0xffffffffffffffffffffffffffffffffffffffff\n      and\n      0x54fd4d50\n        /* \"contracts/FundMe.sol\":1254:1273  priceFeed.version() */\n      mload(0x40)\n      dup2\n      0xffffffff\n      and\n      0xe0\n      shl\n      dup2\n      mstore\n      0x04\n      add\n      0x20\n      mload(0x40)\n      dup1\n      dup4\n      sub\n      dup2\n      dup7\n      gas\n      staticcall\n      iszero\n      dup1\n      iszero\n      tag_37\n      jumpi\n      returndatasize\n      0x00\n      dup1\n      returndatacopy\n      revert(0x00, returndatasize)\n    tag_37:\n      pop\n      pop\n      pop\n      pop\n      mload(0x40)\n      returndatasize\n      not(0x1f)\n      0x1f\n      dup3\n      add\n      and\n      dup3\n      add\n      dup1\n      0x40\n      mstore\n      pop\n      dup2\n      add\n      swap1\n      tag_38\n      swap2\n      swap1\n      tag_39\n      jump\t// in\n    tag_38:\n        /* \"contracts/FundMe.sol\":1247:1273  return priceFeed.version() */\n      swap2\n      pop\n      pop\n        /* \"contracts/FundMe.sol\":1059:1286  function getVersion() public view returns (uint256){... */\n      swap1\n      jump\t// out\n        /* \"contracts/FundMe.sol\":2448:2902  function getConversionRate(uint256 ethAmount)public view returns(uint256){... */\n    tag_17:\n        /* \"contracts/FundMe.sol\":2513:2520  uint256 */\n      0x00\n        /* \"contracts/FundMe.sol\":2542:2558  uint256 ethPrice */\n      dup1\n        /* \"contracts/FundMe.sol\":2561:2571  getPrice() */\n      tag_41\n        /* \"contracts/FundMe.sol\":2561:2569  getPrice */\n      tag_21\n        /* \"contracts/FundMe.sol\":2561:2571  getPrice() */\n      jump\t// in\n    tag_41:\n        /* \"contracts/FundMe.sol\":2542:2571  uint256 ethPrice = getPrice() */\n      swap1\n      pop\n        /* \"contracts/FundMe.sol\":2728:2750  uint256 ethAmountInUsd */\n      0x00\n        /* \"contracts/FundMe.sol\":2778:2782  1e18 */\n      0x0de0b6b3a7640000\n        /* \"contracts/FundMe.sol\":2765:2774  ethAmount */\n      dup5\n        /* \"contracts/FundMe.sol\":2754:2762  ethPrice */\n      dup4\n        /* \"contracts/FundMe.sol\":2754:2774  ethPrice * ethAmount */\n      tag_42\n      swap2\n      swap1\n      tag_43\n      jump\t// in\n    tag_42:\n        /* \"contracts/FundMe.sol\":2753:2782  (ethPrice * ethAmount) / 1e18 */\n      tag_44\n      swap2\n      swap1\n      tag_45\n      jump\t// in\n    tag_44:\n        /* \"contracts/FundMe.sol\":2728:2782  uint256 ethAmountInUsd = (ethPrice * ethAmount) / 1e18 */\n      swap1\n      pop\n        /* \"contracts/FundMe.sol\":2872:2886  ethAmountInUsd */\n      dup1\n        /* \"contracts/FundMe.sol\":2865:2886  return ethAmountInUsd */\n      swap3\n      pop\n      pop\n      pop\n        /* \"contracts/FundMe.sol\":2448:2902  function getConversionRate(uint256 ethAmount)public view returns(uint256){... */\n      swap2\n      swap1\n      pop\n      jump\t// out\n        /* \"contracts/FundMe.sol\":1300:2436  function getPrice() public view returns(uint256){... */\n    tag_21:\n        /* \"contracts/FundMe.sol\":1340:1347  uint256 */\n      0x00\n        /* \"contracts/FundMe.sol\":1682:1713  AggregatorV3Interface priceFeed */\n      dup1\n        /* \"contracts/FundMe.sol\":1738:1780  0xD4a33860578De61DBAbDc8BFdb98FD742fA7028e */\n      0xd4a33860578de61dbabdc8bfdb98fd742fa7028e\n        /* \"contracts/FundMe.sol\":1682:1781  AggregatorV3Interface priceFeed = AggregatorV3Interface(0xD4a33860578De61DBAbDc8BFdb98FD742fA7028e) */\n      swap1\n      pop\n        /* \"contracts/FundMe.sol\":1977:1989  int256 price */\n      0x00\n        /* \"contracts/FundMe.sol\":1996:2005  priceFeed */\n      dup2\n        /* \"contracts/FundMe.sol\":1996:2021  priceFeed.latestRoundData */\n      0xffffffffffffffffffffffffffffffffffffffff\n      and\n      0xfeaf968c\n        /* \"contracts/FundMe.sol\":1996:2023  priceFeed.latestRoundData() */\n      mload(0x40)\n      dup2\n      0xffffffff\n      and\n      0xe0\n      shl\n      dup2\n      mstore\n      0x04\n      add\n      0xa0\n      mload(0x40)\n      dup1\n      dup4\n      sub\n      dup2\n      dup7\n      gas\n      staticcall\n      iszero\n      dup1\n      iszero\n      tag_48\n      jumpi\n      returndatasize\n      0x00\n      dup1\n      returndatacopy\n      revert(0x00, returndatasize)\n    tag_48:\n      pop\n      pop\n      pop\n      pop\n      mload(0x40)\n      returndatasize\n      not(0x1f)\n      0x1f\n      dup3\n      add\n      and\n      dup3\n      add\n      dup1\n      0x40\n      mstore\n      pop\n      dup2\n      add\n      swap1\n      tag_49\n      swap2\n      swap1\n      tag_50\n      jump\t// in\n    tag_49:\n        /* \"contracts/FundMe.sol\":1975:2023  (,int256 price,,,) = priceFeed.latestRoundData() */\n      pop\n      pop\n      pop\n      swap2\n      pop\n      pop\n        /* \"contracts/FundMe.sol\":2387:2391  1e10 */\n      0x02540be400\n        /* \"contracts/FundMe.sol\":2379:2384  price */\n      dup2\n        /* \"contracts/FundMe.sol\":2379:2391  price * 1e10 */\n      tag_51\n      swap2\n      swap1\n      tag_52\n      jump\t// in\n    tag_51:\n        /* \"contracts/FundMe.sol\":2364:2392  return uint256(price * 1e10) */\n      swap3\n      pop\n      pop\n      pop\n        /* \"contracts/FundMe.sol\":1300:2436  function getPrice() public view returns(uint256){... */\n      swap1\n      jump\t// out\n        /* \"contracts/FundMe.sol\":695:986  function fund() public payable{... */\n    tag_24:\n        /* \"contracts/FundMe.sol\":939:949  minimunUsd */\n      sload(0x00)\n        /* \"contracts/FundMe.sol\":907:935  getConversionRate(msg.value) */\n      tag_54\n        /* \"contracts/FundMe.sol\":925:934  msg.value */\n      callvalue\n        /* \"contracts/FundMe.sol\":907:924  getConversionRate */\n      tag_17\n        /* \"contracts/FundMe.sol\":907:935  getConversionRate(msg.value) */\n      jump\t// in\n    tag_54:\n        /* \"contracts/FundMe.sol\":907:949  getConversionRate(msg.value) >= minimunUsd */\n      lt\n      iszero\n        /* \"contracts/FundMe.sol\":899:972  require(getConversionRate(msg.value) >= minimunUsd, \"Saldo insuficiente\") */\n      tag_55\n      jumpi\n      mload(0x40)\n      0x08c379a000000000000000000000000000000000000000000000000000000000\n      dup2\n      mstore\n      0x04\n      add\n      tag_56\n      swap1\n      tag_57\n      jump\t// in\n    tag_56:\n      mload(0x40)\n      dup1\n      swap2\n      sub\n      swap1\n      revert\n    tag_55:\n        /* \"contracts/FundMe.sol\":695:986  function fund() public payable{... */\n      jump\t// out\n        /* \"contracts/FundMe.sol\":558:582  address[] public funders */\n    tag_28:\n      0x01\n      dup2\n      dup2\n      sload\n      dup2\n      lt\n      tag_58\n      jumpi\n      0x00\n      dup1\n      revert\n    tag_58:\n      swap1\n      0x00\n      mstore\n      keccak256(0x00, 0x20)\n      add\n      0x00\n      swap2\n      pop\n      sload\n      swap1\n      0x0100\n      exp\n      swap1\n      div\n      0xffffffffffffffffffffffffffffffffffffffff\n      and\n      dup2\n      jump\t// out\n        /* \"contracts/FundMe.sol\":494:531  uint256 public minimunUsd = 50 * 1e18 */\n    tag_33:\n      sload(0x00)\n      dup2\n      jump\t// out\n        /* \"#utility.yul\":7:84   */\n    tag_60:\n        /* \"#utility.yul\":44:51   */\n      0x00\n        /* \"#utility.yul\":73:78   */\n      dup2\n        /* \"#utility.yul\":62:78   */\n      swap1\n      pop\n        /* \"#utility.yul\":7:84   */\n      swap2\n      swap1\n      pop\n      jump\t// out\n        /* \"#utility.yul\":90:208   */\n    tag_61:\n        /* \"#utility.yul\":177:201   */\n      tag_85\n        /* \"#utility.yul\":195:200   */\n      dup2\n        /* \"#utility.yul\":177:201   */\n      tag_60\n      jump\t// in\n    tag_85:\n        /* \"#utility.yul\":172:175   */\n      dup3\n        /* \"#utility.yul\":165:202   */\n      mstore\n        /* \"#utility.yul\":90:208   */\n      pop\n      pop\n      jump\t// out\n        /* \"#utility.yul\":214:436   */\n    tag_12:\n        /* \"#utility.yul\":307:311   */\n      0x00\n        /* \"#utility.yul\":345:347   */\n      0x20\n        /* \"#utility.yul\":334:343   */\n      dup3\n        /* \"#utility.yul\":330:348   */\n      add\n        /* \"#utility.yul\":322:348   */\n      swap1\n      pop\n        /* \"#utility.yul\":358:429   */\n      tag_87\n        /* \"#utility.yul\":426:427   */\n      0x00\n        /* \"#utility.yul\":415:424   */\n      dup4\n        /* \"#utility.yul\":411:428   */\n      add\n        /* \"#utility.yul\":402:408   */\n      dup5\n        /* \"#utility.yul\":358:429   */\n      tag_61\n      jump\t// in\n    tag_87:\n        /* \"#utility.yul\":214:436   */\n      swap3\n      swap2\n      pop\n      pop\n      jump\t// out\n        /* \"#utility.yul\":523:640   */\n    tag_63:\n        /* \"#utility.yul\":632:633   */\n      0x00\n        /* \"#utility.yul\":629:630   */\n      dup1\n        /* \"#utility.yul\":622:634   */\n      revert\n        /* \"#utility.yul\":769:891   */\n    tag_65:\n        /* \"#utility.yul\":842:866   */\n      tag_92\n        /* \"#utility.yul\":860:865   */\n      dup2\n        /* \"#utility.yul\":842:866   */\n      tag_60\n      jump\t// in\n    tag_92:\n        /* \"#utility.yul\":835:840   */\n      dup2\n        /* \"#utility.yul\":832:867   */\n      eq\n        /* \"#utility.yul\":822:885   */\n      tag_93\n      jumpi\n        /* \"#utility.yul\":881:882   */\n      0x00\n        /* \"#utility.yul\":878:879   */\n      dup1\n        /* \"#utility.yul\":871:883   */\n      revert\n        /* \"#utility.yul\":822:885   */\n    tag_93:\n        /* \"#utility.yul\":769:891   */\n      pop\n      jump\t// out\n        /* \"#utility.yul\":897:1036   */\n    tag_66:\n        /* \"#utility.yul\":943:948   */\n      0x00\n        /* \"#utility.yul\":981:987   */\n      dup2\n        /* \"#utility.yul\":968:988   */\n      calldataload\n        /* \"#utility.yul\":959:988   */\n      swap1\n      pop\n        /* \"#utility.yul\":997:1030   */\n      tag_95\n        /* \"#utility.yul\":1024:1029   */\n      dup2\n        /* \"#utility.yul\":997:1030   */\n      tag_65\n      jump\t// in\n    tag_95:\n        /* \"#utility.yul\":897:1036   */\n      swap3\n      swap2\n      pop\n      pop\n      jump\t// out\n        /* \"#utility.yul\":1042:1371   */\n    tag_16:\n        /* \"#utility.yul\":1101:1107   */\n      0x00\n        /* \"#utility.yul\":1150:1152   */\n      0x20\n        /* \"#utility.yul\":1138:1147   */\n      dup3\n        /* \"#utility.yul\":1129:1136   */\n      dup5\n        /* \"#utility.yul\":1125:1148   */\n      sub\n        /* \"#utility.yul\":1121:1153   */\n      slt\n        /* \"#utility.yul\":1118:1237   */\n      iszero\n      tag_97\n      jumpi\n        /* \"#utility.yul\":1156:1235   */\n      tag_98\n      tag_63\n      jump\t// in\n    tag_98:\n        /* \"#utility.yul\":1118:1237   */\n    tag_97:\n        /* \"#utility.yul\":1276:1277   */\n      0x00\n        /* \"#utility.yul\":1301:1354   */\n      tag_99\n        /* \"#utility.yul\":1346:1353   */\n      dup5\n        /* \"#utility.yul\":1337:1343   */\n      dup3\n        /* \"#utility.yul\":1326:1335   */\n      dup6\n        /* \"#utility.yul\":1322:1344   */\n      add\n        /* \"#utility.yul\":1301:1354   */\n      tag_66\n      jump\t// in\n    tag_99:\n        /* \"#utility.yul\":1291:1354   */\n      swap2\n      pop\n        /* \"#utility.yul\":1247:1364   */\n      pop\n        /* \"#utility.yul\":1042:1371   */\n      swap3\n      swap2\n      pop\n      pop\n      jump\t// out\n        /* \"#utility.yul\":1377:1503   */\n    tag_67:\n        /* \"#utility.yul\":1414:1421   */\n      0x00\n        /* \"#utility.yul\":1454:1496   */\n      0xffffffffffffffffffffffffffffffffffffffff\n        /* \"#utility.yul\":1447:1452   */\n      dup3\n        /* \"#utility.yul\":1443:1497   */\n      and\n        /* \"#utility.yul\":1432:1497   */\n      swap1\n      pop\n        /* \"#utility.yul\":1377:1503   */\n      swap2\n      swap1\n      pop\n      jump\t// out\n        /* \"#utility.yul\":1509:1605   */\n    tag_68:\n        /* \"#utility.yul\":1546:1553   */\n      0x00\n        /* \"#utility.yul\":1575:1599   */\n      tag_102\n        /* \"#utility.yul\":1593:1598   */\n      dup3\n        /* \"#utility.yul\":1575:1599   */\n      tag_67\n      jump\t// in\n    tag_102:\n        /* \"#utility.yul\":1564:1599   */\n      swap1\n      pop\n        /* \"#utility.yul\":1509:1605   */\n      swap2\n      swap1\n      pop\n      jump\t// out\n        /* \"#utility.yul\":1611:1729   */\n    tag_69:\n        /* \"#utility.yul\":1698:1722   */\n      tag_104\n        /* \"#utility.yul\":1716:1721   */\n      dup2\n        /* \"#utility.yul\":1698:1722   */\n      tag_68\n      jump\t// in\n    tag_104:\n        /* \"#utility.yul\":1693:1696   */\n      dup3\n        /* \"#utility.yul\":1686:1723   */\n      mstore\n        /* \"#utility.yul\":1611:1729   */\n      pop\n      pop\n      jump\t// out\n        /* \"#utility.yul\":1735:1957   */\n    tag_30:\n        /* \"#utility.yul\":1828:1832   */\n      0x00\n        /* \"#utility.yul\":1866:1868   */\n      0x20\n        /* \"#utility.yul\":1855:1864   */\n      dup3\n        /* \"#utility.yul\":1851:1869   */\n      add\n        /* \"#utility.yul\":1843:1869   */\n      swap1\n      pop\n        /* \"#utility.yul\":1879:1950   */\n      tag_106\n        /* \"#utility.yul\":1947:1948   */\n      0x00\n        /* \"#utility.yul\":1936:1945   */\n      dup4\n        /* \"#utility.yul\":1932:1949   */\n      add\n        /* \"#utility.yul\":1923:1929   */\n      dup5\n        /* \"#utility.yul\":1879:1950   */\n      tag_69\n      jump\t// in\n    tag_106:\n        /* \"#utility.yul\":1735:1957   */\n      swap3\n      swap2\n      pop\n      pop\n      jump\t// out\n        /* \"#utility.yul\":1963:2106   */\n    tag_70:\n        /* \"#utility.yul\":2020:2025   */\n      0x00\n        /* \"#utility.yul\":2051:2057   */\n      dup2\n        /* \"#utility.yul\":2045:2058   */\n      mload\n        /* \"#utility.yul\":2036:2058   */\n      swap1\n      pop\n        /* \"#utility.yul\":2067:2100   */\n      tag_108\n        /* \"#utility.yul\":2094:2099   */\n      dup2\n        /* \"#utility.yul\":2067:2100   */\n      tag_65\n      jump\t// in\n    tag_108:\n        /* \"#utility.yul\":1963:2106   */\n      swap3\n      swap2\n      pop\n      pop\n      jump\t// out\n        /* \"#utility.yul\":2112:2463   */\n    tag_39:\n        /* \"#utility.yul\":2182:2188   */\n      0x00\n        /* \"#utility.yul\":2231:2233   */\n      0x20\n        /* \"#utility.yul\":2219:2228   */\n      dup3\n        /* \"#utility.yul\":2210:2217   */\n      dup5\n        /* \"#utility.yul\":2206:2229   */\n      sub\n        /* \"#utility.yul\":2202:2234   */\n      slt\n        /* \"#utility.yul\":2199:2318   */\n      iszero\n      tag_110\n      jumpi\n        /* \"#utility.yul\":2237:2316   */\n      tag_111\n      tag_63\n      jump\t// in\n    tag_111:\n        /* \"#utility.yul\":2199:2318   */\n    tag_110:\n        /* \"#utility.yul\":2357:2358   */\n      0x00\n        /* \"#utility.yul\":2382:2446   */\n      tag_112\n        /* \"#utility.yul\":2438:2445   */\n      dup5\n        /* \"#utility.yul\":2429:2435   */\n      dup3\n        /* \"#utility.yul\":2418:2427   */\n      dup6\n        /* \"#utility.yul\":2414:2436   */\n      add\n        /* \"#utility.yul\":2382:2446   */\n      tag_70\n      jump\t// in\n    tag_112:\n        /* \"#utility.yul\":2372:2446   */\n      swap2\n      pop\n        /* \"#utility.yul\":2328:2456   */\n      pop\n        /* \"#utility.yul\":2112:2463   */\n      swap3\n      swap2\n      pop\n      pop\n      jump\t// out\n        /* \"#utility.yul\":2469:2649   */\n    tag_71:\n        /* \"#utility.yul\":2517:2594   */\n      0x4e487b7100000000000000000000000000000000000000000000000000000000\n        /* \"#utility.yul\":2514:2515   */\n      0x00\n        /* \"#utility.yul\":2507:2595   */\n      mstore\n        /* \"#utility.yul\":2614:2618   */\n      0x11\n        /* \"#utility.yul\":2611:2612   */\n      0x04\n        /* \"#utility.yul\":2604:2619   */\n      mstore\n        /* \"#utility.yul\":2638:2642   */\n      0x24\n        /* \"#utility.yul\":2635:2636   */\n      0x00\n        /* \"#utility.yul\":2628:2643   */\n      revert\n        /* \"#utility.yul\":2655:3065   */\n    tag_43:\n        /* \"#utility.yul\":2695:2702   */\n      0x00\n        /* \"#utility.yul\":2718:2738   */\n      tag_115\n        /* \"#utility.yul\":2736:2737   */\n      dup3\n        /* \"#utility.yul\":2718:2738   */\n      tag_60\n      jump\t// in\n    tag_115:\n        /* \"#utility.yul\":2713:2738   */\n      swap2\n      pop\n        /* \"#utility.yul\":2752:2772   */\n      tag_116\n        /* \"#utility.yul\":2770:2771   */\n      dup4\n        /* \"#utility.yul\":2752:2772   */\n      tag_60\n      jump\t// in\n    tag_116:\n        /* \"#utility.yul\":2747:2772   */\n      swap3\n      pop\n        /* \"#utility.yul\":2807:2808   */\n      dup3\n        /* \"#utility.yul\":2804:2805   */\n      dup3\n        /* \"#utility.yul\":2800:2809   */\n      mul\n        /* \"#utility.yul\":2829:2859   */\n      tag_117\n        /* \"#utility.yul\":2847:2858   */\n      dup2\n        /* \"#utility.yul\":2829:2859   */\n      tag_60\n      jump\t// in\n    tag_117:\n        /* \"#utility.yul\":2818:2859   */\n      swap2\n      pop\n        /* \"#utility.yul\":3008:3009   */\n      dup3\n        /* \"#utility.yul\":2999:3006   */\n      dup3\n        /* \"#utility.yul\":2995:3010   */\n      div\n        /* \"#utility.yul\":2992:2993   */\n      dup5\n        /* \"#utility.yul\":2989:3011   */\n      eq\n        /* \"#utility.yul\":2969:2970   */\n      dup4\n        /* \"#utility.yul\":2962:2971   */\n      iszero\n        /* \"#utility.yul\":2942:3025   */\n      or\n        /* \"#utility.yul\":2919:3058   */\n      tag_118\n      jumpi\n        /* \"#utility.yul\":3038:3056   */\n      tag_119\n      tag_71\n      jump\t// in\n    tag_119:\n        /* \"#utility.yul\":2919:3058   */\n    tag_118:\n        /* \"#utility.yul\":2703:3065   */\n      pop\n        /* \"#utility.yul\":2655:3065   */\n      swap3\n      swap2\n      pop\n      pop\n      jump\t// out\n        /* \"#utility.yul\":3071:3251   */\n    tag_72:\n        /* \"#utility.yul\":3119:3196   */\n      0x4e487b7100000000000000000000000000000000000000000000000000000000\n        /* \"#utility.yul\":3116:3117   */\n      0x00\n        /* \"#utility.yul\":3109:3197   */\n      mstore\n        /* \"#utility.yul\":3216:3220   */\n      0x12\n        /* \"#utility.yul\":3213:3214   */\n      0x04\n        /* \"#utility.yul\":3206:3221   */\n      mstore\n        /* \"#utility.yul\":3240:3244   */\n      0x24\n        /* \"#utility.yul\":3237:3238   */\n      0x00\n        /* \"#utility.yul\":3230:3245   */\n      revert\n        /* \"#utility.yul\":3257:3442   */\n    tag_45:\n        /* \"#utility.yul\":3297:3298   */\n      0x00\n        /* \"#utility.yul\":3314:3334   */\n      tag_122\n        /* \"#utility.yul\":3332:3333   */\n      dup3\n        /* \"#utility.yul\":3314:3334   */\n      tag_60\n      jump\t// in\n    tag_122:\n        /* \"#utility.yul\":3309:3334   */\n      swap2\n      pop\n        /* \"#utility.yul\":3348:3368   */\n      tag_123\n        /* \"#utility.yul\":3366:3367   */\n      dup4\n        /* \"#utility.yul\":3348:3368   */\n      tag_60\n      jump\t// in\n    tag_123:\n        /* \"#utility.yul\":3343:3368   */\n      swap3\n      pop\n        /* \"#utility.yul\":3387:3388   */\n      dup3\n        /* \"#utility.yul\":3377:3412   */\n      tag_124\n      jumpi\n        /* \"#utility.yul\":3392:3410   */\n      tag_125\n      tag_72\n      jump\t// in\n    tag_125:\n        /* \"#utility.yul\":3377:3412   */\n    tag_124:\n        /* \"#utility.yul\":3434:3435   */\n      dup3\n        /* \"#utility.yul\":3431:3432   */\n      dup3\n        /* \"#utility.yul\":3427:3436   */\n      div\n        /* \"#utility.yul\":3422:3436   */\n      swap1\n      pop\n        /* \"#utility.yul\":3257:3442   */\n      swap3\n      swap2\n      pop\n      pop\n      jump\t// out\n        /* \"#utility.yul\":3448:3553   */\n    tag_73:\n        /* \"#utility.yul\":3484:3491   */\n      0x00\n        /* \"#utility.yul\":3524:3546   */\n      0xffffffffffffffffffff\n        /* \"#utility.yul\":3517:3522   */\n      dup3\n        /* \"#utility.yul\":3513:3547   */\n      and\n        /* \"#utility.yul\":3502:3547   */\n      swap1\n      pop\n        /* \"#utility.yul\":3448:3553   */\n      swap2\n      swap1\n      pop\n      jump\t// out\n        /* \"#utility.yul\":3559:3679   */\n    tag_74:\n        /* \"#utility.yul\":3631:3654   */\n      tag_128\n        /* \"#utility.yul\":3648:3653   */\n      dup2\n        /* \"#utility.yul\":3631:3654   */\n      tag_73\n      jump\t// in\n    tag_128:\n        /* \"#utility.yul\":3624:3629   */\n      dup2\n        /* \"#utility.yul\":3621:3655   */\n      eq\n        /* \"#utility.yul\":3611:3673   */\n      tag_129\n      jumpi\n        /* \"#utility.yul\":3669:3670   */\n      0x00\n        /* \"#utility.yul\":3666:3667   */\n      dup1\n        /* \"#utility.yul\":3659:3671   */\n      revert\n        /* \"#utility.yul\":3611:3673   */\n    tag_129:\n        /* \"#utility.yul\":3559:3679   */\n      pop\n      jump\t// out\n        /* \"#utility.yul\":3685:3826   */\n    tag_75:\n        /* \"#utility.yul\":3741:3746   */\n      0x00\n        /* \"#utility.yul\":3772:3778   */\n      dup2\n        /* \"#utility.yul\":3766:3779   */\n      mload\n        /* \"#utility.yul\":3757:3779   */\n      swap1\n      pop\n        /* \"#utility.yul\":3788:3820   */\n      tag_131\n        /* \"#utility.yul\":3814:3819   */\n      dup2\n        /* \"#utility.yul\":3788:3820   */\n      tag_74\n      jump\t// in\n    tag_131:\n        /* \"#utility.yul\":3685:3826   */\n      swap3\n      swap2\n      pop\n      pop\n      jump\t// out\n        /* \"#utility.yul\":3832:3908   */\n    tag_76:\n        /* \"#utility.yul\":3868:3875   */\n      0x00\n        /* \"#utility.yul\":3897:3902   */\n      dup2\n        /* \"#utility.yul\":3886:3902   */\n      swap1\n      pop\n        /* \"#utility.yul\":3832:3908   */\n      swap2\n      swap1\n      pop\n      jump\t// out\n        /* \"#utility.yul\":3914:4034   */\n    tag_77:\n        /* \"#utility.yul\":3986:4009   */\n      tag_134\n        /* \"#utility.yul\":4003:4008   */\n      dup2\n        /* \"#utility.yul\":3986:4009   */\n      tag_76\n      jump\t// in\n    tag_134:\n        /* \"#utility.yul\":3979:3984   */\n      dup2\n        /* \"#utility.yul\":3976:4010   */\n      eq\n        /* \"#utility.yul\":3966:4028   */\n      tag_135\n      jumpi\n        /* \"#utility.yul\":4024:4025   */\n      0x00\n        /* \"#utility.yul\":4021:4022   */\n      dup1\n        /* \"#utility.yul\":4014:4026   */\n      revert\n        /* \"#utility.yul\":3966:4028   */\n    tag_135:\n        /* \"#utility.yul\":3914:4034   */\n      pop\n      jump\t// out\n        /* \"#utility.yul\":4040:4181   */\n    tag_78:\n        /* \"#utility.yul\":4096:4101   */\n      0x00\n        /* \"#utility.yul\":4127:4133   */\n      dup2\n        /* \"#utility.yul\":4121:4134   */\n      mload\n        /* \"#utility.yul\":4112:4134   */\n      swap1\n      pop\n        /* \"#utility.yul\":4143:4175   */\n      tag_137\n        /* \"#utility.yul\":4169:4174   */\n      dup2\n        /* \"#utility.yul\":4143:4175   */\n      tag_77\n      jump\t// in\n    tag_137:\n        /* \"#utility.yul\":4040:4181   */\n      swap3\n      swap2\n      pop\n      pop\n      jump\t// out\n        /* \"#utility.yul\":4187:5158   */\n    tag_50:\n        /* \"#utility.yul\":4290:4296   */\n      0x00\n        /* \"#utility.yul\":4298:4304   */\n      dup1\n        /* \"#utility.yul\":4306:4312   */\n      0x00\n        /* \"#utility.yul\":4314:4320   */\n      dup1\n        /* \"#utility.yul\":4322:4328   */\n      0x00\n        /* \"#utility.yul\":4371:4374   */\n      0xa0\n        /* \"#utility.yul\":4359:4368   */\n      dup7\n        /* \"#utility.yul\":4350:4357   */\n      dup9\n        /* \"#utility.yul\":4346:4369   */\n      sub\n        /* \"#utility.yul\":4342:4375   */\n      slt\n        /* \"#utility.yul\":4339:4459   */\n      iszero\n      tag_139\n      jumpi\n        /* \"#utility.yul\":4378:4457   */\n      tag_140\n      tag_63\n      jump\t// in\n    tag_140:\n        /* \"#utility.yul\":4339:4459   */\n    tag_139:\n        /* \"#utility.yul\":4498:4499   */\n      0x00\n        /* \"#utility.yul\":4523:4586   */\n      tag_141\n        /* \"#utility.yul\":4578:4585   */\n      dup9\n        /* \"#utility.yul\":4569:4575   */\n      dup3\n        /* \"#utility.yul\":4558:4567   */\n      dup10\n        /* \"#utility.yul\":4554:4576   */\n      add\n        /* \"#utility.yul\":4523:4586   */\n      tag_75\n      jump\t// in\n    tag_141:\n        /* \"#utility.yul\":4513:4586   */\n      swap6\n      pop\n        /* \"#utility.yul\":4469:4596   */\n      pop\n        /* \"#utility.yul\":4635:4637   */\n      0x20\n        /* \"#utility.yul\":4661:4724   */\n      tag_142\n        /* \"#utility.yul\":4716:4723   */\n      dup9\n        /* \"#utility.yul\":4707:4713   */\n      dup3\n        /* \"#utility.yul\":4696:4705   */\n      dup10\n        /* \"#utility.yul\":4692:4714   */\n      add\n        /* \"#utility.yul\":4661:4724   */\n      tag_78\n      jump\t// in\n    tag_142:\n        /* \"#utility.yul\":4651:4724   */\n      swap5\n      pop\n        /* \"#utility.yul\":4606:4734   */\n      pop\n        /* \"#utility.yul\":4773:4775   */\n      0x40\n        /* \"#utility.yul\":4799:4863   */\n      tag_143\n        /* \"#utility.yul\":4855:4862   */\n      dup9\n        /* \"#utility.yul\":4846:4852   */\n      dup3\n        /* \"#utility.yul\":4835:4844   */\n      dup10\n        /* \"#utility.yul\":4831:4853   */\n      add\n        /* \"#utility.yul\":4799:4863   */\n      tag_70\n      jump\t// in\n    tag_143:\n        /* \"#utility.yul\":4789:4863   */\n      swap4\n      pop\n        /* \"#utility.yul\":4744:4873   */\n      pop\n        /* \"#utility.yul\":4912:4914   */\n      0x60\n        /* \"#utility.yul\":4938:5002   */\n      tag_144\n        /* \"#utility.yul\":4994:5001   */\n      dup9\n        /* \"#utility.yul\":4985:4991   */\n      dup3\n        /* \"#utility.yul\":4974:4983   */\n      dup10\n        /* \"#utility.yul\":4970:4992   */\n      add\n        /* \"#utility.yul\":4938:5002   */\n      tag_70\n      jump\t// in\n    tag_144:\n        /* \"#utility.yul\":4928:5002   */\n      swap3\n      pop\n        /* \"#utility.yul\":4883:5012   */\n      pop\n        /* \"#utility.yul\":5051:5054   */\n      0x80\n        /* \"#utility.yul\":5078:5141   */\n      tag_145\n        /* \"#utility.yul\":5133:5140   */\n      dup9\n        /* \"#utility.yul\":5124:5130   */\n      dup3\n        /* \"#utility.yul\":5113:5122   */\n      dup10\n        /* \"#utility.yul\":5109:5131   */\n      add\n        /* \"#utility.yul\":5078:5141   */\n      tag_75\n      jump\t// in\n    tag_145:\n        /* \"#utility.yul\":5068:5141   */\n      swap2\n      pop\n        /* \"#utility.yul\":5022:5151   */\n      pop\n        /* \"#utility.yul\":4187:5158   */\n      swap3\n      swap6\n      pop\n      swap3\n      swap6\n      swap1\n      swap4\n      pop\n      jump\t// out\n        /* \"#utility.yul\":5164:5720   */\n    tag_52:\n        /* \"#utility.yul\":5203:5210   */\n      0x00\n        /* \"#utility.yul\":5226:5245   */\n      tag_147\n        /* \"#utility.yul\":5243:5244   */\n      dup3\n        /* \"#utility.yul\":5226:5245   */\n      tag_76\n      jump\t// in\n    tag_147:\n        /* \"#utility.yul\":5221:5245   */\n      swap2\n      pop\n        /* \"#utility.yul\":5259:5278   */\n      tag_148\n        /* \"#utility.yul\":5276:5277   */\n      dup4\n        /* \"#utility.yul\":5259:5278   */\n      tag_76\n      jump\t// in\n    tag_148:\n        /* \"#utility.yul\":5254:5278   */\n      swap3\n      pop\n        /* \"#utility.yul\":5313:5314   */\n      dup3\n        /* \"#utility.yul\":5310:5311   */\n      dup3\n        /* \"#utility.yul\":5306:5315   */\n      mul\n        /* \"#utility.yul\":5335:5364   */\n      tag_149\n        /* \"#utility.yul\":5352:5363   */\n      dup2\n        /* \"#utility.yul\":5335:5364   */\n      tag_76\n      jump\t// in\n    tag_149:\n        /* \"#utility.yul\":5324:5364   */\n      swap2\n      pop\n        /* \"#utility.yul\":5422:5488   */\n      0x8000000000000000000000000000000000000000000000000000000000000000\n        /* \"#utility.yul\":5419:5420   */\n      dup5\n        /* \"#utility.yul\":5416:5489   */\n      eq\n        /* \"#utility.yul\":5412:5413   */\n      0x00\n        /* \"#utility.yul\":5409:5410   */\n      dup5\n        /* \"#utility.yul\":5405:5414   */\n      slt\n        /* \"#utility.yul\":5401:5490   */\n      and\n        /* \"#utility.yul\":5398:5513   */\n      iszero\n      tag_150\n      jumpi\n        /* \"#utility.yul\":5493:5511   */\n      tag_151\n      tag_71\n      jump\t// in\n    tag_151:\n        /* \"#utility.yul\":5398:5513   */\n    tag_150:\n        /* \"#utility.yul\":5663:5664   */\n      dup3\n        /* \"#utility.yul\":5654:5661   */\n      dup3\n        /* \"#utility.yul\":5649:5665   */\n      sdiv\n        /* \"#utility.yul\":5646:5647   */\n      dup5\n        /* \"#utility.yul\":5643:5666   */\n      eq\n        /* \"#utility.yul\":5623:5624   */\n      dup4\n        /* \"#utility.yul\":5616:5625   */\n      iszero\n        /* \"#utility.yul\":5596:5680   */\n      or\n        /* \"#utility.yul\":5573:5713   */\n      tag_152\n      jumpi\n        /* \"#utility.yul\":5693:5711   */\n      tag_153\n      tag_71\n      jump\t// in\n    tag_153:\n        /* \"#utility.yul\":5573:5713   */\n    tag_152:\n        /* \"#utility.yul\":5211:5720   */\n      pop\n        /* \"#utility.yul\":5164:5720   */\n      swap3\n      swap2\n      pop\n      pop\n      jump\t// out\n        /* \"#utility.yul\":5726:5895   */\n    tag_79:\n        /* \"#utility.yul\":5810:5821   */\n      0x00\n        /* \"#utility.yul\":5844:5850   */\n      dup3\n        /* \"#utility.yul\":5839:5842   */\n      dup3\n        /* \"#utility.yul\":5832:5851   */\n      mstore\n        /* \"#utility.yul\":5884:5888   */\n      0x20\n        /* \"#utility.yul\":5879:5882   */\n      dup3\n        /* \"#utility.yul\":5875:5889   */\n      add\n        /* \"#utility.yul\":5860:5889   */\n      swap1\n      pop\n        /* \"#utility.yul\":5726:5895   */\n      swap3\n      swap2\n      pop\n      pop\n      jump\t// out\n        /* \"#utility.yul\":5901:6069   */\n    tag_80:\n        /* \"#utility.yul\":6041:6061   */\n      0x53616c646f20696e737566696369656e74650000000000000000000000000000\n        /* \"#utility.yul\":6037:6038   */\n      0x00\n        /* \"#utility.yul\":6029:6035   */\n      dup3\n        /* \"#utility.yul\":6025:6039   */\n      add\n        /* \"#utility.yul\":6018:6062   */\n      mstore\n        /* \"#utility.yul\":5901:6069   */\n      pop\n      jump\t// out\n        /* \"#utility.yul\":6075:6441   */\n    tag_81:\n        /* \"#utility.yul\":6217:6220   */\n      0x00\n        /* \"#utility.yul\":6238:6305   */\n      tag_157\n        /* \"#utility.yul\":6302:6304   */\n      0x12\n        /* \"#utility.yul\":6297:6300   */\n      dup4\n        /* \"#utility.yul\":6238:6305   */\n      tag_79\n      jump\t// in\n    tag_157:\n        /* \"#utility.yul\":6231:6305   */\n      swap2\n      pop\n        /* \"#utility.yul\":6314:6407   */\n      tag_158\n        /* \"#utility.yul\":6403:6406   */\n      dup3\n        /* \"#utility.yul\":6314:6407   */\n      tag_80\n      jump\t// in\n    tag_158:\n        /* \"#utility.yul\":6432:6434   */\n      0x20\n        /* \"#utility.yul\":6427:6430   */\n      dup3\n        /* \"#utility.yul\":6423:6435   */\n      add\n        /* \"#utility.yul\":6416:6435   */\n      swap1\n      pop\n        /* \"#utility.yul\":6075:6441   */\n      swap2\n      swap1\n      pop\n      jump\t// out\n        /* \"#utility.yul\":6447:6866   */\n    tag_57:\n        /* \"#utility.yul\":6613:6617   */\n      0x00\n        /* \"#utility.yul\":6651:6653   */\n      0x20\n        /* \"#utility.yul\":6640:6649   */\n      dup3\n        /* \"#utility.yul\":6636:6654   */\n      add\n        /* \"#utility.yul\":6628:6654   */\n      swap1\n      pop\n        /* \"#utility.yul\":6700:6709   */\n      dup2\n        /* \"#utility.yul\":6694:6698   */\n      dup2\n        /* \"#utility.yul\":6690:6710   */\n      sub\n        /* \"#utility.yul\":6686:6687   */\n      0x00\n        /* \"#utility.yul\":6675:6684   */\n      dup4\n        /* \"#utility.yul\":6671:6688   */\n      add\n        /* \"#utility.yul\":6664:6711   */\n      mstore\n        /* \"#utility.yul\":6728:6859   */\n      tag_160\n        /* \"#utility.yul\":6854:6858   */\n      dup2\n        /* \"#utility.yul\":6728:6859   */\n      tag_81\n      jump\t// in\n    tag_160:\n        /* \"#utility.yul\":6720:6859   */\n      swap1\n      pop\n        /* \"#utility.yul\":6447:6866   */\n      swap2\n      swap1\n      pop\n      jump\t// out\n\n    auxdata: 0xa2646970667358221220731a96914db46040105a34d16b7aa164c2601d1fd48fab2a0df17cd9cd9ec05b64736f6c63430008110033\n}\n",
				"bytecode": {
					"linkReferences": {},
					"object": "60806040526802b5e3af16b188000060005534801561001d57600080fd5b506107848061002d6000396000f3fe6080604052600436106100555760003560e01c80630d8e6e2c1461005a5780636e5b6b281461008557806398d5fdca146100c2578063b60d4288146100ed578063dc0d3dff146100f7578063e5e18b1a14610134575b600080fd5b34801561006657600080fd5b5061006f61015f565b60405161007c919061037e565b60405180910390f35b34801561009157600080fd5b506100ac60048036038101906100a791906103ca565b6101ee565b6040516100b9919061037e565b60405180910390f35b3480156100ce57600080fd5b506100d7610228565b6040516100e4919061037e565b60405180910390f35b6100f56102d1565b005b34801561010357600080fd5b5061011e600480360381019061011991906103ca565b610320565b60405161012b9190610438565b60405180910390f35b34801561014057600080fd5b5061014961035f565b604051610156919061037e565b60405180910390f35b60008073d4a33860578de61dbabdc8bfdb98fd742fa7028e90508073ffffffffffffffffffffffffffffffffffffffff166354fd4d506040518163ffffffff1660e01b8152600401602060405180830381865afa1580156101c4573d6000803e3d6000fd5b505050506040513d601f19601f820116820180604052508101906101e89190610468565b91505090565b6000806101f9610228565b90506000670de0b6b3a7640000848361021291906104c4565b61021c9190610535565b90508092505050919050565b60008073d4a33860578de61dbabdc8bfdb98fd742fa7028e905060008173ffffffffffffffffffffffffffffffffffffffff1663feaf968c6040518163ffffffff1660e01b815260040160a060405180830381865afa15801561028f573d6000803e3d6000fd5b505050506040513d601f19601f820116820180604052508101906102b391906105de565b5050509150506402540be400816102ca9190610659565b9250505090565b6000546102dd346101ee565b101561031e576040517f08c379a00000000000000000000000000000000000000000000000000000000081526004016103159061072e565b60405180910390fd5b565b6001818154811061033057600080fd5b906000526020600020016000915054906101000a900473ffffffffffffffffffffffffffffffffffffffff1681565b60005481565b6000819050919050565b61037881610365565b82525050565b6000602082019050610393600083018461036f565b92915050565b600080fd5b6103a781610365565b81146103b257600080fd5b50565b6000813590506103c48161039e565b92915050565b6000602082840312156103e0576103df610399565b5b60006103ee848285016103b5565b91505092915050565b600073ffffffffffffffffffffffffffffffffffffffff82169050919050565b6000610422826103f7565b9050919050565b61043281610417565b82525050565b600060208201905061044d6000830184610429565b92915050565b6000815190506104628161039e565b92915050565b60006020828403121561047e5761047d610399565b5b600061048c84828501610453565b91505092915050565b7f4e487b7100000000000000000000000000000000000000000000000000000000600052601160045260246000fd5b60006104cf82610365565b91506104da83610365565b92508282026104e881610365565b915082820484148315176104ff576104fe610495565b5b5092915050565b7f4e487b7100000000000000000000000000000000000000000000000000000000600052601260045260246000fd5b600061054082610365565b915061054b83610365565b92508261055b5761055a610506565b5b828204905092915050565b600069ffffffffffffffffffff82169050919050565b61058581610566565b811461059057600080fd5b50565b6000815190506105a28161057c565b92915050565b6000819050919050565b6105bb816105a8565b81146105c657600080fd5b50565b6000815190506105d8816105b2565b92915050565b600080600080600060a086880312156105fa576105f9610399565b5b600061060888828901610593565b9550506020610619888289016105c9565b945050604061062a88828901610453565b935050606061063b88828901610453565b925050608061064c88828901610593565b9150509295509295909350565b6000610664826105a8565b915061066f836105a8565b925082820261067d816105a8565b91507f800000000000000000000000000000000000000000000000000000000000000084146000841216156106b5576106b4610495565b5b82820584148315176106ca576106c9610495565b5b5092915050565b600082825260208201905092915050565b7f53616c646f20696e737566696369656e74650000000000000000000000000000600082015250565b60006107186012836106d1565b9150610723826106e2565b602082019050919050565b600060208201905081810360008301526107478161070b565b905091905056fea2646970667358221220731a96914db46040105a34d16b7aa164c2601d1fd48fab2a0df17cd9cd9ec05b64736f6c63430008110033",
					"opcodes": "PUSH1 0x80 PUSH1 0x40 MSTORE PUSH9 0x2B5E3AF16B1880000 PUSH1 0x0 SSTORE CALLVALUE DUP1 ISZERO PUSH2 0x1D JUMPI PUSH1 0x0 DUP1 REVERT JUMPDEST POP PUSH2 0x784 DUP1 PUSH2 0x2D PUSH1 0x0 CODECOPY PUSH1 0x0 RETURN INVALID PUSH1 0x80 PUSH1 0x40 MSTORE PUSH1 0x4 CALLDATASIZE LT PUSH2 0x55 JUMPI PUSH1 0x0 CALLDATALOAD PUSH1 0xE0 SHR DUP1 PUSH4 0xD8E6E2C EQ PUSH2 0x5A JUMPI DUP1 PUSH4 0x6E5B6B28 EQ PUSH2 0x85 JUMPI DUP1 PUSH4 0x98D5FDCA EQ PUSH2 0xC2 JUMPI DUP1 PUSH4 0xB60D4288 EQ PUSH2 0xED JUMPI DUP1 PUSH4 0xDC0D3DFF EQ PUSH2 0xF7 JUMPI DUP1 PUSH4 0xE5E18B1A EQ PUSH2 0x134 JUMPI JUMPDEST PUSH1 0x0 DUP1 REVERT JUMPDEST CALLVALUE DUP1 ISZERO PUSH2 0x66 JUMPI PUSH1 0x0 DUP1 REVERT JUMPDEST POP PUSH2 0x6F PUSH2 0x15F JUMP JUMPDEST PUSH1 0x40 MLOAD PUSH2 0x7C SWAP2 SWAP1 PUSH2 0x37E JUMP JUMPDEST PUSH1 0x40 MLOAD DUP1 SWAP2 SUB SWAP1 RETURN JUMPDEST CALLVALUE DUP1 ISZERO PUSH2 0x91 JUMPI PUSH1 0x0 DUP1 REVERT JUMPDEST POP PUSH2 0xAC PUSH1 0x4 DUP1 CALLDATASIZE SUB DUP2 ADD SWAP1 PUSH2 0xA7 SWAP2 SWAP1 PUSH2 0x3CA JUMP JUMPDEST PUSH2 0x1EE JUMP JUMPDEST PUSH1 0x40 MLOAD PUSH2 0xB9 SWAP2 SWAP1 PUSH2 0x37E JUMP JUMPDEST PUSH1 0x40 MLOAD DUP1 SWAP2 SUB SWAP1 RETURN JUMPDEST CALLVALUE DUP1 ISZERO PUSH2 0xCE JUMPI PUSH1 0x0 DUP1 REVERT JUMPDEST POP PUSH2 0xD7 PUSH2 0x228 JUMP JUMPDEST PUSH1 0x40 MLOAD PUSH2 0xE4 SWAP2 SWAP1 PUSH2 0x37E JUMP JUMPDEST PUSH1 0x40 MLOAD DUP1 SWAP2 SUB SWAP1 RETURN JUMPDEST PUSH2 0xF5 PUSH2 0x2D1 JUMP JUMPDEST STOP JUMPDEST CALLVALUE DUP1 ISZERO PUSH2 0x103 JUMPI PUSH1 0x0 DUP1 REVERT JUMPDEST POP PUSH2 0x11E PUSH1 0x4 DUP1 CALLDATASIZE SUB DUP2 ADD SWAP1 PUSH2 0x119 SWAP2 SWAP1 PUSH2 0x3CA JUMP JUMPDEST PUSH2 0x320 JUMP JUMPDEST PUSH1 0x40 MLOAD PUSH2 0x12B SWAP2 SWAP1 PUSH2 0x438 JUMP JUMPDEST PUSH1 0x40 MLOAD DUP1 SWAP2 SUB SWAP1 RETURN JUMPDEST CALLVALUE DUP1 ISZERO PUSH2 0x140 JUMPI PUSH1 0x0 DUP1 REVERT JUMPDEST POP PUSH2 0x149 PUSH2 0x35F JUMP JUMPDEST PUSH1 0x40 MLOAD PUSH2 0x156 SWAP2 SWAP1 PUSH2 0x37E JUMP JUMPDEST PUSH1 0x40 MLOAD DUP1 SWAP2 SUB SWAP1 RETURN JUMPDEST PUSH1 0x0 DUP1 PUSH20 0xD4A33860578DE61DBABDC8BFDB98FD742FA7028E SWAP1 POP DUP1 PUSH20 0xFFFFFFFFFFFFFFFFFFFFFFFFFFFFFFFFFFFFFFFF AND PUSH4 0x54FD4D50 PUSH1 0x40 MLOAD DUP2 PUSH4 0xFFFFFFFF AND PUSH1 0xE0 SHL DUP2 MSTORE PUSH1 0x4 ADD PUSH1 0x20 PUSH1 0x40 MLOAD DUP1 DUP4 SUB DUP2 DUP7 GAS STATICCALL ISZERO DUP1 ISZERO PUSH2 0x1C4 JUMPI RETURNDATASIZE PUSH1 0x0 DUP1 RETURNDATACOPY RETURNDATASIZE PUSH1 0x0 REVERT JUMPDEST POP POP POP POP PUSH1 0x40 MLOAD RETURNDATASIZE PUSH1 0x1F NOT PUSH1 0x1F DUP3 ADD AND DUP3 ADD DUP1 PUSH1 0x40 MSTORE POP DUP2 ADD SWAP1 PUSH2 0x1E8 SWAP2 SWAP1 PUSH2 0x468 JUMP JUMPDEST SWAP2 POP POP SWAP1 JUMP JUMPDEST PUSH1 0x0 DUP1 PUSH2 0x1F9 PUSH2 0x228 JUMP JUMPDEST SWAP1 POP PUSH1 0x0 PUSH8 0xDE0B6B3A7640000 DUP5 DUP4 PUSH2 0x212 SWAP2 SWAP1 PUSH2 0x4C4 JUMP JUMPDEST PUSH2 0x21C SWAP2 SWAP1 PUSH2 0x535 JUMP JUMPDEST SWAP1 POP DUP1 SWAP3 POP POP POP SWAP2 SWAP1 POP JUMP JUMPDEST PUSH1 0x0 DUP1 PUSH20 0xD4A33860578DE61DBABDC8BFDB98FD742FA7028E SWAP1 POP PUSH1 0x0 DUP2 PUSH20 0xFFFFFFFFFFFFFFFFFFFFFFFFFFFFFFFFFFFFFFFF AND PUSH4 0xFEAF968C PUSH1 0x40 MLOAD DUP2 PUSH4 0xFFFFFFFF AND PUSH1 0xE0 SHL DUP2 MSTORE PUSH1 0x4 ADD PUSH1 0xA0 PUSH1 0x40 MLOAD DUP1 DUP4 SUB DUP2 DUP7 GAS STATICCALL ISZERO DUP1 ISZERO PUSH2 0x28F JUMPI RETURNDATASIZE PUSH1 0x0 DUP1 RETURNDATACOPY RETURNDATASIZE PUSH1 0x0 REVERT JUMPDEST POP POP POP POP PUSH1 0x40 MLOAD RETURNDATASIZE PUSH1 0x1F NOT PUSH1 0x1F DUP3 ADD AND DUP3 ADD DUP1 PUSH1 0x40 MSTORE POP DUP2 ADD SWAP1 PUSH2 0x2B3 SWAP2 SWAP1 PUSH2 0x5DE JUMP JUMPDEST POP POP POP SWAP2 POP POP PUSH5 0x2540BE400 DUP2 PUSH2 0x2CA SWAP2 SWAP1 PUSH2 0x659 JUMP JUMPDEST SWAP3 POP POP POP SWAP1 JUMP JUMPDEST PUSH1 0x0 SLOAD PUSH2 0x2DD CALLVALUE PUSH2 0x1EE JUMP JUMPDEST LT ISZERO PUSH2 0x31E JUMPI PUSH1 0x40 MLOAD PUSH32 0x8C379A000000000000000000000000000000000000000000000000000000000 DUP2 MSTORE PUSH1 0x4 ADD PUSH2 0x315 SWAP1 PUSH2 0x72E JUMP JUMPDEST PUSH1 0x40 MLOAD DUP1 SWAP2 SUB SWAP1 REVERT JUMPDEST JUMP JUMPDEST PUSH1 0x1 DUP2 DUP2 SLOAD DUP2 LT PUSH2 0x330 JUMPI PUSH1 0x0 DUP1 REVERT JUMPDEST SWAP1 PUSH1 0x0 MSTORE PUSH1 0x20 PUSH1 0x0 KECCAK256 ADD PUSH1 0x0 SWAP2 POP SLOAD SWAP1 PUSH2 0x100 EXP SWAP1 DIV PUSH20 0xFFFFFFFFFFFFFFFFFFFFFFFFFFFFFFFFFFFFFFFF AND DUP2 JUMP JUMPDEST PUSH1 0x0 SLOAD DUP2 JUMP JUMPDEST PUSH1 0x0 DUP2 SWAP1 POP SWAP2 SWAP1 POP JUMP JUMPDEST PUSH2 0x378 DUP2 PUSH2 0x365 JUMP JUMPDEST DUP3 MSTORE POP POP JUMP JUMPDEST PUSH1 0x0 PUSH1 0x20 DUP3 ADD SWAP1 POP PUSH2 0x393 PUSH1 0x0 DUP4 ADD DUP5 PUSH2 0x36F JUMP JUMPDEST SWAP3 SWAP2 POP POP JUMP JUMPDEST PUSH1 0x0 DUP1 REVERT JUMPDEST PUSH2 0x3A7 DUP2 PUSH2 0x365 JUMP JUMPDEST DUP2 EQ PUSH2 0x3B2 JUMPI PUSH1 0x0 DUP1 REVERT JUMPDEST POP JUMP JUMPDEST PUSH1 0x0 DUP2 CALLDATALOAD SWAP1 POP PUSH2 0x3C4 DUP2 PUSH2 0x39E JUMP JUMPDEST SWAP3 SWAP2 POP POP JUMP JUMPDEST PUSH1 0x0 PUSH1 0x20 DUP3 DUP5 SUB SLT ISZERO PUSH2 0x3E0 JUMPI PUSH2 0x3DF PUSH2 0x399 JUMP JUMPDEST JUMPDEST PUSH1 0x0 PUSH2 0x3EE DUP5 DUP3 DUP6 ADD PUSH2 0x3B5 JUMP JUMPDEST SWAP2 POP POP SWAP3 SWAP2 POP POP JUMP JUMPDEST PUSH1 0x0 PUSH20 0xFFFFFFFFFFFFFFFFFFFFFFFFFFFFFFFFFFFFFFFF DUP3 AND SWAP1 POP SWAP2 SWAP1 POP JUMP JUMPDEST PUSH1 0x0 PUSH2 0x422 DUP3 PUSH2 0x3F7 JUMP JUMPDEST SWAP1 POP SWAP2 SWAP1 POP JUMP JUMPDEST PUSH2 0x432 DUP2 PUSH2 0x417 JUMP JUMPDEST DUP3 MSTORE POP POP JUMP JUMPDEST PUSH1 0x0 PUSH1 0x20 DUP3 ADD SWAP1 POP PUSH2 0x44D PUSH1 0x0 DUP4 ADD DUP5 PUSH2 0x429 JUMP JUMPDEST SWAP3 SWAP2 POP POP JUMP JUMPDEST PUSH1 0x0 DUP2 MLOAD SWAP1 POP PUSH2 0x462 DUP2 PUSH2 0x39E JUMP JUMPDEST SWAP3 SWAP2 POP POP JUMP JUMPDEST PUSH1 0x0 PUSH1 0x20 DUP3 DUP5 SUB SLT ISZERO PUSH2 0x47E JUMPI PUSH2 0x47D PUSH2 0x399 JUMP JUMPDEST JUMPDEST PUSH1 0x0 PUSH2 0x48C DUP5 DUP3 DUP6 ADD PUSH2 0x453 JUMP JUMPDEST SWAP2 POP POP SWAP3 SWAP2 POP POP JUMP JUMPDEST PUSH32 0x4E487B7100000000000000000000000000000000000000000000000000000000 PUSH1 0x0 MSTORE PUSH1 0x11 PUSH1 0x4 MSTORE PUSH1 0x24 PUSH1 0x0 REVERT JUMPDEST PUSH1 0x0 PUSH2 0x4CF DUP3 PUSH2 0x365 JUMP JUMPDEST SWAP2 POP PUSH2 0x4DA DUP4 PUSH2 0x365 JUMP JUMPDEST SWAP3 POP DUP3 DUP3 MUL PUSH2 0x4E8 DUP2 PUSH2 0x365 JUMP JUMPDEST SWAP2 POP DUP3 DUP3 DIV DUP5 EQ DUP4 ISZERO OR PUSH2 0x4FF JUMPI PUSH2 0x4FE PUSH2 0x495 JUMP JUMPDEST JUMPDEST POP SWAP3 SWAP2 POP POP JUMP JUMPDEST PUSH32 0x4E487B7100000000000000000000000000000000000000000000000000000000 PUSH1 0x0 MSTORE PUSH1 0x12 PUSH1 0x4 MSTORE PUSH1 0x24 PUSH1 0x0 REVERT JUMPDEST PUSH1 0x0 PUSH2 0x540 DUP3 PUSH2 0x365 JUMP JUMPDEST SWAP2 POP PUSH2 0x54B DUP4 PUSH2 0x365 JUMP JUMPDEST SWAP3 POP DUP3 PUSH2 0x55B JUMPI PUSH2 0x55A PUSH2 0x506 JUMP JUMPDEST JUMPDEST DUP3 DUP3 DIV SWAP1 POP SWAP3 SWAP2 POP POP JUMP JUMPDEST PUSH1 0x0 PUSH10 0xFFFFFFFFFFFFFFFFFFFF DUP3 AND SWAP1 POP SWAP2 SWAP1 POP JUMP JUMPDEST PUSH2 0x585 DUP2 PUSH2 0x566 JUMP JUMPDEST DUP2 EQ PUSH2 0x590 JUMPI PUSH1 0x0 DUP1 REVERT JUMPDEST POP JUMP JUMPDEST PUSH1 0x0 DUP2 MLOAD SWAP1 POP PUSH2 0x5A2 DUP2 PUSH2 0x57C JUMP JUMPDEST SWAP3 SWAP2 POP POP JUMP JUMPDEST PUSH1 0x0 DUP2 SWAP1 POP SWAP2 SWAP1 POP JUMP JUMPDEST PUSH2 0x5BB DUP2 PUSH2 0x5A8 JUMP JUMPDEST DUP2 EQ PUSH2 0x5C6 JUMPI PUSH1 0x0 DUP1 REVERT JUMPDEST POP JUMP JUMPDEST PUSH1 0x0 DUP2 MLOAD SWAP1 POP PUSH2 0x5D8 DUP2 PUSH2 0x5B2 JUMP JUMPDEST SWAP3 SWAP2 POP POP JUMP JUMPDEST PUSH1 0x0 DUP1 PUSH1 0x0 DUP1 PUSH1 0x0 PUSH1 0xA0 DUP7 DUP9 SUB SLT ISZERO PUSH2 0x5FA JUMPI PUSH2 0x5F9 PUSH2 0x399 JUMP JUMPDEST JUMPDEST PUSH1 0x0 PUSH2 0x608 DUP9 DUP3 DUP10 ADD PUSH2 0x593 JUMP JUMPDEST SWAP6 POP POP PUSH1 0x20 PUSH2 0x619 DUP9 DUP3 DUP10 ADD PUSH2 0x5C9 JUMP JUMPDEST SWAP5 POP POP PUSH1 0x40 PUSH2 0x62A DUP9 DUP3 DUP10 ADD PUSH2 0x453 JUMP JUMPDEST SWAP4 POP POP PUSH1 0x60 PUSH2 0x63B DUP9 DUP3 DUP10 ADD PUSH2 0x453 JUMP JUMPDEST SWAP3 POP POP PUSH1 0x80 PUSH2 0x64C DUP9 DUP3 DUP10 ADD PUSH2 0x593 JUMP JUMPDEST SWAP2 POP POP SWAP3 SWAP6 POP SWAP3 SWAP6 SWAP1 SWAP4 POP JUMP JUMPDEST PUSH1 0x0 PUSH2 0x664 DUP3 PUSH2 0x5A8 JUMP JUMPDEST SWAP2 POP PUSH2 0x66F DUP4 PUSH2 0x5A8 JUMP JUMPDEST SWAP3 POP DUP3 DUP3 MUL PUSH2 0x67D DUP2 PUSH2 0x5A8 JUMP JUMPDEST SWAP2 POP PUSH32 0x8000000000000000000000000000000000000000000000000000000000000000 DUP5 EQ PUSH1 0x0 DUP5 SLT AND ISZERO PUSH2 0x6B5 JUMPI PUSH2 0x6B4 PUSH2 0x495 JUMP JUMPDEST JUMPDEST DUP3 DUP3 SDIV DUP5 EQ DUP4 ISZERO OR PUSH2 0x6CA JUMPI PUSH2 0x6C9 PUSH2 0x495 JUMP JUMPDEST JUMPDEST POP SWAP3 SWAP2 POP POP JUMP JUMPDEST PUSH1 0x0 DUP3 DUP3 MSTORE PUSH1 0x20 DUP3 ADD SWAP1 POP SWAP3 SWAP2 POP POP JUMP JUMPDEST PUSH32 0x53616C646F20696E737566696369656E74650000000000000000000000000000 PUSH1 0x0 DUP3 ADD MSTORE POP JUMP JUMPDEST PUSH1 0x0 PUSH2 0x718 PUSH1 0x12 DUP4 PUSH2 0x6D1 JUMP JUMPDEST SWAP2 POP PUSH2 0x723 DUP3 PUSH2 0x6E2 JUMP JUMPDEST PUSH1 0x20 DUP3 ADD SWAP1 POP SWAP2 SWAP1 POP JUMP JUMPDEST PUSH1 0x0 PUSH1 0x20 DUP3 ADD SWAP1 POP DUP2 DUP2 SUB PUSH1 0x0 DUP4 ADD MSTORE PUSH2 0x747 DUP2 PUSH2 0x70B JUMP JUMPDEST SWAP1 POP SWAP2 SWAP1 POP JUMP INVALID LOG2 PUSH5 0x6970667358 0x22 SLT KECCAK256 PUSH20 0x1A96914DB46040105A34D16B7AA164C2601D1FD4 DUP16 0xAB 0x2A 0xD CALL PUSH29 0xD9CD9EC05B64736F6C6343000811003300000000000000000000000000 "
				},
				"gasEstimates": {
					"creation": {
						"codeDepositCost": "384800",
						"executionCost": "22530",
						"totalCost": "407330"
					},
					"external": {
						"fund()": "infinite",
						"funders(uint256)": "5022",
						"getConversionRate(uint256)": "infinite",
						"getPrice()": "infinite",
						"getVersion()": "infinite",
						"minimunUsd()": "2517"
					}
				},
				"methodIdentifiers": {
					"fund()": "b60d4288",
					"funders(uint256)": "dc0d3dff",
					"getConversionRate(uint256)": "6e5b6b28",
					"getPrice()": "98d5fdca",
					"getVersion()": "0d8e6e2c",
					"minimunUsd()": "e5e18b1a"
				}
			},
			"storageLayout": {
				"storage": [
					{
						"astId": 53,
						"contract": "contracts/FundMe.sol:Fundme",
						"label": "minimunUsd",
						"offset": 0,
						"slot": "0",
						"type": "t_uint256"
					},
					{
						"astId": 56,
						"contract": "contracts/FundMe.sol:Fundme",
						"label": "funders",
						"offset": 0,
						"slot": "1",
						"type": "t_array(t_address)dyn_storage"
					}
				],
				"types": {
					"t_address": {
						"encoding": "inplace",
						"label": "address",
						"numberOfBytes": "20"
					},
					"t_array(t_address)dyn_storage": {
						"base": "t_address",
						"encoding": "dynamic_array",
						"label": "address[]",
						"numberOfBytes": "32"
					},
					"t_uint256": {
						"encoding": "inplace",
						"label": "uint256",
						"numberOfBytes": "32"
					}
				}
			},
			"userdoc": {
				"kind": "user",
				"methods": {},
				"version": 1
			}
		}
	}
}