{
	"contracts/FundMe.sol": {
		"Fundme": {
			"abi": [
				{
					"inputs": [],
					"name": "fund",
					"outputs": [],
					"stateMutability": "payable",
					"type": "function"
				},
				{
					"inputs": [
						{
							"internalType": "uint256",
							"name": "ethAmount",
							"type": "uint256"
						}
					],
					"name": "getConversionRate",
					"outputs": [
						{
							"internalType": "uint256",
							"name": "",
							"type": "uint256"
						}
					],
					"stateMutability": "view",
					"type": "function"
				},
				{
					"inputs": [],
					"name": "getPrice",
					"outputs": [
						{
							"internalType": "uint256",
							"name": "",
							"type": "uint256"
						}
					],
					"stateMutability": "view",
					"type": "function"
				},
				{
					"inputs": [],
					"name": "getVersion",
					"outputs": [
						{
							"internalType": "uint256",
							"name": "",
							"type": "uint256"
						}
					],
					"stateMutability": "view",
					"type": "function"
				},
				{
					"inputs": [],
					"name": "minimunUsd",
					"outputs": [
						{
							"internalType": "uint256",
							"name": "",
							"type": "uint256"
						}
					],
					"stateMutability": "view",
					"type": "function"
				}
			],
			"devdoc": {
				"kind": "dev",
				"methods": {},
				"version": 1
			},
			"evm": {
				"assembly": "    /* \"contracts/FundMe.sol\":309:2866  contract Fundme{... */\n  mstore(0x40, 0x80)\n    /* \"contracts/FundMe.sol\":507:516  50 * 1e18 */\n  0x02b5e3af16b1880000\n    /* \"contracts/FundMe.sol\":479:516  uint256 public minimunUsd = 50 * 1e18 */\n  0x00\n  sstore\n    /* \"contracts/FundMe.sol\":309:2866  contract Fundme{... */\n  callvalue\n  dup1\n  iszero\n  tag_1\n  jumpi\n  0x00\n  dup1\n  revert\ntag_1:\n  pop\n  dataSize(sub_0)\n  dup1\n  dataOffset(sub_0)\n  0x00\n  codecopy\n  0x00\n  return\nstop\n\nsub_0: assembly {\n        /* \"contracts/FundMe.sol\":309:2866  contract Fundme{... */\n      mstore(0x40, 0x80)\n      jumpi(tag_1, lt(calldatasize, 0x04))\n      shr(0xe0, calldataload(0x00))\n      dup1\n      0x0d8e6e2c\n      eq\n      tag_2\n      jumpi\n      dup1\n      0x6e5b6b28\n      eq\n      tag_3\n      jumpi\n      dup1\n      0x98d5fdca\n      eq\n      tag_4\n      jumpi\n      dup1\n      0xb60d4288\n      eq\n      tag_5\n      jumpi\n      dup1\n      0xe5e18b1a\n      eq\n      tag_6\n      jumpi\n    tag_1:\n      0x00\n      dup1\n      revert\n        /* \"contracts/FundMe.sol\":2156:2383  function getVersion() public view returns (uint256){... */\n    tag_2:\n      callvalue\n      dup1\n      iszero\n      tag_7\n      jumpi\n      0x00\n      dup1\n      revert\n    tag_7:\n      pop\n      tag_8\n      tag_9\n      jump\t// in\n    tag_8:\n      mload(0x40)\n      tag_10\n      swap2\n      swap1\n      tag_11\n      jump\t// in\n    tag_10:\n      mload(0x40)\n      dup1\n      swap2\n      sub\n      swap1\n      return\n        /* \"contracts/FundMe.sol\":2395:2857  function getConversionRate(uint256 ethAmount)public view returns(uint256){... */\n    tag_3:\n      callvalue\n      dup1\n      iszero\n      tag_12\n      jumpi\n      0x00\n      dup1\n      revert\n    tag_12:\n      pop\n      tag_13\n      0x04\n      dup1\n      calldatasize\n      sub\n      dup2\n      add\n      swap1\n      tag_14\n      swap2\n      swap1\n      tag_15\n      jump\t// in\n    tag_14:\n      tag_16\n      jump\t// in\n    tag_13:\n      mload(0x40)\n      tag_17\n      swap2\n      swap1\n      tag_11\n      jump\t// in\n    tag_17:\n      mload(0x40)\n      dup1\n      swap2\n      sub\n      swap1\n      return\n        /* \"contracts/FundMe.sol\":940:2083  function getPrice() public view returns(uint256){... */\n    tag_4:\n      callvalue\n      dup1\n      iszero\n      tag_18\n      jumpi\n      0x00\n      dup1\n      revert\n    tag_18:\n      pop\n      tag_19\n      tag_20\n      jump\t// in\n    tag_19:\n      mload(0x40)\n      tag_21\n      swap2\n      swap1\n      tag_11\n      jump\t// in\n    tag_21:\n      mload(0x40)\n      dup1\n      swap2\n      sub\n      swap1\n      return\n        /* \"contracts/FundMe.sol\":637:926  function fund() public payable{... */\n    tag_5:\n      tag_22\n      tag_23\n      jump\t// in\n    tag_22:\n      stop\n        /* \"contracts/FundMe.sol\":479:516  uint256 public minimunUsd = 50 * 1e18 */\n    tag_6:\n      callvalue\n      dup1\n      iszero\n      tag_24\n      jumpi\n      0x00\n      dup1\n      revert\n    tag_24:\n      pop\n      tag_25\n      tag_26\n      jump\t// in\n    tag_25:\n      mload(0x40)\n      tag_27\n      swap2\n      swap1\n      tag_11\n      jump\t// in\n    tag_27:\n      mload(0x40)\n      dup1\n      swap2\n      sub\n      swap1\n      return\n        /* \"contracts/FundMe.sol\":2156:2383  function getVersion() public view returns (uint256){... */\n    tag_9:\n        /* \"contracts/FundMe.sol\":2199:2206  uint256 */\n      0x00\n        /* \"contracts/FundMe.sol\":2226:2257  AggregatorV3Interface priceFeed */\n      dup1\n        /* \"contracts/FundMe.sol\":2282:2324  0xD4a33860578De61DBAbDc8BFdb98FD742fA7028e */\n      0xd4a33860578de61dbabdc8bfdb98fd742fa7028e\n        /* \"contracts/FundMe.sol\":2226:2325  AggregatorV3Interface priceFeed = AggregatorV3Interface(0xD4a33860578De61DBAbDc8BFdb98FD742fA7028e) */\n      swap1\n      pop\n        /* \"contracts/FundMe.sol\":2351:2360  priceFeed */\n      dup1\n        /* \"contracts/FundMe.sol\":2351:2368  priceFeed.version */\n      0xffffffffffffffffffffffffffffffffffffffff\n      and\n      0x54fd4d50\n        /* \"contracts/FundMe.sol\":2351:2370  priceFeed.version() */\n      mload(0x40)\n      dup2\n      0xffffffff\n      and\n      0xe0\n      shl\n      dup2\n      mstore\n      0x04\n      add\n      0x20\n      mload(0x40)\n      dup1\n      dup4\n      sub\n      dup2\n      dup7\n      gas\n      staticcall\n      iszero\n      dup1\n      iszero\n      tag_30\n      jumpi\n      returndatasize\n      0x00\n      dup1\n      returndatacopy\n      revert(0x00, returndatasize)\n    tag_30:\n      pop\n      pop\n      pop\n      pop\n      mload(0x40)\n      returndatasize\n      not(0x1f)\n      0x1f\n      dup3\n      add\n      and\n      dup3\n      add\n      dup1\n      0x40\n      mstore\n      pop\n      dup2\n      add\n      swap1\n      tag_31\n      swap2\n      swap1\n      tag_32\n      jump\t// in\n    tag_31:\n        /* \"contracts/FundMe.sol\":2344:2370  return priceFeed.version() */\n      swap2\n      pop\n      pop\n        /* \"contracts/FundMe.sol\":2156:2383  function getVersion() public view returns (uint256){... */\n      swap1\n      jump\t// out\n        /* \"contracts/FundMe.sol\":2395:2857  function getConversionRate(uint256 ethAmount)public view returns(uint256){... */\n    tag_16:\n        /* \"contracts/FundMe.sol\":2460:2467  uint256 */\n      0x00\n        /* \"contracts/FundMe.sol\":2493:2509  uint256 ethPrice */\n      dup1\n        /* \"contracts/FundMe.sol\":2512:2522  getPrice() */\n      tag_34\n        /* \"contracts/FundMe.sol\":2512:2520  getPrice */\n      tag_20\n        /* \"contracts/FundMe.sol\":2512:2522  getPrice() */\n      jump\t// in\n    tag_34:\n        /* \"contracts/FundMe.sol\":2493:2522  uint256 ethPrice = getPrice() */\n      swap1\n      pop\n        /* \"contracts/FundMe.sol\":2679:2701  uint256 ethAmountInUsd */\n      0x00\n        /* \"contracts/FundMe.sol\":2729:2733  1e18 */\n      0x0de0b6b3a7640000\n        /* \"contracts/FundMe.sol\":2716:2725  ethAmount */\n      dup5\n        /* \"contracts/FundMe.sol\":2705:2713  ethPrice */\n      dup4\n        /* \"contracts/FundMe.sol\":2705:2725  ethPrice * ethAmount */\n      tag_35\n      swap2\n      swap1\n      tag_36\n      jump\t// in\n    tag_35:\n        /* \"contracts/FundMe.sol\":2704:2733  (ethPrice * ethAmount) / 1e18 */\n      tag_37\n      swap2\n      swap1\n      tag_38\n      jump\t// in\n    tag_37:\n        /* \"contracts/FundMe.sol\":2679:2733  uint256 ethAmountInUsd = (ethPrice * ethAmount) / 1e18 */\n      swap1\n      pop\n        /* \"contracts/FundMe.sol\":2825:2839  ethAmountInUsd */\n      dup1\n        /* \"contracts/FundMe.sol\":2818:2839  return ethAmountInUsd */\n      swap3\n      pop\n      pop\n      pop\n        /* \"contracts/FundMe.sol\":2395:2857  function getConversionRate(uint256 ethAmount)public view returns(uint256){... */\n      swap2\n      swap1\n      pop\n      jump\t// out\n        /* \"contracts/FundMe.sol\":940:2083  function getPrice() public view returns(uint256){... */\n    tag_20:\n        /* \"contracts/FundMe.sol\":980:987  uint256 */\n      0x00\n        /* \"contracts/FundMe.sol\":1322:1353  AggregatorV3Interface priceFeed */\n      dup1\n        /* \"contracts/FundMe.sol\":1378:1420  0xD4a33860578De61DBAbDc8BFdb98FD742fA7028e */\n      0xd4a33860578de61dbabdc8bfdb98fd742fa7028e\n        /* \"contracts/FundMe.sol\":1322:1421  AggregatorV3Interface priceFeed = AggregatorV3Interface(0xD4a33860578De61DBAbDc8BFdb98FD742fA7028e) */\n      swap1\n      pop\n        /* \"contracts/FundMe.sol\":1617:1629  int256 price */\n      0x00\n        /* \"contracts/FundMe.sol\":1636:1645  priceFeed */\n      dup2\n        /* \"contracts/FundMe.sol\":1636:1661  priceFeed.latestRoundData */\n      0xffffffffffffffffffffffffffffffffffffffff\n      and\n      0xfeaf968c\n        /* \"contracts/FundMe.sol\":1636:1663  priceFeed.latestRoundData() */\n      mload(0x40)\n      dup2\n      0xffffffff\n      and\n      0xe0\n      shl\n      dup2\n      mstore\n      0x04\n      add\n      0xa0\n      mload(0x40)\n      dup1\n      dup4\n      sub\n      dup2\n      dup7\n      gas\n      staticcall\n      iszero\n      dup1\n      iszero\n      tag_41\n      jumpi\n      returndatasize\n      0x00\n      dup1\n      returndatacopy\n      revert(0x00, returndatasize)\n    tag_41:\n      pop\n      pop\n      pop\n      pop\n      mload(0x40)\n      returndatasize\n      not(0x1f)\n      0x1f\n      dup3\n      add\n      and\n      dup3\n      add\n      dup1\n      0x40\n      mstore\n      pop\n      dup2\n      add\n      swap1\n      tag_42\n      swap2\n      swap1\n      tag_43\n      jump\t// in\n    tag_42:\n        /* \"contracts/FundMe.sol\":1615:1663  (,int256 price,,,) = priceFeed.latestRoundData() */\n      pop\n      pop\n      pop\n      swap2\n      pop\n      pop\n        /* \"contracts/FundMe.sol\":2034:2038  1e10 */\n      0x02540be400\n        /* \"contracts/FundMe.sol\":2026:2031  price */\n      dup2\n        /* \"contracts/FundMe.sol\":2026:2038  price * 1e10 */\n      tag_44\n      swap2\n      swap1\n      tag_45\n      jump\t// in\n    tag_44:\n        /* \"contracts/FundMe.sol\":2011:2039  return uint256(price * 1e10) */\n      swap3\n      pop\n      pop\n      pop\n        /* \"contracts/FundMe.sol\":940:2083  function getPrice() public view returns(uint256){... */\n      swap1\n      jump\t// out\n        /* \"contracts/FundMe.sol\":637:926  function fund() public payable{... */\n    tag_23:\n        /* \"contracts/FundMe.sol\":880:890  minimunUsd */\n      sload(0x00)\n        /* \"contracts/FundMe.sol\":848:876  getConversionRate(msg.value) */\n      tag_47\n        /* \"contracts/FundMe.sol\":866:875  msg.value */\n      callvalue\n        /* \"contracts/FundMe.sol\":848:865  getConversionRate */\n      tag_16\n        /* \"contracts/FundMe.sol\":848:876  getConversionRate(msg.value) */\n      jump\t// in\n    tag_47:\n        /* \"contracts/FundMe.sol\":848:890  getConversionRate(msg.value) >= minimunUsd */\n      lt\n      iszero\n        /* \"contracts/FundMe.sol\":840:912  require(getConversionRate(msg.value) >= minimunUsd, \"Saldo insufciente\") */\n      tag_48\n      jumpi\n      mload(0x40)\n      0x08c379a000000000000000000000000000000000000000000000000000000000\n      dup2\n      mstore\n      0x04\n      add\n      tag_49\n      swap1\n      tag_50\n      jump\t// in\n    tag_49:\n      mload(0x40)\n      dup1\n      swap2\n      sub\n      swap1\n      revert\n    tag_48:\n        /* \"contracts/FundMe.sol\":637:926  function fund() public payable{... */\n      jump\t// out\n        /* \"contracts/FundMe.sol\":479:516  uint256 public minimunUsd = 50 * 1e18 */\n    tag_26:\n      sload(0x00)\n      dup2\n      jump\t// out\n        /* \"#utility.yul\":7:84   */\n    tag_51:\n        /* \"#utility.yul\":44:51   */\n      0x00\n        /* \"#utility.yul\":73:78   */\n      dup2\n        /* \"#utility.yul\":62:78   */\n      swap1\n      pop\n        /* \"#utility.yul\":7:84   */\n      swap2\n      swap1\n      pop\n      jump\t// out\n        /* \"#utility.yul\":90:208   */\n    tag_52:\n        /* \"#utility.yul\":177:201   */\n      tag_73\n        /* \"#utility.yul\":195:200   */\n      dup2\n        /* \"#utility.yul\":177:201   */\n      tag_51\n      jump\t// in\n    tag_73:\n        /* \"#utility.yul\":172:175   */\n      dup3\n        /* \"#utility.yul\":165:202   */\n      mstore\n        /* \"#utility.yul\":90:208   */\n      pop\n      pop\n      jump\t// out\n        /* \"#utility.yul\":214:436   */\n    tag_11:\n        /* \"#utility.yul\":307:311   */\n      0x00\n        /* \"#utility.yul\":345:347   */\n      0x20\n        /* \"#utility.yul\":334:343   */\n      dup3\n        /* \"#utility.yul\":330:348   */\n      add\n        /* \"#utility.yul\":322:348   */\n      swap1\n      pop\n        /* \"#utility.yul\":358:429   */\n      tag_75\n        /* \"#utility.yul\":426:427   */\n      0x00\n        /* \"#utility.yul\":415:424   */\n      dup4\n        /* \"#utility.yul\":411:428   */\n      add\n        /* \"#utility.yul\":402:408   */\n      dup5\n        /* \"#utility.yul\":358:429   */\n      tag_52\n      jump\t// in\n    tag_75:\n        /* \"#utility.yul\":214:436   */\n      swap3\n      swap2\n      pop\n      pop\n      jump\t// out\n        /* \"#utility.yul\":523:640   */\n    tag_54:\n        /* \"#utility.yul\":632:633   */\n      0x00\n        /* \"#utility.yul\":629:630   */\n      dup1\n        /* \"#utility.yul\":622:634   */\n      revert\n        /* \"#utility.yul\":769:891   */\n    tag_56:\n        /* \"#utility.yul\":842:866   */\n      tag_80\n        /* \"#utility.yul\":860:865   */\n      dup2\n        /* \"#utility.yul\":842:866   */\n      tag_51\n      jump\t// in\n    tag_80:\n        /* \"#utility.yul\":835:840   */\n      dup2\n        /* \"#utility.yul\":832:867   */\n      eq\n        /* \"#utility.yul\":822:885   */\n      tag_81\n      jumpi\n        /* \"#utility.yul\":881:882   */\n      0x00\n        /* \"#utility.yul\":878:879   */\n      dup1\n        /* \"#utility.yul\":871:883   */\n      revert\n        /* \"#utility.yul\":822:885   */\n    tag_81:\n        /* \"#utility.yul\":769:891   */\n      pop\n      jump\t// out\n        /* \"#utility.yul\":897:1036   */\n    tag_57:\n        /* \"#utility.yul\":943:948   */\n      0x00\n        /* \"#utility.yul\":981:987   */\n      dup2\n        /* \"#utility.yul\":968:988   */\n      calldataload\n        /* \"#utility.yul\":959:988   */\n      swap1\n      pop\n        /* \"#utility.yul\":997:1030   */\n      tag_83\n        /* \"#utility.yul\":1024:1029   */\n      dup2\n        /* \"#utility.yul\":997:1030   */\n      tag_56\n      jump\t// in\n    tag_83:\n        /* \"#utility.yul\":897:1036   */\n      swap3\n      swap2\n      pop\n      pop\n      jump\t// out\n        /* \"#utility.yul\":1042:1371   */\n    tag_15:\n        /* \"#utility.yul\":1101:1107   */\n      0x00\n        /* \"#utility.yul\":1150:1152   */\n      0x20\n        /* \"#utility.yul\":1138:1147   */\n      dup3\n        /* \"#utility.yul\":1129:1136   */\n      dup5\n        /* \"#utility.yul\":1125:1148   */\n      sub\n        /* \"#utility.yul\":1121:1153   */\n      slt\n        /* \"#utility.yul\":1118:1237   */\n      iszero\n      tag_85\n      jumpi\n        /* \"#utility.yul\":1156:1235   */\n      tag_86\n      tag_54\n      jump\t// in\n    tag_86:\n        /* \"#utility.yul\":1118:1237   */\n    tag_85:\n        /* \"#utility.yul\":1276:1277   */\n      0x00\n        /* \"#utility.yul\":1301:1354   */\n      tag_87\n        /* \"#utility.yul\":1346:1353   */\n      dup5\n        /* \"#utility.yul\":1337:1343   */\n      dup3\n        /* \"#utility.yul\":1326:1335   */\n      dup6\n        /* \"#utility.yul\":1322:1344   */\n      add\n        /* \"#utility.yul\":1301:1354   */\n      tag_57\n      jump\t// in\n    tag_87:\n        /* \"#utility.yul\":1291:1354   */\n      swap2\n      pop\n        /* \"#utility.yul\":1247:1364   */\n      pop\n        /* \"#utility.yul\":1042:1371   */\n      swap3\n      swap2\n      pop\n      pop\n      jump\t// out\n        /* \"#utility.yul\":1377:1520   */\n    tag_58:\n        /* \"#utility.yul\":1434:1439   */\n      0x00\n        /* \"#utility.yul\":1465:1471   */\n      dup2\n        /* \"#utility.yul\":1459:1472   */\n      mload\n        /* \"#utility.yul\":1450:1472   */\n      swap1\n      pop\n        /* \"#utility.yul\":1481:1514   */\n      tag_89\n        /* \"#utility.yul\":1508:1513   */\n      dup2\n        /* \"#utility.yul\":1481:1514   */\n      tag_56\n      jump\t// in\n    tag_89:\n        /* \"#utility.yul\":1377:1520   */\n      swap3\n      swap2\n      pop\n      pop\n      jump\t// out\n        /* \"#utility.yul\":1526:1877   */\n    tag_32:\n        /* \"#utility.yul\":1596:1602   */\n      0x00\n        /* \"#utility.yul\":1645:1647   */\n      0x20\n        /* \"#utility.yul\":1633:1642   */\n      dup3\n        /* \"#utility.yul\":1624:1631   */\n      dup5\n        /* \"#utility.yul\":1620:1643   */\n      sub\n        /* \"#utility.yul\":1616:1648   */\n      slt\n        /* \"#utility.yul\":1613:1732   */\n      iszero\n      tag_91\n      jumpi\n        /* \"#utility.yul\":1651:1730   */\n      tag_92\n      tag_54\n      jump\t// in\n    tag_92:\n        /* \"#utility.yul\":1613:1732   */\n    tag_91:\n        /* \"#utility.yul\":1771:1772   */\n      0x00\n        /* \"#utility.yul\":1796:1860   */\n      tag_93\n        /* \"#utility.yul\":1852:1859   */\n      dup5\n        /* \"#utility.yul\":1843:1849   */\n      dup3\n        /* \"#utility.yul\":1832:1841   */\n      dup6\n        /* \"#utility.yul\":1828:1850   */\n      add\n        /* \"#utility.yul\":1796:1860   */\n      tag_58\n      jump\t// in\n    tag_93:\n        /* \"#utility.yul\":1786:1860   */\n      swap2\n      pop\n        /* \"#utility.yul\":1742:1870   */\n      pop\n        /* \"#utility.yul\":1526:1877   */\n      swap3\n      swap2\n      pop\n      pop\n      jump\t// out\n        /* \"#utility.yul\":1883:2063   */\n    tag_59:\n        /* \"#utility.yul\":1931:2008   */\n      0x4e487b7100000000000000000000000000000000000000000000000000000000\n        /* \"#utility.yul\":1928:1929   */\n      0x00\n        /* \"#utility.yul\":1921:2009   */\n      mstore\n        /* \"#utility.yul\":2028:2032   */\n      0x11\n        /* \"#utility.yul\":2025:2026   */\n      0x04\n        /* \"#utility.yul\":2018:2033   */\n      mstore\n        /* \"#utility.yul\":2052:2056   */\n      0x24\n        /* \"#utility.yul\":2049:2050   */\n      0x00\n        /* \"#utility.yul\":2042:2057   */\n      revert\n        /* \"#utility.yul\":2069:2479   */\n    tag_36:\n        /* \"#utility.yul\":2109:2116   */\n      0x00\n        /* \"#utility.yul\":2132:2152   */\n      tag_96\n        /* \"#utility.yul\":2150:2151   */\n      dup3\n        /* \"#utility.yul\":2132:2152   */\n      tag_51\n      jump\t// in\n    tag_96:\n        /* \"#utility.yul\":2127:2152   */\n      swap2\n      pop\n        /* \"#utility.yul\":2166:2186   */\n      tag_97\n        /* \"#utility.yul\":2184:2185   */\n      dup4\n        /* \"#utility.yul\":2166:2186   */\n      tag_51\n      jump\t// in\n    tag_97:\n        /* \"#utility.yul\":2161:2186   */\n      swap3\n      pop\n        /* \"#utility.yul\":2221:2222   */\n      dup3\n        /* \"#utility.yul\":2218:2219   */\n      dup3\n        /* \"#utility.yul\":2214:2223   */\n      mul\n        /* \"#utility.yul\":2243:2273   */\n      tag_98\n        /* \"#utility.yul\":2261:2272   */\n      dup2\n        /* \"#utility.yul\":2243:2273   */\n      tag_51\n      jump\t// in\n    tag_98:\n        /* \"#utility.yul\":2232:2273   */\n      swap2\n      pop\n        /* \"#utility.yul\":2422:2423   */\n      dup3\n        /* \"#utility.yul\":2413:2420   */\n      dup3\n        /* \"#utility.yul\":2409:2424   */\n      div\n        /* \"#utility.yul\":2406:2407   */\n      dup5\n        /* \"#utility.yul\":2403:2425   */\n      eq\n        /* \"#utility.yul\":2383:2384   */\n      dup4\n        /* \"#utility.yul\":2376:2385   */\n      iszero\n        /* \"#utility.yul\":2356:2439   */\n      or\n        /* \"#utility.yul\":2333:2472   */\n      tag_99\n      jumpi\n        /* \"#utility.yul\":2452:2470   */\n      tag_100\n      tag_59\n      jump\t// in\n    tag_100:\n        /* \"#utility.yul\":2333:2472   */\n    tag_99:\n        /* \"#utility.yul\":2117:2479   */\n      pop\n        /* \"#utility.yul\":2069:2479   */\n      swap3\n      swap2\n      pop\n      pop\n      jump\t// out\n        /* \"#utility.yul\":2485:2665   */\n    tag_60:\n        /* \"#utility.yul\":2533:2610   */\n      0x4e487b7100000000000000000000000000000000000000000000000000000000\n        /* \"#utility.yul\":2530:2531   */\n      0x00\n        /* \"#utility.yul\":2523:2611   */\n      mstore\n        /* \"#utility.yul\":2630:2634   */\n      0x12\n        /* \"#utility.yul\":2627:2628   */\n      0x04\n        /* \"#utility.yul\":2620:2635   */\n      mstore\n        /* \"#utility.yul\":2654:2658   */\n      0x24\n        /* \"#utility.yul\":2651:2652   */\n      0x00\n        /* \"#utility.yul\":2644:2659   */\n      revert\n        /* \"#utility.yul\":2671:2856   */\n    tag_38:\n        /* \"#utility.yul\":2711:2712   */\n      0x00\n        /* \"#utility.yul\":2728:2748   */\n      tag_103\n        /* \"#utility.yul\":2746:2747   */\n      dup3\n        /* \"#utility.yul\":2728:2748   */\n      tag_51\n      jump\t// in\n    tag_103:\n        /* \"#utility.yul\":2723:2748   */\n      swap2\n      pop\n        /* \"#utility.yul\":2762:2782   */\n      tag_104\n        /* \"#utility.yul\":2780:2781   */\n      dup4\n        /* \"#utility.yul\":2762:2782   */\n      tag_51\n      jump\t// in\n    tag_104:\n        /* \"#utility.yul\":2757:2782   */\n      swap3\n      pop\n        /* \"#utility.yul\":2801:2802   */\n      dup3\n        /* \"#utility.yul\":2791:2826   */\n      tag_105\n      jumpi\n        /* \"#utility.yul\":2806:2824   */\n      tag_106\n      tag_60\n      jump\t// in\n    tag_106:\n        /* \"#utility.yul\":2791:2826   */\n    tag_105:\n        /* \"#utility.yul\":2848:2849   */\n      dup3\n        /* \"#utility.yul\":2845:2846   */\n      dup3\n        /* \"#utility.yul\":2841:2850   */\n      div\n        /* \"#utility.yul\":2836:2850   */\n      swap1\n      pop\n        /* \"#utility.yul\":2671:2856   */\n      swap3\n      swap2\n      pop\n      pop\n      jump\t// out\n        /* \"#utility.yul\":2862:2967   */\n    tag_61:\n        /* \"#utility.yul\":2898:2905   */\n      0x00\n        /* \"#utility.yul\":2938:2960   */\n      0xffffffffffffffffffff\n        /* \"#utility.yul\":2931:2936   */\n      dup3\n        /* \"#utility.yul\":2927:2961   */\n      and\n        /* \"#utility.yul\":2916:2961   */\n      swap1\n      pop\n        /* \"#utility.yul\":2862:2967   */\n      swap2\n      swap1\n      pop\n      jump\t// out\n        /* \"#utility.yul\":2973:3093   */\n    tag_62:\n        /* \"#utility.yul\":3045:3068   */\n      tag_109\n        /* \"#utility.yul\":3062:3067   */\n      dup2\n        /* \"#utility.yul\":3045:3068   */\n      tag_61\n      jump\t// in\n    tag_109:\n        /* \"#utility.yul\":3038:3043   */\n      dup2\n        /* \"#utility.yul\":3035:3069   */\n      eq\n        /* \"#utility.yul\":3025:3087   */\n      tag_110\n      jumpi\n        /* \"#utility.yul\":3083:3084   */\n      0x00\n        /* \"#utility.yul\":3080:3081   */\n      dup1\n        /* \"#utility.yul\":3073:3085   */\n      revert\n        /* \"#utility.yul\":3025:3087   */\n    tag_110:\n        /* \"#utility.yul\":2973:3093   */\n      pop\n      jump\t// out\n        /* \"#utility.yul\":3099:3240   */\n    tag_63:\n        /* \"#utility.yul\":3155:3160   */\n      0x00\n        /* \"#utility.yul\":3186:3192   */\n      dup2\n        /* \"#utility.yul\":3180:3193   */\n      mload\n        /* \"#utility.yul\":3171:3193   */\n      swap1\n      pop\n        /* \"#utility.yul\":3202:3234   */\n      tag_112\n        /* \"#utility.yul\":3228:3233   */\n      dup2\n        /* \"#utility.yul\":3202:3234   */\n      tag_62\n      jump\t// in\n    tag_112:\n        /* \"#utility.yul\":3099:3240   */\n      swap3\n      swap2\n      pop\n      pop\n      jump\t// out\n        /* \"#utility.yul\":3246:3322   */\n    tag_64:\n        /* \"#utility.yul\":3282:3289   */\n      0x00\n        /* \"#utility.yul\":3311:3316   */\n      dup2\n        /* \"#utility.yul\":3300:3316   */\n      swap1\n      pop\n        /* \"#utility.yul\":3246:3322   */\n      swap2\n      swap1\n      pop\n      jump\t// out\n        /* \"#utility.yul\":3328:3448   */\n    tag_65:\n        /* \"#utility.yul\":3400:3423   */\n      tag_115\n        /* \"#utility.yul\":3417:3422   */\n      dup2\n        /* \"#utility.yul\":3400:3423   */\n      tag_64\n      jump\t// in\n    tag_115:\n        /* \"#utility.yul\":3393:3398   */\n      dup2\n        /* \"#utility.yul\":3390:3424   */\n      eq\n        /* \"#utility.yul\":3380:3442   */\n      tag_116\n      jumpi\n        /* \"#utility.yul\":3438:3439   */\n      0x00\n        /* \"#utility.yul\":3435:3436   */\n      dup1\n        /* \"#utility.yul\":3428:3440   */\n      revert\n        /* \"#utility.yul\":3380:3442   */\n    tag_116:\n        /* \"#utility.yul\":3328:3448   */\n      pop\n      jump\t// out\n        /* \"#utility.yul\":3454:3595   */\n    tag_66:\n        /* \"#utility.yul\":3510:3515   */\n      0x00\n        /* \"#utility.yul\":3541:3547   */\n      dup2\n        /* \"#utility.yul\":3535:3548   */\n      mload\n        /* \"#utility.yul\":3526:3548   */\n      swap1\n      pop\n        /* \"#utility.yul\":3557:3589   */\n      tag_118\n        /* \"#utility.yul\":3583:3588   */\n      dup2\n        /* \"#utility.yul\":3557:3589   */\n      tag_65\n      jump\t// in\n    tag_118:\n        /* \"#utility.yul\":3454:3595   */\n      swap3\n      swap2\n      pop\n      pop\n      jump\t// out\n        /* \"#utility.yul\":3601:4572   */\n    tag_43:\n        /* \"#utility.yul\":3704:3710   */\n      0x00\n        /* \"#utility.yul\":3712:3718   */\n      dup1\n        /* \"#utility.yul\":3720:3726   */\n      0x00\n        /* \"#utility.yul\":3728:3734   */\n      dup1\n        /* \"#utility.yul\":3736:3742   */\n      0x00\n        /* \"#utility.yul\":3785:3788   */\n      0xa0\n        /* \"#utility.yul\":3773:3782   */\n      dup7\n        /* \"#utility.yul\":3764:3771   */\n      dup9\n        /* \"#utility.yul\":3760:3783   */\n      sub\n        /* \"#utility.yul\":3756:3789   */\n      slt\n        /* \"#utility.yul\":3753:3873   */\n      iszero\n      tag_120\n      jumpi\n        /* \"#utility.yul\":3792:3871   */\n      tag_121\n      tag_54\n      jump\t// in\n    tag_121:\n        /* \"#utility.yul\":3753:3873   */\n    tag_120:\n        /* \"#utility.yul\":3912:3913   */\n      0x00\n        /* \"#utility.yul\":3937:4000   */\n      tag_122\n        /* \"#utility.yul\":3992:3999   */\n      dup9\n        /* \"#utility.yul\":3983:3989   */\n      dup3\n        /* \"#utility.yul\":3972:3981   */\n      dup10\n        /* \"#utility.yul\":3968:3990   */\n      add\n        /* \"#utility.yul\":3937:4000   */\n      tag_63\n      jump\t// in\n    tag_122:\n        /* \"#utility.yul\":3927:4000   */\n      swap6\n      pop\n        /* \"#utility.yul\":3883:4010   */\n      pop\n        /* \"#utility.yul\":4049:4051   */\n      0x20\n        /* \"#utility.yul\":4075:4138   */\n      tag_123\n        /* \"#utility.yul\":4130:4137   */\n      dup9\n        /* \"#utility.yul\":4121:4127   */\n      dup3\n        /* \"#utility.yul\":4110:4119   */\n      dup10\n        /* \"#utility.yul\":4106:4128   */\n      add\n        /* \"#utility.yul\":4075:4138   */\n      tag_66\n      jump\t// in\n    tag_123:\n        /* \"#utility.yul\":4065:4138   */\n      swap5\n      pop\n        /* \"#utility.yul\":4020:4148   */\n      pop\n        /* \"#utility.yul\":4187:4189   */\n      0x40\n        /* \"#utility.yul\":4213:4277   */\n      tag_124\n        /* \"#utility.yul\":4269:4276   */\n      dup9\n        /* \"#utility.yul\":4260:4266   */\n      dup3\n        /* \"#utility.yul\":4249:4258   */\n      dup10\n        /* \"#utility.yul\":4245:4267   */\n      add\n        /* \"#utility.yul\":4213:4277   */\n      tag_58\n      jump\t// in\n    tag_124:\n        /* \"#utility.yul\":4203:4277   */\n      swap4\n      pop\n        /* \"#utility.yul\":4158:4287   */\n      pop\n        /* \"#utility.yul\":4326:4328   */\n      0x60\n        /* \"#utility.yul\":4352:4416   */\n      tag_125\n        /* \"#utility.yul\":4408:4415   */\n      dup9\n        /* \"#utility.yul\":4399:4405   */\n      dup3\n        /* \"#utility.yul\":4388:4397   */\n      dup10\n        /* \"#utility.yul\":4384:4406   */\n      add\n        /* \"#utility.yul\":4352:4416   */\n      tag_58\n      jump\t// in\n    tag_125:\n        /* \"#utility.yul\":4342:4416   */\n      swap3\n      pop\n        /* \"#utility.yul\":4297:4426   */\n      pop\n        /* \"#utility.yul\":4465:4468   */\n      0x80\n        /* \"#utility.yul\":4492:4555   */\n      tag_126\n        /* \"#utility.yul\":4547:4554   */\n      dup9\n        /* \"#utility.yul\":4538:4544   */\n      dup3\n        /* \"#utility.yul\":4527:4536   */\n      dup10\n        /* \"#utility.yul\":4523:4545   */\n      add\n        /* \"#utility.yul\":4492:4555   */\n      tag_63\n      jump\t// in\n    tag_126:\n        /* \"#utility.yul\":4482:4555   */\n      swap2\n      pop\n        /* \"#utility.yul\":4436:4565   */\n      pop\n        /* \"#utility.yul\":3601:4572   */\n      swap3\n      swap6\n      pop\n      swap3\n      swap6\n      swap1\n      swap4\n      pop\n      jump\t// out\n        /* \"#utility.yul\":4578:5134   */\n    tag_45:\n        /* \"#utility.yul\":4617:4624   */\n      0x00\n        /* \"#utility.yul\":4640:4659   */\n      tag_128\n        /* \"#utility.yul\":4657:4658   */\n      dup3\n        /* \"#utility.yul\":4640:4659   */\n      tag_64\n      jump\t// in\n    tag_128:\n        /* \"#utility.yul\":4635:4659   */\n      swap2\n      pop\n        /* \"#utility.yul\":4673:4692   */\n      tag_129\n        /* \"#utility.yul\":4690:4691   */\n      dup4\n        /* \"#utility.yul\":4673:4692   */\n      tag_64\n      jump\t// in\n    tag_129:\n        /* \"#utility.yul\":4668:4692   */\n      swap3\n      pop\n        /* \"#utility.yul\":4727:4728   */\n      dup3\n        /* \"#utility.yul\":4724:4725   */\n      dup3\n        /* \"#utility.yul\":4720:4729   */\n      mul\n        /* \"#utility.yul\":4749:4778   */\n      tag_130\n        /* \"#utility.yul\":4766:4777   */\n      dup2\n        /* \"#utility.yul\":4749:4778   */\n      tag_64\n      jump\t// in\n    tag_130:\n        /* \"#utility.yul\":4738:4778   */\n      swap2\n      pop\n        /* \"#utility.yul\":4836:4902   */\n      0x8000000000000000000000000000000000000000000000000000000000000000\n        /* \"#utility.yul\":4833:4834   */\n      dup5\n        /* \"#utility.yul\":4830:4903   */\n      eq\n        /* \"#utility.yul\":4826:4827   */\n      0x00\n        /* \"#utility.yul\":4823:4824   */\n      dup5\n        /* \"#utility.yul\":4819:4828   */\n      slt\n        /* \"#utility.yul\":4815:4904   */\n      and\n        /* \"#utility.yul\":4812:4927   */\n      iszero\n      tag_131\n      jumpi\n        /* \"#utility.yul\":4907:4925   */\n      tag_132\n      tag_59\n      jump\t// in\n    tag_132:\n        /* \"#utility.yul\":4812:4927   */\n    tag_131:\n        /* \"#utility.yul\":5077:5078   */\n      dup3\n        /* \"#utility.yul\":5068:5075   */\n      dup3\n        /* \"#utility.yul\":5063:5079   */\n      sdiv\n        /* \"#utility.yul\":5060:5061   */\n      dup5\n        /* \"#utility.yul\":5057:5080   */\n      eq\n        /* \"#utility.yul\":5037:5038   */\n      dup4\n        /* \"#utility.yul\":5030:5039   */\n      iszero\n        /* \"#utility.yul\":5010:5094   */\n      or\n        /* \"#utility.yul\":4987:5127   */\n      tag_133\n      jumpi\n        /* \"#utility.yul\":5107:5125   */\n      tag_134\n      tag_59\n      jump\t// in\n    tag_134:\n        /* \"#utility.yul\":4987:5127   */\n    tag_133:\n        /* \"#utility.yul\":4625:5134   */\n      pop\n        /* \"#utility.yul\":4578:5134   */\n      swap3\n      swap2\n      pop\n      pop\n      jump\t// out\n        /* \"#utility.yul\":5140:5309   */\n    tag_67:\n        /* \"#utility.yul\":5224:5235   */\n      0x00\n        /* \"#utility.yul\":5258:5264   */\n      dup3\n        /* \"#utility.yul\":5253:5256   */\n      dup3\n        /* \"#utility.yul\":5246:5265   */\n      mstore\n        /* \"#utility.yul\":5298:5302   */\n      0x20\n        /* \"#utility.yul\":5293:5296   */\n      dup3\n        /* \"#utility.yul\":5289:5303   */\n      add\n        /* \"#utility.yul\":5274:5303   */\n      swap1\n      pop\n        /* \"#utility.yul\":5140:5309   */\n      swap3\n      swap2\n      pop\n      pop\n      jump\t// out\n        /* \"#utility.yul\":5315:5482   */\n    tag_68:\n        /* \"#utility.yul\":5455:5474   */\n      0x53616c646f20696e7375666369656e7465000000000000000000000000000000\n        /* \"#utility.yul\":5451:5452   */\n      0x00\n        /* \"#utility.yul\":5443:5449   */\n      dup3\n        /* \"#utility.yul\":5439:5453   */\n      add\n        /* \"#utility.yul\":5432:5475   */\n      mstore\n        /* \"#utility.yul\":5315:5482   */\n      pop\n      jump\t// out\n        /* \"#utility.yul\":5488:5854   */\n    tag_69:\n        /* \"#utility.yul\":5630:5633   */\n      0x00\n        /* \"#utility.yul\":5651:5718   */\n      tag_138\n        /* \"#utility.yul\":5715:5717   */\n      0x11\n        /* \"#utility.yul\":5710:5713   */\n      dup4\n        /* \"#utility.yul\":5651:5718   */\n      tag_67\n      jump\t// in\n    tag_138:\n        /* \"#utility.yul\":5644:5718   */\n      swap2\n      pop\n        /* \"#utility.yul\":5727:5820   */\n      tag_139\n        /* \"#utility.yul\":5816:5819   */\n      dup3\n        /* \"#utility.yul\":5727:5820   */\n      tag_68\n      jump\t// in\n    tag_139:\n        /* \"#utility.yul\":5845:5847   */\n      0x20\n        /* \"#utility.yul\":5840:5843   */\n      dup3\n        /* \"#utility.yul\":5836:5848   */\n      add\n        /* \"#utility.yul\":5829:5848   */\n      swap1\n      pop\n        /* \"#utility.yul\":5488:5854   */\n      swap2\n      swap1\n      pop\n      jump\t// out\n        /* \"#utility.yul\":5860:6279   */\n    tag_50:\n        /* \"#utility.yul\":6026:6030   */\n      0x00\n        /* \"#utility.yul\":6064:6066   */\n      0x20\n        /* \"#utility.yul\":6053:6062   */\n      dup3\n        /* \"#utility.yul\":6049:6067   */\n      add\n        /* \"#utility.yul\":6041:6067   */\n      swap1\n      pop\n        /* \"#utility.yul\":6113:6122   */\n      dup2\n        /* \"#utility.yul\":6107:6111   */\n      dup2\n        /* \"#utility.yul\":6103:6123   */\n      sub\n        /* \"#utility.yul\":6099:6100   */\n      0x00\n        /* \"#utility.yul\":6088:6097   */\n      dup4\n        /* \"#utility.yul\":6084:6101   */\n      add\n        /* \"#utility.yul\":6077:6124   */\n      mstore\n        /* \"#utility.yul\":6141:6272   */\n      tag_141\n        /* \"#utility.yul\":6267:6271   */\n      dup2\n        /* \"#utility.yul\":6141:6272   */\n      tag_69\n      jump\t// in\n    tag_141:\n        /* \"#utility.yul\":6133:6272   */\n      swap1\n      pop\n        /* \"#utility.yul\":5860:6279   */\n      swap2\n      swap1\n      pop\n      jump\t// out\n\n    auxdata: 0xa26469706673582212207e448fca812045d38291ce7e2c2b034696ee8019e6d6bd8949f670ca97515d9464736f6c63430008110033\n}\n",
				"bytecode": {
					"linkReferences": {},
					"object": "60806040526802b5e3af16b188000060005534801561001d57600080fd5b506106a18061002d6000396000f3fe60806040526004361061004a5760003560e01c80630d8e6e2c1461004f5780636e5b6b281461007a57806398d5fdca146100b7578063b60d4288146100e2578063e5e18b1a146100ec575b600080fd5b34801561005b57600080fd5b50610064610117565b60405161007191906102f7565b60405180910390f35b34801561008657600080fd5b506100a1600480360381019061009c9190610343565b6101a6565b6040516100ae91906102f7565b60405180910390f35b3480156100c357600080fd5b506100cc6101e0565b6040516100d991906102f7565b60405180910390f35b6100ea610289565b005b3480156100f857600080fd5b506101016102d8565b60405161010e91906102f7565b60405180910390f35b60008073d4a33860578de61dbabdc8bfdb98fd742fa7028e90508073ffffffffffffffffffffffffffffffffffffffff166354fd4d506040518163ffffffff1660e01b8152600401602060405180830381865afa15801561017c573d6000803e3d6000fd5b505050506040513d601f19601f820116820180604052508101906101a09190610385565b91505090565b6000806101b16101e0565b90506000670de0b6b3a764000084836101ca91906103e1565b6101d49190610452565b90508092505050919050565b60008073d4a33860578de61dbabdc8bfdb98fd742fa7028e905060008173ffffffffffffffffffffffffffffffffffffffff1663feaf968c6040518163ffffffff1660e01b815260040160a060405180830381865afa158015610247573d6000803e3d6000fd5b505050506040513d601f19601f8201168201806040525081019061026b91906104fb565b5050509150506402540be400816102829190610576565b9250505090565b600054610295346101a6565b10156102d6576040517f08c379a00000000000000000000000000000000000000000000000000000000081526004016102cd9061064b565b60405180910390fd5b565b60005481565b6000819050919050565b6102f1816102de565b82525050565b600060208201905061030c60008301846102e8565b92915050565b600080fd5b610320816102de565b811461032b57600080fd5b50565b60008135905061033d81610317565b92915050565b60006020828403121561035957610358610312565b5b60006103678482850161032e565b91505092915050565b60008151905061037f81610317565b92915050565b60006020828403121561039b5761039a610312565b5b60006103a984828501610370565b91505092915050565b7f4e487b7100000000000000000000000000000000000000000000000000000000600052601160045260246000fd5b60006103ec826102de565b91506103f7836102de565b9250828202610405816102de565b9150828204841483151761041c5761041b6103b2565b5b5092915050565b7f4e487b7100000000000000000000000000000000000000000000000000000000600052601260045260246000fd5b600061045d826102de565b9150610468836102de565b92508261047857610477610423565b5b828204905092915050565b600069ffffffffffffffffffff82169050919050565b6104a281610483565b81146104ad57600080fd5b50565b6000815190506104bf81610499565b92915050565b6000819050919050565b6104d8816104c5565b81146104e357600080fd5b50565b6000815190506104f5816104cf565b92915050565b600080600080600060a0868803121561051757610516610312565b5b6000610525888289016104b0565b9550506020610536888289016104e6565b945050604061054788828901610370565b935050606061055888828901610370565b9250506080610569888289016104b0565b9150509295509295909350565b6000610581826104c5565b915061058c836104c5565b925082820261059a816104c5565b91507f800000000000000000000000000000000000000000000000000000000000000084146000841216156105d2576105d16103b2565b5b82820584148315176105e7576105e66103b2565b5b5092915050565b600082825260208201905092915050565b7f53616c646f20696e7375666369656e7465000000000000000000000000000000600082015250565b60006106356011836105ee565b9150610640826105ff565b602082019050919050565b6000602082019050818103600083015261066481610628565b905091905056fea26469706673582212207e448fca812045d38291ce7e2c2b034696ee8019e6d6bd8949f670ca97515d9464736f6c63430008110033",
					"opcodes": "PUSH1 0x80 PUSH1 0x40 MSTORE PUSH9 0x2B5E3AF16B1880000 PUSH1 0x0 SSTORE CALLVALUE DUP1 ISZERO PUSH2 0x1D JUMPI PUSH1 0x0 DUP1 REVERT JUMPDEST POP PUSH2 0x6A1 DUP1 PUSH2 0x2D PUSH1 0x0 CODECOPY PUSH1 0x0 RETURN INVALID PUSH1 0x80 PUSH1 0x40 MSTORE PUSH1 0x4 CALLDATASIZE LT PUSH2 0x4A JUMPI PUSH1 0x0 CALLDATALOAD PUSH1 0xE0 SHR DUP1 PUSH4 0xD8E6E2C EQ PUSH2 0x4F JUMPI DUP1 PUSH4 0x6E5B6B28 EQ PUSH2 0x7A JUMPI DUP1 PUSH4 0x98D5FDCA EQ PUSH2 0xB7 JUMPI DUP1 PUSH4 0xB60D4288 EQ PUSH2 0xE2 JUMPI DUP1 PUSH4 0xE5E18B1A EQ PUSH2 0xEC JUMPI JUMPDEST PUSH1 0x0 DUP1 REVERT JUMPDEST CALLVALUE DUP1 ISZERO PUSH2 0x5B JUMPI PUSH1 0x0 DUP1 REVERT JUMPDEST POP PUSH2 0x64 PUSH2 0x117 JUMP JUMPDEST PUSH1 0x40 MLOAD PUSH2 0x71 SWAP2 SWAP1 PUSH2 0x2F7 JUMP JUMPDEST PUSH1 0x40 MLOAD DUP1 SWAP2 SUB SWAP1 RETURN JUMPDEST CALLVALUE DUP1 ISZERO PUSH2 0x86 JUMPI PUSH1 0x0 DUP1 REVERT JUMPDEST POP PUSH2 0xA1 PUSH1 0x4 DUP1 CALLDATASIZE SUB DUP2 ADD SWAP1 PUSH2 0x9C SWAP2 SWAP1 PUSH2 0x343 JUMP JUMPDEST PUSH2 0x1A6 JUMP JUMPDEST PUSH1 0x40 MLOAD PUSH2 0xAE SWAP2 SWAP1 PUSH2 0x2F7 JUMP JUMPDEST PUSH1 0x40 MLOAD DUP1 SWAP2 SUB SWAP1 RETURN JUMPDEST CALLVALUE DUP1 ISZERO PUSH2 0xC3 JUMPI PUSH1 0x0 DUP1 REVERT JUMPDEST POP PUSH2 0xCC PUSH2 0x1E0 JUMP JUMPDEST PUSH1 0x40 MLOAD PUSH2 0xD9 SWAP2 SWAP1 PUSH2 0x2F7 JUMP JUMPDEST PUSH1 0x40 MLOAD DUP1 SWAP2 SUB SWAP1 RETURN JUMPDEST PUSH2 0xEA PUSH2 0x289 JUMP JUMPDEST STOP JUMPDEST CALLVALUE DUP1 ISZERO PUSH2 0xF8 JUMPI PUSH1 0x0 DUP1 REVERT JUMPDEST POP PUSH2 0x101 PUSH2 0x2D8 JUMP JUMPDEST PUSH1 0x40 MLOAD PUSH2 0x10E SWAP2 SWAP1 PUSH2 0x2F7 JUMP JUMPDEST PUSH1 0x40 MLOAD DUP1 SWAP2 SUB SWAP1 RETURN JUMPDEST PUSH1 0x0 DUP1 PUSH20 0xD4A33860578DE61DBABDC8BFDB98FD742FA7028E SWAP1 POP DUP1 PUSH20 0xFFFFFFFFFFFFFFFFFFFFFFFFFFFFFFFFFFFFFFFF AND PUSH4 0x54FD4D50 PUSH1 0x40 MLOAD DUP2 PUSH4 0xFFFFFFFF AND PUSH1 0xE0 SHL DUP2 MSTORE PUSH1 0x4 ADD PUSH1 0x20 PUSH1 0x40 MLOAD DUP1 DUP4 SUB DUP2 DUP7 GAS STATICCALL ISZERO DUP1 ISZERO PUSH2 0x17C JUMPI RETURNDATASIZE PUSH1 0x0 DUP1 RETURNDATACOPY RETURNDATASIZE PUSH1 0x0 REVERT JUMPDEST POP POP POP POP PUSH1 0x40 MLOAD RETURNDATASIZE PUSH1 0x1F NOT PUSH1 0x1F DUP3 ADD AND DUP3 ADD DUP1 PUSH1 0x40 MSTORE POP DUP2 ADD SWAP1 PUSH2 0x1A0 SWAP2 SWAP1 PUSH2 0x385 JUMP JUMPDEST SWAP2 POP POP SWAP1 JUMP JUMPDEST PUSH1 0x0 DUP1 PUSH2 0x1B1 PUSH2 0x1E0 JUMP JUMPDEST SWAP1 POP PUSH1 0x0 PUSH8 0xDE0B6B3A7640000 DUP5 DUP4 PUSH2 0x1CA SWAP2 SWAP1 PUSH2 0x3E1 JUMP JUMPDEST PUSH2 0x1D4 SWAP2 SWAP1 PUSH2 0x452 JUMP JUMPDEST SWAP1 POP DUP1 SWAP3 POP POP POP SWAP2 SWAP1 POP JUMP JUMPDEST PUSH1 0x0 DUP1 PUSH20 0xD4A33860578DE61DBABDC8BFDB98FD742FA7028E SWAP1 POP PUSH1 0x0 DUP2 PUSH20 0xFFFFFFFFFFFFFFFFFFFFFFFFFFFFFFFFFFFFFFFF AND PUSH4 0xFEAF968C PUSH1 0x40 MLOAD DUP2 PUSH4 0xFFFFFFFF AND PUSH1 0xE0 SHL DUP2 MSTORE PUSH1 0x4 ADD PUSH1 0xA0 PUSH1 0x40 MLOAD DUP1 DUP4 SUB DUP2 DUP7 GAS STATICCALL ISZERO DUP1 ISZERO PUSH2 0x247 JUMPI RETURNDATASIZE PUSH1 0x0 DUP1 RETURNDATACOPY RETURNDATASIZE PUSH1 0x0 REVERT JUMPDEST POP POP POP POP PUSH1 0x40 MLOAD RETURNDATASIZE PUSH1 0x1F NOT PUSH1 0x1F DUP3 ADD AND DUP3 ADD DUP1 PUSH1 0x40 MSTORE POP DUP2 ADD SWAP1 PUSH2 0x26B SWAP2 SWAP1 PUSH2 0x4FB JUMP JUMPDEST POP POP POP SWAP2 POP POP PUSH5 0x2540BE400 DUP2 PUSH2 0x282 SWAP2 SWAP1 PUSH2 0x576 JUMP JUMPDEST SWAP3 POP POP POP SWAP1 JUMP JUMPDEST PUSH1 0x0 SLOAD PUSH2 0x295 CALLVALUE PUSH2 0x1A6 JUMP JUMPDEST LT ISZERO PUSH2 0x2D6 JUMPI PUSH1 0x40 MLOAD PUSH32 0x8C379A000000000000000000000000000000000000000000000000000000000 DUP2 MSTORE PUSH1 0x4 ADD PUSH2 0x2CD SWAP1 PUSH2 0x64B JUMP JUMPDEST PUSH1 0x40 MLOAD DUP1 SWAP2 SUB SWAP1 REVERT JUMPDEST JUMP JUMPDEST PUSH1 0x0 SLOAD DUP2 JUMP JUMPDEST PUSH1 0x0 DUP2 SWAP1 POP SWAP2 SWAP1 POP JUMP JUMPDEST PUSH2 0x2F1 DUP2 PUSH2 0x2DE JUMP JUMPDEST DUP3 MSTORE POP POP JUMP JUMPDEST PUSH1 0x0 PUSH1 0x20 DUP3 ADD SWAP1 POP PUSH2 0x30C PUSH1 0x0 DUP4 ADD DUP5 PUSH2 0x2E8 JUMP JUMPDEST SWAP3 SWAP2 POP POP JUMP JUMPDEST PUSH1 0x0 DUP1 REVERT JUMPDEST PUSH2 0x320 DUP2 PUSH2 0x2DE JUMP JUMPDEST DUP2 EQ PUSH2 0x32B JUMPI PUSH1 0x0 DUP1 REVERT JUMPDEST POP JUMP JUMPDEST PUSH1 0x0 DUP2 CALLDATALOAD SWAP1 POP PUSH2 0x33D DUP2 PUSH2 0x317 JUMP JUMPDEST SWAP3 SWAP2 POP POP JUMP JUMPDEST PUSH1 0x0 PUSH1 0x20 DUP3 DUP5 SUB SLT ISZERO PUSH2 0x359 JUMPI PUSH2 0x358 PUSH2 0x312 JUMP JUMPDEST JUMPDEST PUSH1 0x0 PUSH2 0x367 DUP5 DUP3 DUP6 ADD PUSH2 0x32E JUMP JUMPDEST SWAP2 POP POP SWAP3 SWAP2 POP POP JUMP JUMPDEST PUSH1 0x0 DUP2 MLOAD SWAP1 POP PUSH2 0x37F DUP2 PUSH2 0x317 JUMP JUMPDEST SWAP3 SWAP2 POP POP JUMP JUMPDEST PUSH1 0x0 PUSH1 0x20 DUP3 DUP5 SUB SLT ISZERO PUSH2 0x39B JUMPI PUSH2 0x39A PUSH2 0x312 JUMP JUMPDEST JUMPDEST PUSH1 0x0 PUSH2 0x3A9 DUP5 DUP3 DUP6 ADD PUSH2 0x370 JUMP JUMPDEST SWAP2 POP POP SWAP3 SWAP2 POP POP JUMP JUMPDEST PUSH32 0x4E487B7100000000000000000000000000000000000000000000000000000000 PUSH1 0x0 MSTORE PUSH1 0x11 PUSH1 0x4 MSTORE PUSH1 0x24 PUSH1 0x0 REVERT JUMPDEST PUSH1 0x0 PUSH2 0x3EC DUP3 PUSH2 0x2DE JUMP JUMPDEST SWAP2 POP PUSH2 0x3F7 DUP4 PUSH2 0x2DE JUMP JUMPDEST SWAP3 POP DUP3 DUP3 MUL PUSH2 0x405 DUP2 PUSH2 0x2DE JUMP JUMPDEST SWAP2 POP DUP3 DUP3 DIV DUP5 EQ DUP4 ISZERO OR PUSH2 0x41C JUMPI PUSH2 0x41B PUSH2 0x3B2 JUMP JUMPDEST JUMPDEST POP SWAP3 SWAP2 POP POP JUMP JUMPDEST PUSH32 0x4E487B7100000000000000000000000000000000000000000000000000000000 PUSH1 0x0 MSTORE PUSH1 0x12 PUSH1 0x4 MSTORE PUSH1 0x24 PUSH1 0x0 REVERT JUMPDEST PUSH1 0x0 PUSH2 0x45D DUP3 PUSH2 0x2DE JUMP JUMPDEST SWAP2 POP PUSH2 0x468 DUP4 PUSH2 0x2DE JUMP JUMPDEST SWAP3 POP DUP3 PUSH2 0x478 JUMPI PUSH2 0x477 PUSH2 0x423 JUMP JUMPDEST JUMPDEST DUP3 DUP3 DIV SWAP1 POP SWAP3 SWAP2 POP POP JUMP JUMPDEST PUSH1 0x0 PUSH10 0xFFFFFFFFFFFFFFFFFFFF DUP3 AND SWAP1 POP SWAP2 SWAP1 POP JUMP JUMPDEST PUSH2 0x4A2 DUP2 PUSH2 0x483 JUMP JUMPDEST DUP2 EQ PUSH2 0x4AD JUMPI PUSH1 0x0 DUP1 REVERT JUMPDEST POP JUMP JUMPDEST PUSH1 0x0 DUP2 MLOAD SWAP1 POP PUSH2 0x4BF DUP2 PUSH2 0x499 JUMP JUMPDEST SWAP3 SWAP2 POP POP JUMP JUMPDEST PUSH1 0x0 DUP2 SWAP1 POP SWAP2 SWAP1 POP JUMP JUMPDEST PUSH2 0x4D8 DUP2 PUSH2 0x4C5 JUMP JUMPDEST DUP2 EQ PUSH2 0x4E3 JUMPI PUSH1 0x0 DUP1 REVERT JUMPDEST POP JUMP JUMPDEST PUSH1 0x0 DUP2 MLOAD SWAP1 POP PUSH2 0x4F5 DUP2 PUSH2 0x4CF JUMP JUMPDEST SWAP3 SWAP2 POP POP JUMP JUMPDEST PUSH1 0x0 DUP1 PUSH1 0x0 DUP1 PUSH1 0x0 PUSH1 0xA0 DUP7 DUP9 SUB SLT ISZERO PUSH2 0x517 JUMPI PUSH2 0x516 PUSH2 0x312 JUMP JUMPDEST JUMPDEST PUSH1 0x0 PUSH2 0x525 DUP9 DUP3 DUP10 ADD PUSH2 0x4B0 JUMP JUMPDEST SWAP6 POP POP PUSH1 0x20 PUSH2 0x536 DUP9 DUP3 DUP10 ADD PUSH2 0x4E6 JUMP JUMPDEST SWAP5 POP POP PUSH1 0x40 PUSH2 0x547 DUP9 DUP3 DUP10 ADD PUSH2 0x370 JUMP JUMPDEST SWAP4 POP POP PUSH1 0x60 PUSH2 0x558 DUP9 DUP3 DUP10 ADD PUSH2 0x370 JUMP JUMPDEST SWAP3 POP POP PUSH1 0x80 PUSH2 0x569 DUP9 DUP3 DUP10 ADD PUSH2 0x4B0 JUMP JUMPDEST SWAP2 POP POP SWAP3 SWAP6 POP SWAP3 SWAP6 SWAP1 SWAP4 POP JUMP JUMPDEST PUSH1 0x0 PUSH2 0x581 DUP3 PUSH2 0x4C5 JUMP JUMPDEST SWAP2 POP PUSH2 0x58C DUP4 PUSH2 0x4C5 JUMP JUMPDEST SWAP3 POP DUP3 DUP3 MUL PUSH2 0x59A DUP2 PUSH2 0x4C5 JUMP JUMPDEST SWAP2 POP PUSH32 0x8000000000000000000000000000000000000000000000000000000000000000 DUP5 EQ PUSH1 0x0 DUP5 SLT AND ISZERO PUSH2 0x5D2 JUMPI PUSH2 0x5D1 PUSH2 0x3B2 JUMP JUMPDEST JUMPDEST DUP3 DUP3 SDIV DUP5 EQ DUP4 ISZERO OR PUSH2 0x5E7 JUMPI PUSH2 0x5E6 PUSH2 0x3B2 JUMP JUMPDEST JUMPDEST POP SWAP3 SWAP2 POP POP JUMP JUMPDEST PUSH1 0x0 DUP3 DUP3 MSTORE PUSH1 0x20 DUP3 ADD SWAP1 POP SWAP3 SWAP2 POP POP JUMP JUMPDEST PUSH32 0x53616C646F20696E7375666369656E7465000000000000000000000000000000 PUSH1 0x0 DUP3 ADD MSTORE POP JUMP JUMPDEST PUSH1 0x0 PUSH2 0x635 PUSH1 0x11 DUP4 PUSH2 0x5EE JUMP JUMPDEST SWAP2 POP PUSH2 0x640 DUP3 PUSH2 0x5FF JUMP JUMPDEST PUSH1 0x20 DUP3 ADD SWAP1 POP SWAP2 SWAP1 POP JUMP JUMPDEST PUSH1 0x0 PUSH1 0x20 DUP3 ADD SWAP1 POP DUP2 DUP2 SUB PUSH1 0x0 DUP4 ADD MSTORE PUSH2 0x664 DUP2 PUSH2 0x628 JUMP JUMPDEST SWAP1 POP SWAP2 SWAP1 POP JUMP INVALID LOG2 PUSH5 0x6970667358 0x22 SLT KECCAK256 PUSH31 0x448FCA812045D38291CE7E2C2B034696EE8019E6D6BD8949F670CA97515D94 PUSH5 0x736F6C6343 STOP ADDMOD GT STOP CALLER "
				},
				"gasEstimates": {
					"creation": {
						"codeDepositCost": "339400",
						"executionCost": "22486",
						"totalCost": "361886"
					},
					"external": {
						"fund()": "infinite",
						"getConversionRate(uint256)": "infinite",
						"getPrice()": "infinite",
						"getVersion()": "infinite",
						"minimunUsd()": "2495"
					}
				},
				"methodIdentifiers": {
					"fund()": "b60d4288",
					"getConversionRate(uint256)": "6e5b6b28",
					"getPrice()": "98d5fdca",
					"getVersion()": "0d8e6e2c",
					"minimunUsd()": "e5e18b1a"
				}
			},
			"storageLayout": {
				"storage": [
					{
						"astId": 53,
						"contract": "contracts/FundMe.sol:Fundme",
						"label": "minimunUsd",
						"offset": 0,
						"slot": "0",
						"type": "t_uint256"
					}
				],
				"types": {
					"t_uint256": {
						"encoding": "inplace",
						"label": "uint256",
						"numberOfBytes": "32"
					}
				}
			},
			"userdoc": {
				"kind": "user",
				"methods": {},
				"version": 1
			}
		}
	}
}