{
	"contracts/ArrayStruct.sol": {
		"ArrayStruct": {
			"abi": [
				{
					"inputs": [
						{
							"internalType": "uint256",
							"name": "",
							"type": "uint256"
						}
					],
					"name": "people",
					"outputs": [
						{
							"internalType": "uint256",
							"name": "favoriteNumber",
							"type": "uint256"
						},
						{
							"internalType": "string",
							"name": "name",
							"type": "string"
						}
					],
					"stateMutability": "view",
					"type": "function"
				},
				{
					"inputs": [],
					"name": "person",
					"outputs": [
						{
							"internalType": "uint256",
							"name": "favoriteNumber",
							"type": "uint256"
						},
						{
							"internalType": "string",
							"name": "name",
							"type": "string"
						}
					],
					"stateMutability": "view",
					"type": "function"
				}
			],
			"devdoc": {
				"kind": "dev",
				"methods": {},
				"version": 1
			},
			"evm": {
				"assembly": "    /* \"contracts/ArrayStruct.sol\":58:403  contract ArrayStruct{\r... */\n  mstore(0x40, 0x80)\n    /* \"contracts/ArrayStruct.sol\":188:229  People({favoriteNumber: 2, name: \"Yoel\"}) */\n  mload(0x40)\n  dup1\n  0x40\n  add\n  0x40\n  mstore\n  dup1\n    /* \"contracts/ArrayStruct.sol\":212:213  2 */\n  0x02\n    /* \"contracts/ArrayStruct.sol\":188:229  People({favoriteNumber: 2, name: \"Yoel\"}) */\n  dup2\n  mstore\n  0x20\n  add\n  mload(0x40)\n  dup1\n  0x40\n  add\n  0x40\n  mstore\n  dup1\n  0x04\n  dup2\n  mstore\n  0x20\n  add\n  0x596f656c00000000000000000000000000000000000000000000000000000000\n  dup2\n  mstore\n  pop\n  dup2\n  mstore\n  pop\n    /* \"contracts/ArrayStruct.sol\":164:229  People public person =  People({favoriteNumber: 2, name: \"Yoel\"}) */\n  0x00\n  dup1\n  dup3\n  add\n  mload\n  dup2\n  0x00\n  add\n  sstore\n  0x20\n  dup3\n  add\n  mload\n  dup2\n  0x01\n  add\n  swap1\n  dup1\n  mload\n  swap1\n  0x20\n  add\n  swap1\n  tag_1\n  swap3\n  swap2\n  swap1\n  tag_2\n  jump\t// in\ntag_1:\n  pop\n  pop\n  pop\n    /* \"contracts/ArrayStruct.sol\":58:403  contract ArrayStruct{\r... */\n  callvalue\n  dup1\n  iszero\n  tag_3\n  jumpi\n  0x00\n  dup1\n  revert\ntag_3:\n  pop\n  jump(tag_4)\ntag_2:\n  dup3\n  dup1\n  sload\n  tag_5\n  swap1\n  tag_6\n  jump\t// in\ntag_5:\n  swap1\n  0x00\n  mstore\n  keccak256(0x00, 0x20)\n  swap1\n  0x1f\n  add\n  0x20\n  swap1\n  div\n  dup2\n  add\n  swap3\n  dup3\n  tag_8\n  jumpi\n  0x00\n  dup6\n  sstore\n  jump(tag_7)\ntag_8:\n  dup3\n  0x1f\n  lt\n  tag_9\n  jumpi\n  dup1\n  mload\n  not(0xff)\n  and\n  dup4\n  dup1\n  add\n  or\n  dup6\n  sstore\n  jump(tag_7)\ntag_9:\n  dup3\n  dup1\n  add\n  0x01\n  add\n  dup6\n  sstore\n  dup3\n  iszero\n  tag_7\n  jumpi\n  swap2\n  dup3\n  add\ntag_10:\n  dup3\n  dup2\n  gt\n  iszero\n  tag_11\n  jumpi\n  dup3\n  mload\n  dup3\n  sstore\n  swap2\n  0x20\n  add\n  swap2\n  swap1\n  0x01\n  add\n  swap1\n  jump(tag_10)\ntag_11:\ntag_7:\n  pop\n  swap1\n  pop\n  tag_12\n  swap2\n  swap1\n  tag_13\n  jump\t// in\ntag_12:\n  pop\n  swap1\n  jump\t// out\ntag_13:\ntag_14:\n  dup1\n  dup3\n  gt\n  iszero\n  tag_15\n  jumpi\n  0x00\n  dup2\n  0x00\n  swap1\n  sstore\n  pop\n  0x01\n  add\n  jump(tag_14)\ntag_15:\n  pop\n  swap1\n  jump\t// out\n    /* \"#utility.yul\":7:327   */\ntag_6:\n    /* \"#utility.yul\":51:57   */\n  0x00\n    /* \"#utility.yul\":88:89   */\n  0x02\n    /* \"#utility.yul\":82:86   */\n  dup3\n    /* \"#utility.yul\":78:90   */\n  div\n    /* \"#utility.yul\":68:90   */\n  swap1\n  pop\n    /* \"#utility.yul\":135:136   */\n  0x01\n    /* \"#utility.yul\":129:133   */\n  dup3\n    /* \"#utility.yul\":125:137   */\n  and\n    /* \"#utility.yul\":156:174   */\n  dup1\n    /* \"#utility.yul\":146:227   */\n  tag_18\n  jumpi\n    /* \"#utility.yul\":212:216   */\n  0x7f\n    /* \"#utility.yul\":204:210   */\n  dup3\n    /* \"#utility.yul\":200:217   */\n  and\n    /* \"#utility.yul\":190:217   */\n  swap2\n  pop\n    /* \"#utility.yul\":146:227   */\ntag_18:\n    /* \"#utility.yul\":274:276   */\n  0x20\n    /* \"#utility.yul\":266:272   */\n  dup3\n    /* \"#utility.yul\":263:277   */\n  lt\n    /* \"#utility.yul\":243:261   */\n  dup2\n    /* \"#utility.yul\":240:278   */\n  eq\n    /* \"#utility.yul\":237:321   */\n  iszero\n  tag_19\n  jumpi\n    /* \"#utility.yul\":293:311   */\n  tag_20\n  tag_21\n  jump\t// in\ntag_20:\n    /* \"#utility.yul\":237:321   */\ntag_19:\n    /* \"#utility.yul\":58:327   */\n  pop\n    /* \"#utility.yul\":7:327   */\n  swap2\n  swap1\n  pop\n  jump\t// out\n    /* \"#utility.yul\":333:513   */\ntag_21:\n    /* \"#utility.yul\":381:458   */\n  0x4e487b7100000000000000000000000000000000000000000000000000000000\n    /* \"#utility.yul\":378:379   */\n  0x00\n    /* \"#utility.yul\":371:459   */\n  mstore\n    /* \"#utility.yul\":478:482   */\n  0x22\n    /* \"#utility.yul\":475:476   */\n  0x04\n    /* \"#utility.yul\":468:483   */\n  mstore\n    /* \"#utility.yul\":502:506   */\n  0x24\n    /* \"#utility.yul\":499:500   */\n  0x00\n    /* \"#utility.yul\":492:507   */\n  revert\n    /* \"contracts/ArrayStruct.sol\":58:403  contract ArrayStruct{\r... */\ntag_4:\n  dataSize(sub_0)\n  dup1\n  dataOffset(sub_0)\n  0x00\n  codecopy\n  0x00\n  return\nstop\n\nsub_0: assembly {\n        /* \"contracts/ArrayStruct.sol\":58:403  contract ArrayStruct{\r... */\n      mstore(0x40, 0x80)\n      callvalue\n      dup1\n      iszero\n      tag_1\n      jumpi\n      0x00\n      dup1\n      revert\n    tag_1:\n      pop\n      jumpi(tag_2, lt(calldatasize, 0x04))\n      shr(0xe0, calldataload(0x00))\n      dup1\n      0x77ec2b55\n      eq\n      tag_3\n      jumpi\n      dup1\n      0x9e7a13ad\n      eq\n      tag_4\n      jumpi\n    tag_2:\n      0x00\n      dup1\n      revert\n        /* \"contracts/ArrayStruct.sol\":164:229  People public person =  People({favoriteNumber: 2, name: \"Yoel\"}) */\n    tag_3:\n      tag_5\n      tag_6\n      jump\t// in\n    tag_5:\n      mload(0x40)\n      tag_7\n      swap3\n      swap2\n      swap1\n      tag_8\n      jump\t// in\n    tag_7:\n      mload(0x40)\n      dup1\n      swap2\n      sub\n      swap1\n      return\n        /* \"contracts/ArrayStruct.sol\":365:387  People[] public people */\n    tag_4:\n      tag_9\n      0x04\n      dup1\n      calldatasize\n      sub\n      dup2\n      add\n      swap1\n      tag_10\n      swap2\n      swap1\n      tag_11\n      jump\t// in\n    tag_10:\n      tag_12\n      jump\t// in\n    tag_9:\n      mload(0x40)\n      tag_13\n      swap3\n      swap2\n      swap1\n      tag_8\n      jump\t// in\n    tag_13:\n      mload(0x40)\n      dup1\n      swap2\n      sub\n      swap1\n      return\n        /* \"contracts/ArrayStruct.sol\":164:229  People public person =  People({favoriteNumber: 2, name: \"Yoel\"}) */\n    tag_6:\n      0x00\n      dup1\n      0x00\n      add\n      sload\n      swap1\n      dup1\n      0x01\n      add\n      dup1\n      sload\n      tag_14\n      swap1\n      tag_15\n      jump\t// in\n    tag_14:\n      dup1\n      0x1f\n      add\n      0x20\n      dup1\n      swap2\n      div\n      mul\n      0x20\n      add\n      mload(0x40)\n      swap1\n      dup2\n      add\n      0x40\n      mstore\n      dup1\n      swap3\n      swap2\n      swap1\n      dup2\n      dup2\n      mstore\n      0x20\n      add\n      dup3\n      dup1\n      sload\n      tag_16\n      swap1\n      tag_15\n      jump\t// in\n    tag_16:\n      dup1\n      iszero\n      tag_17\n      jumpi\n      dup1\n      0x1f\n      lt\n      tag_18\n      jumpi\n      0x0100\n      dup1\n      dup4\n      sload\n      div\n      mul\n      dup4\n      mstore\n      swap2\n      0x20\n      add\n      swap2\n      jump(tag_17)\n    tag_18:\n      dup3\n      add\n      swap2\n      swap1\n      0x00\n      mstore\n      keccak256(0x00, 0x20)\n      swap1\n    tag_19:\n      dup2\n      sload\n      dup2\n      mstore\n      swap1\n      0x01\n      add\n      swap1\n      0x20\n      add\n      dup1\n      dup4\n      gt\n      tag_19\n      jumpi\n      dup3\n      swap1\n      sub\n      0x1f\n      and\n      dup3\n      add\n      swap2\n    tag_17:\n      pop\n      pop\n      pop\n      pop\n      pop\n      swap1\n      pop\n      dup3\n      jump\t// out\n        /* \"contracts/ArrayStruct.sol\":365:387  People[] public people */\n    tag_12:\n      0x02\n      dup2\n      dup2\n      sload\n      dup2\n      lt\n      tag_20\n      jumpi\n      0x00\n      dup1\n      revert\n    tag_20:\n      swap1\n      0x00\n      mstore\n      keccak256(0x00, 0x20)\n      swap1\n      0x02\n      mul\n      add\n      0x00\n      swap2\n      pop\n      swap1\n      pop\n      dup1\n      0x00\n      add\n      sload\n      swap1\n      dup1\n      0x01\n      add\n      dup1\n      sload\n      tag_22\n      swap1\n      tag_15\n      jump\t// in\n    tag_22:\n      dup1\n      0x1f\n      add\n      0x20\n      dup1\n      swap2\n      div\n      mul\n      0x20\n      add\n      mload(0x40)\n      swap1\n      dup2\n      add\n      0x40\n      mstore\n      dup1\n      swap3\n      swap2\n      swap1\n      dup2\n      dup2\n      mstore\n      0x20\n      add\n      dup3\n      dup1\n      sload\n      tag_23\n      swap1\n      tag_15\n      jump\t// in\n    tag_23:\n      dup1\n      iszero\n      tag_24\n      jumpi\n      dup1\n      0x1f\n      lt\n      tag_25\n      jumpi\n      0x0100\n      dup1\n      dup4\n      sload\n      div\n      mul\n      dup4\n      mstore\n      swap2\n      0x20\n      add\n      swap2\n      jump(tag_24)\n    tag_25:\n      dup3\n      add\n      swap2\n      swap1\n      0x00\n      mstore\n      keccak256(0x00, 0x20)\n      swap1\n    tag_26:\n      dup2\n      sload\n      dup2\n      mstore\n      swap1\n      0x01\n      add\n      swap1\n      0x20\n      add\n      dup1\n      dup4\n      gt\n      tag_26\n      jumpi\n      dup3\n      swap1\n      sub\n      0x1f\n      and\n      dup3\n      add\n      swap2\n    tag_24:\n      pop\n      pop\n      pop\n      pop\n      pop\n      swap1\n      pop\n      dup3\n      jump\t// out\n        /* \"#utility.yul\":7:146   */\n    tag_28:\n        /* \"#utility.yul\":53:58   */\n      0x00\n        /* \"#utility.yul\":91:97   */\n      dup2\n        /* \"#utility.yul\":78:98   */\n      calldataload\n        /* \"#utility.yul\":69:98   */\n      swap1\n      pop\n        /* \"#utility.yul\":107:140   */\n      tag_30\n        /* \"#utility.yul\":134:139   */\n      dup2\n        /* \"#utility.yul\":107:140   */\n      tag_31\n      jump\t// in\n    tag_30:\n        /* \"#utility.yul\":7:146   */\n      swap3\n      swap2\n      pop\n      pop\n      jump\t// out\n        /* \"#utility.yul\":152:481   */\n    tag_11:\n        /* \"#utility.yul\":211:217   */\n      0x00\n        /* \"#utility.yul\":260:262   */\n      0x20\n        /* \"#utility.yul\":248:257   */\n      dup3\n        /* \"#utility.yul\":239:246   */\n      dup5\n        /* \"#utility.yul\":235:258   */\n      sub\n        /* \"#utility.yul\":231:263   */\n      slt\n        /* \"#utility.yul\":228:347   */\n      iszero\n      tag_33\n      jumpi\n        /* \"#utility.yul\":266:345   */\n      tag_34\n      tag_35\n      jump\t// in\n    tag_34:\n        /* \"#utility.yul\":228:347   */\n    tag_33:\n        /* \"#utility.yul\":386:387   */\n      0x00\n        /* \"#utility.yul\":411:464   */\n      tag_36\n        /* \"#utility.yul\":456:463   */\n      dup5\n        /* \"#utility.yul\":447:453   */\n      dup3\n        /* \"#utility.yul\":436:445   */\n      dup6\n        /* \"#utility.yul\":432:454   */\n      add\n        /* \"#utility.yul\":411:464   */\n      tag_28\n      jump\t// in\n    tag_36:\n        /* \"#utility.yul\":401:464   */\n      swap2\n      pop\n        /* \"#utility.yul\":357:474   */\n      pop\n        /* \"#utility.yul\":152:481   */\n      swap3\n      swap2\n      pop\n      pop\n      jump\t// out\n        /* \"#utility.yul\":487:851   */\n    tag_37:\n        /* \"#utility.yul\":575:578   */\n      0x00\n        /* \"#utility.yul\":603:642   */\n      tag_39\n        /* \"#utility.yul\":636:641   */\n      dup3\n        /* \"#utility.yul\":603:642   */\n      tag_40\n      jump\t// in\n    tag_39:\n        /* \"#utility.yul\":658:729   */\n      tag_41\n        /* \"#utility.yul\":722:728   */\n      dup2\n        /* \"#utility.yul\":717:720   */\n      dup6\n        /* \"#utility.yul\":658:729   */\n      tag_42\n      jump\t// in\n    tag_41:\n        /* \"#utility.yul\":651:729   */\n      swap4\n      pop\n        /* \"#utility.yul\":738:790   */\n      tag_43\n        /* \"#utility.yul\":783:789   */\n      dup2\n        /* \"#utility.yul\":778:781   */\n      dup6\n        /* \"#utility.yul\":771:775   */\n      0x20\n        /* \"#utility.yul\":764:769   */\n      dup7\n        /* \"#utility.yul\":760:776   */\n      add\n        /* \"#utility.yul\":738:790   */\n      tag_44\n      jump\t// in\n    tag_43:\n        /* \"#utility.yul\":815:844   */\n      tag_45\n        /* \"#utility.yul\":837:843   */\n      dup2\n        /* \"#utility.yul\":815:844   */\n      tag_46\n      jump\t// in\n    tag_45:\n        /* \"#utility.yul\":810:813   */\n      dup5\n        /* \"#utility.yul\":806:845   */\n      add\n        /* \"#utility.yul\":799:845   */\n      swap2\n      pop\n        /* \"#utility.yul\":579:851   */\n      pop\n        /* \"#utility.yul\":487:851   */\n      swap3\n      swap2\n      pop\n      pop\n      jump\t// out\n        /* \"#utility.yul\":857:975   */\n    tag_47:\n        /* \"#utility.yul\":944:968   */\n      tag_49\n        /* \"#utility.yul\":962:967   */\n      dup2\n        /* \"#utility.yul\":944:968   */\n      tag_50\n      jump\t// in\n    tag_49:\n        /* \"#utility.yul\":939:942   */\n      dup3\n        /* \"#utility.yul\":932:969   */\n      mstore\n        /* \"#utility.yul\":857:975   */\n      pop\n      pop\n      jump\t// out\n        /* \"#utility.yul\":981:1404   */\n    tag_8:\n        /* \"#utility.yul\":1122:1126   */\n      0x00\n        /* \"#utility.yul\":1160:1162   */\n      0x40\n        /* \"#utility.yul\":1149:1158   */\n      dup3\n        /* \"#utility.yul\":1145:1163   */\n      add\n        /* \"#utility.yul\":1137:1163   */\n      swap1\n      pop\n        /* \"#utility.yul\":1173:1244   */\n      tag_52\n        /* \"#utility.yul\":1241:1242   */\n      0x00\n        /* \"#utility.yul\":1230:1239   */\n      dup4\n        /* \"#utility.yul\":1226:1243   */\n      add\n        /* \"#utility.yul\":1217:1223   */\n      dup6\n        /* \"#utility.yul\":1173:1244   */\n      tag_47\n      jump\t// in\n    tag_52:\n        /* \"#utility.yul\":1291:1300   */\n      dup2\n        /* \"#utility.yul\":1285:1289   */\n      dup2\n        /* \"#utility.yul\":1281:1301   */\n      sub\n        /* \"#utility.yul\":1276:1278   */\n      0x20\n        /* \"#utility.yul\":1265:1274   */\n      dup4\n        /* \"#utility.yul\":1261:1279   */\n      add\n        /* \"#utility.yul\":1254:1302   */\n      mstore\n        /* \"#utility.yul\":1319:1397   */\n      tag_53\n        /* \"#utility.yul\":1392:1396   */\n      dup2\n        /* \"#utility.yul\":1383:1389   */\n      dup5\n        /* \"#utility.yul\":1319:1397   */\n      tag_37\n      jump\t// in\n    tag_53:\n        /* \"#utility.yul\":1311:1397   */\n      swap1\n      pop\n        /* \"#utility.yul\":981:1404   */\n      swap4\n      swap3\n      pop\n      pop\n      pop\n      jump\t// out\n        /* \"#utility.yul\":1491:1590   */\n    tag_40:\n        /* \"#utility.yul\":1543:1549   */\n      0x00\n        /* \"#utility.yul\":1577:1582   */\n      dup2\n        /* \"#utility.yul\":1571:1583   */\n      mload\n        /* \"#utility.yul\":1561:1583   */\n      swap1\n      pop\n        /* \"#utility.yul\":1491:1590   */\n      swap2\n      swap1\n      pop\n      jump\t// out\n        /* \"#utility.yul\":1596:1765   */\n    tag_42:\n        /* \"#utility.yul\":1680:1691   */\n      0x00\n        /* \"#utility.yul\":1714:1720   */\n      dup3\n        /* \"#utility.yul\":1709:1712   */\n      dup3\n        /* \"#utility.yul\":1702:1721   */\n      mstore\n        /* \"#utility.yul\":1754:1758   */\n      0x20\n        /* \"#utility.yul\":1749:1752   */\n      dup3\n        /* \"#utility.yul\":1745:1759   */\n      add\n        /* \"#utility.yul\":1730:1759   */\n      swap1\n      pop\n        /* \"#utility.yul\":1596:1765   */\n      swap3\n      swap2\n      pop\n      pop\n      jump\t// out\n        /* \"#utility.yul\":1771:1848   */\n    tag_50:\n        /* \"#utility.yul\":1808:1815   */\n      0x00\n        /* \"#utility.yul\":1837:1842   */\n      dup2\n        /* \"#utility.yul\":1826:1842   */\n      swap1\n      pop\n        /* \"#utility.yul\":1771:1848   */\n      swap2\n      swap1\n      pop\n      jump\t// out\n        /* \"#utility.yul\":1854:2161   */\n    tag_44:\n        /* \"#utility.yul\":1922:1923   */\n      0x00\n        /* \"#utility.yul\":1932:2045   */\n    tag_60:\n        /* \"#utility.yul\":1946:1952   */\n      dup4\n        /* \"#utility.yul\":1943:1944   */\n      dup2\n        /* \"#utility.yul\":1940:1953   */\n      lt\n        /* \"#utility.yul\":1932:2045   */\n      iszero\n      tag_62\n      jumpi\n        /* \"#utility.yul\":2031:2032   */\n      dup1\n        /* \"#utility.yul\":2026:2029   */\n      dup3\n        /* \"#utility.yul\":2022:2033   */\n      add\n        /* \"#utility.yul\":2016:2034   */\n      mload\n        /* \"#utility.yul\":2012:2013   */\n      dup2\n        /* \"#utility.yul\":2007:2010   */\n      dup5\n        /* \"#utility.yul\":2003:2014   */\n      add\n        /* \"#utility.yul\":1996:2035   */\n      mstore\n        /* \"#utility.yul\":1968:1970   */\n      0x20\n        /* \"#utility.yul\":1965:1966   */\n      dup2\n        /* \"#utility.yul\":1961:1971   */\n      add\n        /* \"#utility.yul\":1956:1971   */\n      swap1\n      pop\n        /* \"#utility.yul\":1932:2045   */\n      jump(tag_60)\n    tag_62:\n        /* \"#utility.yul\":2063:2069   */\n      dup4\n        /* \"#utility.yul\":2060:2061   */\n      dup2\n        /* \"#utility.yul\":2057:2070   */\n      gt\n        /* \"#utility.yul\":2054:2155   */\n      iszero\n      tag_63\n      jumpi\n        /* \"#utility.yul\":2143:2144   */\n      0x00\n        /* \"#utility.yul\":2134:2140   */\n      dup5\n        /* \"#utility.yul\":2129:2132   */\n      dup5\n        /* \"#utility.yul\":2125:2141   */\n      add\n        /* \"#utility.yul\":2118:2145   */\n      mstore\n        /* \"#utility.yul\":2054:2155   */\n    tag_63:\n        /* \"#utility.yul\":1903:2161   */\n      pop\n        /* \"#utility.yul\":1854:2161   */\n      pop\n      pop\n      pop\n      jump\t// out\n        /* \"#utility.yul\":2167:2487   */\n    tag_15:\n        /* \"#utility.yul\":2211:2217   */\n      0x00\n        /* \"#utility.yul\":2248:2249   */\n      0x02\n        /* \"#utility.yul\":2242:2246   */\n      dup3\n        /* \"#utility.yul\":2238:2250   */\n      div\n        /* \"#utility.yul\":2228:2250   */\n      swap1\n      pop\n        /* \"#utility.yul\":2295:2296   */\n      0x01\n        /* \"#utility.yul\":2289:2293   */\n      dup3\n        /* \"#utility.yul\":2285:2297   */\n      and\n        /* \"#utility.yul\":2316:2334   */\n      dup1\n        /* \"#utility.yul\":2306:2387   */\n      tag_65\n      jumpi\n        /* \"#utility.yul\":2372:2376   */\n      0x7f\n        /* \"#utility.yul\":2364:2370   */\n      dup3\n        /* \"#utility.yul\":2360:2377   */\n      and\n        /* \"#utility.yul\":2350:2377   */\n      swap2\n      pop\n        /* \"#utility.yul\":2306:2387   */\n    tag_65:\n        /* \"#utility.yul\":2434:2436   */\n      0x20\n        /* \"#utility.yul\":2426:2432   */\n      dup3\n        /* \"#utility.yul\":2423:2437   */\n      lt\n        /* \"#utility.yul\":2403:2421   */\n      dup2\n        /* \"#utility.yul\":2400:2438   */\n      eq\n        /* \"#utility.yul\":2397:2481   */\n      iszero\n      tag_66\n      jumpi\n        /* \"#utility.yul\":2453:2471   */\n      tag_67\n      tag_68\n      jump\t// in\n    tag_67:\n        /* \"#utility.yul\":2397:2481   */\n    tag_66:\n        /* \"#utility.yul\":2218:2487   */\n      pop\n        /* \"#utility.yul\":2167:2487   */\n      swap2\n      swap1\n      pop\n      jump\t// out\n        /* \"#utility.yul\":2493:2673   */\n    tag_68:\n        /* \"#utility.yul\":2541:2618   */\n      0x4e487b7100000000000000000000000000000000000000000000000000000000\n        /* \"#utility.yul\":2538:2539   */\n      0x00\n        /* \"#utility.yul\":2531:2619   */\n      mstore\n        /* \"#utility.yul\":2638:2642   */\n      0x22\n        /* \"#utility.yul\":2635:2636   */\n      0x04\n        /* \"#utility.yul\":2628:2643   */\n      mstore\n        /* \"#utility.yul\":2662:2666   */\n      0x24\n        /* \"#utility.yul\":2659:2660   */\n      0x00\n        /* \"#utility.yul\":2652:2667   */\n      revert\n        /* \"#utility.yul\":2802:2919   */\n    tag_35:\n        /* \"#utility.yul\":2911:2912   */\n      0x00\n        /* \"#utility.yul\":2908:2909   */\n      dup1\n        /* \"#utility.yul\":2901:2913   */\n      revert\n        /* \"#utility.yul\":2925:3027   */\n    tag_46:\n        /* \"#utility.yul\":2966:2972   */\n      0x00\n        /* \"#utility.yul\":3017:3019   */\n      0x1f\n        /* \"#utility.yul\":3013:3020   */\n      not\n        /* \"#utility.yul\":3008:3010   */\n      0x1f\n        /* \"#utility.yul\":3001:3006   */\n      dup4\n        /* \"#utility.yul\":2997:3011   */\n      add\n        /* \"#utility.yul\":2993:3021   */\n      and\n        /* \"#utility.yul\":2983:3021   */\n      swap1\n      pop\n        /* \"#utility.yul\":2925:3027   */\n      swap2\n      swap1\n      pop\n      jump\t// out\n        /* \"#utility.yul\":3033:3155   */\n    tag_31:\n        /* \"#utility.yul\":3106:3130   */\n      tag_75\n        /* \"#utility.yul\":3124:3129   */\n      dup2\n        /* \"#utility.yul\":3106:3130   */\n      tag_50\n      jump\t// in\n    tag_75:\n        /* \"#utility.yul\":3099:3104   */\n      dup2\n        /* \"#utility.yul\":3096:3131   */\n      eq\n        /* \"#utility.yul\":3086:3149   */\n      tag_76\n      jumpi\n        /* \"#utility.yul\":3145:3146   */\n      0x00\n        /* \"#utility.yul\":3142:3143   */\n      dup1\n        /* \"#utility.yul\":3135:3147   */\n      revert\n        /* \"#utility.yul\":3086:3149   */\n    tag_76:\n        /* \"#utility.yul\":3033:3155   */\n      pop\n      jump\t// out\n\n    auxdata: 0xa26469706673582212202563872cc0c1348a82d1550205899971d5b171c68623be134d5a21c51a4eaf6164736f6c63430008070033\n}\n",
				"bytecode": {
					"linkReferences": {},
					"object": "60806040526040518060400160405280600281526020016040518060400160405280600481526020017f596f656c000000000000000000000000000000000000000000000000000000008152508152506000808201518160000155602082015181600101908051906020019061007692919061008b565b50505034801561008557600080fd5b5061018f565b8280546100979061012e565b90600052602060002090601f0160209004810192826100b95760008555610100565b82601f106100d257805160ff1916838001178555610100565b82800160010185558215610100579182015b828111156100ff5782518255916020019190600101906100e4565b5b50905061010d9190610111565b5090565b5b8082111561012a576000816000905550600101610112565b5090565b6000600282049050600182168061014657607f821691505b6020821081141561015a57610159610160565b5b50919050565b7f4e487b7100000000000000000000000000000000000000000000000000000000600052602260045260246000fd5b6103b88061019e6000396000f3fe608060405234801561001057600080fd5b50600436106100365760003560e01c806377ec2b551461003b5780639e7a13ad1461005a575b600080fd5b61004361008b565b60405161005192919061026b565b60405180910390f35b610074600480360381019061006f91906101f6565b610125565b60405161008292919061026b565b60405180910390f35b60008060000154908060010180546100a2906102f4565b80601f01602080910402602001604051908101604052809291908181526020018280546100ce906102f4565b801561011b5780601f106100f05761010080835404028352916020019161011b565b820191906000526020600020905b8154815290600101906020018083116100fe57829003601f168201915b5050505050905082565b6002818154811061013557600080fd5b906000526020600020906002020160009150905080600001549080600101805461015e906102f4565b80601f016020809104026020016040519081016040528092919081815260200182805461018a906102f4565b80156101d75780601f106101ac576101008083540402835291602001916101d7565b820191906000526020600020905b8154815290600101906020018083116101ba57829003601f168201915b5050505050905082565b6000813590506101f08161036b565b92915050565b60006020828403121561020c5761020b610355565b5b600061021a848285016101e1565b91505092915050565b600061022e8261029b565b61023881856102a6565b93506102488185602086016102c1565b6102518161035a565b840191505092915050565b610265816102b7565b82525050565b6000604082019050610280600083018561025c565b81810360208301526102928184610223565b90509392505050565b600081519050919050565b600082825260208201905092915050565b6000819050919050565b60005b838110156102df5780820151818401526020810190506102c4565b838111156102ee576000848401525b50505050565b6000600282049050600182168061030c57607f821691505b602082108114156103205761031f610326565b5b50919050565b7f4e487b7100000000000000000000000000000000000000000000000000000000600052602260045260246000fd5b600080fd5b6000601f19601f8301169050919050565b610374816102b7565b811461037f57600080fd5b5056fea26469706673582212202563872cc0c1348a82d1550205899971d5b171c68623be134d5a21c51a4eaf6164736f6c63430008070033",
					"opcodes": "PUSH1 0x80 PUSH1 0x40 MSTORE PUSH1 0x40 MLOAD DUP1 PUSH1 0x40 ADD PUSH1 0x40 MSTORE DUP1 PUSH1 0x2 DUP2 MSTORE PUSH1 0x20 ADD PUSH1 0x40 MLOAD DUP1 PUSH1 0x40 ADD PUSH1 0x40 MSTORE DUP1 PUSH1 0x4 DUP2 MSTORE PUSH1 0x20 ADD PUSH32 0x596F656C00000000000000000000000000000000000000000000000000000000 DUP2 MSTORE POP DUP2 MSTORE POP PUSH1 0x0 DUP1 DUP3 ADD MLOAD DUP2 PUSH1 0x0 ADD SSTORE PUSH1 0x20 DUP3 ADD MLOAD DUP2 PUSH1 0x1 ADD SWAP1 DUP1 MLOAD SWAP1 PUSH1 0x20 ADD SWAP1 PUSH2 0x76 SWAP3 SWAP2 SWAP1 PUSH2 0x8B JUMP JUMPDEST POP POP POP CALLVALUE DUP1 ISZERO PUSH2 0x85 JUMPI PUSH1 0x0 DUP1 REVERT JUMPDEST POP PUSH2 0x18F JUMP JUMPDEST DUP3 DUP1 SLOAD PUSH2 0x97 SWAP1 PUSH2 0x12E JUMP JUMPDEST SWAP1 PUSH1 0x0 MSTORE PUSH1 0x20 PUSH1 0x0 KECCAK256 SWAP1 PUSH1 0x1F ADD PUSH1 0x20 SWAP1 DIV DUP2 ADD SWAP3 DUP3 PUSH2 0xB9 JUMPI PUSH1 0x0 DUP6 SSTORE PUSH2 0x100 JUMP JUMPDEST DUP3 PUSH1 0x1F LT PUSH2 0xD2 JUMPI DUP1 MLOAD PUSH1 0xFF NOT AND DUP4 DUP1 ADD OR DUP6 SSTORE PUSH2 0x100 JUMP JUMPDEST DUP3 DUP1 ADD PUSH1 0x1 ADD DUP6 SSTORE DUP3 ISZERO PUSH2 0x100 JUMPI SWAP2 DUP3 ADD JUMPDEST DUP3 DUP2 GT ISZERO PUSH2 0xFF JUMPI DUP3 MLOAD DUP3 SSTORE SWAP2 PUSH1 0x20 ADD SWAP2 SWAP1 PUSH1 0x1 ADD SWAP1 PUSH2 0xE4 JUMP JUMPDEST JUMPDEST POP SWAP1 POP PUSH2 0x10D SWAP2 SWAP1 PUSH2 0x111 JUMP JUMPDEST POP SWAP1 JUMP JUMPDEST JUMPDEST DUP1 DUP3 GT ISZERO PUSH2 0x12A JUMPI PUSH1 0x0 DUP2 PUSH1 0x0 SWAP1 SSTORE POP PUSH1 0x1 ADD PUSH2 0x112 JUMP JUMPDEST POP SWAP1 JUMP JUMPDEST PUSH1 0x0 PUSH1 0x2 DUP3 DIV SWAP1 POP PUSH1 0x1 DUP3 AND DUP1 PUSH2 0x146 JUMPI PUSH1 0x7F DUP3 AND SWAP2 POP JUMPDEST PUSH1 0x20 DUP3 LT DUP2 EQ ISZERO PUSH2 0x15A JUMPI PUSH2 0x159 PUSH2 0x160 JUMP JUMPDEST JUMPDEST POP SWAP2 SWAP1 POP JUMP JUMPDEST PUSH32 0x4E487B7100000000000000000000000000000000000000000000000000000000 PUSH1 0x0 MSTORE PUSH1 0x22 PUSH1 0x4 MSTORE PUSH1 0x24 PUSH1 0x0 REVERT JUMPDEST PUSH2 0x3B8 DUP1 PUSH2 0x19E PUSH1 0x0 CODECOPY PUSH1 0x0 RETURN INVALID PUSH1 0x80 PUSH1 0x40 MSTORE CALLVALUE DUP1 ISZERO PUSH2 0x10 JUMPI PUSH1 0x0 DUP1 REVERT JUMPDEST POP PUSH1 0x4 CALLDATASIZE LT PUSH2 0x36 JUMPI PUSH1 0x0 CALLDATALOAD PUSH1 0xE0 SHR DUP1 PUSH4 0x77EC2B55 EQ PUSH2 0x3B JUMPI DUP1 PUSH4 0x9E7A13AD EQ PUSH2 0x5A JUMPI JUMPDEST PUSH1 0x0 DUP1 REVERT JUMPDEST PUSH2 0x43 PUSH2 0x8B JUMP JUMPDEST PUSH1 0x40 MLOAD PUSH2 0x51 SWAP3 SWAP2 SWAP1 PUSH2 0x26B JUMP JUMPDEST PUSH1 0x40 MLOAD DUP1 SWAP2 SUB SWAP1 RETURN JUMPDEST PUSH2 0x74 PUSH1 0x4 DUP1 CALLDATASIZE SUB DUP2 ADD SWAP1 PUSH2 0x6F SWAP2 SWAP1 PUSH2 0x1F6 JUMP JUMPDEST PUSH2 0x125 JUMP JUMPDEST PUSH1 0x40 MLOAD PUSH2 0x82 SWAP3 SWAP2 SWAP1 PUSH2 0x26B JUMP JUMPDEST PUSH1 0x40 MLOAD DUP1 SWAP2 SUB SWAP1 RETURN JUMPDEST PUSH1 0x0 DUP1 PUSH1 0x0 ADD SLOAD SWAP1 DUP1 PUSH1 0x1 ADD DUP1 SLOAD PUSH2 0xA2 SWAP1 PUSH2 0x2F4 JUMP JUMPDEST DUP1 PUSH1 0x1F ADD PUSH1 0x20 DUP1 SWAP2 DIV MUL PUSH1 0x20 ADD PUSH1 0x40 MLOAD SWAP1 DUP2 ADD PUSH1 0x40 MSTORE DUP1 SWAP3 SWAP2 SWAP1 DUP2 DUP2 MSTORE PUSH1 0x20 ADD DUP3 DUP1 SLOAD PUSH2 0xCE SWAP1 PUSH2 0x2F4 JUMP JUMPDEST DUP1 ISZERO PUSH2 0x11B JUMPI DUP1 PUSH1 0x1F LT PUSH2 0xF0 JUMPI PUSH2 0x100 DUP1 DUP4 SLOAD DIV MUL DUP4 MSTORE SWAP2 PUSH1 0x20 ADD SWAP2 PUSH2 0x11B JUMP JUMPDEST DUP3 ADD SWAP2 SWAP1 PUSH1 0x0 MSTORE PUSH1 0x20 PUSH1 0x0 KECCAK256 SWAP1 JUMPDEST DUP2 SLOAD DUP2 MSTORE SWAP1 PUSH1 0x1 ADD SWAP1 PUSH1 0x20 ADD DUP1 DUP4 GT PUSH2 0xFE JUMPI DUP3 SWAP1 SUB PUSH1 0x1F AND DUP3 ADD SWAP2 JUMPDEST POP POP POP POP POP SWAP1 POP DUP3 JUMP JUMPDEST PUSH1 0x2 DUP2 DUP2 SLOAD DUP2 LT PUSH2 0x135 JUMPI PUSH1 0x0 DUP1 REVERT JUMPDEST SWAP1 PUSH1 0x0 MSTORE PUSH1 0x20 PUSH1 0x0 KECCAK256 SWAP1 PUSH1 0x2 MUL ADD PUSH1 0x0 SWAP2 POP SWAP1 POP DUP1 PUSH1 0x0 ADD SLOAD SWAP1 DUP1 PUSH1 0x1 ADD DUP1 SLOAD PUSH2 0x15E SWAP1 PUSH2 0x2F4 JUMP JUMPDEST DUP1 PUSH1 0x1F ADD PUSH1 0x20 DUP1 SWAP2 DIV MUL PUSH1 0x20 ADD PUSH1 0x40 MLOAD SWAP1 DUP2 ADD PUSH1 0x40 MSTORE DUP1 SWAP3 SWAP2 SWAP1 DUP2 DUP2 MSTORE PUSH1 0x20 ADD DUP3 DUP1 SLOAD PUSH2 0x18A SWAP1 PUSH2 0x2F4 JUMP JUMPDEST DUP1 ISZERO PUSH2 0x1D7 JUMPI DUP1 PUSH1 0x1F LT PUSH2 0x1AC JUMPI PUSH2 0x100 DUP1 DUP4 SLOAD DIV MUL DUP4 MSTORE SWAP2 PUSH1 0x20 ADD SWAP2 PUSH2 0x1D7 JUMP JUMPDEST DUP3 ADD SWAP2 SWAP1 PUSH1 0x0 MSTORE PUSH1 0x20 PUSH1 0x0 KECCAK256 SWAP1 JUMPDEST DUP2 SLOAD DUP2 MSTORE SWAP1 PUSH1 0x1 ADD SWAP1 PUSH1 0x20 ADD DUP1 DUP4 GT PUSH2 0x1BA JUMPI DUP3 SWAP1 SUB PUSH1 0x1F AND DUP3 ADD SWAP2 JUMPDEST POP POP POP POP POP SWAP1 POP DUP3 JUMP JUMPDEST PUSH1 0x0 DUP2 CALLDATALOAD SWAP1 POP PUSH2 0x1F0 DUP2 PUSH2 0x36B JUMP JUMPDEST SWAP3 SWAP2 POP POP JUMP JUMPDEST PUSH1 0x0 PUSH1 0x20 DUP3 DUP5 SUB SLT ISZERO PUSH2 0x20C JUMPI PUSH2 0x20B PUSH2 0x355 JUMP JUMPDEST JUMPDEST PUSH1 0x0 PUSH2 0x21A DUP5 DUP3 DUP6 ADD PUSH2 0x1E1 JUMP JUMPDEST SWAP2 POP POP SWAP3 SWAP2 POP POP JUMP JUMPDEST PUSH1 0x0 PUSH2 0x22E DUP3 PUSH2 0x29B JUMP JUMPDEST PUSH2 0x238 DUP2 DUP6 PUSH2 0x2A6 JUMP JUMPDEST SWAP4 POP PUSH2 0x248 DUP2 DUP6 PUSH1 0x20 DUP7 ADD PUSH2 0x2C1 JUMP JUMPDEST PUSH2 0x251 DUP2 PUSH2 0x35A JUMP JUMPDEST DUP5 ADD SWAP2 POP POP SWAP3 SWAP2 POP POP JUMP JUMPDEST PUSH2 0x265 DUP2 PUSH2 0x2B7 JUMP JUMPDEST DUP3 MSTORE POP POP JUMP JUMPDEST PUSH1 0x0 PUSH1 0x40 DUP3 ADD SWAP1 POP PUSH2 0x280 PUSH1 0x0 DUP4 ADD DUP6 PUSH2 0x25C JUMP JUMPDEST DUP2 DUP2 SUB PUSH1 0x20 DUP4 ADD MSTORE PUSH2 0x292 DUP2 DUP5 PUSH2 0x223 JUMP JUMPDEST SWAP1 POP SWAP4 SWAP3 POP POP POP JUMP JUMPDEST PUSH1 0x0 DUP2 MLOAD SWAP1 POP SWAP2 SWAP1 POP JUMP JUMPDEST PUSH1 0x0 DUP3 DUP3 MSTORE PUSH1 0x20 DUP3 ADD SWAP1 POP SWAP3 SWAP2 POP POP JUMP JUMPDEST PUSH1 0x0 DUP2 SWAP1 POP SWAP2 SWAP1 POP JUMP JUMPDEST PUSH1 0x0 JUMPDEST DUP4 DUP2 LT ISZERO PUSH2 0x2DF JUMPI DUP1 DUP3 ADD MLOAD DUP2 DUP5 ADD MSTORE PUSH1 0x20 DUP2 ADD SWAP1 POP PUSH2 0x2C4 JUMP JUMPDEST DUP4 DUP2 GT ISZERO PUSH2 0x2EE JUMPI PUSH1 0x0 DUP5 DUP5 ADD MSTORE JUMPDEST POP POP POP POP JUMP JUMPDEST PUSH1 0x0 PUSH1 0x2 DUP3 DIV SWAP1 POP PUSH1 0x1 DUP3 AND DUP1 PUSH2 0x30C JUMPI PUSH1 0x7F DUP3 AND SWAP2 POP JUMPDEST PUSH1 0x20 DUP3 LT DUP2 EQ ISZERO PUSH2 0x320 JUMPI PUSH2 0x31F PUSH2 0x326 JUMP JUMPDEST JUMPDEST POP SWAP2 SWAP1 POP JUMP JUMPDEST PUSH32 0x4E487B7100000000000000000000000000000000000000000000000000000000 PUSH1 0x0 MSTORE PUSH1 0x22 PUSH1 0x4 MSTORE PUSH1 0x24 PUSH1 0x0 REVERT JUMPDEST PUSH1 0x0 DUP1 REVERT JUMPDEST PUSH1 0x0 PUSH1 0x1F NOT PUSH1 0x1F DUP4 ADD AND SWAP1 POP SWAP2 SWAP1 POP JUMP JUMPDEST PUSH2 0x374 DUP2 PUSH2 0x2B7 JUMP JUMPDEST DUP2 EQ PUSH2 0x37F JUMPI PUSH1 0x0 DUP1 REVERT JUMPDEST POP JUMP INVALID LOG2 PUSH5 0x6970667358 0x22 SLT KECCAK256 0x25 PUSH4 0x872CC0C1 CALLVALUE DUP11 DUP3 0xD1 SSTORE MUL SDIV DUP10 SWAP10 PUSH18 0xD5B171C68623BE134D5A21C51A4EAF616473 PUSH16 0x6C634300080700330000000000000000 "
				},
				"gasEstimates": {
					"creation": {
						"codeDepositCost": "190400",
						"executionCost": "infinite",
						"totalCost": "infinite"
					},
					"external": {
						"people(uint256)": "infinite",
						"person()": "infinite"
					}
				},
				"methodIdentifiers": {
					"people(uint256)": "9e7a13ad",
					"person()": "77ec2b55"
				}
			},
			"storageLayout": {
				"storage": [
					{
						"astId": 8,
						"contract": "contracts/ArrayStruct.sol:ArrayStruct",
						"label": "person",
						"offset": 0,
						"slot": "0",
						"type": "t_struct(People)13_storage"
					},
					{
						"astId": 17,
						"contract": "contracts/ArrayStruct.sol:ArrayStruct",
						"label": "people",
						"offset": 0,
						"slot": "2",
						"type": "t_array(t_struct(People)13_storage)dyn_storage"
					}
				],
				"types": {
					"t_array(t_struct(People)13_storage)dyn_storage": {
						"base": "t_struct(People)13_storage",
						"encoding": "dynamic_array",
						"label": "struct ArrayStruct.People[]",
						"numberOfBytes": "32"
					},
					"t_string_storage": {
						"encoding": "bytes",
						"label": "string",
						"numberOfBytes": "32"
					},
					"t_struct(People)13_storage": {
						"encoding": "inplace",
						"label": "struct ArrayStruct.People",
						"members": [
							{
								"astId": 10,
								"contract": "contracts/ArrayStruct.sol:ArrayStruct",
								"label": "favoriteNumber",
								"offset": 0,
								"slot": "0",
								"type": "t_uint256"
							},
							{
								"astId": 12,
								"contract": "contracts/ArrayStruct.sol:ArrayStruct",
								"label": "name",
								"offset": 0,
								"slot": "1",
								"type": "t_string_storage"
							}
						],
						"numberOfBytes": "64"
					},
					"t_uint256": {
						"encoding": "inplace",
						"label": "uint256",
						"numberOfBytes": "32"
					}
				}
			},
			"userdoc": {
				"kind": "user",
				"methods": {},
				"version": 1
			}
		}
	}
}