{
	"contracts/FundMe.sol": {
		"Fundme": {
			"abi": [
				{
					"inputs": [
						{
							"internalType": "address",
							"name": "",
							"type": "address"
						}
					],
					"name": "addressToAmountFunded",
					"outputs": [
						{
							"internalType": "uint256",
							"name": "",
							"type": "uint256"
						}
					],
					"stateMutability": "view",
					"type": "function"
				},
				{
					"inputs": [],
					"name": "fund",
					"outputs": [],
					"stateMutability": "payable",
					"type": "function"
				},
				{
					"inputs": [
						{
							"internalType": "uint256",
							"name": "ethAmount",
							"type": "uint256"
						}
					],
					"name": "getConversionRate",
					"outputs": [
						{
							"internalType": "uint256",
							"name": "",
							"type": "uint256"
						}
					],
					"stateMutability": "view",
					"type": "function"
				},
				{
					"inputs": [],
					"name": "getPrice",
					"outputs": [
						{
							"internalType": "uint256",
							"name": "",
							"type": "uint256"
						}
					],
					"stateMutability": "view",
					"type": "function"
				},
				{
					"inputs": [],
					"name": "getVersion",
					"outputs": [
						{
							"internalType": "uint256",
							"name": "",
							"type": "uint256"
						}
					],
					"stateMutability": "view",
					"type": "function"
				},
				{
					"inputs": [],
					"name": "minimunUsd",
					"outputs": [
						{
							"internalType": "uint256",
							"name": "",
							"type": "uint256"
						}
					],
					"stateMutability": "view",
					"type": "function"
				}
			],
			"devdoc": {
				"kind": "dev",
				"methods": {},
				"version": 1
			},
			"evm": {
				"assembly": "    /* \"contracts/FundMe.sol\":307:3353  contract Fundme{... */\n  mstore(0x40, 0x80)\n    /* \"contracts/FundMe.sol\":522:531  50 * 1e18 */\n  0x02b5e3af16b1880000\n    /* \"contracts/FundMe.sol\":494:531  uint256 public minimunUsd = 50 * 1e18 */\n  0x00\n  sstore\n    /* \"contracts/FundMe.sol\":307:3353  contract Fundme{... */\n  callvalue\n  dup1\n  iszero\n  tag_1\n  jumpi\n  0x00\n  dup1\n  revert\ntag_1:\n  pop\n  dataSize(sub_0)\n  dup1\n  dataOffset(sub_0)\n  0x00\n  codecopy\n  0x00\n  return\nstop\n\nsub_0: assembly {\n        /* \"contracts/FundMe.sol\":307:3353  contract Fundme{... */\n      mstore(0x40, 0x80)\n      jumpi(tag_1, lt(calldatasize, 0x04))\n      shr(0xe0, calldataload(0x00))\n      dup1\n      0x0d8e6e2c\n      eq\n      tag_2\n      jumpi\n      dup1\n      0x3e47d6f3\n      eq\n      tag_3\n      jumpi\n      dup1\n      0x6e5b6b28\n      eq\n      tag_4\n      jumpi\n      dup1\n      0x98d5fdca\n      eq\n      tag_5\n      jumpi\n      dup1\n      0xb60d4288\n      eq\n      tag_6\n      jumpi\n      dup1\n      0xe5e18b1a\n      eq\n      tag_7\n      jumpi\n    tag_1:\n      0x00\n      dup1\n      revert\n        /* \"contracts/FundMe.sol\":1481:1708  function getVersion() public view returns (uint256){... */\n    tag_2:\n      callvalue\n      dup1\n      iszero\n      tag_8\n      jumpi\n      0x00\n      dup1\n      revert\n    tag_8:\n      pop\n      tag_9\n      tag_10\n      jump\t// in\n    tag_9:\n      mload(0x40)\n      tag_11\n      swap2\n      swap1\n      tag_12\n      jump\t// in\n    tag_11:\n      mload(0x40)\n      dup1\n      swap2\n      sub\n      swap1\n      return\n        /* \"contracts/FundMe.sol\":715:771  mapping(address => uint256) public addressToAmountFunded */\n    tag_3:\n      callvalue\n      dup1\n      iszero\n      tag_13\n      jumpi\n      0x00\n      dup1\n      revert\n    tag_13:\n      pop\n      tag_14\n      0x04\n      dup1\n      calldatasize\n      sub\n      dup2\n      add\n      swap1\n      tag_15\n      swap2\n      swap1\n      tag_16\n      jump\t// in\n    tag_15:\n      tag_17\n      jump\t// in\n    tag_14:\n      mload(0x40)\n      tag_18\n      swap2\n      swap1\n      tag_12\n      jump\t// in\n    tag_18:\n      mload(0x40)\n      dup1\n      swap2\n      sub\n      swap1\n      return\n        /* \"contracts/FundMe.sol\":2870:3324  function getConversionRate(uint256 ethAmount)public view returns(uint256){... */\n    tag_4:\n      callvalue\n      dup1\n      iszero\n      tag_19\n      jumpi\n      0x00\n      dup1\n      revert\n    tag_19:\n      pop\n      tag_20\n      0x04\n      dup1\n      calldatasize\n      sub\n      dup2\n      add\n      swap1\n      tag_21\n      swap2\n      swap1\n      tag_22\n      jump\t// in\n    tag_21:\n      tag_23\n      jump\t// in\n    tag_20:\n      mload(0x40)\n      tag_24\n      swap2\n      swap1\n      tag_12\n      jump\t// in\n    tag_24:\n      mload(0x40)\n      dup1\n      swap2\n      sub\n      swap1\n      return\n        /* \"contracts/FundMe.sol\":1722:2858  function getPrice() public view returns(uint256){... */\n    tag_5:\n      callvalue\n      dup1\n      iszero\n      tag_25\n      jumpi\n      0x00\n      dup1\n      revert\n    tag_25:\n      pop\n      tag_26\n      tag_27\n      jump\t// in\n    tag_26:\n      mload(0x40)\n      tag_28\n      swap2\n      swap1\n      tag_12\n      jump\t// in\n    tag_28:\n      mload(0x40)\n      dup1\n      swap2\n      sub\n      swap1\n      return\n        /* \"contracts/FundMe.sol\":878:1408  function fund() public payable{... */\n    tag_6:\n      tag_29\n      tag_30\n      jump\t// in\n    tag_29:\n      stop\n        /* \"contracts/FundMe.sol\":494:531  uint256 public minimunUsd = 50 * 1e18 */\n    tag_7:\n      callvalue\n      dup1\n      iszero\n      tag_31\n      jumpi\n      0x00\n      dup1\n      revert\n    tag_31:\n      pop\n      tag_32\n      tag_33\n      jump\t// in\n    tag_32:\n      mload(0x40)\n      tag_34\n      swap2\n      swap1\n      tag_12\n      jump\t// in\n    tag_34:\n      mload(0x40)\n      dup1\n      swap2\n      sub\n      swap1\n      return\n        /* \"contracts/FundMe.sol\":1481:1708  function getVersion() public view returns (uint256){... */\n    tag_10:\n        /* \"contracts/FundMe.sol\":1524:1531  uint256 */\n      0x00\n        /* \"contracts/FundMe.sol\":1551:1582  AggregatorV3Interface priceFeed */\n      dup1\n        /* \"contracts/FundMe.sol\":1607:1649  0xD4a33860578De61DBAbDc8BFdb98FD742fA7028e */\n      0xd4a33860578de61dbabdc8bfdb98fd742fa7028e\n        /* \"contracts/FundMe.sol\":1551:1650  AggregatorV3Interface priceFeed = AggregatorV3Interface(0xD4a33860578De61DBAbDc8BFdb98FD742fA7028e) */\n      swap1\n      pop\n        /* \"contracts/FundMe.sol\":1676:1685  priceFeed */\n      dup1\n        /* \"contracts/FundMe.sol\":1676:1693  priceFeed.version */\n      0xffffffffffffffffffffffffffffffffffffffff\n      and\n      0x54fd4d50\n        /* \"contracts/FundMe.sol\":1676:1695  priceFeed.version() */\n      mload(0x40)\n      dup2\n      0xffffffff\n      and\n      0xe0\n      shl\n      dup2\n      mstore\n      0x04\n      add\n      0x20\n      mload(0x40)\n      dup1\n      dup4\n      sub\n      dup2\n      dup7\n      gas\n      staticcall\n      iszero\n      dup1\n      iszero\n      tag_37\n      jumpi\n      returndatasize\n      0x00\n      dup1\n      returndatacopy\n      revert(0x00, returndatasize)\n    tag_37:\n      pop\n      pop\n      pop\n      pop\n      mload(0x40)\n      returndatasize\n      not(0x1f)\n      0x1f\n      dup3\n      add\n      and\n      dup3\n      add\n      dup1\n      0x40\n      mstore\n      pop\n      dup2\n      add\n      swap1\n      tag_38\n      swap2\n      swap1\n      tag_39\n      jump\t// in\n    tag_38:\n        /* \"contracts/FundMe.sol\":1669:1695  return priceFeed.version() */\n      swap2\n      pop\n      pop\n        /* \"contracts/FundMe.sol\":1481:1708  function getVersion() public view returns (uint256){... */\n      swap1\n      jump\t// out\n        /* \"contracts/FundMe.sol\":715:771  mapping(address => uint256) public addressToAmountFunded */\n    tag_17:\n      mstore(0x20, 0x01)\n      dup1\n      0x00\n      mstore\n      keccak256(0x00, 0x40)\n      0x00\n      swap2\n      pop\n      swap1\n      pop\n      sload\n      dup2\n      jump\t// out\n        /* \"contracts/FundMe.sol\":2870:3324  function getConversionRate(uint256 ethAmount)public view returns(uint256){... */\n    tag_23:\n        /* \"contracts/FundMe.sol\":2935:2942  uint256 */\n      0x00\n        /* \"contracts/FundMe.sol\":2964:2980  uint256 ethPrice */\n      dup1\n        /* \"contracts/FundMe.sol\":2983:2993  getPrice() */\n      tag_41\n        /* \"contracts/FundMe.sol\":2983:2991  getPrice */\n      tag_27\n        /* \"contracts/FundMe.sol\":2983:2993  getPrice() */\n      jump\t// in\n    tag_41:\n        /* \"contracts/FundMe.sol\":2964:2993  uint256 ethPrice = getPrice() */\n      swap1\n      pop\n        /* \"contracts/FundMe.sol\":3150:3172  uint256 ethAmountInUsd */\n      0x00\n        /* \"contracts/FundMe.sol\":3200:3204  1e18 */\n      0x0de0b6b3a7640000\n        /* \"contracts/FundMe.sol\":3187:3196  ethAmount */\n      dup5\n        /* \"contracts/FundMe.sol\":3176:3184  ethPrice */\n      dup4\n        /* \"contracts/FundMe.sol\":3176:3196  ethPrice * ethAmount */\n      tag_42\n      swap2\n      swap1\n      tag_43\n      jump\t// in\n    tag_42:\n        /* \"contracts/FundMe.sol\":3175:3204  (ethPrice * ethAmount) / 1e18 */\n      tag_44\n      swap2\n      swap1\n      tag_45\n      jump\t// in\n    tag_44:\n        /* \"contracts/FundMe.sol\":3150:3204  uint256 ethAmountInUsd = (ethPrice * ethAmount) / 1e18 */\n      swap1\n      pop\n        /* \"contracts/FundMe.sol\":3294:3308  ethAmountInUsd */\n      dup1\n        /* \"contracts/FundMe.sol\":3287:3308  return ethAmountInUsd */\n      swap3\n      pop\n      pop\n      pop\n        /* \"contracts/FundMe.sol\":2870:3324  function getConversionRate(uint256 ethAmount)public view returns(uint256){... */\n      swap2\n      swap1\n      pop\n      jump\t// out\n        /* \"contracts/FundMe.sol\":1722:2858  function getPrice() public view returns(uint256){... */\n    tag_27:\n        /* \"contracts/FundMe.sol\":1762:1769  uint256 */\n      0x00\n        /* \"contracts/FundMe.sol\":2104:2135  AggregatorV3Interface priceFeed */\n      dup1\n        /* \"contracts/FundMe.sol\":2160:2202  0xD4a33860578De61DBAbDc8BFdb98FD742fA7028e */\n      0xd4a33860578de61dbabdc8bfdb98fd742fa7028e\n        /* \"contracts/FundMe.sol\":2104:2203  AggregatorV3Interface priceFeed = AggregatorV3Interface(0xD4a33860578De61DBAbDc8BFdb98FD742fA7028e) */\n      swap1\n      pop\n        /* \"contracts/FundMe.sol\":2399:2411  int256 price */\n      0x00\n        /* \"contracts/FundMe.sol\":2418:2427  priceFeed */\n      dup2\n        /* \"contracts/FundMe.sol\":2418:2443  priceFeed.latestRoundData */\n      0xffffffffffffffffffffffffffffffffffffffff\n      and\n      0xfeaf968c\n        /* \"contracts/FundMe.sol\":2418:2445  priceFeed.latestRoundData() */\n      mload(0x40)\n      dup2\n      0xffffffff\n      and\n      0xe0\n      shl\n      dup2\n      mstore\n      0x04\n      add\n      0xa0\n      mload(0x40)\n      dup1\n      dup4\n      sub\n      dup2\n      dup7\n      gas\n      staticcall\n      iszero\n      dup1\n      iszero\n      tag_48\n      jumpi\n      returndatasize\n      0x00\n      dup1\n      returndatacopy\n      revert(0x00, returndatasize)\n    tag_48:\n      pop\n      pop\n      pop\n      pop\n      mload(0x40)\n      returndatasize\n      not(0x1f)\n      0x1f\n      dup3\n      add\n      and\n      dup3\n      add\n      dup1\n      0x40\n      mstore\n      pop\n      dup2\n      add\n      swap1\n      tag_49\n      swap2\n      swap1\n      tag_50\n      jump\t// in\n    tag_49:\n        /* \"contracts/FundMe.sol\":2397:2445  (,int256 price,,,) = priceFeed.latestRoundData() */\n      pop\n      pop\n      pop\n      swap2\n      pop\n      pop\n        /* \"contracts/FundMe.sol\":2809:2813  1e10 */\n      0x02540be400\n        /* \"contracts/FundMe.sol\":2801:2806  price */\n      dup2\n        /* \"contracts/FundMe.sol\":2801:2813  price * 1e10 */\n      tag_51\n      swap2\n      swap1\n      tag_52\n      jump\t// in\n    tag_51:\n        /* \"contracts/FundMe.sol\":2786:2814  return uint256(price * 1e10) */\n      swap3\n      pop\n      pop\n      pop\n        /* \"contracts/FundMe.sol\":1722:2858  function getPrice() public view returns(uint256){... */\n      swap1\n      jump\t// out\n        /* \"contracts/FundMe.sol\":878:1408  function fund() public payable{... */\n    tag_30:\n        /* \"contracts/FundMe.sol\":1122:1132  minimunUsd */\n      sload(0x00)\n        /* \"contracts/FundMe.sol\":1090:1118  getConversionRate(msg.value) */\n      tag_54\n        /* \"contracts/FundMe.sol\":1108:1117  msg.value */\n      callvalue\n        /* \"contracts/FundMe.sol\":1090:1107  getConversionRate */\n      tag_23\n        /* \"contracts/FundMe.sol\":1090:1118  getConversionRate(msg.value) */\n      jump\t// in\n    tag_54:\n        /* \"contracts/FundMe.sol\":1090:1132  getConversionRate(msg.value) >= minimunUsd */\n      lt\n      iszero\n        /* \"contracts/FundMe.sol\":1082:1155  require(getConversionRate(msg.value) >= minimunUsd, \"Saldo insuficiente\") */\n      tag_55\n      jumpi\n      mload(0x40)\n      0x08c379a000000000000000000000000000000000000000000000000000000000\n      dup2\n      mstore\n      0x04\n      add\n      tag_56\n      swap1\n      tag_57\n      jump\t// in\n    tag_56:\n      mload(0x40)\n      dup1\n      swap2\n      sub\n      swap1\n      revert\n    tag_55:\n        /* \"contracts/FundMe.sol\":878:1408  function fund() public payable{... */\n      jump\t// out\n        /* \"contracts/FundMe.sol\":494:531  uint256 public minimunUsd = 50 * 1e18 */\n    tag_33:\n      sload(0x00)\n      dup2\n      jump\t// out\n        /* \"#utility.yul\":7:84   */\n    tag_58:\n        /* \"#utility.yul\":44:51   */\n      0x00\n        /* \"#utility.yul\":73:78   */\n      dup2\n        /* \"#utility.yul\":62:78   */\n      swap1\n      pop\n        /* \"#utility.yul\":7:84   */\n      swap2\n      swap1\n      pop\n      jump\t// out\n        /* \"#utility.yul\":90:208   */\n    tag_59:\n        /* \"#utility.yul\":177:201   */\n      tag_84\n        /* \"#utility.yul\":195:200   */\n      dup2\n        /* \"#utility.yul\":177:201   */\n      tag_58\n      jump\t// in\n    tag_84:\n        /* \"#utility.yul\":172:175   */\n      dup3\n        /* \"#utility.yul\":165:202   */\n      mstore\n        /* \"#utility.yul\":90:208   */\n      pop\n      pop\n      jump\t// out\n        /* \"#utility.yul\":214:436   */\n    tag_12:\n        /* \"#utility.yul\":307:311   */\n      0x00\n        /* \"#utility.yul\":345:347   */\n      0x20\n        /* \"#utility.yul\":334:343   */\n      dup3\n        /* \"#utility.yul\":330:348   */\n      add\n        /* \"#utility.yul\":322:348   */\n      swap1\n      pop\n        /* \"#utility.yul\":358:429   */\n      tag_86\n        /* \"#utility.yul\":426:427   */\n      0x00\n        /* \"#utility.yul\":415:424   */\n      dup4\n        /* \"#utility.yul\":411:428   */\n      add\n        /* \"#utility.yul\":402:408   */\n      dup5\n        /* \"#utility.yul\":358:429   */\n      tag_59\n      jump\t// in\n    tag_86:\n        /* \"#utility.yul\":214:436   */\n      swap3\n      swap2\n      pop\n      pop\n      jump\t// out\n        /* \"#utility.yul\":523:640   */\n    tag_61:\n        /* \"#utility.yul\":632:633   */\n      0x00\n        /* \"#utility.yul\":629:630   */\n      dup1\n        /* \"#utility.yul\":622:634   */\n      revert\n        /* \"#utility.yul\":769:895   */\n    tag_63:\n        /* \"#utility.yul\":806:813   */\n      0x00\n        /* \"#utility.yul\":846:888   */\n      0xffffffffffffffffffffffffffffffffffffffff\n        /* \"#utility.yul\":839:844   */\n      dup3\n        /* \"#utility.yul\":835:889   */\n      and\n        /* \"#utility.yul\":824:889   */\n      swap1\n      pop\n        /* \"#utility.yul\":769:895   */\n      swap2\n      swap1\n      pop\n      jump\t// out\n        /* \"#utility.yul\":901:997   */\n    tag_64:\n        /* \"#utility.yul\":938:945   */\n      0x00\n        /* \"#utility.yul\":967:991   */\n      tag_92\n        /* \"#utility.yul\":985:990   */\n      dup3\n        /* \"#utility.yul\":967:991   */\n      tag_63\n      jump\t// in\n    tag_92:\n        /* \"#utility.yul\":956:991   */\n      swap1\n      pop\n        /* \"#utility.yul\":901:997   */\n      swap2\n      swap1\n      pop\n      jump\t// out\n        /* \"#utility.yul\":1003:1125   */\n    tag_65:\n        /* \"#utility.yul\":1076:1100   */\n      tag_94\n        /* \"#utility.yul\":1094:1099   */\n      dup2\n        /* \"#utility.yul\":1076:1100   */\n      tag_64\n      jump\t// in\n    tag_94:\n        /* \"#utility.yul\":1069:1074   */\n      dup2\n        /* \"#utility.yul\":1066:1101   */\n      eq\n        /* \"#utility.yul\":1056:1119   */\n      tag_95\n      jumpi\n        /* \"#utility.yul\":1115:1116   */\n      0x00\n        /* \"#utility.yul\":1112:1113   */\n      dup1\n        /* \"#utility.yul\":1105:1117   */\n      revert\n        /* \"#utility.yul\":1056:1119   */\n    tag_95:\n        /* \"#utility.yul\":1003:1125   */\n      pop\n      jump\t// out\n        /* \"#utility.yul\":1131:1270   */\n    tag_66:\n        /* \"#utility.yul\":1177:1182   */\n      0x00\n        /* \"#utility.yul\":1215:1221   */\n      dup2\n        /* \"#utility.yul\":1202:1222   */\n      calldataload\n        /* \"#utility.yul\":1193:1222   */\n      swap1\n      pop\n        /* \"#utility.yul\":1231:1264   */\n      tag_97\n        /* \"#utility.yul\":1258:1263   */\n      dup2\n        /* \"#utility.yul\":1231:1264   */\n      tag_65\n      jump\t// in\n    tag_97:\n        /* \"#utility.yul\":1131:1270   */\n      swap3\n      swap2\n      pop\n      pop\n      jump\t// out\n        /* \"#utility.yul\":1276:1605   */\n    tag_16:\n        /* \"#utility.yul\":1335:1341   */\n      0x00\n        /* \"#utility.yul\":1384:1386   */\n      0x20\n        /* \"#utility.yul\":1372:1381   */\n      dup3\n        /* \"#utility.yul\":1363:1370   */\n      dup5\n        /* \"#utility.yul\":1359:1382   */\n      sub\n        /* \"#utility.yul\":1355:1387   */\n      slt\n        /* \"#utility.yul\":1352:1471   */\n      iszero\n      tag_99\n      jumpi\n        /* \"#utility.yul\":1390:1469   */\n      tag_100\n      tag_61\n      jump\t// in\n    tag_100:\n        /* \"#utility.yul\":1352:1471   */\n    tag_99:\n        /* \"#utility.yul\":1510:1511   */\n      0x00\n        /* \"#utility.yul\":1535:1588   */\n      tag_101\n        /* \"#utility.yul\":1580:1587   */\n      dup5\n        /* \"#utility.yul\":1571:1577   */\n      dup3\n        /* \"#utility.yul\":1560:1569   */\n      dup6\n        /* \"#utility.yul\":1556:1578   */\n      add\n        /* \"#utility.yul\":1535:1588   */\n      tag_66\n      jump\t// in\n    tag_101:\n        /* \"#utility.yul\":1525:1588   */\n      swap2\n      pop\n        /* \"#utility.yul\":1481:1598   */\n      pop\n        /* \"#utility.yul\":1276:1605   */\n      swap3\n      swap2\n      pop\n      pop\n      jump\t// out\n        /* \"#utility.yul\":1611:1733   */\n    tag_67:\n        /* \"#utility.yul\":1684:1708   */\n      tag_103\n        /* \"#utility.yul\":1702:1707   */\n      dup2\n        /* \"#utility.yul\":1684:1708   */\n      tag_58\n      jump\t// in\n    tag_103:\n        /* \"#utility.yul\":1677:1682   */\n      dup2\n        /* \"#utility.yul\":1674:1709   */\n      eq\n        /* \"#utility.yul\":1664:1727   */\n      tag_104\n      jumpi\n        /* \"#utility.yul\":1723:1724   */\n      0x00\n        /* \"#utility.yul\":1720:1721   */\n      dup1\n        /* \"#utility.yul\":1713:1725   */\n      revert\n        /* \"#utility.yul\":1664:1727   */\n    tag_104:\n        /* \"#utility.yul\":1611:1733   */\n      pop\n      jump\t// out\n        /* \"#utility.yul\":1739:1878   */\n    tag_68:\n        /* \"#utility.yul\":1785:1790   */\n      0x00\n        /* \"#utility.yul\":1823:1829   */\n      dup2\n        /* \"#utility.yul\":1810:1830   */\n      calldataload\n        /* \"#utility.yul\":1801:1830   */\n      swap1\n      pop\n        /* \"#utility.yul\":1839:1872   */\n      tag_106\n        /* \"#utility.yul\":1866:1871   */\n      dup2\n        /* \"#utility.yul\":1839:1872   */\n      tag_67\n      jump\t// in\n    tag_106:\n        /* \"#utility.yul\":1739:1878   */\n      swap3\n      swap2\n      pop\n      pop\n      jump\t// out\n        /* \"#utility.yul\":1884:2213   */\n    tag_22:\n        /* \"#utility.yul\":1943:1949   */\n      0x00\n        /* \"#utility.yul\":1992:1994   */\n      0x20\n        /* \"#utility.yul\":1980:1989   */\n      dup3\n        /* \"#utility.yul\":1971:1978   */\n      dup5\n        /* \"#utility.yul\":1967:1990   */\n      sub\n        /* \"#utility.yul\":1963:1995   */\n      slt\n        /* \"#utility.yul\":1960:2079   */\n      iszero\n      tag_108\n      jumpi\n        /* \"#utility.yul\":1998:2077   */\n      tag_109\n      tag_61\n      jump\t// in\n    tag_109:\n        /* \"#utility.yul\":1960:2079   */\n    tag_108:\n        /* \"#utility.yul\":2118:2119   */\n      0x00\n        /* \"#utility.yul\":2143:2196   */\n      tag_110\n        /* \"#utility.yul\":2188:2195   */\n      dup5\n        /* \"#utility.yul\":2179:2185   */\n      dup3\n        /* \"#utility.yul\":2168:2177   */\n      dup6\n        /* \"#utility.yul\":2164:2186   */\n      add\n        /* \"#utility.yul\":2143:2196   */\n      tag_68\n      jump\t// in\n    tag_110:\n        /* \"#utility.yul\":2133:2196   */\n      swap2\n      pop\n        /* \"#utility.yul\":2089:2206   */\n      pop\n        /* \"#utility.yul\":1884:2213   */\n      swap3\n      swap2\n      pop\n      pop\n      jump\t// out\n        /* \"#utility.yul\":2219:2362   */\n    tag_69:\n        /* \"#utility.yul\":2276:2281   */\n      0x00\n        /* \"#utility.yul\":2307:2313   */\n      dup2\n        /* \"#utility.yul\":2301:2314   */\n      mload\n        /* \"#utility.yul\":2292:2314   */\n      swap1\n      pop\n        /* \"#utility.yul\":2323:2356   */\n      tag_112\n        /* \"#utility.yul\":2350:2355   */\n      dup2\n        /* \"#utility.yul\":2323:2356   */\n      tag_67\n      jump\t// in\n    tag_112:\n        /* \"#utility.yul\":2219:2362   */\n      swap3\n      swap2\n      pop\n      pop\n      jump\t// out\n        /* \"#utility.yul\":2368:2719   */\n    tag_39:\n        /* \"#utility.yul\":2438:2444   */\n      0x00\n        /* \"#utility.yul\":2487:2489   */\n      0x20\n        /* \"#utility.yul\":2475:2484   */\n      dup3\n        /* \"#utility.yul\":2466:2473   */\n      dup5\n        /* \"#utility.yul\":2462:2485   */\n      sub\n        /* \"#utility.yul\":2458:2490   */\n      slt\n        /* \"#utility.yul\":2455:2574   */\n      iszero\n      tag_114\n      jumpi\n        /* \"#utility.yul\":2493:2572   */\n      tag_115\n      tag_61\n      jump\t// in\n    tag_115:\n        /* \"#utility.yul\":2455:2574   */\n    tag_114:\n        /* \"#utility.yul\":2613:2614   */\n      0x00\n        /* \"#utility.yul\":2638:2702   */\n      tag_116\n        /* \"#utility.yul\":2694:2701   */\n      dup5\n        /* \"#utility.yul\":2685:2691   */\n      dup3\n        /* \"#utility.yul\":2674:2683   */\n      dup6\n        /* \"#utility.yul\":2670:2692   */\n      add\n        /* \"#utility.yul\":2638:2702   */\n      tag_69\n      jump\t// in\n    tag_116:\n        /* \"#utility.yul\":2628:2702   */\n      swap2\n      pop\n        /* \"#utility.yul\":2584:2712   */\n      pop\n        /* \"#utility.yul\":2368:2719   */\n      swap3\n      swap2\n      pop\n      pop\n      jump\t// out\n        /* \"#utility.yul\":2725:2905   */\n    tag_70:\n        /* \"#utility.yul\":2773:2850   */\n      0x4e487b7100000000000000000000000000000000000000000000000000000000\n        /* \"#utility.yul\":2770:2771   */\n      0x00\n        /* \"#utility.yul\":2763:2851   */\n      mstore\n        /* \"#utility.yul\":2870:2874   */\n      0x11\n        /* \"#utility.yul\":2867:2868   */\n      0x04\n        /* \"#utility.yul\":2860:2875   */\n      mstore\n        /* \"#utility.yul\":2894:2898   */\n      0x24\n        /* \"#utility.yul\":2891:2892   */\n      0x00\n        /* \"#utility.yul\":2884:2899   */\n      revert\n        /* \"#utility.yul\":2911:3321   */\n    tag_43:\n        /* \"#utility.yul\":2951:2958   */\n      0x00\n        /* \"#utility.yul\":2974:2994   */\n      tag_119\n        /* \"#utility.yul\":2992:2993   */\n      dup3\n        /* \"#utility.yul\":2974:2994   */\n      tag_58\n      jump\t// in\n    tag_119:\n        /* \"#utility.yul\":2969:2994   */\n      swap2\n      pop\n        /* \"#utility.yul\":3008:3028   */\n      tag_120\n        /* \"#utility.yul\":3026:3027   */\n      dup4\n        /* \"#utility.yul\":3008:3028   */\n      tag_58\n      jump\t// in\n    tag_120:\n        /* \"#utility.yul\":3003:3028   */\n      swap3\n      pop\n        /* \"#utility.yul\":3063:3064   */\n      dup3\n        /* \"#utility.yul\":3060:3061   */\n      dup3\n        /* \"#utility.yul\":3056:3065   */\n      mul\n        /* \"#utility.yul\":3085:3115   */\n      tag_121\n        /* \"#utility.yul\":3103:3114   */\n      dup2\n        /* \"#utility.yul\":3085:3115   */\n      tag_58\n      jump\t// in\n    tag_121:\n        /* \"#utility.yul\":3074:3115   */\n      swap2\n      pop\n        /* \"#utility.yul\":3264:3265   */\n      dup3\n        /* \"#utility.yul\":3255:3262   */\n      dup3\n        /* \"#utility.yul\":3251:3266   */\n      div\n        /* \"#utility.yul\":3248:3249   */\n      dup5\n        /* \"#utility.yul\":3245:3267   */\n      eq\n        /* \"#utility.yul\":3225:3226   */\n      dup4\n        /* \"#utility.yul\":3218:3227   */\n      iszero\n        /* \"#utility.yul\":3198:3281   */\n      or\n        /* \"#utility.yul\":3175:3314   */\n      tag_122\n      jumpi\n        /* \"#utility.yul\":3294:3312   */\n      tag_123\n      tag_70\n      jump\t// in\n    tag_123:\n        /* \"#utility.yul\":3175:3314   */\n    tag_122:\n        /* \"#utility.yul\":2959:3321   */\n      pop\n        /* \"#utility.yul\":2911:3321   */\n      swap3\n      swap2\n      pop\n      pop\n      jump\t// out\n        /* \"#utility.yul\":3327:3507   */\n    tag_71:\n        /* \"#utility.yul\":3375:3452   */\n      0x4e487b7100000000000000000000000000000000000000000000000000000000\n        /* \"#utility.yul\":3372:3373   */\n      0x00\n        /* \"#utility.yul\":3365:3453   */\n      mstore\n        /* \"#utility.yul\":3472:3476   */\n      0x12\n        /* \"#utility.yul\":3469:3470   */\n      0x04\n        /* \"#utility.yul\":3462:3477   */\n      mstore\n        /* \"#utility.yul\":3496:3500   */\n      0x24\n        /* \"#utility.yul\":3493:3494   */\n      0x00\n        /* \"#utility.yul\":3486:3501   */\n      revert\n        /* \"#utility.yul\":3513:3698   */\n    tag_45:\n        /* \"#utility.yul\":3553:3554   */\n      0x00\n        /* \"#utility.yul\":3570:3590   */\n      tag_126\n        /* \"#utility.yul\":3588:3589   */\n      dup3\n        /* \"#utility.yul\":3570:3590   */\n      tag_58\n      jump\t// in\n    tag_126:\n        /* \"#utility.yul\":3565:3590   */\n      swap2\n      pop\n        /* \"#utility.yul\":3604:3624   */\n      tag_127\n        /* \"#utility.yul\":3622:3623   */\n      dup4\n        /* \"#utility.yul\":3604:3624   */\n      tag_58\n      jump\t// in\n    tag_127:\n        /* \"#utility.yul\":3599:3624   */\n      swap3\n      pop\n        /* \"#utility.yul\":3643:3644   */\n      dup3\n        /* \"#utility.yul\":3633:3668   */\n      tag_128\n      jumpi\n        /* \"#utility.yul\":3648:3666   */\n      tag_129\n      tag_71\n      jump\t// in\n    tag_129:\n        /* \"#utility.yul\":3633:3668   */\n    tag_128:\n        /* \"#utility.yul\":3690:3691   */\n      dup3\n        /* \"#utility.yul\":3687:3688   */\n      dup3\n        /* \"#utility.yul\":3683:3692   */\n      div\n        /* \"#utility.yul\":3678:3692   */\n      swap1\n      pop\n        /* \"#utility.yul\":3513:3698   */\n      swap3\n      swap2\n      pop\n      pop\n      jump\t// out\n        /* \"#utility.yul\":3704:3809   */\n    tag_72:\n        /* \"#utility.yul\":3740:3747   */\n      0x00\n        /* \"#utility.yul\":3780:3802   */\n      0xffffffffffffffffffff\n        /* \"#utility.yul\":3773:3778   */\n      dup3\n        /* \"#utility.yul\":3769:3803   */\n      and\n        /* \"#utility.yul\":3758:3803   */\n      swap1\n      pop\n        /* \"#utility.yul\":3704:3809   */\n      swap2\n      swap1\n      pop\n      jump\t// out\n        /* \"#utility.yul\":3815:3935   */\n    tag_73:\n        /* \"#utility.yul\":3887:3910   */\n      tag_132\n        /* \"#utility.yul\":3904:3909   */\n      dup2\n        /* \"#utility.yul\":3887:3910   */\n      tag_72\n      jump\t// in\n    tag_132:\n        /* \"#utility.yul\":3880:3885   */\n      dup2\n        /* \"#utility.yul\":3877:3911   */\n      eq\n        /* \"#utility.yul\":3867:3929   */\n      tag_133\n      jumpi\n        /* \"#utility.yul\":3925:3926   */\n      0x00\n        /* \"#utility.yul\":3922:3923   */\n      dup1\n        /* \"#utility.yul\":3915:3927   */\n      revert\n        /* \"#utility.yul\":3867:3929   */\n    tag_133:\n        /* \"#utility.yul\":3815:3935   */\n      pop\n      jump\t// out\n        /* \"#utility.yul\":3941:4082   */\n    tag_74:\n        /* \"#utility.yul\":3997:4002   */\n      0x00\n        /* \"#utility.yul\":4028:4034   */\n      dup2\n        /* \"#utility.yul\":4022:4035   */\n      mload\n        /* \"#utility.yul\":4013:4035   */\n      swap1\n      pop\n        /* \"#utility.yul\":4044:4076   */\n      tag_135\n        /* \"#utility.yul\":4070:4075   */\n      dup2\n        /* \"#utility.yul\":4044:4076   */\n      tag_73\n      jump\t// in\n    tag_135:\n        /* \"#utility.yul\":3941:4082   */\n      swap3\n      swap2\n      pop\n      pop\n      jump\t// out\n        /* \"#utility.yul\":4088:4164   */\n    tag_75:\n        /* \"#utility.yul\":4124:4131   */\n      0x00\n        /* \"#utility.yul\":4153:4158   */\n      dup2\n        /* \"#utility.yul\":4142:4158   */\n      swap1\n      pop\n        /* \"#utility.yul\":4088:4164   */\n      swap2\n      swap1\n      pop\n      jump\t// out\n        /* \"#utility.yul\":4170:4290   */\n    tag_76:\n        /* \"#utility.yul\":4242:4265   */\n      tag_138\n        /* \"#utility.yul\":4259:4264   */\n      dup2\n        /* \"#utility.yul\":4242:4265   */\n      tag_75\n      jump\t// in\n    tag_138:\n        /* \"#utility.yul\":4235:4240   */\n      dup2\n        /* \"#utility.yul\":4232:4266   */\n      eq\n        /* \"#utility.yul\":4222:4284   */\n      tag_139\n      jumpi\n        /* \"#utility.yul\":4280:4281   */\n      0x00\n        /* \"#utility.yul\":4277:4278   */\n      dup1\n        /* \"#utility.yul\":4270:4282   */\n      revert\n        /* \"#utility.yul\":4222:4284   */\n    tag_139:\n        /* \"#utility.yul\":4170:4290   */\n      pop\n      jump\t// out\n        /* \"#utility.yul\":4296:4437   */\n    tag_77:\n        /* \"#utility.yul\":4352:4357   */\n      0x00\n        /* \"#utility.yul\":4383:4389   */\n      dup2\n        /* \"#utility.yul\":4377:4390   */\n      mload\n        /* \"#utility.yul\":4368:4390   */\n      swap1\n      pop\n        /* \"#utility.yul\":4399:4431   */\n      tag_141\n        /* \"#utility.yul\":4425:4430   */\n      dup2\n        /* \"#utility.yul\":4399:4431   */\n      tag_76\n      jump\t// in\n    tag_141:\n        /* \"#utility.yul\":4296:4437   */\n      swap3\n      swap2\n      pop\n      pop\n      jump\t// out\n        /* \"#utility.yul\":4443:5414   */\n    tag_50:\n        /* \"#utility.yul\":4546:4552   */\n      0x00\n        /* \"#utility.yul\":4554:4560   */\n      dup1\n        /* \"#utility.yul\":4562:4568   */\n      0x00\n        /* \"#utility.yul\":4570:4576   */\n      dup1\n        /* \"#utility.yul\":4578:4584   */\n      0x00\n        /* \"#utility.yul\":4627:4630   */\n      0xa0\n        /* \"#utility.yul\":4615:4624   */\n      dup7\n        /* \"#utility.yul\":4606:4613   */\n      dup9\n        /* \"#utility.yul\":4602:4625   */\n      sub\n        /* \"#utility.yul\":4598:4631   */\n      slt\n        /* \"#utility.yul\":4595:4715   */\n      iszero\n      tag_143\n      jumpi\n        /* \"#utility.yul\":4634:4713   */\n      tag_144\n      tag_61\n      jump\t// in\n    tag_144:\n        /* \"#utility.yul\":4595:4715   */\n    tag_143:\n        /* \"#utility.yul\":4754:4755   */\n      0x00\n        /* \"#utility.yul\":4779:4842   */\n      tag_145\n        /* \"#utility.yul\":4834:4841   */\n      dup9\n        /* \"#utility.yul\":4825:4831   */\n      dup3\n        /* \"#utility.yul\":4814:4823   */\n      dup10\n        /* \"#utility.yul\":4810:4832   */\n      add\n        /* \"#utility.yul\":4779:4842   */\n      tag_74\n      jump\t// in\n    tag_145:\n        /* \"#utility.yul\":4769:4842   */\n      swap6\n      pop\n        /* \"#utility.yul\":4725:4852   */\n      pop\n        /* \"#utility.yul\":4891:4893   */\n      0x20\n        /* \"#utility.yul\":4917:4980   */\n      tag_146\n        /* \"#utility.yul\":4972:4979   */\n      dup9\n        /* \"#utility.yul\":4963:4969   */\n      dup3\n        /* \"#utility.yul\":4952:4961   */\n      dup10\n        /* \"#utility.yul\":4948:4970   */\n      add\n        /* \"#utility.yul\":4917:4980   */\n      tag_77\n      jump\t// in\n    tag_146:\n        /* \"#utility.yul\":4907:4980   */\n      swap5\n      pop\n        /* \"#utility.yul\":4862:4990   */\n      pop\n        /* \"#utility.yul\":5029:5031   */\n      0x40\n        /* \"#utility.yul\":5055:5119   */\n      tag_147\n        /* \"#utility.yul\":5111:5118   */\n      dup9\n        /* \"#utility.yul\":5102:5108   */\n      dup3\n        /* \"#utility.yul\":5091:5100   */\n      dup10\n        /* \"#utility.yul\":5087:5109   */\n      add\n        /* \"#utility.yul\":5055:5119   */\n      tag_69\n      jump\t// in\n    tag_147:\n        /* \"#utility.yul\":5045:5119   */\n      swap4\n      pop\n        /* \"#utility.yul\":5000:5129   */\n      pop\n        /* \"#utility.yul\":5168:5170   */\n      0x60\n        /* \"#utility.yul\":5194:5258   */\n      tag_148\n        /* \"#utility.yul\":5250:5257   */\n      dup9\n        /* \"#utility.yul\":5241:5247   */\n      dup3\n        /* \"#utility.yul\":5230:5239   */\n      dup10\n        /* \"#utility.yul\":5226:5248   */\n      add\n        /* \"#utility.yul\":5194:5258   */\n      tag_69\n      jump\t// in\n    tag_148:\n        /* \"#utility.yul\":5184:5258   */\n      swap3\n      pop\n        /* \"#utility.yul\":5139:5268   */\n      pop\n        /* \"#utility.yul\":5307:5310   */\n      0x80\n        /* \"#utility.yul\":5334:5397   */\n      tag_149\n        /* \"#utility.yul\":5389:5396   */\n      dup9\n        /* \"#utility.yul\":5380:5386   */\n      dup3\n        /* \"#utility.yul\":5369:5378   */\n      dup10\n        /* \"#utility.yul\":5365:5387   */\n      add\n        /* \"#utility.yul\":5334:5397   */\n      tag_74\n      jump\t// in\n    tag_149:\n        /* \"#utility.yul\":5324:5397   */\n      swap2\n      pop\n        /* \"#utility.yul\":5278:5407   */\n      pop\n        /* \"#utility.yul\":4443:5414   */\n      swap3\n      swap6\n      pop\n      swap3\n      swap6\n      swap1\n      swap4\n      pop\n      jump\t// out\n        /* \"#utility.yul\":5420:5976   */\n    tag_52:\n        /* \"#utility.yul\":5459:5466   */\n      0x00\n        /* \"#utility.yul\":5482:5501   */\n      tag_151\n        /* \"#utility.yul\":5499:5500   */\n      dup3\n        /* \"#utility.yul\":5482:5501   */\n      tag_75\n      jump\t// in\n    tag_151:\n        /* \"#utility.yul\":5477:5501   */\n      swap2\n      pop\n        /* \"#utility.yul\":5515:5534   */\n      tag_152\n        /* \"#utility.yul\":5532:5533   */\n      dup4\n        /* \"#utility.yul\":5515:5534   */\n      tag_75\n      jump\t// in\n    tag_152:\n        /* \"#utility.yul\":5510:5534   */\n      swap3\n      pop\n        /* \"#utility.yul\":5569:5570   */\n      dup3\n        /* \"#utility.yul\":5566:5567   */\n      dup3\n        /* \"#utility.yul\":5562:5571   */\n      mul\n        /* \"#utility.yul\":5591:5620   */\n      tag_153\n        /* \"#utility.yul\":5608:5619   */\n      dup2\n        /* \"#utility.yul\":5591:5620   */\n      tag_75\n      jump\t// in\n    tag_153:\n        /* \"#utility.yul\":5580:5620   */\n      swap2\n      pop\n        /* \"#utility.yul\":5678:5744   */\n      0x8000000000000000000000000000000000000000000000000000000000000000\n        /* \"#utility.yul\":5675:5676   */\n      dup5\n        /* \"#utility.yul\":5672:5745   */\n      eq\n        /* \"#utility.yul\":5668:5669   */\n      0x00\n        /* \"#utility.yul\":5665:5666   */\n      dup5\n        /* \"#utility.yul\":5661:5670   */\n      slt\n        /* \"#utility.yul\":5657:5746   */\n      and\n        /* \"#utility.yul\":5654:5769   */\n      iszero\n      tag_154\n      jumpi\n        /* \"#utility.yul\":5749:5767   */\n      tag_155\n      tag_70\n      jump\t// in\n    tag_155:\n        /* \"#utility.yul\":5654:5769   */\n    tag_154:\n        /* \"#utility.yul\":5919:5920   */\n      dup3\n        /* \"#utility.yul\":5910:5917   */\n      dup3\n        /* \"#utility.yul\":5905:5921   */\n      sdiv\n        /* \"#utility.yul\":5902:5903   */\n      dup5\n        /* \"#utility.yul\":5899:5922   */\n      eq\n        /* \"#utility.yul\":5879:5880   */\n      dup4\n        /* \"#utility.yul\":5872:5881   */\n      iszero\n        /* \"#utility.yul\":5852:5936   */\n      or\n        /* \"#utility.yul\":5829:5969   */\n      tag_156\n      jumpi\n        /* \"#utility.yul\":5949:5967   */\n      tag_157\n      tag_70\n      jump\t// in\n    tag_157:\n        /* \"#utility.yul\":5829:5969   */\n    tag_156:\n        /* \"#utility.yul\":5467:5976   */\n      pop\n        /* \"#utility.yul\":5420:5976   */\n      swap3\n      swap2\n      pop\n      pop\n      jump\t// out\n        /* \"#utility.yul\":5982:6151   */\n    tag_78:\n        /* \"#utility.yul\":6066:6077   */\n      0x00\n        /* \"#utility.yul\":6100:6106   */\n      dup3\n        /* \"#utility.yul\":6095:6098   */\n      dup3\n        /* \"#utility.yul\":6088:6107   */\n      mstore\n        /* \"#utility.yul\":6140:6144   */\n      0x20\n        /* \"#utility.yul\":6135:6138   */\n      dup3\n        /* \"#utility.yul\":6131:6145   */\n      add\n        /* \"#utility.yul\":6116:6145   */\n      swap1\n      pop\n        /* \"#utility.yul\":5982:6151   */\n      swap3\n      swap2\n      pop\n      pop\n      jump\t// out\n        /* \"#utility.yul\":6157:6325   */\n    tag_79:\n        /* \"#utility.yul\":6297:6317   */\n      0x53616c646f20696e737566696369656e74650000000000000000000000000000\n        /* \"#utility.yul\":6293:6294   */\n      0x00\n        /* \"#utility.yul\":6285:6291   */\n      dup3\n        /* \"#utility.yul\":6281:6295   */\n      add\n        /* \"#utility.yul\":6274:6318   */\n      mstore\n        /* \"#utility.yul\":6157:6325   */\n      pop\n      jump\t// out\n        /* \"#utility.yul\":6331:6697   */\n    tag_80:\n        /* \"#utility.yul\":6473:6476   */\n      0x00\n        /* \"#utility.yul\":6494:6561   */\n      tag_161\n        /* \"#utility.yul\":6558:6560   */\n      0x12\n        /* \"#utility.yul\":6553:6556   */\n      dup4\n        /* \"#utility.yul\":6494:6561   */\n      tag_78\n      jump\t// in\n    tag_161:\n        /* \"#utility.yul\":6487:6561   */\n      swap2\n      pop\n        /* \"#utility.yul\":6570:6663   */\n      tag_162\n        /* \"#utility.yul\":6659:6662   */\n      dup3\n        /* \"#utility.yul\":6570:6663   */\n      tag_79\n      jump\t// in\n    tag_162:\n        /* \"#utility.yul\":6688:6690   */\n      0x20\n        /* \"#utility.yul\":6683:6686   */\n      dup3\n        /* \"#utility.yul\":6679:6691   */\n      add\n        /* \"#utility.yul\":6672:6691   */\n      swap1\n      pop\n        /* \"#utility.yul\":6331:6697   */\n      swap2\n      swap1\n      pop\n      jump\t// out\n        /* \"#utility.yul\":6703:7122   */\n    tag_57:\n        /* \"#utility.yul\":6869:6873   */\n      0x00\n        /* \"#utility.yul\":6907:6909   */\n      0x20\n        /* \"#utility.yul\":6896:6905   */\n      dup3\n        /* \"#utility.yul\":6892:6910   */\n      add\n        /* \"#utility.yul\":6884:6910   */\n      swap1\n      pop\n        /* \"#utility.yul\":6956:6965   */\n      dup2\n        /* \"#utility.yul\":6950:6954   */\n      dup2\n        /* \"#utility.yul\":6946:6966   */\n      sub\n        /* \"#utility.yul\":6942:6943   */\n      0x00\n        /* \"#utility.yul\":6931:6940   */\n      dup4\n        /* \"#utility.yul\":6927:6944   */\n      add\n        /* \"#utility.yul\":6920:6967   */\n      mstore\n        /* \"#utility.yul\":6984:7115   */\n      tag_164\n        /* \"#utility.yul\":7110:7114   */\n      dup2\n        /* \"#utility.yul\":6984:7115   */\n      tag_80\n      jump\t// in\n    tag_164:\n        /* \"#utility.yul\":6976:7115   */\n      swap1\n      pop\n        /* \"#utility.yul\":6703:7122   */\n      swap2\n      swap1\n      pop\n      jump\t// out\n\n    auxdata: 0xa26469706673582212208acd20fb3ea95999b95b7ef4dc244e3cc3788ab8f6e31f1509a70dcce162934a64736f6c63430008110033\n}\n",
				"bytecode": {
					"linkReferences": {},
					"object": "60806040526802b5e3af16b188000060005534801561001d57600080fd5b5061078c8061002d6000396000f3fe6080604052600436106100555760003560e01c80630d8e6e2c1461005a5780633e47d6f3146100855780636e5b6b28146100c257806398d5fdca146100ff578063b60d42881461012a578063e5e18b1a14610134575b600080fd5b34801561006657600080fd5b5061006f61015f565b60405161007c9190610357565b60405180910390f35b34801561009157600080fd5b506100ac60048036038101906100a791906103d5565b6101ee565b6040516100b99190610357565b60405180910390f35b3480156100ce57600080fd5b506100e960048036038101906100e4919061042e565b610206565b6040516100f69190610357565b60405180910390f35b34801561010b57600080fd5b50610114610240565b6040516101219190610357565b60405180910390f35b6101326102e9565b005b34801561014057600080fd5b50610149610338565b6040516101569190610357565b60405180910390f35b60008073d4a33860578de61dbabdc8bfdb98fd742fa7028e90508073ffffffffffffffffffffffffffffffffffffffff166354fd4d506040518163ffffffff1660e01b8152600401602060405180830381865afa1580156101c4573d6000803e3d6000fd5b505050506040513d601f19601f820116820180604052508101906101e89190610470565b91505090565b60016020528060005260406000206000915090505481565b600080610211610240565b90506000670de0b6b3a7640000848361022a91906104cc565b610234919061053d565b90508092505050919050565b60008073d4a33860578de61dbabdc8bfdb98fd742fa7028e905060008173ffffffffffffffffffffffffffffffffffffffff1663feaf968c6040518163ffffffff1660e01b815260040160a060405180830381865afa1580156102a7573d6000803e3d6000fd5b505050506040513d601f19601f820116820180604052508101906102cb91906105e6565b5050509150506402540be400816102e29190610661565b9250505090565b6000546102f534610206565b1015610336576040517f08c379a000000000000000000000000000000000000000000000000000000000815260040161032d90610736565b60405180910390fd5b565b60005481565b6000819050919050565b6103518161033e565b82525050565b600060208201905061036c6000830184610348565b92915050565b600080fd5b600073ffffffffffffffffffffffffffffffffffffffff82169050919050565b60006103a282610377565b9050919050565b6103b281610397565b81146103bd57600080fd5b50565b6000813590506103cf816103a9565b92915050565b6000602082840312156103eb576103ea610372565b5b60006103f9848285016103c0565b91505092915050565b61040b8161033e565b811461041657600080fd5b50565b60008135905061042881610402565b92915050565b60006020828403121561044457610443610372565b5b600061045284828501610419565b91505092915050565b60008151905061046a81610402565b92915050565b60006020828403121561048657610485610372565b5b60006104948482850161045b565b91505092915050565b7f4e487b7100000000000000000000000000000000000000000000000000000000600052601160045260246000fd5b60006104d78261033e565b91506104e28361033e565b92508282026104f08161033e565b915082820484148315176105075761050661049d565b5b5092915050565b7f4e487b7100000000000000000000000000000000000000000000000000000000600052601260045260246000fd5b60006105488261033e565b91506105538361033e565b9250826105635761056261050e565b5b828204905092915050565b600069ffffffffffffffffffff82169050919050565b61058d8161056e565b811461059857600080fd5b50565b6000815190506105aa81610584565b92915050565b6000819050919050565b6105c3816105b0565b81146105ce57600080fd5b50565b6000815190506105e0816105ba565b92915050565b600080600080600060a0868803121561060257610601610372565b5b60006106108882890161059b565b9550506020610621888289016105d1565b94505060406106328882890161045b565b93505060606106438882890161045b565b92505060806106548882890161059b565b9150509295509295909350565b600061066c826105b0565b9150610677836105b0565b9250828202610685816105b0565b91507f800000000000000000000000000000000000000000000000000000000000000084146000841216156106bd576106bc61049d565b5b82820584148315176106d2576106d161049d565b5b5092915050565b600082825260208201905092915050565b7f53616c646f20696e737566696369656e74650000000000000000000000000000600082015250565b60006107206012836106d9565b915061072b826106ea565b602082019050919050565b6000602082019050818103600083015261074f81610713565b905091905056fea26469706673582212208acd20fb3ea95999b95b7ef4dc244e3cc3788ab8f6e31f1509a70dcce162934a64736f6c63430008110033",
					"opcodes": "PUSH1 0x80 PUSH1 0x40 MSTORE PUSH9 0x2B5E3AF16B1880000 PUSH1 0x0 SSTORE CALLVALUE DUP1 ISZERO PUSH2 0x1D JUMPI PUSH1 0x0 DUP1 REVERT JUMPDEST POP PUSH2 0x78C DUP1 PUSH2 0x2D PUSH1 0x0 CODECOPY PUSH1 0x0 RETURN INVALID PUSH1 0x80 PUSH1 0x40 MSTORE PUSH1 0x4 CALLDATASIZE LT PUSH2 0x55 JUMPI PUSH1 0x0 CALLDATALOAD PUSH1 0xE0 SHR DUP1 PUSH4 0xD8E6E2C EQ PUSH2 0x5A JUMPI DUP1 PUSH4 0x3E47D6F3 EQ PUSH2 0x85 JUMPI DUP1 PUSH4 0x6E5B6B28 EQ PUSH2 0xC2 JUMPI DUP1 PUSH4 0x98D5FDCA EQ PUSH2 0xFF JUMPI DUP1 PUSH4 0xB60D4288 EQ PUSH2 0x12A JUMPI DUP1 PUSH4 0xE5E18B1A EQ PUSH2 0x134 JUMPI JUMPDEST PUSH1 0x0 DUP1 REVERT JUMPDEST CALLVALUE DUP1 ISZERO PUSH2 0x66 JUMPI PUSH1 0x0 DUP1 REVERT JUMPDEST POP PUSH2 0x6F PUSH2 0x15F JUMP JUMPDEST PUSH1 0x40 MLOAD PUSH2 0x7C SWAP2 SWAP1 PUSH2 0x357 JUMP JUMPDEST PUSH1 0x40 MLOAD DUP1 SWAP2 SUB SWAP1 RETURN JUMPDEST CALLVALUE DUP1 ISZERO PUSH2 0x91 JUMPI PUSH1 0x0 DUP1 REVERT JUMPDEST POP PUSH2 0xAC PUSH1 0x4 DUP1 CALLDATASIZE SUB DUP2 ADD SWAP1 PUSH2 0xA7 SWAP2 SWAP1 PUSH2 0x3D5 JUMP JUMPDEST PUSH2 0x1EE JUMP JUMPDEST PUSH1 0x40 MLOAD PUSH2 0xB9 SWAP2 SWAP1 PUSH2 0x357 JUMP JUMPDEST PUSH1 0x40 MLOAD DUP1 SWAP2 SUB SWAP1 RETURN JUMPDEST CALLVALUE DUP1 ISZERO PUSH2 0xCE JUMPI PUSH1 0x0 DUP1 REVERT JUMPDEST POP PUSH2 0xE9 PUSH1 0x4 DUP1 CALLDATASIZE SUB DUP2 ADD SWAP1 PUSH2 0xE4 SWAP2 SWAP1 PUSH2 0x42E JUMP JUMPDEST PUSH2 0x206 JUMP JUMPDEST PUSH1 0x40 MLOAD PUSH2 0xF6 SWAP2 SWAP1 PUSH2 0x357 JUMP JUMPDEST PUSH1 0x40 MLOAD DUP1 SWAP2 SUB SWAP1 RETURN JUMPDEST CALLVALUE DUP1 ISZERO PUSH2 0x10B JUMPI PUSH1 0x0 DUP1 REVERT JUMPDEST POP PUSH2 0x114 PUSH2 0x240 JUMP JUMPDEST PUSH1 0x40 MLOAD PUSH2 0x121 SWAP2 SWAP1 PUSH2 0x357 JUMP JUMPDEST PUSH1 0x40 MLOAD DUP1 SWAP2 SUB SWAP1 RETURN JUMPDEST PUSH2 0x132 PUSH2 0x2E9 JUMP JUMPDEST STOP JUMPDEST CALLVALUE DUP1 ISZERO PUSH2 0x140 JUMPI PUSH1 0x0 DUP1 REVERT JUMPDEST POP PUSH2 0x149 PUSH2 0x338 JUMP JUMPDEST PUSH1 0x40 MLOAD PUSH2 0x156 SWAP2 SWAP1 PUSH2 0x357 JUMP JUMPDEST PUSH1 0x40 MLOAD DUP1 SWAP2 SUB SWAP1 RETURN JUMPDEST PUSH1 0x0 DUP1 PUSH20 0xD4A33860578DE61DBABDC8BFDB98FD742FA7028E SWAP1 POP DUP1 PUSH20 0xFFFFFFFFFFFFFFFFFFFFFFFFFFFFFFFFFFFFFFFF AND PUSH4 0x54FD4D50 PUSH1 0x40 MLOAD DUP2 PUSH4 0xFFFFFFFF AND PUSH1 0xE0 SHL DUP2 MSTORE PUSH1 0x4 ADD PUSH1 0x20 PUSH1 0x40 MLOAD DUP1 DUP4 SUB DUP2 DUP7 GAS STATICCALL ISZERO DUP1 ISZERO PUSH2 0x1C4 JUMPI RETURNDATASIZE PUSH1 0x0 DUP1 RETURNDATACOPY RETURNDATASIZE PUSH1 0x0 REVERT JUMPDEST POP POP POP POP PUSH1 0x40 MLOAD RETURNDATASIZE PUSH1 0x1F NOT PUSH1 0x1F DUP3 ADD AND DUP3 ADD DUP1 PUSH1 0x40 MSTORE POP DUP2 ADD SWAP1 PUSH2 0x1E8 SWAP2 SWAP1 PUSH2 0x470 JUMP JUMPDEST SWAP2 POP POP SWAP1 JUMP JUMPDEST PUSH1 0x1 PUSH1 0x20 MSTORE DUP1 PUSH1 0x0 MSTORE PUSH1 0x40 PUSH1 0x0 KECCAK256 PUSH1 0x0 SWAP2 POP SWAP1 POP SLOAD DUP2 JUMP JUMPDEST PUSH1 0x0 DUP1 PUSH2 0x211 PUSH2 0x240 JUMP JUMPDEST SWAP1 POP PUSH1 0x0 PUSH8 0xDE0B6B3A7640000 DUP5 DUP4 PUSH2 0x22A SWAP2 SWAP1 PUSH2 0x4CC JUMP JUMPDEST PUSH2 0x234 SWAP2 SWAP1 PUSH2 0x53D JUMP JUMPDEST SWAP1 POP DUP1 SWAP3 POP POP POP SWAP2 SWAP1 POP JUMP JUMPDEST PUSH1 0x0 DUP1 PUSH20 0xD4A33860578DE61DBABDC8BFDB98FD742FA7028E SWAP1 POP PUSH1 0x0 DUP2 PUSH20 0xFFFFFFFFFFFFFFFFFFFFFFFFFFFFFFFFFFFFFFFF AND PUSH4 0xFEAF968C PUSH1 0x40 MLOAD DUP2 PUSH4 0xFFFFFFFF AND PUSH1 0xE0 SHL DUP2 MSTORE PUSH1 0x4 ADD PUSH1 0xA0 PUSH1 0x40 MLOAD DUP1 DUP4 SUB DUP2 DUP7 GAS STATICCALL ISZERO DUP1 ISZERO PUSH2 0x2A7 JUMPI RETURNDATASIZE PUSH1 0x0 DUP1 RETURNDATACOPY RETURNDATASIZE PUSH1 0x0 REVERT JUMPDEST POP POP POP POP PUSH1 0x40 MLOAD RETURNDATASIZE PUSH1 0x1F NOT PUSH1 0x1F DUP3 ADD AND DUP3 ADD DUP1 PUSH1 0x40 MSTORE POP DUP2 ADD SWAP1 PUSH2 0x2CB SWAP2 SWAP1 PUSH2 0x5E6 JUMP JUMPDEST POP POP POP SWAP2 POP POP PUSH5 0x2540BE400 DUP2 PUSH2 0x2E2 SWAP2 SWAP1 PUSH2 0x661 JUMP JUMPDEST SWAP3 POP POP POP SWAP1 JUMP JUMPDEST PUSH1 0x0 SLOAD PUSH2 0x2F5 CALLVALUE PUSH2 0x206 JUMP JUMPDEST LT ISZERO PUSH2 0x336 JUMPI PUSH1 0x40 MLOAD PUSH32 0x8C379A000000000000000000000000000000000000000000000000000000000 DUP2 MSTORE PUSH1 0x4 ADD PUSH2 0x32D SWAP1 PUSH2 0x736 JUMP JUMPDEST PUSH1 0x40 MLOAD DUP1 SWAP2 SUB SWAP1 REVERT JUMPDEST JUMP JUMPDEST PUSH1 0x0 SLOAD DUP2 JUMP JUMPDEST PUSH1 0x0 DUP2 SWAP1 POP SWAP2 SWAP1 POP JUMP JUMPDEST PUSH2 0x351 DUP2 PUSH2 0x33E JUMP JUMPDEST DUP3 MSTORE POP POP JUMP JUMPDEST PUSH1 0x0 PUSH1 0x20 DUP3 ADD SWAP1 POP PUSH2 0x36C PUSH1 0x0 DUP4 ADD DUP5 PUSH2 0x348 JUMP JUMPDEST SWAP3 SWAP2 POP POP JUMP JUMPDEST PUSH1 0x0 DUP1 REVERT JUMPDEST PUSH1 0x0 PUSH20 0xFFFFFFFFFFFFFFFFFFFFFFFFFFFFFFFFFFFFFFFF DUP3 AND SWAP1 POP SWAP2 SWAP1 POP JUMP JUMPDEST PUSH1 0x0 PUSH2 0x3A2 DUP3 PUSH2 0x377 JUMP JUMPDEST SWAP1 POP SWAP2 SWAP1 POP JUMP JUMPDEST PUSH2 0x3B2 DUP2 PUSH2 0x397 JUMP JUMPDEST DUP2 EQ PUSH2 0x3BD JUMPI PUSH1 0x0 DUP1 REVERT JUMPDEST POP JUMP JUMPDEST PUSH1 0x0 DUP2 CALLDATALOAD SWAP1 POP PUSH2 0x3CF DUP2 PUSH2 0x3A9 JUMP JUMPDEST SWAP3 SWAP2 POP POP JUMP JUMPDEST PUSH1 0x0 PUSH1 0x20 DUP3 DUP5 SUB SLT ISZERO PUSH2 0x3EB JUMPI PUSH2 0x3EA PUSH2 0x372 JUMP JUMPDEST JUMPDEST PUSH1 0x0 PUSH2 0x3F9 DUP5 DUP3 DUP6 ADD PUSH2 0x3C0 JUMP JUMPDEST SWAP2 POP POP SWAP3 SWAP2 POP POP JUMP JUMPDEST PUSH2 0x40B DUP2 PUSH2 0x33E JUMP JUMPDEST DUP2 EQ PUSH2 0x416 JUMPI PUSH1 0x0 DUP1 REVERT JUMPDEST POP JUMP JUMPDEST PUSH1 0x0 DUP2 CALLDATALOAD SWAP1 POP PUSH2 0x428 DUP2 PUSH2 0x402 JUMP JUMPDEST SWAP3 SWAP2 POP POP JUMP JUMPDEST PUSH1 0x0 PUSH1 0x20 DUP3 DUP5 SUB SLT ISZERO PUSH2 0x444 JUMPI PUSH2 0x443 PUSH2 0x372 JUMP JUMPDEST JUMPDEST PUSH1 0x0 PUSH2 0x452 DUP5 DUP3 DUP6 ADD PUSH2 0x419 JUMP JUMPDEST SWAP2 POP POP SWAP3 SWAP2 POP POP JUMP JUMPDEST PUSH1 0x0 DUP2 MLOAD SWAP1 POP PUSH2 0x46A DUP2 PUSH2 0x402 JUMP JUMPDEST SWAP3 SWAP2 POP POP JUMP JUMPDEST PUSH1 0x0 PUSH1 0x20 DUP3 DUP5 SUB SLT ISZERO PUSH2 0x486 JUMPI PUSH2 0x485 PUSH2 0x372 JUMP JUMPDEST JUMPDEST PUSH1 0x0 PUSH2 0x494 DUP5 DUP3 DUP6 ADD PUSH2 0x45B JUMP JUMPDEST SWAP2 POP POP SWAP3 SWAP2 POP POP JUMP JUMPDEST PUSH32 0x4E487B7100000000000000000000000000000000000000000000000000000000 PUSH1 0x0 MSTORE PUSH1 0x11 PUSH1 0x4 MSTORE PUSH1 0x24 PUSH1 0x0 REVERT JUMPDEST PUSH1 0x0 PUSH2 0x4D7 DUP3 PUSH2 0x33E JUMP JUMPDEST SWAP2 POP PUSH2 0x4E2 DUP4 PUSH2 0x33E JUMP JUMPDEST SWAP3 POP DUP3 DUP3 MUL PUSH2 0x4F0 DUP2 PUSH2 0x33E JUMP JUMPDEST SWAP2 POP DUP3 DUP3 DIV DUP5 EQ DUP4 ISZERO OR PUSH2 0x507 JUMPI PUSH2 0x506 PUSH2 0x49D JUMP JUMPDEST JUMPDEST POP SWAP3 SWAP2 POP POP JUMP JUMPDEST PUSH32 0x4E487B7100000000000000000000000000000000000000000000000000000000 PUSH1 0x0 MSTORE PUSH1 0x12 PUSH1 0x4 MSTORE PUSH1 0x24 PUSH1 0x0 REVERT JUMPDEST PUSH1 0x0 PUSH2 0x548 DUP3 PUSH2 0x33E JUMP JUMPDEST SWAP2 POP PUSH2 0x553 DUP4 PUSH2 0x33E JUMP JUMPDEST SWAP3 POP DUP3 PUSH2 0x563 JUMPI PUSH2 0x562 PUSH2 0x50E JUMP JUMPDEST JUMPDEST DUP3 DUP3 DIV SWAP1 POP SWAP3 SWAP2 POP POP JUMP JUMPDEST PUSH1 0x0 PUSH10 0xFFFFFFFFFFFFFFFFFFFF DUP3 AND SWAP1 POP SWAP2 SWAP1 POP JUMP JUMPDEST PUSH2 0x58D DUP2 PUSH2 0x56E JUMP JUMPDEST DUP2 EQ PUSH2 0x598 JUMPI PUSH1 0x0 DUP1 REVERT JUMPDEST POP JUMP JUMPDEST PUSH1 0x0 DUP2 MLOAD SWAP1 POP PUSH2 0x5AA DUP2 PUSH2 0x584 JUMP JUMPDEST SWAP3 SWAP2 POP POP JUMP JUMPDEST PUSH1 0x0 DUP2 SWAP1 POP SWAP2 SWAP1 POP JUMP JUMPDEST PUSH2 0x5C3 DUP2 PUSH2 0x5B0 JUMP JUMPDEST DUP2 EQ PUSH2 0x5CE JUMPI PUSH1 0x0 DUP1 REVERT JUMPDEST POP JUMP JUMPDEST PUSH1 0x0 DUP2 MLOAD SWAP1 POP PUSH2 0x5E0 DUP2 PUSH2 0x5BA JUMP JUMPDEST SWAP3 SWAP2 POP POP JUMP JUMPDEST PUSH1 0x0 DUP1 PUSH1 0x0 DUP1 PUSH1 0x0 PUSH1 0xA0 DUP7 DUP9 SUB SLT ISZERO PUSH2 0x602 JUMPI PUSH2 0x601 PUSH2 0x372 JUMP JUMPDEST JUMPDEST PUSH1 0x0 PUSH2 0x610 DUP9 DUP3 DUP10 ADD PUSH2 0x59B JUMP JUMPDEST SWAP6 POP POP PUSH1 0x20 PUSH2 0x621 DUP9 DUP3 DUP10 ADD PUSH2 0x5D1 JUMP JUMPDEST SWAP5 POP POP PUSH1 0x40 PUSH2 0x632 DUP9 DUP3 DUP10 ADD PUSH2 0x45B JUMP JUMPDEST SWAP4 POP POP PUSH1 0x60 PUSH2 0x643 DUP9 DUP3 DUP10 ADD PUSH2 0x45B JUMP JUMPDEST SWAP3 POP POP PUSH1 0x80 PUSH2 0x654 DUP9 DUP3 DUP10 ADD PUSH2 0x59B JUMP JUMPDEST SWAP2 POP POP SWAP3 SWAP6 POP SWAP3 SWAP6 SWAP1 SWAP4 POP JUMP JUMPDEST PUSH1 0x0 PUSH2 0x66C DUP3 PUSH2 0x5B0 JUMP JUMPDEST SWAP2 POP PUSH2 0x677 DUP4 PUSH2 0x5B0 JUMP JUMPDEST SWAP3 POP DUP3 DUP3 MUL PUSH2 0x685 DUP2 PUSH2 0x5B0 JUMP JUMPDEST SWAP2 POP PUSH32 0x8000000000000000000000000000000000000000000000000000000000000000 DUP5 EQ PUSH1 0x0 DUP5 SLT AND ISZERO PUSH2 0x6BD JUMPI PUSH2 0x6BC PUSH2 0x49D JUMP JUMPDEST JUMPDEST DUP3 DUP3 SDIV DUP5 EQ DUP4 ISZERO OR PUSH2 0x6D2 JUMPI PUSH2 0x6D1 PUSH2 0x49D JUMP JUMPDEST JUMPDEST POP SWAP3 SWAP2 POP POP JUMP JUMPDEST PUSH1 0x0 DUP3 DUP3 MSTORE PUSH1 0x20 DUP3 ADD SWAP1 POP SWAP3 SWAP2 POP POP JUMP JUMPDEST PUSH32 0x53616C646F20696E737566696369656E74650000000000000000000000000000 PUSH1 0x0 DUP3 ADD MSTORE POP JUMP JUMPDEST PUSH1 0x0 PUSH2 0x720 PUSH1 0x12 DUP4 PUSH2 0x6D9 JUMP JUMPDEST SWAP2 POP PUSH2 0x72B DUP3 PUSH2 0x6EA JUMP JUMPDEST PUSH1 0x20 DUP3 ADD SWAP1 POP SWAP2 SWAP1 POP JUMP JUMPDEST PUSH1 0x0 PUSH1 0x20 DUP3 ADD SWAP1 POP DUP2 DUP2 SUB PUSH1 0x0 DUP4 ADD MSTORE PUSH2 0x74F DUP2 PUSH2 0x713 JUMP JUMPDEST SWAP1 POP SWAP2 SWAP1 POP JUMP INVALID LOG2 PUSH5 0x6970667358 0x22 SLT KECCAK256 DUP11 0xCD KECCAK256 0xFB RETURNDATACOPY 0xA9 MSIZE SWAP10 0xB9 JUMPDEST PUSH31 0xF4DC244E3CC3788AB8F6E31F1509A70DCCE162934A64736F6C634300081100 CALLER "
				},
				"gasEstimates": {
					"creation": {
						"codeDepositCost": "386400",
						"executionCost": "22530",
						"totalCost": "408930"
					},
					"external": {
						"addressToAmountFunded(address)": "2814",
						"fund()": "infinite",
						"getConversionRate(uint256)": "infinite",
						"getPrice()": "infinite",
						"getVersion()": "infinite",
						"minimunUsd()": "2517"
					}
				},
				"methodIdentifiers": {
					"addressToAmountFunded(address)": "3e47d6f3",
					"fund()": "b60d4288",
					"getConversionRate(uint256)": "6e5b6b28",
					"getPrice()": "98d5fdca",
					"getVersion()": "0d8e6e2c",
					"minimunUsd()": "e5e18b1a"
				}
			},
			"storageLayout": {
				"storage": [
					{
						"astId": 53,
						"contract": "contracts/FundMe.sol:Fundme",
						"label": "minimunUsd",
						"offset": 0,
						"slot": "0",
						"type": "t_uint256"
					},
					{
						"astId": 57,
						"contract": "contracts/FundMe.sol:Fundme",
						"label": "addressToAmountFunded",
						"offset": 0,
						"slot": "1",
						"type": "t_mapping(t_address,t_uint256)"
					}
				],
				"types": {
					"t_address": {
						"encoding": "inplace",
						"label": "address",
						"numberOfBytes": "20"
					},
					"t_mapping(t_address,t_uint256)": {
						"encoding": "mapping",
						"key": "t_address",
						"label": "mapping(address => uint256)",
						"numberOfBytes": "32",
						"value": "t_uint256"
					},
					"t_uint256": {
						"encoding": "inplace",
						"label": "uint256",
						"numberOfBytes": "32"
					}
				}
			},
			"userdoc": {
				"kind": "user",
				"methods": {},
				"version": 1
			}
		}
	}
}